:020000040800F2
:10000000A806002035040008890400083F04000801
:10001000990400089D040008A104000800000000E5
:10002000000000000000000000000000A50400081F
:10003000A7040008000000005D0400085F04000839
:1000400061040008610400086104000861040008FC
:1000500061040008610400086104000861040008EC
:1000600061040008610400086104000861040008DC
:1000700061040008610400086104000861040008CC
:1000800061040008610400086104000861040008BC
:1000900061040008610400086104000861040008AC
:1000A000610400086104000861040008610400089C
:1000B000610400086104000861040008610400088C
:1000C000610400086104000861040008610400087C
:1000D000610400086104000861040008610400086C
:1000E000610400086104000861040008610400085C
:1000F000610400086104000861040008610400084C
:10010000610400086104000861040008610400083B
:10011000610400086104000861040008610400082B
:10012000610400086104000861040008610400081B
:10013000610400086104000861040008610400080B
:1001400061040008610400086104000861040008FB
:1001500061040008610400086104000861040008EB
:1001600061040008610400086104000861040008DB
:1001700061040008610400086104000861040008CB
:10018000610400086104000800F002F800F03CF887
:100190000AA090E8000C82448344AAF10107DA45E2
:1001A00001D100F031F8AFF2090EBAE80F0013F0F8
:1001B000010F18BFFB1A43F0010318476CBC000085
:1001C0008CBC0000103A24BF78C878C1FAD8520716
:1001D00024BF30C830C144BF04680C6070470000C1
:1001E0000023002400250026103A28BF78C1FBD840
:1001F000520728BF30C148BF0B6070471FB503F0DE
:10020000DEFB1FBD10B510BD03F0A3FB1146FFF7C9
:10021000F5FF00F049F903F0C1FB03B4FFF7F2FF6B
:1002200003BC03F0C5FB00000CB50020019000905A
:100230007548006840F480307349086000BF724818
:10024000006800F4003000900198401C0190009874
:1002500018B90198B0F5A04FF1D16B48006810F4BF
:10026000003F02D00120009001E0002000900098A3
:10027000012845D164484030006840F08050624910
:10028000403108606148006840F440405F490860C0
:100290005D48083000685C4908310860084600681D
:1002A00040F4004008600846006840F4A050086030
:1002B0005748091F0860081F006840F08070091F38
:1002C000086000BF5048006810F0007FFAD040F28C
:1002D0000570504908604C480830006820F0030061
:1002E0004949083108600846006840F0020008608B
:1002F00000BF45480830006800F00C000828F8D11D
:100300000CBD10B54448006840F4700042490860D4
:100310003D48006840F001003B49086000203A4930
:1003200008310860384800683C4908403649086090
:100330003B48091D0860081F006820F48020091F41
:100340000860002030490C310860FFF76DFF4FF066
:10035000006031498039086010BD70B5002000226E
:10036000022300240221284D08352D6805F00C00D9
:1003700020B1042806D0082834D107E0294D2A4EA0
:10038000356033E0294D284E35602FE01E4D2D1D80
:100390002D68C5F380541C4D2D1D2D6805F03F01BF
:1003A00054B1224DB5FBF1F5174E361D3668C6F334
:1003B000881605FB06F209E01A4DB5FBF1F5124E61
:1003C000361D3668C6F3881605FB06F20E4D2D1D48
:1003D0002D68C5F301456D1C6B00B2FBF3F5124EA1
:1003E000356003E00F4D104E356000BF00BF064D75
:1003F00008352D68C5F303150D4E705D0A4D2D6847
:10040000C540094E356070BD0038024000700040A4
:1004100019544007003C024088ED00E0FFFFF6FE63
:10042000103000240024F4000000002040787D01FA
:10043000040000200E4880470E480047FEE7EFF317
:10044000098000B500F023F85DF804EB4EF0040ECF
:100450007047FEE7FEE7FEE7FEE7FEE7FEE7FEE7A2
:10046000FEE7000004480549054A064B70470000B6
:100470000303000889010008A8000020A806002046
:10048000A8020020A8020020704700BFFEE700BFBE
:1004900000BF00BF00BFFEE700BFFEE700BFFEE7F2
:1004A00000BFFEE77047704710B501F069FA002001
:1004B00010BD000030B943F2DB014FF0204242F89A
:1004C000201005E043F2D2014FF0204242F8201004
:1004D0006FF07042411C4FF0204343F82120114639
:1004E0001A4602EB8002C2F80411704770B5002171
:1004F000002200234FF02045046855F82410FE4CDC
:100500002140D0E901452C43C5682C4305692C43A3
:1005100045692C4385692C43C5692C43056A2C43E6
:10052000456A2C43856A2C43C56A2C43056B2C43D2
:1005300021434FF02045046845F824108468082CB6
:1005400009D1046855F8244044F040044FF0204697
:10055000056846F825400468641C4FF0204555F8AE
:10056000242002F04042446B2468456B6D6844EAE5
:100570000514456BAD6844EA0524456BAD8944EA32
:100580000544456B2D8A44EA0554456B2D7D44EAAC
:100590000564456BAD692C4322430468641C4FF02D
:1005A000204545F82420C46AB4F5804F24D104685E
:1005B00005EB8404D4F8043103F04043846B2468D1
:1005C000856B6D6844EA0514856BAD6844EA0524C3
:1005D000856B2D8A44EA0554856B2D7D44EA0564BC
:1005E000856BAD692C4323434FF02045046805EB30
:1005F0008404C4F8043108E06FF070444FF02046E2
:10060000056806EB8505C5F8044170BD0021016051
:100610000221416000218160C1600161416181610D
:10062000C16101624FF48051416249008162002141
:10063000C1620163B14941638163704751B14FF0B9
:10064000204252F8202042F001024FF0204343F8AC
:10065000202009E04FF0204252F82020A84B1A40F9
:100660004FF0204343F82020704710280AD118216A
:100670004FF020421166402151664FF0FC319166E7
:10068000D16610E018219F4A11604FF040014FF0F1
:100690002042C2F884104FF0FC319B4A11604FF0A9
:1006A0002042C2F88C10704730B500210022002390
:1006B0000468102C03D14FF02044216E01E0914CCE
:1006C0002168924C01EA0401446844F008048568FA
:1006D00044EA0504C56844EA0504056944EA0504DA
:1006E000456944EA4524856944EA453444EA010100
:1006F0000468102C03D14FF02044A26E01E0824C1C
:1007000022684FF00002C4692468C5696D6844EA34
:100710000524C5692D8944EA0544C5692D7B44EA51
:10072000056444EA02020468102C03D14FF020440F
:10073000E36E02E04FF02044E36E0023046A246875
:10074000056A6D6844EA0524056A2D8944EA054472
:10075000056A2D7B44EA056423430468102C05D107
:100760004FF020442166A266E36607E0654C2160F5
:100770004FF02044C4F88820654C236030BD102120
:100780000160002141608160C1600161416181615E
:10079000FC21C2691160C2695160C2699160C2697D
:1007A000D160026A1160026A5160026A9160026A55
:1007B000D160704799B1102808D14FF02042126ED5
:1007C00042F004024FF020431A661DE04D4A1268C1
:1007D00042F004024FF02043C3F8802014E01028B8
:1007E00009D14FF02042126E454BDB1E1A404FF0EC
:1007F00020431A6608E0434A1268464B02EA0302A5
:100800004FF02043C3F88020704799B1102808D1D9
:100810004FF02042126E42F040024FF020431A6621
:100820001DE0384A126842F040024FF02043C3F8FE
:10083000802014E0102809D14FF02042126E354B71
:100840003C3B1A404FF020431A6608E02D4A1268DC
:10085000314B02EA03024FF02043C3F88020704777
:1008600001460020102903D14FF02042506F01E0D3
:100870002A4A106870471820294908604FF0000084
:100880004FF02041C1F8A4004FF0FC30254908602A
:1008900001F10401086001F104010860704770B5BE
:1008A00000210022002300241D4D29681E4D01EA6D
:1008B0000501056845F01005466845EA4625866845
:1008C00045EA463545EA01014FF02045C5F8A0103C
:1008D000144D2A681A46C5682D68C668766845EAC8
:1008E0000625C668368945EA0645C668367B45EA68
:1008F000066545EA020219E08000F7FFC8390008E2
:10090000FEFF0F00800000A0880000A08101F0FF22
:100910008C0000A0FBFF0F00BFFF0F00940000A0A1
:10092000A00000A0A80000A0CD01FEFF4FF02045D0
:10093000C5F8A8208B4D2B68234605692D680669EC
:10094000766845EA06250669368945EA0645066958
:10095000367B45EA066545EA03034FF02045C5F8B6
:10096000AC30814D2C684FF0000445692D68466914
:10097000766845EA06254669368945EA06454669A8
:10098000367B45EA066545EA04044FF02045C5F884
:10099000B04070BD0021016041608160FC21C268EF
:1009A0001160C2685160C2689160C268D16002691A
:1009B000116002695160026991600269D160426907
:1009C000116042695160426991604269D16070472B
:1009D00040B16649096841F004014FF02042C2F875
:1009E000A01008E061490968614A01EA02014FF07C
:1009F0002042C2F8A010704710B5F2B1102807D1FC
:100A00004FF020435B6E0B434FF02044636632E0AF
:100A1000B0F5807F08D1574B1B6843EA01034FF0C4
:100A20002044C4F8843026E0534B1B6843EA01039A
:100A30004FF02044C4F8A4301DE0102807D14FF037
:100A400020435B6E8B434FF02044636613E0B0F5A8
:100A5000807F08D1474B1B6823EA01034FF02044F5
:100A6000C4F8843007E0444B1B6823EA01034FF0CD
:100A70002044C4F8A43010BD10B502460020002365
:100A8000102A03D14FF02044636E07E0B2F5807F57
:100A900002D1384C236801E0374C23680B4201D067
:100AA000012000E0002010BD102807D14FF02042A7
:100AB000526E8A434FF020435A6613E0B0F5807FB0
:100AC00008D12C4A126822EA01024FF02043C3F8F1
:100AD000842007E0284A126822EA01024FF02043EE
:100AE000C3F8A420704770B50246002000230024FC
:100AF0000025102A03D14FF02046736E07E0B2F5AF
:100B0000807F02D11B4E336801E01B4E336803EA3D
:100B1000010403EAD10514B10DB1012000E0002069
:100B200070BD102808D14FF02042526E22EAD10247
:100B30004FF020435A6613E0B0F5807F08D10D4A8C
:100B4000126822EAD1024FF02043C3F8842007E064
:100B5000094A126822EAD1024FF02043C3F8A420C8
:100B600070470000AC0000A0B00000A0A00000A0F2
:100B7000FBFF0F00840000A0A40000A010B50446F5
:100B80009848844208D10121084600F086FB0021E4
:100B9000012000F082FB76E09348844208D10121D5
:100BA000022000F07AFB0021022000F076FB6AE0D0
:100BB0008E48844208D10121042000F06EFB002100
:100BC000042000F06AFB5EE08948844208D10121DC
:100BD000082000F062FB0021082000F05EFB52E0DC
:100BE0008448844208D10121102000F056FB0021E6
:100BF000102000F052FB46E07F48844208D10121DA
:100C0000202000F04AFB0021202000F046FB3AE0C3
:100C10007A48844208D10121402000F03EFB0021A7
:100C2000402000F03AFB2EE07548844208D10121B3
:100C3000802000F032FB0021802000F02EFB22E01B
:100C40007048844208D10121801500F026FB002164
:100C5000A01500F022FB16E06B48844208D1012168
:100C6000401500F01AFB0021601500F016FB0AE0A9
:100C70006648844207D10121001500F00EFB0021D7
:100C8000201500F00AFB10BDF0B50A460021002334
:100C9000002400BF3DE0012505FA01F3156805EACF
:100CA00003049C4234D105684F000326BE40B5437F
:100CB000056015794E00B540066835430560157925
:100CC000012D02D01579022D16D185684F0003261B
:100CD000BE40B543856055794E00B54086683543C2
:100CE0008560456801268E40B54345604568967924
:100CF0008E40B6B235434560C5684F000326BE40FE
:100D0000B543C560D5794E00B540C6683543C5606A
:100D1000491C1029BFD3F0BD4FF6FF7101600021BF
:100D2000017141718171C171704708B54FF4803212
:100D30000092009A0A430092009AC261C161009A2F
:100D4000C261C2690092C269009208BD02460020D9
:100D500013690B4201D0012000E0002070470146DA
:100D6000086980B270470246002053690B4201D0E7
:100D7000012000E0002070470146486980B27047BA
:100D800001837047418370470AB1018300E04183CA
:100D900070474161704742694A4042617047F0B50F
:100DA000002300244D07ED0E02FA05F3CE1000F1EA
:100DB000200555F826504E07F70E0F26BE40B543C6
:100DC000CF1000F1200646F82750CE1000F1200584
:100DD00055F8265045EA0304CE1000F1200545F8E9
:100DE0002640F0BD0000024000040240000802401E
:100DF000000C0240001002400014024000180240A3
:100E0000001C024000200240002402400028024052
:100E1000F948006840F00100F74908600020F649F1
:100E200008310860F4480068F4490840F249086055
:100E3000F348091D0860F348EF4984310860F04821
:100E40001038091D0860EC48006820F48020EA4949
:100E500008600020E8490C310860E7498C310860DF
:100E600070470021E44A921C1170114608707047C7
:100E700010B501460022002300204A11012A02D1A8
:100E8000DD4C236808E0022A03D1DB4C7034236870
:100E900002E0D94C7434236801F01F02012494400D
:100EA0001C4201D0012000E0002010BD38B5002018
:100EB00000900024002500BF3120FFF7D9FF054630
:100EC0000098401C00900098B0F5A04F01D0002D74
:100ED000F2D03120FFF7CCFF08B1012400E000245C
:100EE000204638BD01460020C34A106820F0F800B3
:100EF00040EAC10010607047C34908607047002194
:100F0000BD4A703211701170012802D004280AD134
:100F100004E00121B84A7032117005E00521B64A9B
:100F20007032117000E000BF00BF7047B749086021
:100F3000704770B5049C41EA82150126C6EB530642
:100F400045EA0645054345EA0465AB4E361D356066
:100F500070BDAD4908667047820142EA0172A64B36
:100F600084331A607047A8498866704710B58301BA
:100F700043EA016343EA02739F4C8834236010BD47
:100F8000A14908677047A049C8647047024600201D
:100F9000994B0833186820F0EC6042EA01031843CB
:100FA000954B08331860704702460020924B083377
:100FB000186820F0784042EA010318438E4B08334A
:100FC00018607047014600208B4A0832106820F0F4
:100FD000030008431060704787480830006800F03D
:100FE0000C00704701460020834A0832106820F048
:100FF000F000084310607047014600207E4A083226
:10100000106820F4E050084310607047014600204B
:10101000794A0832106820F4604040EAC10010604C
:101020007047F0B50021002200240225002602238B
:10103000714F08373F6807F00C0121B1042905D032
:10104000082937D105E0724F076036E0714F07601D
:1010500033E0694F3F1D3F68C7F38056664F3F1D21
:101060003F6807F03F036EB16A4FB7FBF3F7DFF855
:1010700088C10CF1040CDCF800C0CCF3881C07FB21
:101080000CF40CE0624FB7FBF3F7DFF86CC10CF126
:10109000040CDCF800C0CCF3881C07FB0CF4564FA2
:1010A0003F1D3F68C7F301477F1C7D00B4FBF5F788
:1010B000076002E0564F076000BF00BF4E4F083781
:1010C0003F6807F0F0010909534F7A5C0768D74081
:1010D0004760494F08373F6807F4E051890A4E4F8F
:1010E0007A5C4768D7408760434F08373F6807F40A
:1010F0006041490B484F7A5C4768D740C760F0BDF4
:10110000002100F44072B2F5407F0AD13A4A083219
:10111000116821F4F811414A02401143364A08325D
:101120001160354A70321268C0F30B031A43324B18
:1011300070331A6070473549443908607047334945
:101140004039086070473649086070470146002002
:10115000294A8C32106820F4401008431060704710
:1011600001460020244A8C32106820F440000843D5
:1011700010607047014600201F4A8C32106820F032
:101180001F004A1E10431C4A8C32106070470146F3
:101190000020194A8C32106820F4F8504A1E40EAA8
:1011A0000220154A8C321060704701460020124A16
:1011B0008C32106820F440300843106070471949A1
:1011C0000860704739B10C4A3032126802430A4B4A
:1011D00030331A6006E0084A303212688243064B08
:1011E00030331A607047F9B1034A3432126802434F
:1011F000014B34331A601CE000380240FFFFF6EA6E
:10120000103000240030002000004742800E47428A
:101210000024F40040787D0114000020FFFCFF0F43
:101220005C014742E01147428F4A126882438E4B6D
:101230001A60704739B18C4A121D126802438A4BFA
:101240001B1D1A6006E0884A121D12688243864BF5
:101250001B1D1A60704739B1834A0C321268024371
:10126000814B0C331A6006E07F4A0C3212688243CD
:101270007D4B0C331A60704739B17B4A10321268CB
:101280000243794B10331A6006E0774A1032126835
:101290008243754B10331A60704739B1724A243A51
:1012A00012680243704B243B1A6006E06E4A243AEF
:1012B000126882436C4B243B1A60704739B16A4A0A
:1012C000203A12680243684B203B1A6006E0664AE7
:1012D000203A12688243644B203B1A60704739B150
:1012E000614A1C3A126802435F4B1C3B1A6006E0DD
:1012F0005D4A1C3A126882435B4B1C3B1A60704784
:1013000039B1594A143A12680243574B143B1A60D8
:1013100006E0554A143A12688243534B143B1A6054
:10132000704739B1504A103A126802434E4B103B95
:101330001A6006E04C4A103A126882434A4B103B4E
:101340001A60704739B1484A1C3212680243464B52
:101350001C331A6006E0444A1C3212688243424B36
:101360001C331A60704739B13F4A20321268024379
:101370003D4B20331A6006E03B4A2032126882431C
:10138000394B20331A60704739B1374A243212681A
:101390000243354B24331A6006E0334A2432126884
:1013A0008243314B24331A60704739B12E4A2C32B4
:1013B000126802432C4B2C331A6006E02A4A2C3266
:1013C00012688243284B2C331A60704739B1264A81
:1013D000303212680243244B30331A6006E0224A4E
:1013E000303212688243204B30331A607047012834
:1013F00008D11D493C31096841F008011A4A3C32C4
:10140000116007E018493C31096821F00801164ACB
:101410003C321160704739B1134A273A12780243BF
:10142000114B273B1A7006E00F4A273A1278824385
:101430000D4B273B1A7070470B484030006840F056
:101440008070094940310860704701460020064A13
:10145000283A12680A4201D0012000E000207047BB
:1014600001492639087070473438024010B50446E7
:10147000FA48844208D101218014FFF752FF00216D
:10148000A014FFF74EFF3CE0F548844208D101214B
:101490000014FFF735FF00212014FFF731FF30E083
:1014A000F048844208D10121C013FFF729FF002131
:1014B000E013FFF725FF24E0EB48844208D1012127
:1014C0004014FFF72EFF00216014FFF72AFF18E0F9
:1014D000E648844209D101210805FFF722FF0021D7
:1014E0004FF48010FFF71DFF0BE0E148844208D164
:1014F00001214805FFF715FF00214FF40010FFF709
:1015000010FF10BD10B50022028802F441520B8872
:101510004C8823438C882343CC8823430C89234362
:101520004C8923438C892343CC8923431A4302806B
:10153000838B4FF2FF74234083830B8A038210BD99
:101540002DE9F04F0025022300244FF0010900226D
:101550000026002794469046B0F81CA04FF2400B9E
:101560000AEA0B0AA0F81CA04FF0020AA0F820A07B
:10157000858BD1F808A0BAF1020F01D100BF80E03D
:10158000B1F804A0BAF1000F02D14FF0010901E057
:101590004FF00209DFF8DCA2DAF800A01AF4000F1D
:1015A00009D0DFF8D0A2DAF800A02AF4000ADFF8A8
:1015B000C4B2CBF800A0DFF8BCA20AF17C0ADAF8CA
:1015C00000A0CAF3881CDFF8ACA20AF17C0ADAF8A2
:1015D00000A0CAF30278DFF89CA2AAF1040ADAF8A4
:1015E00000A00AF03F07DFF88CA2AAF1040ADAF89B
:1015F00000A00AF4800ABAF5800F08D1DFF878A2BB
:10160000BAFBF7FA0AFB0CFABAFBF8F607E0DFF8C8
:101610006CA2BAFBF7FA0AFB0CFABAFBF8F6B1F8BF
:1016200006A0BAF5007F0ED14FEA162A0AEB8A0A05
:101630004FEA4A0AD1F808B0BAFBFBFA0AF1050AE8
:101640001FFA8AF20FE04FEA491AB6FBFAFA0AEBE0
:101650008A0A4FEA4A0AD1F808B0BAFBFBFA0AF143
:10166000050A1FFA8AF24FF00A0AB2FBFAF202F0F8
:101670000104A2EB040ACAF34F034FF6FF7A0AEA09
:101680000424022B01DBFF2B01DD02230024B1F82F
:1016900006A04AEA040A4AEA030AA0F820A0B1F820
:1016A00004A0B1F80CB04AEA0B0AB1F802B04AEA59
:1016B0000B0AB1F800B04AEA0B0A4AF4006A4AEA97
:1016C00005058583BDE8F08F002101804180818080
:1016D000C180018141818181C181072101827047DF
:1016E0000021018041808180C18002218160002130
:1016F0008181704721B1028842F04002028004E0FB
:1017000002884FF6BF731A400280704721B1828B66
:1017100042F48062828304E0828B4FF6FF331A40EA
:101720008283704702884FF2FF731A40028002885A
:101730000A4302807047B1F5804F04D1028842F419
:101740008042028004E002884BF6FF731A40028058
:101750007047A1F57E42FF3A04D0028842F48072BD
:10176000028004E002884FF6FF631A40028070474F
:1017700021B1828842F00402828004E082884FF620
:10178000FB731A408280704721B1828842F01002B8
:10179000828004E082884FF6EF731A40828070479F
:1017A00030B500220023848B4FF240052C40848307
:1017B00002240484828B0C88B4F5007F01D00C884D
:1017C00014B94FF4807308E00C88B4F5407F03D05F
:1017D0000C88B4F5807F00D100238C888D892C4340
:1017E0004D882C431C4344F400642243828330BD63
:1017F0000146888970478181704721B1028842F48F
:101800000052028004E002884DF6FF731A40028005
:101810007047018841F480510180704702460020E2
:10182000012901D0108B00E0908A70470146088A98
:1018300070471AB183880B43838002E083888B430F
:101840008380704730B5002400230C110125A5408A
:10185000ABB2AAB185881D43858014E000300140F9
:1018600000380040003C004000340140005001407E
:10187000005401400838024040787D010024F40003
:1018800085889D43858030BD0246002013890B4228
:1018900001D0012000E000207047CA430281704758
:1018A000F0B50246002000240023002501F00F07B8
:1018B0000126BE40B4B20B1101269E40B3B29688F9
:1018C00006EA03051689264202D00DB1012000E088
:1018D0000020F0BD10B5002201F00F040123A34049
:1018E0009AB2D343038110BD10B501218803FFF7DD
:1018F00018FD00214FF48040FFF713FD10BD1C4977
:10190000086070471B490862704730B500228B079A
:101910001C0F0F2303FA04F2154B08338C1053F8F5
:1019200024309343124C08348D1044F8253023465C
:101930008C1053F824308C07240F00FA04F423434E
:101940000B4C08348D1044F8253030BD0A4908602E
:1019500070470A490860704700200549203109682E
:1019600011F4807F01D0012000E0002070470000CA
:101970000038014000002742DC00274200042742D3
:1019800008B500F02DF81F2001F09EFD4FF47840BF
:1019900000F098FE1F2001F0BEF9C82001F09AFD6A
:1019A00000221146104601F0AAFC0121084601F070
:1019B000C0FC44F65F206E2340F2DF12002100904D
:1019C00040F2B22001F0CAFB034B04A20A210846F0
:1019D00000F0EAF900BFFEE72400002031323300B6
:1019E00010B500F09DFD00F003FB00F0AEFF10BD50
:1019F000D248006810F0080F01D101207047002084
:101A0000FCE7002001E0411CC8B20A28FBDB70475C
:101A1000002001E0411C88B241F288318842F9DBA4
:101A2000704770B5044600BF0221C548FFF72CFF80
:101A30000028F9D02146C248FFF7DDFE00BF012192
:101A4000BF48FFF721FF0028F9D0BD48FFF7D0FEBF
:101A5000C5B2284670BD10B50446BA4800780228C1
:101A60000DD14002B84948838020FFF7DAFF2046B5
:101A7000FFF7D7FF4FF48060B349088306E0B14811
:101A80000078032802D14FF0C840448010BD10B543
:101A90000446AC48007802280DD14002AA49488388
:101AA0000020FFF7BEFF2046FFF7BBFF4FF480602A
:101AB000A549088306E0A3480078032802D14FF027
:101AC000C840048010BD10B500249E48007802284C
:101AD0000ED140029C4948834020FFF7A2FF00201E
:101AE000FFF79FFF04464FF480609749088307E0A3
:101AF00094480078032803D14FF0C8400088C4B24E
:101B0000204610BD10B504468E48007802281AD130
:101B100040028D4948830020FFF783FF2012FFF722
:101B200080FF4FF4806088490883088308834883D6
:101B30000020FFF776FFE0B2FFF773FF4FF48060FD
:101B40008149088306E07F480078032802D14FF0DE
:101B5000C840048010BD10B57A480078022817D11B
:101B60004002794948834020FFF75BFF0020FFF7E0
:101B700058FF04464FF6FF7000EA04240020FFF7E8
:101B800050FF204484B24FF480606F49088306E020
:101B90006C480078032802D14FF0C84004882046E2
:101BA00010BD10B500246748007802280ED140020D
:101BB00065494883C020FFF734FF0020FFF731FF5D
:101BC00004464FF480606049088307E05D48007870
:101BD000032803D14FF0C8404088C4B2204610BD4E
:101BE00058480078022801D10020704755480078F5
:101BF000032802D14FF0C840F7E70020F5E700B511
:101C000085B001210803FFF737FB0020ADF8000085
:101C10004FF48270ADF802000020ADF804000220FD
:101C2000ADF806000120ADF808004002ADF80A004A
:101C30002820ADF80C000020ADF80E000720ADF80C
:101C4000100069463E48FFF75DFC00213C48FFF765
:101C500051FD01213A48FFF74DFD05B000BD1CB50F
:101C600001214FF48170FFF7ADFA052203213748B7
:101C7000FFF795F8052204213448FFF790F8052274
:101C800011463248FFF78BF802208DF8040001203E
:101C90008DF8050000208DF806008DF8070038202B
:101CA000009069462948FEF7EFFF4FF4806026490F
:101CB000088301208DF8040000208DF80600022022
:101CC0008DF8050000208DF8070008150090694682
:101CD0001D48FEF7D9FFFFF792FF1CBD00B585B088
:101CE00001210803FFF7C8FA0020ADF800004FF407
:101CF0008270ADF802000020ADF804000220ADF8BB
:101D000006000120ADF808004002ADF80A001820D6
:101D1000ADF80C000020ADF80E000720ADF8100063
:101D200069460748FFF7EEFB00210548FFF7E2FC94
:101D300001210348FFF7DEFC05B000BD100C024096
:101D4000003001402C00002000200240000402402E
:101D50009C48008870479C480088704770B50446CE
:101D60000D46164632462946204601F083F870BDDE
:101D700070B504460D462946204601F0E6F80646B1
:101D8000304670BD2DE9F84304460D4616461F4601
:101D9000DDF820803B46324629462046CDF80080BB
:101DA00001F03BF9BDE8F8832DE9FF4FA9B0984653
:101DB000B8F8000038B94FF00C0A0C251826DFF8E7
:101DC0000CB2834F2AE0B8F80000022807D14FF088
:101DD000180A18256026DFF8FCB17F4F1EE0B8F81E
:101DE0000000032807D14FF01D0A1D257426DFF8D7
:101DF000ECB17B4F12E0B8F80000042807D14FF097
:101E0000200A20258026DFF8DCB1754F06E04FF070
:101E1000100A10252026DFF8D0B1744FC8E02B98A7
:101E200000782790279880282BDA019606EBD67049
:101E300043100096279800FB03B106EBD6704210C2
:101E400006A801F0BBFC284605EBD071C1F347049E
:101E50002146E21704EB5272D210B4EBC20201D158
:101E6000224606E004F10800C21700EB5272D210BD
:101E7000D200D4B22046E11704EB5171C91004918D
:101E800051E02C462146E21704EB5272D210B4EB1B
:101E9000C20201D1224606E004F10800C21700EB9D
:101EA0005272D210D200D4B22046E11704EB517125
:101EB000C91004912B98401C2B90007826902698EE
:101EC00000B97AE0002005902AE0B11C059800FBDB
:101ED00001F90598401CC0B2059017F80910279821
:101EE00081420ED109F10100395C2698814208D166
:101EF00009F1020907EB0901324606A801F05EFC70
:101F00000FE017F80900FF280AD109F10100385C39
:101F1000FF2805D1FF22314606A801F094FC00E01D
:101F2000D3E700BF2C462A9802900020059032E0AB
:101F3000299803900020289022E0DDE9041048430E
:101F4000289900EBD10006A9085C289901F0070246
:101F500080211141084206D0B8F80220DDE90210C4
:101F6000FFF7FCFE05E0B8F80420DDE90210FFF7FA
:101F7000F5FE0398401C80B203902898401C2890DE
:101F80002898A042D9D30298401C80B202900598AC
:101F9000401CC0B2059005985045C9DBB8F8060052
:101FA00001192998084480B229902B98401C2B9045
:101FB0002B98007800287FF432AF00BF2DB0BDE829
:101FC000F08F00002E00002030000020E4390008CF
:101FD000D8A40008D84F0008CAAF0008D867000886
:101FE000F8B60008D8840008D83F00089CA800086C
:101FF0001CB5012140F2FF10FFF7E4F8012188032E
:10200000FFF73AF90C220021FE48FEF7C8FE0C2229
:102010000121FC48FEF7C3FE0C220221F948FEF71D
:10202000BEFE0C220321F748FEF7B9FE0C22042164
:10203000F448FEF7B4FE0C220521F248FEF7AFFE8D
:102040000C221146EF48FEF7AAFE0C220D21ED48A6
:10205000FEF7A5FE0C220E21EA48FEF7A0FE0C2298
:102060000F21E848FEF79BFE4FF23F000090022050
:102070008DF8040001208DF8050000208DF8060081
:1020800001208DF807006946DE48FEF7FDFD0C22B1
:102090000021DD48FEF783FE0C220121DA48FEF71D
:1020A0007EFE0C220221D848FEF779FE0C22032185
:1020B000D548FEF774FE0C220421D348FEF76FFECC
:1020C0000C220521D048FEF76AFE3F2000906946A9
:1020D000CD48FEF7D9FD0C220B21CC48FEF75FFE60
:1020E0000C221146C948FEF75AFE0C220D21C748A2
:1020F000FEF755FE4FF4605000906946C348FEF766
:10210000C3FD0C220321C248FEF749FE0C22042124
:10211000BF48FEF744FE182000906946BC48FEF711
:10212000B3FD0C220E21B948FEF739FE0C220F2117
:10213000B648FEF734FE0C220021B448FEF72FFE0D
:102140000C220121B148FEF72AFE4CF20300009058
:102150006946AE48FEF798FD0C220721AC48FEF711
:102160001EFE0C220821AA48FEF719FE0C220921A6
:10217000A748FEF714FE0C220A21A548FEF70FFE21
:102180000C220B21A248FEF70AFE0C221146A048A1
:10219000FEF705FE0C220D219D48FEF700FE0C22E5
:1021A0000E219B48FEF7FBFD0C220F219848FEF7FD
:1021B000F6FD4FF68070009069469548FEF764FD85
:1021C0000C2208219148FEF7EAFD0C2209218F48D4
:1021D000FEF7E5FD0C220A218C48FEF7E0FD4FF4E6
:1021E000E060009069468948FEF74EFD0C22072109
:1021F0008648FEF7D4FD8020009001208DF807006E
:1022000069468248FEF740FD0C2209217E48FEF710
:10221000C6FD4FF40070009001208DF8070069465C
:102220007948FEF731FD0C2204217848FEF7B7FD0E
:102230000C2205217548FEF7B2FD3020009069465A
:102240007248FEF721FD4020009000208DF8040028
:1022500001208DF8060000208DF8070069466B48C4
:10226000FEF712FD4020009000208DF804008DF84C
:10227000070069466748FEF707FD00208DF8040057
:1022800001208DF806008DF807008DF805000F205D
:10229000009069466048FEF7F7FC01208DF80400C5
:1022A00000208DF806008DF8070070200090694628
:1022B0005848FEF7E9FC0420009069465748FEF7AD
:1022C000E3FC00208DF8040001208DF806008DF855
:1022D000070002208DF805008003009069464D48F4
:1022E000FEF7D2FC0820009069464C48FEF7CCFC73
:1022F0000F210020FFF709FB03210820FFF705FB52
:102300004FF40040009069463F48FEF7BDFC802036
:10231000009069464148FEF7B7FC07210820FFF707
:10232000F4FA4020009069463C48FEF7ADFC0621D7
:102330000820FFF7EAFA4FF48060009069463748BA
:10234000FEF7A2FC0A210820FFF7DFFA4FF48070A5
:10235000009069463148FEF797FC08210846FFF7D0
:10236000D4FA4FF4C070009069462748FEF78CFC01
:1023700008210620FFF7C9FA01208DF8040000208B
:102380008DF806008DF8070001208DF805004FF448
:10239000E050009069461C48FEF776FC0120009052
:1023A00069461C48FEF770FC4FF480600090694657
:1023B0001448FEF769FC1020009069461848FEF7A3
:1023C00063FC0C2208211448FEF7E9FC0C220921C9
:1023D0001148FEF7E4FC0C220A210F48FEF7DFFC4F
:1023E0000C220B210C48FEF7DAFC0C2211460A489D
:1023F000FEF7D5FC0C2202210448FEF7D0FC4FF476
:1024000070600FE00014024000180240000C02400F
:10241000001002400000024000080240002002407C
:10242000001C0240009001208DF8050002208DF86C
:10243000040000208DF8060001208DF80700694691
:102440006948FEF721FC0420009069466748FEF7C2
:102450001BFC4FF48050009001208DF80700694666
:102460006148FEF711FC4FF40060009000208DF8E9
:10247000040001208DF8070069465D48FEF704FC62
:1024800001208DF8040000208DF806008DF807006B
:1024900001208DF805008020009069465448FEF721
:1024A000F3FB3020009069464F48FEF7EDFB2020FB
:1024B000009069464F48FEF7E7FB0320009069460D
:1024C0004D48FEF7E1FB4FF40060009069464B4831
:1024D000FEF7DAFB00208DF8040004200090694626
:1024E0004548FEF7D1FB01208DF8070000208DF84C
:1024F00004004020009069463B48FEF7C5FB802160
:102500003B48FEF73DFC10213748FEF739FC2021FF
:102510003548FEF735FC20213648FEF731FC1CBD5E
:1025200000B59DB001210846FEF784FE0420079007
:1025300000200890099001200A9000200B900C9038
:102540000D900420009000200190062002900120B0
:102550000390002004900590069002200E90002029
:102560000F90109010201190002012901390149052
:10257000159016904FF480501790002018901990E5
:102580001A90CDF86CD007A81C900EA8FDF7AEFFEE
:1025900001210220FEF752F8032007900020089046
:1025A0000220099001200A9000200B900C900D90C1
:1025B0000E900F901090119012901390149015900F
:1025C00016904FF4805017900020189019901A9090
:1025D00007A81B901C900EA8FDF788FF0121002082
:1025E000FEF72CF81DB000BD00080240000C0240B0
:1025F00000000240001C024000040240001402409F
:10260000FE4A1180FE4A1080704770B505460C46A0
:102610000120FC4908702846FFF71DFA2046FFF705
:1026200036FA0020F749087070BD70B504460120E5
:10263000F44908702046FFF70EFAFFF744FA054602
:102640000020F0490870284670BD10B504462046A9
:10265000FFF701FAFFF737FA10BD10B5044624B9A9
:1026600000218A20FFF7D1FF0EE0FF2C04D140218A
:102670008A20FFF7CAFF07E083218A20FFF7C5FF02
:1026800021468B20FFF7C1FF10BD10B5002406E0E6
:10269000FFF787FA10F0400F00D103E0641CDA481E
:1026A0008442F5D300BF0020D649087010BD10B594
:1026B0000120D44908705020FFF7CDF98020FFF7A2
:1026C000E6F910BD10B50446E10A6320FFF79DFF4F
:1026D000C4F345116420FFF798FF04F01F01652043
:1026E000FFF793FF10BD10B5044621465120FFF7B8
:1026F0008CFF10BD2DE9F04105460C4616461F46DD
:10270000DDF81880E9B25820FFF77FFF2912592021
:10271000FFF77BFFE1B25A20FFF777FFB8F1000F18
:1027200004D121125B20FFF770FF05E0802040EA12
:1027300024215B20FFF769FFF9B25C20FFF765FFFA
:1027400039125D20FFF761FFF1B25E20FFF75DFFF8
:1027500031125F20FFF759FFBDE8F08138B504461C
:1027600000200090A6480388A4480288A748018852
:10277000A7480088FFF7BEFF0C20FFF7B4FF2046F4
:10278000FFF7A0FFFFF793FFFFF77FFF38BD70B59E
:1027900004460D469F480078012810DDE9B2462026
:1027A000FFF733FF29124720FFF72FFFE1B2482040
:1027B000FFF72BFF21124920FFF727FF0FE0E1B2BF
:1027C0004620FFF722FF21124720FFF71EFFE9B244
:1027D0004820FFF71AFF29124920FFF716FF70BDA6
:1027E0002DE9F04104460D4617469846E1B23020E7
:1027F000FFF70BFF21123120FFF707FFE9B232206C
:10280000FFF703FF29123320FFF7FFFE08EB040058
:10281000401E86B2F1B23420FFF7F7FE31123520A8
:10282000FFF7F3FE7819401E86B2F1B23620FFF7AB
:10283000ECFE31123720FFF7E8FE29462046FFF76D
:10284000A6FF73480480714805806C4807806C4877
:10285000A0F80080BDE8F08110B5002402E0FFF789
:10286000D7F8641CC82CFAD38820FFF7F4F8FFF7D8
:10287000C8F80C20FFF70BF9FFF7CAF88920FFF71B
:10288000EAF8FFF7BEF80220FFF701F9FFF7C0F8FA
:102890000A211020FFF7B9FE81210420FFF7B5FEC1
:1028A000FFF7B6F863211420FFF7AFFE00211520D3
:1028B000FFF7ABFE03211620FFF7A7FE0321172029
:1028C000FFF7A3FE0B211820FFF79FFEDF21192041
:1028D000FFF79BFE01211A20FFF797FE1F211B2007
:1028E000FFF793FE00211C20FFF78FFE16211D200D
:1028F000FFF78BFE00211E20FFF787FE01211F201E
:10290000FFF783FE08212020FFF77FFE0121C7206B
:10291000FFF77BFE80210120FFF777FE0121402099
:10292000FFF773FE00214120FFF76FFE4FF448735D
:102930004FF4F07200210846FFF752FF0020FFF726
:102940000DFFFF20FFF789FE10BD70B5FFF700FAFD
:102950000446FFF700FA05462146FFF751FE012124
:102960000803FEF72FFCFFF777FF70BD10B50024BA
:1029700002E0FFF74DF8641CC82CFAD38820FFF75B
:102980006AF8FFF73EF80C20FFF781F8FFF740F8F0
:102990008920FFF760F8FFF734F80220FFF777F897
:1029A000FFF736F80A211020FFF72FFE81210420BF
:1029B000FFF72BFEFFF72CF863211420FFF725FE0D
:1029C00000211520FFF721FE03211620FFF71DFE31
:1029D00003211720FFF719FE0B211820FFF715FE22
:1029E000DF211920FFF711FE01211A20FFF70DFE4C
:1029F0001F211B20FFF709FE00210DE03A000020F7
:102A00003C00002034000020A08601003800002097
:102A100036000020320000201C20FFF7F6FD1621B2
:102A20001D20FFF7F2FD00211E20FFF7EEFD012122
:102A30001F20FFF7EAFD08212020FFF7E6FD012116
:102A4000C720FFF7E2FD80210120FFF7DEFD002116
:102A50004020FFF7DAFD00214120FFF7D6FDFD48B9
:102A60000388FD48028800210846FFF7B9FE0020D0
:102A7000FFF774FEFF20FFF7F0FD10BD4FF0C841D7
:102A8000088070474FF0C841488070474FF0C840F9
:102A90000088C0B2704700BF411EC9B20800FBD118
:102AA000704700B5024602E06420FFF7F4FF100013
:102AB000A2F10101CAB2F7D100BD00B5034602E0A0
:102AC0000B20FFF7EEFF1800A3F10101CBB2F7D105
:102AD00000BD10B5044602E00B20FFF7EEFF20001A
:102AE000A4F10101CCB2F7D110BD10B5044602E04B
:102AF0006520FFF7E2FF2000A4F10101CCB2F7D17D
:102B000010BD00B58820FFF7BDFF0120FFF7C3FF10
:102B10000C20FFF7B3FF0120FFF7CFFF8920FFF75D
:102B2000B1FF0120FFF7B7FF0220FFF7A7FF012049
:102B3000FFF7C3FF00BD70B504460D46E6B2302076
:102B4000FFF7A0FF3046FFF799FF26123120FFF76D
:102B500099FF3046FFF792FFEEB23420FFF792FF65
:102B60003046FFF78BFF2E123520FFF78BFF3046E4
:102B7000FFF784FFD6B23220FFF784FF3046FFF71D
:102B80007DFF16123320FFF77DFF3046FFF776FFFB
:102B9000DEB23620FFF776FF3046FFF76FFF1E12DA
:102BA0003720FFF76FFF3046FFF768FF70BD00B5B5
:102BB000FFF7A7FF1020FFF765FF0C20FFF75EFF70
:102BC0002020FFF75BFF0420FFF75CFF0420FFF7E6
:102BD00059FF0120FFF752FF0120FFF76EFF14207D
:102BE000FFF750FF6320FFF749FF1520FFF74AFF6B
:102BF0000320FFF743FF1620FFF744FF0320FFF7F2
:102C00003DFF1720FFF73EFF0220FFF737FF182098
:102C1000FFF738FF0020FFF731FF1920FFF732FFE1
:102C2000DF20FFF72BFF1A20FFF72CFF0120FFF713
:102C300025FF1B20FFF726FF1420FFF71FFF1C2096
:102C4000FFF720FF0020FFF719FF1D20FFF71AFFF5
:102C50000620FFF713FF1E20FFF714FF0020FFF7E9
:102C60000DFF1F20FFF70EFF0120FFF707FF40F2C7
:102C7000DF13002240F21F311046FFF75CFF00BD5A
:102C800000B5FFF794FF00BD70B504460025012094
:102C9000724908700CB9087013E0012C04D10120AE
:102CA0006E4908700C250CE0022C04D109206B49F8
:102CB0000870042505E0032C03D10920674908703A
:102CC0000825664801784020FFF79FFC2946202010
:102CD000FFF79BFC012C0EDD61490988614A1288CF
:102CE000914207DA5E4908885E4909885C4A11808A
:102CF0005C4908800EE05A4909885A4A1288914274
:102D000007DD5749088857490988554A11805549B0
:102D1000088000BF70BD10B50446E10A6020FFF7CF
:102D200074FCC4F345116120FFF76FFC04F01F0130
:102D30006220FFF76AFC10BD4B48007808B90020FC
:102D400070470120FCE710B500BFFEF72AFF00F036
:102D500080008028F9D010BD10B55220FFF765FC27
:102D600000F0F80421465220FFF74FFC10BD10B5CB
:102D70005220FFF75AFC00F0F800441C2146522074
:102D8000FFF743FC10BD10B50421F020FFF73DFC18
:102D900004217120FFF739FCB2217020FFF735FCC8
:102DA00010BD70B5F120FFF750FC064616F0040F79
:102DB0001ED07420FFF749FC05467220FFF745FC42
:102DC00004464FF6FF7000EA840405F00300044453
:102DD000264804807320FFF738FC04464FF6FF7046
:102DE00000EA8404C5F3810004442148048004E01F
:102DF00000201E4908801E490880F120FEF72BFEA6
:102E00000420FEF744FE1948008870BD1848008869
:102E1000704710B580210120FFF7F7FB10BD10B5FA
:102E200000210120FFF7F1FB10BD10B50020FFF7D6
:102E300014FC0021C720FFF7E8FB01210846FFF73B
:102E4000E4FB00210120FFF7E0FB02210120FFF756
:102E5000DCFB10BD3C0000203A00002042000020B6
:102E60002E00002030000020340000203E00002012
:102E70004000002070B504460D461646FE48007816
:102E8000032835D10120FD490870FD48007801284C
:102E900012DD46204FF0C841488008460580472093
:102EA000488028120880482048800846048049202D
:102EB00048802012088011E046204FF0C841488029
:102EC0000846048047204880201208804820488017
:102ED00008460580492048802812088002204FF0CB
:102EE000C8414880084606800020E44908700FE089
:102EF00029462046FFF74BFC0120E04908700220DC
:102F0000FEF7A9FD3046FEF7FDFD0020DB49087005
:102F100070BD70B504460D46D9480078012803DD20
:102F200020462C46054600BFE1B24A20FFF76DFB64
:102F300021124B20FFF769FBE9B24C20FFF765FB3C
:102F400029124D20FFF761FB70BD70B504460D4698
:102F500029462046FFF7DDFF0120C84908700220FE
:102F6000FEF779FDFEF7F7FD0646FEF7F4FD06468F
:102F7000FEF7F1FD06460020C0490870304670BDDE
:102F800010B5C0480388C048028800210846FFF7F2
:102F900027FC10BD2DE9F0478046894614461D46A2
:102FA000DDF820A000262B46224649464046FFF782
:102FB00017FC0120B14908700220FEF74CFD57466E
:102FC00000BF04E037F8020BFEF79CFD761C04FB03
:102FD00005F0B042F6D80020A8490870FFF7D0FFEE
:102FE000BDE8F0872DE9F04104460D4616461F4620
:102FF0003B46324629462046FFF7F2FB01209F4917
:1030000008700220FEF727FDBDE8F08110B5002012
:103010009A490870FFF7B4FF10BD2DE9F04104464E
:103020000D4616461F46DDF81880B44208D1BD4251
:1030300006D1424629462046FFF71CFFBDE8F08135
:103040008F480078012806DD20462C46054630468C
:103050003E46074600BFE1B29120FFF7D6FA2112A3
:103060009220FFF7D2FAE9B29320FFF7CEFA2912A5
:103070009420FFF7CAFAF1B29520FFF7C6FA311291
:103080009620FFF7C2FAF9B29720FFF7BEFA39127D
:103090009820FFF7BAFA4046FFF714FB0120774962
:1030A00008709020FEF7D7FC8020FEF7F0FCFFF7B9
:1030B0004AFE00207149087000BFBFE72DE9F041CA
:1030C00004460D4616461F46DDF818806C48007809
:1030D000012806DD20462C46054630463E4607467A
:1030E00000BFE1B29120FFF790FA21129220FFF782
:1030F0008CFAE9B29320FFF788FA29129420FFF79F
:1031000084FAE019401EC1B29520FFF77EFAE0195B
:10311000401EC0F307219620FFF777FAA819401E3A
:10312000C1B29720FFF771FAA819401EC0F307211A
:103130009820FFF76AFA4046FFF7C4FA01204F498A
:1031400008709020FEF787FC9020FEF7A0FCFFF7A8
:10315000FAFD002049490870BDE8F0812DE9F041F1
:1031600004460D4616461F46DDF8188007B10EB915
:10317000BDE8F08142480078012806DD20462C4653
:10318000054630463E46074600BFE1B29120FFF7B4
:103190003CFA21129220FFF738FAE9B29320FFF7A8
:1031A00034FA29129420FFF730FAE019401EC1B218
:1031B0009520FFF72AFAE019401EC0F30721962058
:1031C000FFF723FAA819401EC1B29720FFF71DFA96
:1031D000A819401EC0F307219820FFF716FA4046B1
:1031E000FFF770FA0120254908709020FEF733FCA4
:1031F000B020FEF74CFCFFF7A6FD00201F49087029
:1032000000BFB5E72DE9F04104460D4616461F46BE
:10321000FF2E01DDBDE8F08119480078012803DDAB
:1032200020462C46054600BFE1B29920FFF7EDF994
:1032300021129A20FFF7E9F9E9B29B20FFF7E5F99F
:1032400029129C20FFF7E1F9F1B29D20FFF7DDF98B
:103250003846FFF737FA0120084908709020FEF73A
:10326000FAFB4020FEF713FCFFF76DFD0020034939
:10327000087000BFCEE700002C00002034000020C2
:1032800032000020300000202E0000202DE9F04107
:1032900004460D4616461F46FF2E01DDBDE8F081AF
:1032A000FE480078012803DD20462C46054600BF75
:1032B000E1B29920FFF7A9F921129A20FFF7A5F9A9
:1032C000E9B29B20FFF7A1F929129C20FFF79DF995
:1032D000F1B29D20FFF799F93846FFF7F3F9012085
:1032E000EF4908709020FEF7B6FB6020FEF7CFFB99
:1032F000FFF729FD0020EA49087000BFCEE770B54E
:1033000004460E4615461F2E00DD1F263146292095
:10331000FFF77BF93F2D00DD3F25032C00DD002466
:10332000284664F39F10C1B24FF02E00FFF76DF9ED
:1033300070BD70B504460D46D848007801280CDDF4
:1033400004F00300102242EA800005F0030240EA84
:1033500002012220FFF759F90BE004F003000022DC
:1033600042EA800005F0030240EA02012220FFF752
:103370004CF970BD70B504460D46C8480078012868
:1033800003DD20462C46054600BFE1B22A20FFF7A8
:103390003CF921122B20FFF738F9E9B22C20FFF776
:1033A00034F929122D20FFF730F970BD70B50546AC
:1033B0000E46144631462846FFF7DCFFB948007830
:1033C00040F08000B7490870084601784020FFF7B8
:1033D0001CF900212F20FFF718F900212120FFF709
:1033E00014F90120AE4908700220FEF734FB0AE010
:1033F0002078FEF74CFB00BFFEF7D3FB00F0800007
:103400008028F9D0641C20780028F1D1A4490870E4
:10341000A448007800F07F00A249087008460178AF
:103420004020FFF7F2F870BD70B505460E46144611
:1034300031462846FFF79EFF9A48007840F080000A
:1034400098490870084601784020FFF7DEF803210C
:103450000620FFF7DAF820212120FFF7D6F82821EF
:103460000520FFF7D2F881212F20FFF7CEF80120A9
:103470008B4908700220FEF7EEFA0AE02078FEF78A
:1034800006FB00BFFEF78DFB00F080008028F9D01E
:10349000641C20780028F1D18149087081480078A7
:1034A00000F07F007F490870084601784020FFF750
:1034B000ACF870BD70B504460D4605FA04F0C1B213
:1034C0001320FFF7A2F870BD10B504462046FFF7A1
:1034D00045F910BD10B504462046FFF7BEF810BDF3
:1034E00010B501236E4C237046234FF0C84463800F
:1034F0002346188047236380031223804823638078
:1035000023461980492363800B12238002236380A2
:1035100023461A800023624C237010BD00BF4FF079
:10352000C8414988C8B200F080018029F7D07047AF
:1035300070B504460D460026012059490870FFF772
:1035400002FC54204FF0C8414880084604805520B2
:103550004880201208805620488008460580572061
:103560004880281208805C204880002008805D2068
:103570004880012008805E204880002008805F206D
:103580004880012008805120488001200880502078
:1035900048800846008840F080000880022048806B
:1035A000084606880688FFF7CEFB00203C490870D5
:1035B000304670BD00B54020FFF764FAFFF766FAA9
:1035C000024602F0FE021046FFF758FA00BDF0B5C1
:1035D00005460E464FF448734FF4F0740020002166
:1035E00000BF10E000200BE002274FF0C84CACF801
:1035F000027067463F8801FB030C22F81C70401CD8
:103600009842F1DB491CA142ECDBF0BD10B502464B
:1036100000200123224C23704A234FF0C8446380CA
:1036200023461A804B236380131223804C2363802C
:10363000234619804D2363800B122380022363806D
:1036400000BF234618880023154C237010BD2DE9B8
:10365000F84304460D4616461F46DDF8208001203B
:103660000F49087000200090301B401C83B2781B6B
:10367000401C82B229462046FFF73CF80C20FFF799
:1036800032F84046FFF71EF8FFF711F8FEF7FDFF8E
:10369000002003490870BDE8F883000032000020D4
:1036A000340000204200002070B50125424E3570E4
:1036B00046254FF0C84675803546288047257580D9
:1036C0000512358048257580354629804925758045
:1036D0000D12358002257580002404E04FF0C845A6
:1036E0002B80651CACB2151A6D1CA542F6DC0025BA
:1036F000314E357070BD70B501252F4E35704625A1
:103700004FF0C846758035462880472575800512DC
:1037100035804825758035462980492575800D12EC
:10372000358002257580002406E033F8025B4FF0F7
:10373000C8463580651CACB29442F6DB00251E4EAF
:10374000357070BD70B5144601251B4E3570462589
:103750004FF0C8467580354628804725758005128C
:1037600035804825758035462980492575800D129C
:103770003580012218E002254FF0C8467580354695
:103780002B80462575803546288047257580051293
:103790003580482575808D183580492575808D18B0
:1037A0002D123580551CAAB2651A6D1C9542E2DABD
:1037B0000025014E357070BD34000020032A40F210
:1037C000308010F0030C00F0158011F8013BBCF1C3
:1037D000020F624498BF11F801CB00F8013B38BFDB
:1037E00011F8013BA2F1040298BF00F801CB38BFE9
:1037F00000F8013B11F0030300F03080083AC0F0FC
:10380000088051F8043B083A51F804CBA0E80810AE
:10381000F5E7121D5CBF51F8043B40F8043BAFF3E1
:103820000080D20724BF11F8013B11F801CB48BF3B
:1038300011F8012B24BF00F8013B00F801CB48BF71
:1038400000F8012B704702F0FF0343EA032242EA2B
:10385000024200F037B870477047704710B5203A01
:10386000C0F00B80B1E81850203AA0E81850B1E839
:103870001850A0E81850BFF4F5AF5FEA027C24BFEF
:10388000B1E81850A0E8185044BF18C918C0BDE8E6
:1038900010405FEA827C24BF51F8043B40F8043BAF
:1038A00008BF7047D20728BF31F8023B48BF11F864
:1038B000012B28BF20F8023B48BF00F8012B7047BE
:1038C0004FF000020429C0F0128010F0030C00F049
:1038D0001B80CCF1040CBCF1020F18BF00F8012BC7
:1038E000A8BF20F8022BA1EB0C0100F00DB85FEA95
:1038F000C17C24BF00F8012B00F8012B48BF00F861
:10390000012B70474FF0000200B5134694469646CF
:10391000203922BFA0E80C50A0E80C50B1F12001E2
:10392000BFF4F7AF090728BFA0E80C5048BF0CC090
:103930005DF804EB890028BF40F8042B08BF7047EE
:1039400048BF20F8022B11F0804F18BF00F8012B60
:103950007047754600F028F8AE46050069465346A4
:1039600020F00700854618B020B5FCF77BFDBDE8C8
:1039700020404FF000064FF000074FF000084FF0D6
:10398000000B21F00701AC46ACE8C009ACE8C00967
:10399000ACE8C009ACE8C0098D4670470446AFF3F7
:1039A00000802046FCF739FC0048704744000020A6
:1039B00001491820ABBEFEE72600020070474FF019
:1039C0004070E1EE100A70470F0000000F00000089
:1039D000FF0000000F0000000F0000000F000000BB
:1039E00000000000000000000000000000000000D7
:1039F00000000000000000000000000000000000C7
:103A000000000000000000000000000000000000B6
:103A100000000000000000000000000000000000A6
:103A20000000000000000000000000000000000096
:103A30000000000000000000000000000000000086
:103A40000000000000000000000000000000000076
:103A50000000000000000000000000000000000066
:103A60000000000000000000000000000000000056
:103A70000000000000000000000000000000000046
:103A80000000000000000000000000000000000036
:103A90000000000000000000000000000000000026
:103AA0000000000000000000000000000000000016
:103AB0000000000000000000000000000000000006
:103AC00000000000000000000000000000000000F6
:103AD00000000000000000000000000000000000E6
:103AE00000000000000000000000000000000000D6
:103AF00000000000000000000000000000000000C6
:103B000000000000000000000000000000000000B5
:103B100000000000000000000000000000000000A5
:103B20000000000000000000000000000000000095
:103B30000000000000000000000000000000000085
:103B40000000000000000000000000000000000075
:103B50000000000000000000000000000000000065
:103B60000000000000000000000000000000000055
:103B7000001010101010000010000000006C4848E9
:103B80000000000000000000001414287C287C289D
:103B900050500000001038404038487010100000AD
:103BA000002050200C7008140800000000000018CD
:103BB00020205448340000000010101010000000B5
:103BC0000000000000080810101010101008080075
:103BD00000202010101010101020200000107C1069
:103BE00028280000000000000000101010FC101039
:103BF000100000000000000000000018103020003D
:103C000000000000007C0000000000000000000038
:103C100000000030300000000004040808101020EC
:103C2000204000000038444444444444380000002C
:103C300000301010101010107C00000000384404F8
:103C4000081020447C000000003844041804044498
:103C500038000000000C141424447C040C00000004
:103C6000003C20203804044438000000001C2040A0
:103C70007844444438000000007C440408080810DC
:103C80001000000000384444384444443800000028
:103C900000384444443C0408700000000000003038
:103CA000300000303000000000000018180000183C
:103CB0003020000000000C10608060100C0000003C
:103CC000000000007C007C00000000000000C0201C
:103CD00018041820C0000000000018240408100078
:103CE000300000003844444C54544C4044380000E8
:103CF0000030102828287C44EC00000000F84444E0
:103D000078444444F8000000003C444040404044B3
:103D10003800000000F0484444444448F0000000EB
:103D200000FC445070504044FC000000007C2028FF
:103D30003828202070000000003C4440404C44449F
:103D40003800000000EC44447C444444EC00000093
:103D5000007C1010101010107C000000003C0808BF
:103D6000084848483000000000EC4448507048447F
:103D7000E400000000702020202024247C000000AB
:103D800000EC6C6C54544444EC00000000EC64649F
:103D90005454544CEC00000000384444444444441F
:103DA000380000000078242424382020700000000F
:103DB0000038444444444444381C000000F844445F
:103DC00044784844E000000000344C403804046467
:103DD0005800000000FC9010101010103800000077
:103DE00000EC4444444444443800000000EC4444A3
:103DF000282828101000000000EC44445454545467
:103E00002800000000C4442810102844C40000000A
:103E100000EC44282810101038000000007C4408F2
:103E2000101020447C00000000382020202020209A
:103E30002020380000402020201010080808000032
:103E4000003808080808080808083800001010287A
:103E5000440000000000000000000000000000001E
:103E6000000000FC0010080000000000000000003E
:103E700000000038443C44443C00000000C040586E
:103E800064444444F80000000000003C44404044C6
:103E900038000000000C04344C4444443C00000052
:103EA00000000038447C40403C000000001C207CA6
:103EB000202020207C000000000000344C444444BA
:103EC0003C04380000C0405864444444EC00000006
:103ED00000100070101010107C000000001000781E
:103EE000080808080808700000C0405C4870504886
:103EF000DC00000000301010101010107C000000DA
:103F0000000000E854545454FC000000000000D8A5
:103F100064444444EC00000000000038444444443D
:103F200038000000000000D8644444447840E000B9
:103F3000000000344C4444443C040C000000006C7D
:103F4000302020207C0000000000003C4438044465
:103F5000780000000000207C202020201C000000B1
:103F6000000000CC4444444C34000000000000EC4D
:103F70004444282810000000000000EC445454542D
:103F800028000000000000CC48303048CC00000081
:103F9000000000EC44242818101078000000007C79
:103FA000481020447C000000000810101010201061
:103FB0001010080000101010101010101010000049
:103FC0000020101010100810101020000000000039
:103FD0000024580000000000000000000000000065
:103FE000000000000000000000007E81A58181BD6E
:103FF0009981817E0000000000007EFFDBFFFFC38F
:10400000E7FFFF7E00000000000000006CFEFEFEE7
:10401000FE7C3810000000000000000010387CFE1C
:104020007C38100000000000000000183C3CE7E76E
:10403000E718183C00000000000000183C7EFFFF5D
:104040007E18183C00000000000000000000183C32
:104050003C18000000000000FFFFFFFFFFFFE7C368
:10406000C3E7FFFFFFFFFFFF00000000003C6642C8
:1040700042663C0000000000FFFFFFFFFFC399BD48
:10408000BD99C3FFFFFFFFFF00001E0E1A3278CC60
:10409000CCCCCC780000000000003C666666663C34
:1040A000187E18180000000000003F333F30303009
:1040B0003070F0E00000000000007F637F63636306
:1040C0006367E7E6C00000000000001818DB3CE76B
:1040D0003CDB1818000000000080C0E0F0F8FEF89B
:1040E000F0E0C080000000000002060E1E3EFE3E12
:1040F0001E0E0602000000000000183C7E18181872
:104100007E3C180000000000000066666666666679
:10411000660066660000000000007FDBDBDB7B1BC7
:104120001B1B1B1B00000000007CC660386CC6C651
:104130006C380CC67C00000000000000000000008D
:10414000FEFEFEFE000000000000183C7E1818185D
:104150007E3C187E000000000000183C7E181818F5
:10416000181818180000000000001818181818185F
:10417000187E3C18000000000000000000180CFE33
:104180000C1800000000000000000000003060FE7D
:104190006030000000000000000000000000C0C00F
:1041A000C0FE0000000000000000000000286CFEBF
:1041B0006C28000000000000000000001038387C6F
:1041C0007CFEFE000000000000000000FEFE7C7C83
:1041D000383810000000000000000000000000005F
:1041E00000000000000000000000183C3C3C1818D3
:1041F0001800181800000000006666662400000021
:1042000000000000000000000000006C6CFE6C6C00
:104210006CFE6C6C0000000018187CC6C2C07C06E6
:104220000686C67C1818000000000000C2C60C18E4
:104230003060C686000000000000386C6C3876DC08
:10424000CCCCCC76000000000030303060000000A4
:10425000000000000000000000000C18303030307A
:104260003030180C00000000000030180C0C0C0C52
:104270000C0C1830000000000000000000663CFF3D
:104280003C66000000000000000000000018187EDE
:1042900018180000000000000000000000000000EE
:1042A000001818183000000000000000000000FE98
:1042B00000000000000000000000000000000000FE
:1042C00000001818000000000000000002060C1892
:1042D0003060C080000000000000386CC6C6D6D632
:1042E000C6C66C380000000000001838781818188E
:1042F0001818187E0000000000007CC6060C18305C
:1043000060C0C6FE0000000000007CC606063C0639
:104310000606C67C0000000000000C1C3C6CCCFEB5
:104320000C0C0C1E000000000000FEC0C0C0FC060B
:104330000606C67C0000000000003860C0C0FCC655
:10434000C6C6C67C000000000000FEC606060C18AB
:10435000303030300000000000007CC6C6C67CC68D
:10436000C6C6C67C0000000000007CC6C6C67E062D
:1043700006060C780000000000000000181800007D
:1043800000181800000000000000000018180000CD
:104390000018183000000000000000060C18306003
:1043A00030180C060000000000000000007E000035
:1043B0007E000000000000000000006030180C06C5
:1043C0000C1830600000000000007CC6C60C1818F5
:1043D00018001818000000000000007CC6C6DEDED1
:1043E000DEDCC07C00000000000010386CC6C6FE99
:1043F000C6C6C6C6000000000000FC6666667C6695
:10440000666666FC0000000000003C66C2C0C0C0DA
:10441000C0C2663C000000000000F86C666666667C
:1044200066666CF8000000000000FE66626878684E
:10443000606266FE000000000000FE666268786848
:10444000606060F00000000000003C66C2C0C0DE9A
:10445000C6C6663A000000000000C6C6C6C6FEC654
:10446000C6C6C6C60000000000003C181818181880
:104470001818183C0000000000001E0C0C0C0C0C5E
:10448000CCCCCC78000000000000E666666C787842
:104490006C6666E6000000000000F060606060602E
:1044A000606266FE000000000000C6EEFEFED6C69A
:1044B000C6C6C6C6000000000000C6E6F6FEDECE98
:1044C000C6C6C6C60000000000007CC6C6C6C6C67A
:1044D000C6C6C67C000000000000FC6666667C6004
:1044E000606060F00000000000007CC6C6C6C6C662
:1044F000C6D6DE7C0C0E00000000FC6666667C6C96
:10450000666666E60000000000007CC6C660380CE7
:1045100006C6C67C0000000000007E7E5A181818EF
:104520001818183C000000000000C6C6C6C6C6C663
:10453000C6C6C67C000000000000C6C6C6C6C6C609
:10454000C66C3810000000000000C6C6C6C6D6D62D
:10455000D6FEEE6C000000000000C6C66C7C383849
:104560007C6CC6C6000000000000666666663C18EB
:104570001818183C000000000000FEC6860C183019
:1045800060C2C6FE0000000000003C303030303019
:104590003030303C0000000000000080C0E0703887
:1045A0001C0E06020000000000003C0C0C0C0C0C61
:1045B0000C0C0C3C0000000010386CC60000000021
:1045C00000000000000000000000000000000000EB
:1045D0000000000000FF0000303018000000000064
:1045E00000000000000000000000000000780C7CCB
:1045F000CCCCCC76000000000000E06060786C66F7
:104600006666667C0000000000000000007CC6C0FA
:10461000C0C0C67C0000000000001C0C0C3C6CCC30
:10462000CCCCCC760000000000000000007CC6FE70
:10463000C0C0C67C000000000000386C6460F06000
:10464000606060F000000000000000000076CCCC4C
:10465000CCCCCC7C0CCC78000000E060606C766642
:10466000666666E60000000000001818003818189A
:104670001818183C0000000000000606000E060690
:104680000606060666663C000000E06060666C7820
:10469000786C66E60000000000003818181818183A
:1046A0001818183C000000000000000000ECFED6C6
:1046B000D6D6D6C6000000000000000000DC66660A
:1046C000666666660000000000000000007CC6C64A
:1046D000C6C6C67C000000000000000000DC666664
:1046E0006666667C6060F000000000000076CCCC5E
:1046F000CCCCCC7C0C0C1E000000000000DC7666EC
:10470000606060F00000000000000000007CC660F7
:10471000380CC67C000000000000103030FC303047
:104720003030361C000000000000000000CCCCCC73
:10473000CCCCCC760000000000000000006666666D
:1047400066663C18000000000000000000C6C6D6E7
:10475000D6D6FE6C000000000000000000C66C38D9
:1047600038386CC6000000000000000000C6C6C655
:10477000C6C6C67E060CF8000000000000FECC187D
:104780003060C6FE0000000000000E1818187018F7
:104790001818180E0000000000001818181800184B
:1047A00018181818000000000000701818180E18CB
:1047B0001818187000000000000076DC00000000EF
:1047C00000000000000000000000000010386CC66F
:1047D000C6C6FE000000000000003C66C2C0C0C0AB
:1047E000C2663C0C067C00000000CC0000CCCCCCA7
:1047F000CCCCCC7600000000000C1830007CC6FE4B
:10480000C0C0C67C000000000010386C00780C7C32
:10481000CCCCCC76000000000000CC0000780C7CF2
:10482000CCCCCC76000000000060301800780C7C06
:10483000CCCCCC760000000000386C3800780C7CC2
:10484000CCCCCC7600000000000000003C6660602C
:10485000663C0C063C0000000010386C007CC6FE74
:10486000C0C0C67C000000000000C600007CC6FE80
:10487000C0C0C67C0000000000603018007CC6FE8E
:10488000C0C0C67C00000000000066000038181898
:104890001818183C0000000000183C660038181872
:1048A0001818183C00000000006030180038181874
:1048B0001818183C0000000000C60010386CC6C66E
:1048C000FEC6C6C600000000386C3800386CC6C68C
:1048D000FEC6C6C60000000018306000FE66607CA0
:1048E000606066FE000000000000000000CC76362C
:1048F0007ED8D86E0000000000003E6CCCCCFECC10
:10490000CCCCCCCE000000000010386C007CC6C6B9
:10491000C6C6C67C000000000000C600007CC6C6FB
:10492000C6C6C67C0000000000603018007CC6C609
:10493000C6C6C67C00000000003078CC00CCCCCCD1
:10494000CCCCCC76000000000060301800CCCCCC81
:10495000CCCCCC76000000000000C60000C6C6C665
:10496000C6C6C67E060C780000C6007CC6C6C6C693
:10497000C6C6C67C0000000000C600C6C6C6C6C6C5
:10498000C6C6C67C000000000018183C6660606067
:10499000663C18180000000000386C6460F060602D
:1049A0006060E6FC00000000000066663C187E18AF
:1049B0007E1818180000000000F8CCCCF8C4CCDE3B
:1049C000CCCCCCC600000000000E1B1818187E18B6
:1049D00018181818D87000000018306000780C7C87
:1049E000CCCCCC7600000000000C18300038181831
:1049F0001818183C0000000000183060007CC6C683
:104A0000C6C6C67C000000000018306000CCCCCCCC
:104A1000CCCCCC7600000000000076DC00DC6666C2
:104A2000666666660000000076DC00C6E6F6FEDE1E
:104A3000CEC6C6C600000000003C6C6C3E007E0086
:104A4000000000000000000000386C6C38007C00A2
:104A50000000000000000000000030300030306036
:104A6000C0C6C67C00000000000000000000FEC0C0
:104A7000C0C0C00000000000000000000000FE06F2
:104A8000060606000000000000C0C0C2C6CC1830F8
:104A900060DC860C183E000000C0C0C2C6CC1830D6
:104AA00066CE9E3E06060000000018180018181872
:104AB0003C3C3C18000000000000000000366CD8B0
:104AC0006C360000000000000000000000D86C36CA
:104AD0006CD800000000000011441144114411443E
:104AE000114411441144114455AA55AA55AA55AA76
:104AF00055AA55AA55AA55AADD77DD77DD77DD776A
:104B0000DD77DD77DD77DD77181818181818181895
:104B1000181818181818181818181818181818F835
:104B200018181818181818181818181818F818F845
:104B3000181818181818181836363636363636F645
:104B4000363636363636363600000000000000FEB7
:104B500036363636363636360000000000F818F89D
:104B600018181818181818183636363636F606F685
:104B700036363636363636363636363636363636D5
:104B800036363636363636360000000000FE06F67B
:104B900036363636363636363636363636F606FE5D
:104BA000000000000000000036363636363636FE8D
:104BB00000000000000000001818181818F818F875
:104BC000000000000000000000000000000000F8ED
:104BD0001818181818181818181818181818181F4E
:104BE000000000000000000018181818181818FF1E
:104BF000000000000000000000000000000000FFB6
:104C00001818181818181818181818181818181F1D
:104C1000181818181818181800000000000000FFD5
:104C2000000000000000000018181818181818FFDD
:104C3000181818181818181818181818181F181FE6
:104C400018181818181818183636363636363637F3
:104C50003636363636363636363636363637303FF0
:104C6000000000000000000000000000003F30379E
:104C700036363636363636363636363636F700FF80
:104C800000000000000000000000000000FF00F72E
:104C900036363636363636363636363636373037B8
:104CA00036363636363636360000000000FF00FF56
:104CB00000000000000000003636363636F700F7F8
:104CC00036363636363636361818181818FF00FFBE
:104CD000000000000000000036363636363636FF5B
:104CE00000000000000000000000000000FF00FFC6
:104CF000181818181818181800000000000000FFF5
:104D00003636363636363636363636363636363F3A
:104D1000000000000000000018181818181F181FC5
:104D2000000000000000000000000000001F181F2D
:104D30001818181818181818000000000000003F74
:104D4000363636363636363636363636363636FF3A
:104D500036363636363636361818181818FF18FF15
:104D6000181818181818181818181818181818F8E3
:104D70000000000000000000000000000000001F14
:104D80001818181818181818FFFFFFFFFFFFFFFF6B
:104D9000FFFFFFFFFFFFFFFF00000000000000FF1C
:104DA000FFFFFFFFFFFFFFFFF0F0F0F0F0F0F0F08B
:104DB000F0F0F0F0F0F0F0F00F0F0F0F0F0F0F0FFB
:104DC0000F0F0F0F0F0F0F0FFFFFFFFFFFFFFF0072
:104DD0000000000000000000000000000076DCD8A9
:104DE000D8D8DC7600000000000078CCCCCCD8CC41
:104DF000C6C6C6CC000000000000FEC6C6C0C0C0CB
:104E0000C0C0C0C00000000000000000FE6C6C6C60
:104E10006C6C6C6C00000000000000FEC660301876
:104E20003060C6FE0000000000000000007ED8D800
:104E3000D8D8D870000000000000000066666666E2
:104E4000667C6060C00000000000000076DC18187E
:104E500018181818000000000000007E183C666654
:104E6000663C187E00000000000000386CC6C6FEDC
:104E7000C6C66C38000000000000386CC6C6C66CA0
:104E80006C6C6CEE0000000000001E30180C3E66DA
:104E90006666663C0000000000000000007EDBDB70
:104EA000DB7E00000000000000000003067EDBDB6C
:104EB000F37E60C00000000000001C3060607C6079
:104EC0006060301C000000000000007CC6C6C6C642
:104ED000C6C6C6C60000000000000000FE0000FEBE
:104EE0000000FE00000000000000000018187E18FE
:104EF000180000FF0000000000000030180C060C35
:104F00001830007E000000000000000C18306030F7
:104F1000180C007E0000000000000E1B1B18181863
:104F20001818181818181818181818181818181801
:104F3000D8D8D87000000000000000001818007ECB
:104F40000018180000000000000000000076DC00DF
:104F500076DC00000000000000386C6C38000000B7
:104F60000000000000000000000000000000001829
:104F70001800000000000000000000000000000019
:104F80001800000000000000000F0C0C0C0C0CECD2
:104F90006C6C3C1C0000000000D86C6C6C6C6C00ED
:104FA00000000000000000000070D83060C8F80069
:104FB0000000000000000000000000007C7C7C7C01
:104FC0007C7C7C000000000000000000000000006D
:104FD00000000000000000000000000000000000D1
:104FE00000000000000000000000000000000000C1
:104FF00000000000000000000000000000000000B1
:1050000000000000000000000000000000000000A0
:105010001FF01800180018001800180018001800D9
:1050200018001800180018001800180018001800C0
:105030001FF0000000000000000000000000000061
:105040000000000000000000000000000000000060
:105050000000000000000000000000000000000050
:105060000000000000000000000000000000000040
:105070001FF0180018001800180018001800180079
:105080001800180018001800180018001800180060
:105090001FF0000000000000000000000000000001
:1050A0001FF0180018001800180018001800180049
:1050B0001800180018001800180018001800180030
:1050C0001FF00000000000000000000000000000D1
:1050D0001FF0180018001800180018001800180019
:1050E0001800180018001800180018001800180000
:1050F0001FF00000000000000000000000000000A1
:105100001FF01800180018001800180018001800E8
:1051100018001800180018001800180018001800CF
:105120001FF0000000000000000000000000000070
:105130001FF01800180018001800180018001800B8
:10514000180018001800180018001800180018009F
:105150001FF0000000000000000000000000000040
:105160001FF0180018001800180018001800180088
:10517000180018001800180018001800180018006F
:105180001FF0000000000000000000000000000010
:10519000000000000000000000000000000000000F
:1051A00000000000000000000000000000000000FF
:1051B00000000000000000000000000000000000EF
:1051C00000000000000000000000000000000000DF
:1051D00000000000000000000000000000000000CF
:1051E00000000000000000000000000000000000BF
:1051F00000000000000000000000000000000000AF
:10520000000000000000000000000000000000009E
:10521000000000000000000000000000000000008E
:105220001FF01800180018001800180018001800C7
:1052300018001800180018001800180018001800AE
:105240001FF000000000000000000000000000004F
:1052500000000000000000000000038007C00FE015
:105260001FF03FF07FF07FF07FF077D067C007C07E
:1052700007C0000000000000000000000000000067
:105280001FF0180018001800180018001800180067
:10529000180018001800180018001800180018004E
:1052A0001FF00000000000000000000000000000EF
:1052B0001FF0180018001800180018001800180037
:1052C000180018001800180018001800180018001E
:1052D0001FF00000000000000000000000000000BF
:1052E0001FF0180018001800180018001800180007
:1052F00018001800180018001800180018001800EE
:105300001FF000000000000000000000000000008E
:105310001FF01800180018001800180018001800D6
:1053200018001800180018001800180018001800BD
:105330001FF000000000000000000000000000005E
:105340001FF01800180018001800180018001800A6
:10535000180018001800180018001800180018008D
:105360001FF000000000000000000000000000002E
:105370001FF0180018001800180018001800180076
:10538000180018001800180018001800180018005D
:105390001FF00000000000000000000000000000FE
:1053A0001FF0180018001800180018001800180046
:1053B000180018001800180018001800180018002D
:1053C0001FF00000000000000000000000000000CE
:1053D0001FF0180018001800180018001800180016
:1053E00018001800180018001800180018001800FD
:1053F0001FF000000000000000000000000000009E
:105400001FF01800180018001800180018001800E5
:1054100018001800180018001800180018001800CC
:105420001FF000000000000000000000000000006D
:105430001FF01800180018001800180018001800B5
:10544000180018001800180018001800180018009C
:105450001FF000000000000000000000000000003D
:105460001FF0180018001800180018001800180085
:10547000180018001800180018001800180018006C
:105480001FF000000000000000000000000000000D
:105490001FF0180018001800180018001800180055
:1054A000180018001800180018001800180018003C
:1054B0001FF00000000000000000000000000000DD
:1054C0001FF0180018001800180018001800180025
:1054D000180018001800180018001800180018000C
:1054E0001FF00000000000000000000000000000AD
:1054F0001FF01800180018001800180018001800F5
:1055000018001800180018001800180018001800DB
:105510001FF000000000000000000000000000007C
:10552000000000000000000000000000000000007B
:10553000000000000000000000000000000000006B
:10554000000000000000000000000000000000005B
:10555000000000000000000000000000000000004B
:10556000000000000000000000000000000000003B
:10557000000000000000000000000000000000002B
:10558000000000000000000000000000000000001B
:10559000000000000000000000000000000000000B
:1055A00000000000000000000000000000000000FB
:1055B00000000000000000000000000000000000EB
:1055C00000000000000000000000000000000000DB
:1055D00000000000000000000000000000000000CB
:1055E00000000000000000000000000000000000BB
:1055F00000000000000000000000000000000000AB
:10560000000000000000000000000000000000009A
:105610000700070007000700070007000700030056
:10562000060006000600000000000000070007005A
:105630000700000000000000000000000770077075
:105640000EE01DC0198033000000000000000000C3
:10565000000000000000000000000000000000004A
:10566000000000000000000000000000000000003A
:105670000C600C600C600C607FF07FF0186018C04C
:1056800018C018C018C07FF07FF030C030C030C0E4
:1056900030C0000000000000000000000000030017
:1056A00003000FC01FE03BE03BE03B001F000F008A
:1056B000078003C003C003E03BE03FE03BE01BC0CA
:1056C0000F80030003000000000000000000000045
:1056D00078C078C0CD80CD80CD80CF00CF007E0057
:1056E0007FE007E00F300F301B301B301B3031E004
:1056F00031E0000000000000000000000000000099
:105700001E003F003F003F003F003F003E001DF0F5
:105710003CC07CC0EEC0EEC0E7C0E780E39073D031
:105720003EF00000000000000000000038003C00D7
:105730000C000C0018003000000000000000000009
:105740000000000000000000000000000000000059
:1057500000000000000000000000000000300060B9
:1057600000C001800180030003000600060006005F
:105770000600060006000600030003000180018009
:1057800000C0006000300000000000006000300039
:1057900018000C000C0006000600030003000300C4
:1057A0000300030003000300060006000C000C00C9
:1057B0001800300060000000000000000000000041
:1057C0000000000003000380030073307BF00FC073
:1057D0000FC07FF0733003000300030000000000DF
:1057E00000000000000000000000000000000000B9
:1057F000000000000000030003000300030003009A
:105800007FF003000300030003000300000000001A
:105810000000000000000000000000000000000088
:105820000000000000000000000000000000000078
:1058300000000000000000000000000038003C00F4
:105840000C000C00180030000000000000000000F8
:105850000000000000000000000000000000000048
:105860007FF00000000000000000000000000000C9
:105870000000000000000000000000000000000028
:105880000000000000000000000000000000000018
:105890000000000000000000000000003C003C0090
:1058A0003C0000000000000000000000003000701C
:1058B000006000E000C000C0018001800300030020
:1058C0000700060006000C000C0018001800380045
:1058D00030007000600000000000000000000000C8
:1058E00000000F801DC038E038E07070707070707C
:1058F0007070707070707070707038E038E01DC03B
:105900000F80000000000000000000000000000008
:10591000000003003F000700070007000700070022
:10592000070007000700070007000700070007003F
:105930003FE0000000000000000000000000000048
:1059400000001F8031C060E070E070E000E000C047
:1059500001C00380070006000C0018603060706012
:105960007FE00000000000000000000000000000D8
:1059700000001F00738071C071C001C001C00380AE
:105980000F0001C000C000E000E070E070E071C0F6
:105990001F80000000000000000000000000000068
:1059A000000001C001C003C007C007C00DC019C07E
:1059B00019C031C061C07FF001C001C001C001C089
:1059C00007F00000000000000000000000000000E0
:1059D00000003FE0300030003000300030003F80F9
:1059E00039C030E000E000E070E070E061C031C03C
:1059F0001F80000000000000000000000000000008
:105A0000000007C01CE038E038003000700077C0AC
:105A10007CE07870707070707070307038601CE06E
:105A20000F800000000000000000000000000000E7
:105A300000001FF03870306030C000C000C001802E
:105A400001800300030003000700070007000700B0
:105A5000070000000000000000000000000000003F
:105A600000001FC038E070707070707038603CE0EB
:105A70000F801BC038E0707070707070707038E00C
:105A80000FC0000000000000000000000000000047
:105A900000000F8038C038E07060707070707070F7
:105AA00070F039F01F70007000E000E038C039C0BD
:105AB0001F000000000000000000000000000000C7
:105AC00000000000000000000000000007800780C8
:105AD0000780000000000000000000000780078031
