:020000040800F2
:10000000C0DE0120C142000893020008CB42000874
:10001000A3020008A7020008AB02000800000000CD
:10002000000000000000000000000000AF02000817
:10003000B102000800000000DFD902083981000881
:10004000ED420008ED420008ED42000827050008D7
:10005000ED420008ED420008ED420008ED420008C4
:1000600097400008ED420008ED420008ED4200080C
:10007000ED420008ED420008ED420008ED420008A4
:10008000ED420008ED420008ED420008ED42000894
:10009000ED420008ED420008ED420008432300084D
:1000A000ED420008ED420008ED420008ED42000874
:1000B000ED420008853C0008ED420008ED420008D2
:1000C000ED420008ED420008ED420008ED42000854
:1000D000ED4200080D3500088D370008113A000880
:1000E000B1400008ED420008ED420008ED42000872
:1000F000ED420008ED420008ED420008ED42000824
:10010000ED42000821220008ED420008ED420008FF
:10011000833E0008ED420008ED420008ED42000871
:10012000ED420008ED420008ED42000829220008D7
:10013000ED420008ED420008ED420008ED420008E3
:10014000ED420008ED420008ED420008ED420008D3
:10015000ED420008ED420008ED420008CF3B0008E8
:10016000ED420008ED420008ED420008ED420008B3
:10017000ED420008ED420008ED420008ED420008A3
:10018000ED420008ED42000800F002F800F072F8BD
:100190000AA090E8000C82448344AAF10107DA45E2
:1001A00001D100F067F8AFF2090EBAE80F0013F0C2
:1001B000010F18BFFB1A43F0010318470C8E0A0009
:1001C0002C8E0A000A444FF0000C10F8013B13F08B
:1001D000070408BF10F8014B1D1108BF10F8015BA0
:1001E000641E05D010F8016B641E01F8016BF9D193
:1001F00013F0080F1EBF10F8014BAD1C0C1B09D1EA
:100200006D1E58BF01F801CBFAD505E014F8016B5B
:1002100001F8016B6D1EF9D59142D6D370470000ED
:100220000023002400250026103A28BF78C1FBD8FF
:10023000520728BF30C148BF0B60704764292BF0BC
:10024000B78573292CF08781002070471FB549F0CE
:1002500059FE2CF0F5FA04000020002149F020F9A5
:10026000401C60600020002149F004F9E0601FBDDF
:1002700010B510BD2CF0BEFA1146FFF7E7FF18F0DD
:10028000EEF82CF041FD03B4FFF7F2FF03BC07F0DA
:10029000E5FF704700BFFEE700BF00BF00BF00BF23
:1002A000FEE700BFFEE700BFFEE700BFFEE77047C6
:1002B0007047000008B56946002005F0E5FE9DF88E
:1002C000030000F5FA6008BD08B56946002005F096
:1002D000DBFE9DF8010008BD08B56946002005F069
:1002E000D3FE9DF8020008BD08B56946002005F060
:1002F00031FE9DF8000008BD08B56946002005F0F4
:1003000029FE9DF8010008BD08B56946002005F0EA
:1003100021FE9DF8020008BD10B586B0044604A970
:10032000002005F017FE05A9002005F0ADFE9DF8A0
:1003300012009DF811109DF810209DF81630CDE99F
:100340000032CDE902109DF815309DF8170000F538
:10035000FA627AA181482BF0C5FC1CB17F49204686
:100360002BF04BFE7D4806B010BD2DE9FC4704463E
:100370000D4616461F46DDE90A89A4F5FA60C0B2AB
:100380008DF80700E8B28DF80500F0B28DF8060090
:1003900000208DF80400F8B28DF8000008F0FF008E
:1003A0008DF8010009F0FF008DF8020001A900207E
:1003B00005F004FE6946002005F062FDBDE8FC87FB
:1003C0000EB54FF4800004F06EFB4FF480000090F7
:1003D00000208DF8040008208DF8050001208DF81C
:1003E0000600684604F0EEFA03208DF808000120AC
:1003F0008DF8090000208DF80A0001208DF80B000F
:1004000002A804F092F80121880306F00BFA0120FB
:1004100005F099FF042005F071FF002005F083FF2F
:100420000EBD10B586B000240121080705F0BBFA07
:10043000012004F0FAFF012005F009F909E0601C31
:10044000C0B20446B0F57A7F03DD4FF0FF3006B04E
:1004500010BD412005F0B4F80028F0D04FF48070B2
:1004600005F0F6F9012005F00EFA05F0A7FB7F2054
:100470000490FF2005900020039003A805F065FC80
:1004800014208DF8070007208DF805008DF8060070
:1004900001208DF8040001A905F090FD00208DF8E1
:1004A0000B0012208DF8080000208DF809008DF84F
:1004B0000A0002A9012005F0E3FC4AF2A551002040
:1004C00006F02DF90020C2E710B5002006F034F93F
:1004D000A0F52541A53903D0FFF7A3FF08B310BD50
:1004E0000121080705F05FFA012004F09EFF05F0E6
:1004F00065FB4FF4807006F0D4F94FF4805006F09D
:10050000FDF94FF4005006F0F9F9CA2014490860CB
:1005100053200860002012491C390860FF20104950
:10052000086000BFDBE710B54FF4804006F0C7F964
:1005300018B14FF4804006F0E1F910BD2530346465
:100540002D253032642D2530326420253032643A36
:10055000253032643A25303264000000D4AA0020ED
:10056000242800401CB5002006F004FA002006F004
:1005700004FA06F0D7F900214FF4006005F024FAE0
:1005800000220821FC4804F00CFF00220921FA484F
:1005900004F007FF00220A21F74804F002FF0022BE
:1005A0000B21F54804F0FDFE00220C21F24804F076
:1005B000F8FE00220221F14804F0F3FE4FF47060CF
:1005C000009000208DF804008DF807006946EA4885
:1005D00004F05CFE042000906946E84804F056FEF2
:1005E0004FF4805000906946E34804F04FFE1CBD74
:1005F00010B5FFF7B7FF10BD2DE9F0410646002703
:10060000DF48056801E0DE48056815F0450FFAD0BF
:1006100015F0040F06D00327042006F053FA3846DD
:10062000BDE8F08115F0010F05D00127012006F08B
:1006300049FA3846F4E706F0C6F9B04202D010276E
:100640003846EDE740F2FF5006F03CFA002006F095
:10065000BFF90446CB48044201D13846E0E714F024
:10066000004F01D01C20DBE714F0804F01D009209F
:10067000D6E714F0005F01D00A20D1E714F0805FC4
:1006800001D00B20CCE714F0006F01D00C20C7E79D
:1006900014F0806F01D00D20C2E714F0807F01D0EC
:1006A0000E20BDE714F4000F01D00F20B8E714F4BA
:1006B000800F01D01020B3E714F4001F01D01120E7
:1006C000AEE714F4801F01D01220A9E714F4002F24
:1006D00001D01320A4E714F4802F01D014209FE749
:1006E00014F4003F01D015209AE714F4803F01D0A4
:1006F000162095E714F4004F01D0172090E714F46A
:10070000804F01D018208BE714F4005F01D019202E
:1007100086E714F0080F01D01A2081E738467FE7FA
:100720002DE9FC4107460D460026002400200090DC
:10073000019008209449086010204860402088609B
:100740000020C8604FF480600861084606F01FF979
:100750001020FFF751FF044614B12046BDE8FC818C
:100760008A48008800048849086037204860402093
:1007700088600020C8604FF480600861084606F079
:1007800006F93720FFF738FF04460CB12046E5E7AD
:100790004FF0FF307E4908600820486030208860B4
:1007A0000220C8600020086101204861084606F068
:1007B0001AF900207449086033204860402088609E
:1007C0000020C8604FF480600861084606F0DFF83A
:1007D0003320FFF711FF04460CB12046BEE709E0C5
:1007E0004FF4001006F063F920B106F022F94DF83D
:1007F0002600761C6248006840F22A610842EFD069
:10080000082006F054F928B1082006F05BF904240A
:100810002046A3E7022006F04AF928B1022006F09C
:1008200051F90224204699E7202006F040F928B12A
:10083000202006F047F9062420468FE74FF4007089
:1008400006F035F930B14FF4007006F03BF907249B
:10085000204683E740F2FF5006F034F90098000686
:10086000009901F47F4140EA0120009901F47F01E1
:1008700040EA1120009940EA116068600198000682
:10088000019901F47F4140EA0120019901F47F01BF
:1008900040EA1120019940EA1160286020465DE796
:1008A0007CB50546002400200090019006F090F8E9
:1008B00010F0007F02D00E2420467CBD3349098809
:1008C00088B26946FFF72CFF04460CB12046F4E7D6
:1008D000012D35D1019810F4802F2ED02B4800889F
:1008E00000042949086037204860402088600020C3
:1008F000C860A8020861084606F049F83720FFF7EB
:100900007BFE04460CB12046D7E702201E49086052
:1009100006204860402088600020C8604FF4806056
:100920000861084606F033F80620FFF765FE044626
:100930000CB12046C1E72046BFE725242046BCE78E
:10094000019810F4803F3DD01048008800040E4903
:10095000086037204860402088600020C8604FF45D
:1009600080600861084606F012F83720FFF744FE61
:1009700004467CB12046A0E700080240000C02407B
:10098000342C014008E0FFFD98AB0020040000205B
:10099000ACAB00200020FE490860062048604020E3
:1009A00088600020C8604FF480600861084605F048
:1009B000EEFF0620FFF720FE04460CB120467CE740
:1009C00020467AE72524204677E770B504460025BF
:1009D000F0480068032802D12725284670BDED485D
:1009E000006838B1EB480068012803D0E948006886
:1009F00002282CD1B4F5805F02D127252846EDE7E7
:100A0000B4F5006F13D10120FFF74AFF0546F5B991
:100A10000020E14908750860486088604FF4006074
:100A2000C86000200861084605F087FF0FE000203D
:100A3000FFF736FF054655B90020D749087508600D
:100A400048608860C8600861084605F076FF28465F
:100A5000C4E770B504460D464FF00006CC4804606C
:100A60004FF00700CA4948604FF0400088604FF0DF
:100A70000000C8604FF480600861084605F087FFF9
:100A80000720FFF7B9FD0646304670BDF0B50146B8
:100A900000200022BF4B1B7881F85630BF4B1B88CB
:100AA000A1F85430BE4B1B681A0E93090B70C2F3A9
:100AB00083034B7002F003038B70B94B1B68C3F3C5
:100AC0000742CA70B64B1B88C3F307220A71B44BA6
:100AD0001A784A715B681A0E1301CB80B04B5B68C1
:100AE000C3F30742CB8843EA1213CB8002F00F0313
:100AF0000B72AB4B9B88C3F30722D3094B72C2F333
:100B000080138B72C2F34013CB72C2F300130B73CA
:100B100000234B739F4B1B681BB19E4B1B68012B23
:100B20004FD193071B0D0B619D4B1A790B6943EA5B
:100B300082030B619A4B9B681A0E0B6943EA92136E
:100B40000B61C2F3C2030B7502F007034B75944BA4
:100B50009B68C3F3074253098B75C2F38203CB75BD
:100B600093075B0F0B768E4B1B89C3F307220B7E1B
:100B700043EAD2130B760B695B1C0024C1E91234E3
:100B80000B7ED1E912469B1C012505FA03F3DF1702
:100B9000A4FB035C06FB03C304FB0733C1E9125348
:100BA0000C7A0123A3400B650027D1E912560B6D87
:100BB000A5FB034C06FB03C305FB0733C1E9124346
:100BC00036E0744B1B68022B32D1754B1A799306B1
:100BD0009B0A0B61724B9B681A0E0B6943EA022356
:100BE0000B616F4B9B68C3F307420B6913430B61A7
:100BF0006B4B1B89C3F307220B6900245B1C44EB7E
:100C000004074FF400760025A3FB064C07FB06C63D
:100C100003FB05664FF480650027A4FB053C06FB3B
:100C200005C504FB0754C1E912344FF400730B658A
:100C3000C2F3801301F8193F93065B0E4B70584BBB
:100C40001A7A4B7843EAD2134B7002F07F038B7011
:100C5000534BDB681A0ED309CB70C2F341130B71EF
:100C6000C2F382034B7193071B0F8B714C4BDB68F4
:100C7000C3F307428B7943EA92138B71C2F340139B
:100C8000CB7100230B7202F001034B72444B9B8922
:100C9000C3F30722D3098B72C2F38013CB72C2F362
:100CA00040130B73C2F300134B73C2F381038B73B6
:100CB00002F00303CB733A4B1A7B53080B740123E6
:100CC0004B74384B1B681A0ECA74A1F11901354BCD
:100CD0001B68C3F307424FEA0224CC85314B1B88C3
:100CE000C3F30722CB8D43EA0203CB852D4B1A7841
:100CF0004FEA02640C635B684FEA13620B6B43EAD2
:100D000002440C63274B5B68C3F307420B6B43EA57
:100D100002240C63234B9B88C3F307220B6B43EA2B
:100D200002030B631F4B1A794FF034035A541D4BC7
:100D30009B684FEA13624FF035035A54194B9B6876
:100D4000C3F307424FEA02648C63164B1B89C3F35B
:100D500007228B6B43EA02448C63124B1A7A8B6B2B
:100D600043EA02248C630F4BDB684FEA13628B6B00
:100D700043EA02038B630B4BDB68C3F307424FF07C
:100D80003C035B5C43EA12144FF03C035C540BE001
:100D900098AB00200000002080AB00200400002061
:100DA000F8AA002008AB00204FEA02734FEA135460
:100DB000CC87FA4B9B89C3F30722CB8F43EA02030C
:100DC000CB87F64B1A7B4FEA52044FF040035C543A
:100DD0004FF001044FF041035C54F0BD70B50025A5
:100DE000EF48046801E0EE48046814F0450FFAD0BB
:100DF00014F0040F05D00325042005F063FE2846F7
:100E000070BD14F0010F05D00125012005F05AFE38
:100E10002846F5E740F2FF5005F054FE2846EFE77C
:100E20002DE9F04106460F464FF00008DC48056802
:100E300001E0DB48056815F0450FFAD015F0040F06
:100E400007D04FF00308042005F03CFE4046BDE803
:100E5000F08115F0010F06D04FF00108012005F0D8
:100E600031FE4046F3E705F0AEFDB04203D04FF04F
:100E700010084046EBE740F2FF5005F023FE00204B
:100E800005F0A6FD044614F4604F03D1200C388011
:100E90004046DCE714F4005F01D01320D7E714F4D8
:100EA000804F01D01020D2E714F4004F01D00F2062
:100EB000CDE74046CBE738B500240120009005F08F
:100EC00060FD10B92524204638BDB64800680428C6
:100ED00028D00020B449086002204860C020886003
:100EE0000020C8604FF480600861084605F04FFD9F
:100EF000FFF774FF04460CB12046E5E7002005F03B
:100F000067FDA6490860042005F062FDA34948601A
:100F1000082005F05DFDA14988600C2005F058FD12
:100F20009E49C8609F48006858B19E4800680128E3
:100F300007D09C480068062803D09A480068022819
:100F400016D100209849086003204860402088603E
:100F50000020C8604FF480600861084605F017FD66
:100F600069460320FFF75CFF04460CB12046ABE75F
:100F70008C48006804282ED0BDF800008B4908601A
:100F8000BDF8000000048849086009204860C020BE
:100F900088600020C8604FF480600861084605F052
:100FA000F6FCFFF71BFF04460CB120468CE700203F
:100FB00005F00EFD7E490860042005F009FD7C491E
:100FC0004860082005F004FD794988600C2005F090
:100FD000FFFC7749C8600024204675E770B50025FE
:100FE0006F48046801E06E48046814F0450FFAD0B9
:100FF00014F0040F05D00325042005F063FD2846F6
:1010000070BD40F2FF5005F05DFD2846F8E770B571
:1010100000264FF480356248046802E06D1E604887
:10102000046814F0450F01D1002DF7D115B114F06B
:10103000040F05D00326042005F044FD304670BDA2
:1010400014F0400F05D00026402005F03BFD30464F
:10105000F5E73046F3E770B500254FF4803400E043
:10106000641E24B1802005F022FD0028F8D014B9B8
:101070000325284670BD40F2FF5005F023FD2846A9
:10108000F8E7F8B50020009000250024002600278E
:101090007620484908750020086048608860C8606C
:1010A0000861084605F049FC032005F066FC0120B4
:1010B00005F060FC00203C49086048608860C8601A
:1010C0004FF480600861084605F061FCFFF7C3FF3C
:1010D00000909DF8000010B19DF80000F8BD4FF49D
:1010E000D5703149086008204860402088600020A1
:1010F000C8604FF480600861084605F048FCFFF7BF
:1011000086FF00909DF8000020B901202549086065
:10111000870712E0002024490860372048604020FB
:1011200088600020C8604FF480600861084605F0C0
:101130002EFC3720FFF760FA009000201A49086063
:1011400037204860402088600020C8604FF48060ED
:101150000861084605F01BFC3720FFF74DFA0090A8
:101160009DF8000000285FD149E000200E4908608A
:1011700037204860402088600020C8604FF48060BD
:101180000861084605F003FC3720FFF735FA0090A8
:101190009DF8000080B19DF800009FE708AB00209B
:1011A000342C01400000002098AB002004000020F7
:1011B000F8AA002080AB0020F7483843F7490860C0
:1011C00029204860402088600020C8604FF480607B
:1011D0000861084605F0DBFBFFF700FF00909DF873
:1011E000000010B19DF8000078E7002005F0F0FB4A
:1011F0000546012080EAD57080F00106641C1EB906
:101200004FF6FF708442B0D34FF6FF70844204D390
:101210001B2000909DF8000060E705F0804005006D
:1012200002D00220DE4908609DF8000056E71CB598
:1012300001210D2004F06EFB0C220821D94804F096
:10124000B0F80C220921D74804F0ABF80C220A218F
:10125000D44804F0A6F80C220B21D24804F0A1F8DF
:101260000C221146CF4804F09CF80C220221CE48F3
:1012700004F097F84FF47060009002208DF805009C
:101280008DF8040000208DF8060001208DF807007D
:101290006946C44803F0FAFF042000906946C2483A
:1012A00003F0F4FF4FF48050009000208DF8070009
:1012B0006946BC4803F0EAFF4FF40060009000204C
:1012C0008DF8040001208DF807006946B74803F047
:1012D000DDFF0121C80204F077FB0121880504F03D
:1012E00019FB1CBD08B531208DF8000000208DF8D9
:1012F00001008DF8020001208DF80300684603F01C
:1013000014F93B208DF8000001208DF8010068469B
:1013100003F00BF908BD08B500200090FFF7E2FFCD
:10132000FFF785FF05F0FEFAFFF7ABFE00909DF892
:10133000000010B19DF8000008BDFFF7BCFD009053
:101340009DF8000010B19DF80000F5E700209849D5
:101350000875086048608860C8600861084605F044
:10136000ECFA9448FFF792FB00909DF8000040B91A
:101370009048B0F85400020410460021FFF769FBC2
:1013800000909DF8000020B94FF40060FFF71DFBAE
:1013900000909DF80000CFE770B50446002514B911
:1013A0002625284670BD8448008800047B490860D3
:1013B0000D204860402088600020C8604FF48060A5
:1013C0000861084605F0E3FA0D20FFF715F9054618
:1013D0000DB12846E6E7002005F0FAFA206028461D
:1013E000E0E708B501200090C102704803F0B0FFAB
:1013F00008B1002000909DF8000008BD08B500204D
:101400000090FFF7EEFF012809D16846FFF7C4FFFF
:1014100008B1FF2008BD0098C0F34320FAE7FF2081
:10142000F8E710B50424FFF7E9FF0446042C01D1C6
:10143000002010BDFF2C01D10220FAE70120F8E7BF
:1014400010B50024002005F098FA204610BD70B5B4
:10145000044600260025002005F0BAFA10F0007FAF
:1014600002D00E26304670BD40204C490860102046
:101470004860402088600020C8604FF480600861A8
:10148000084605F084FA1020FFF7B6F806460EB1BC
:101490003046E8E7484800880004404908603720A3
:1014A0004860402088600020C8604FF48060086178
:1014B000084605F06CFA3720FFF79EF806460EB195
:1014C0003046D0E74FF0FF303C490860402048608C
:1014D000602088600220C860002008610120486107
:1014E000084605F080FA00202C4908600D2048606D
:1014F000402088600020C8604FF480600861084682
:1015000005F045FA0D20FFF777F806460EB1304694
:10151000A9E70EE04FF4004005F0C9FA48B10025F4
:1015200004E005F086FA44F825006D1C082DF8D378
:1015300020342348006840F22A610842EAD008209B
:1015400005F0B5FA28B1082005F0BCFA04263046AB
:1015500089E7022005F0ABFA28B1022005F0B2FAC3
:10156000022630467FE7202005F0A1FA28B120208E
:1015700005F0A8FA0626304675E74FF4007005F02E
:1015800096FA30B14FF4007005F09CFA0726304609
:1015900069E74FF0FF351AE00000108098AB00209B
:1015A0000000002000080240000C02400000024041
:1015B00080AB002028AB002004000020ACAB002052
:1015C000342C014005F035FA2060241D6D1E4FF4C7
:1015D000001005F06CFA08B1002DF3D140F2FF5075
:1015E00005F070FA30463EE770B504460026002547
:1015F000FB48FFF72CFF06460EB1304670BDF84899
:10160000007885092570F6480078C0F340156570AC
:10161000F348857828026080F148C57860882843BF
:101620006080EF48057928066060ED48457960687C
:1016300040EA05406060EA488579606840EA052034
:101640006060E748C579606828436060E448057ACF
:101650002572457A6572807A0509A572E048C57AD7
:101660002802A081DE48057BA0892843A081DC48B0
:10167000407B8508A573DA48407B00F00305E573DD
:101680003046BBE730B58FB005460C464FF0FA51F7
:10169000D44803F00BF90021D24803F08FF8D14869
:1016A00002F0B0FF4FF000600090CF48019002952B
:1016B00000200390049405904FF480600690800011
:1016C00007900020089009904FF440300A900420C1
:1016D0000B9003200C904FF400000D9080100E90A2
:1016E0006946C04803F030F801221021BD4803F0DC
:1016F000F1F82021BB4803F077F80121B94803F045
:101700005DF80FB030BD2DE9F041804614461D460E
:10171000069E4FF000073846B4490870B449086087
:10172000B4490860B44908604FF0010140F22A3022
:1017300005F0ACF9012005F0A5F931464046FFF768
:10174000A1FFAE480068022808D106020202002369
:10175000204629462AF04FFA04460D46A84806605E
:101760001020A7494860402088600020C8604FF4DE
:1017700080600861084605F00AF91020FEF73CFF7A
:10178000074617B13846BDE8F0814FF0FF309D495C
:10179000086008464660902088600220C8600020EB
:1017A000086101204861084605F01DF9944804606D
:1017B000112093494860402088600020C8604FF4A1
:1017C00080600861084605F0E2F81120FEF714FF7A
:1017D00007460FB13846D6E73846D4E72DE9F0473B
:1017E000814614461D46DDE908684FF0000738467B
:1017F0007E4908707E4908604FF001007D4908600D
:101800004FF000007C4908604FF0010140F22A309F
:1018100005F03CF908FB06F14846FFF733FF0120CD
:1018200005F030F975480068022808D10602020266
:101830000023204629462AF0DEF904460D4670486A
:10184000066010206E494860402088600020C86013
:101850004FF480600861084605F099F81020FEF703
:10186000CBFE074617B13846BDE8F0874FF0FF3092
:101870006449086008FB06F04860902088600220F8
:10188000C8600020086101204861084605F0ABF8F7
:101890005B48046012205A4948604020886000205C
:1018A000C8604FF480600861084605F070F81220A7
:1018B000FEF7A2FE07460FB13846D5E73846D3E714
:1018C00010B5002400204E4908600C2048604020DC
:1018D00088600020C8604FF480600861084605F009
:1018E00056F80C20FEF788FE0446204610BD70B561
:1018F00000256C1E00E0641E4348006838B93C486F
:10190000006820B93948007808B9002CF3D10020CC
:101910003D490860441E00E0641E374808300068F6
:1019200010F4005F01D0002CF6D132480068012885
:1019300005D1FFF7C5FF054600202E4908600CB908
:1019400005B9042540F2FF5005F0BCF8274800789F
:1019500010B12648007870BD2846FCE730B58FB03E
:1019600005460C464FF0FA511E4802F09FFF002139
:101970001C4802F023FF1B4802F044FE4FF00060B9
:101980000090194801900295402003900494002093
:1019900005904FF48060069080000790002008902A
:1019A00009904FF440300A9004200B9003200C90D3
:1019B0004FF400000D9080100E906946094802F027
:1019C000C3FE01221021074802F084FF20210548B0
:1019D00002F00AFF0121034802F0F0FE0FB030BD13
:1019E00018AB002058640240802C01400C000020FD
:1019F00010000020080000202C2C014000000020D6
:101A000098AB0020ACAB0020140000202DE9F04181
:101A1000804614461D46069E4FF000073846F7499B
:101A20000870F7490860F7490860F74908604FF007
:101A3000010140F22A3005F029F831464046FFF70F
:101A40008DFF012005F01EF8F0480068022808D13B
:101A5000060202020023204629462AF0CCF804465A
:101A60000D46EB4806601020E94948604020886038
:101A70000020C8604FF480600861084604F087FFCA
:101A80001020FEF7B9FD074617B13846BDE8F081D2
:101A9000DF4804601820DE4948604020886000204C
:101AA000C8604FF480600861084604F070FF182099
:101AB000FEF7A2FD07460FB13846E7E74FF0FF30CB
:101AC000D449086008464660902088600020C860BD
:101AD000086101204861084604F085FF3846D5E7D3
:101AE0002DE9F047814615461E46DDE908784FF09E
:101AF00000042046C1490870C14908604FF0010048
:101B0000C04908604FF00000BF4908604FF0010174
:101B100040F22A3004F0BAFF08FB07F14846FFF70D
:101B20001DFF012004F0AEFFB8480068022808D16C
:101B3000070202020023284631462AF05CF80546D7
:101B40000E46B34807601020B149486040208860C5
:101B50000020C8604FF480600861084604F017FF59
:101B60001020FEF749FD044614B12046BDE8F08779
:101B7000A94800880004A649086037204860402032
:101B800088600020C8604FF480600861084604F057
:101B9000FEFE3720FEF730FD04460CB12046E5E797
:101BA0009B48C0F800801720994948604020886011
:101BB0000020C8604FF480600861084604F0E7FE2A
:101BC0001720FEF719FD04460CB12046CEE79048D9
:101BD000056019208E494860402088600020C86058
:101BE0004FF480600861084604F0D1FE1920FEF72A
:101BF00003FD04460CB12046B8E74FF0FF3085499D
:101C0000086008FB07F04860902088600020C860EA
:101C1000086101204861084604F0E5FE2046A5E77A
:101C200070B500256C1E00E0641E7C48006838B961
:101C30007348006820B97148007808B9002CF3D1C6
:101C4000002076490860441E00E0641E6E4808309B
:101C5000006810F4805F01D0002CF6D1694800685C
:101C6000012805D1FFF72CFE0546002065490860D4
:101C70000CB905B9042540F2FF5004F023FF5F487A
:101C8000007810B15D48007870BD2846FCE75E48DA
:101C90000830006810F4405F01D001207047002038
:101CA000FCE77CB5044600250020019000905A48CE
:101CB00000880004564908600D2048604020886074
:101CC0000020C8604FF480600861084604F05FFEA1
:101CD0004D4808300068009003E04B480830006829
:101CE0000090009810F0450FF7D0009810F0040F06
:101CF00005D00325042004F0E5FE28467CBD0098AD
:101D000010F0010F05D00125012004F0DBFE28466C
:101D1000F4E704F058FE009000980D2802D010253A
:101D20002846EBE740F2FF5004F0CCFE002004F020
:101D30004FFE01900198C0F343202070384901986C
:101D4000084201D12846D9E7019810F0004F01D090
:101D50001C20D3E7019810F0804F01D00920CDE777
:101D6000019810F0005F01D00A20C7E7019810F039
:101D7000805F01D00B20C1E7019810F0006F01D007
:101D80000C20BBE7019810F0806F01D00D20B5E763
:101D9000019810F0807F01D00E20AFE7019810F479
:101DA000000F01D00F20A9E7019810F4800F01D097
:101DB0001020A3E7019810F4001F01D011209DE727
:101DC000019810F4801F01D0122097E7019810F4B9
:101DD000002F01D0132091E7019810F4802F01D03B
:101DE00014208BE7019810F4003F01D0152085E7FF
:101DF000019810F4803F15D016207FE70C000020DA
:101E000010000020080000202C2C014000000020C1
:101E100098AB0020ACAB0020040000201400002090
:101E200008E0FFFD019810F4004F01D0172065E78E
:101E3000019810F4804F01D018205FE7019810F44A
:101E4000005F01D0192059E7019810F0080F01D068
:101E50001A2053E7284651E72DE9FC4705460E4670
:101E6000174698464FF00004A14620460190009086
:101E7000EF4840684FF0200111EA105F03D125249C
:101E80002046BDE8FC87EB480068C0B2801CEA49E8
:101E9000B1FBF0F00190002004F09AFD10F0007FFB
:101EA00002D00E242046ECE7E4480068022810D156
:101EB000020200232846314629F09DFE05460E46C3
:101EC0004FF4007200233846414629F094FE07463D
:101ED0008846DA48006838B1D8480068012803D03D
:101EE000D648006802282BD1D54805602020D44967
:101EF0004860402088600020C8604FF4806008611E
:101F0000084604F044FD2020FEF776FB04460CB1A1
:101F10002046B6E7CA4807602120C94948604020EA
:101F200088600020C8604FF480600861084604F0B3
:101F30002EFD2120FEF760FB04460CB12046A0E7F1
:101F40000020BF49086026204860402088600020AB
:101F5000C8604FF480600861084604F018FD262030
:101F6000FEF74AFB04460CB120468AE74FF0000911
:101F700001E009F1010901988145FAD36846FFF7AC
:101F800090FE04464FF0FF3905E06846FFF789FEF2
:101F90000446A9F10109B9F1000F08D03CB99DF838
:101FA00000000728F1D09DF800000628EDD020465B
:101FB00067E710B54FF4807004F088FD50B1002041
:101FC000A04908704FF4807004F08BFD01209E49F9
:101FD000086037E0022004F079FD30B1022004F0FF
:101FE00080FD0220974908702CE0082004F06EFD67
:101FF00030B1082004F075FD04209249087021E0FA
:10200000202004F063FD30B1202004F06AFD06209A
:102010008C49087016E0102004F058FD30B11020F3
:1020200004F05FFD0520874908700BE04FF4007055
:1020300004F04CFD30B14FF4007004F052FD072065
:102040008049087000214CF23A3004F01FFD7D48B1
:10205000007810BD10B57D48006810F0C05F08D052
:1020600001207B4908604FF0C2517848583002F097
:102070001DFC10BD0146002002E04910421CD0B2F8
:102080000129FAD17047F0B593B0002500201190D6
:1020900012900027402101A82AF02CF9002401AE5B
:1020A000002068490870684908606A490860614909
:1020B000283108606849098888B211A9FEF730FB09
:1020C000054615B1284613B0F0BD129810F0807F78
:1020D00003D1129810F0007F01D0012000E0002011
:1020E0000746002F71D040205549086010204860F5
:1020F000402088600020C8604FF480600861084676
:1021000004F045FC1020FEF777FA05460DB128468D
:10211000D9E74FF0FF305149086040204860602007
:1021200088600220C86000200861012048610846DC
:1021300004F059FC4A4842490860062048604020A3
:1021400088600020C8604FF480600861084604F091
:102150001EFC0620FEF750FA05460DB12846B2E7F0
:102160000EE04FF4004004F0A2FC48B1002404E06B
:1021700004F05FFC46F82400641C082CF8D32036D9
:102180002C483030006840F22A610842E9D008202B
:1021900004F08DFC28B1082004F094FC04252846A6
:1021A00091E7022004F083FC28B1022004F08AFCAD
:1021B0000225284687E7202004F079FC30B1202052
:1021C00004F080FC062528467DE727E04FF40070E8
:1021D00004F06DFC30B14FF4007004F073FC07257F
:1021E000284670E74FF0FF3404E004F022FC306032
:1021F000361D641E4FF4001004F059FC08B1002C89
:10220000F3D140F2FF5004F05DFC9DF8110000F0A6
:102210000200022801D1002500E02725284652E7C8
:1022200010B5FFF7C6FE10BD10B5FFF713FF10BDC8
:10223000F8AA0020042C0140C0D4010000000020B6
:1022400098AB00200C000020100000200064024029
:10225000140000200800002004000020ACAB002087
:1022600001FFFF801CB50121880303F0ADFB0621AF
:10227000052004F098FE402002F015FC402000905C
:1022800000208DF804000C208DF8050001208DF849
:102290000600684602F096FB0721052004F083FE45
:1022A000802002F000FC8020009000208DF80400C7
:1022B0000C208DF8050001208DF80600684602F01C
:1022C00081FB1CBD08B517208DF8000000208DF89B
:1022D00001008DF8020001208DF80300684602F02D
:1022E00024F908BD1CB50121202003F013FB0320B5
:1022F0008DF8050001208DF8070080200090002057
:102300008DF804008DF8060001208DF8070069465D
:10231000294802F0BBFF4020009000208DF8040007
:102320008DF8060001208DF807006946224802F06A
:10233000ADFFFFF797FFFFF7C5FF1CBD1F49086002
:10234000704710B50AF004FF402002F0A1FB48B12D
:10235000402002F0A8FB1948006818B11848174936
:1023600009688847802002F093FB48B1802002F082
:102370009AFB1248006818B112481049096888474A
:10238000202002F085FB10B1202002F08CFB4FF4DE
:10239000807002F07DFB18B14FF4807002F083FB77
:1023A0004FF4007002F074FB18B14FF4007002F0AB
:1023B0007AFB0AF0DEFE10BD00140240200000206F
:1023C0001C00002018000020012806D0022808D098
:1023D00003280AD0042810D10BE00121FB4A117018
:1023E0000BE00221F94A117007E00321F74A11704E
:1023F00003E00421F54A117000BF00BF704710B51B
:102400004FF48071F24802F0BDFF4FF40071F048C4
:1024100002F0B8FF4FF48061ED4802F0B3FF4FF4D3
:102420000041EB4802F0AEFFE8480078012806D0F2
:1024300002280AD003280ED0042818D111E04FF446
:102440008071E34802F0A0FF11E04FF40071E04812
:1024500002F09AFF0BE04FF48061DD4802F094FF38
:1024600005E04FF40041DA4802F08EFF00BF00BFE4
:1024700010BD10B54FF48071D54802F083FF4FF4C2
:102480000071D34802F07EFF4FF48061D04802F023
:1024900079FF4FF40041CE4802F074FF10BD10B533
:1024A0004FF48051CA4802F06FFF10BD10B54FF4D1
:1024B0008051C74802F066FF10BD1CB501214120C4
:1024C00003F028FA03208DF8050000208DF806009F
:1024D00001208DF8070000208DF804004FF4006003
:1024E00000906946BA4802F0D1FE01208DF8040040
:1024F000802000906946B74802F0C8FE4FF4805033
:1025000000906946B24802F0C1FE4FF4807000901E
:102510006946B04802F0BAFE4FF4807000906946F8
:10252000AB4802F0B3FE4FF4007000906946A84833
:1025300002F0ACFE4FF4806000906946A44802F0BF
:10254000A5FE4FF4004000906946A14802F09EFEAF
:10255000FFF78FFF1CBD70B50446082519E04FF446
:1025600080719C4802F010FF14F0800F04D080218D
:10257000984802F007FF03E08021964802F004FF2C
:102580004FF48071934802F0FDFE6006040E681E51
:10259000C5B2002DE3D170BD70B50024082513E04D
:1025A0004FF480718B4802F0EFFE6006040E4FF48A
:1025B0008071884802F0E6FE4FF40061844802F022
:1025C000C7FE0443681EC5B2002DE9D1204670BD88
:1025D00010B50024FFF713FFD720FFF7BCFF00BFA3
:1025E000FFF7DAFF044614F0800FF9D0FFF741FF40
:1025F00010BD38B578A0006800900024FFF7E8FF10
:10260000FFF7FDFE00BF04E01DF80400FFF7A3FF85
:10261000641C042CF8DBFFF72CFF38BD38B56FA025
:10262000006800900024FFF7D3FFFFF7E8FE00BF2B
:1026300004E01DF80400FFF78EFF641C042CF8DB97
:10264000FFF717FF38BD10B50446FFF72FFFFFF760
:10265000BFFFFFF7D4FE8120FFF77DFFC4F30740E3
:10266000FFF779FFC4F30720FFF775FFE0B2FFF72C
:1026700072FFFFF7FEFEFFF7ABFFFFF710FF10BD85
:1026800038B557A0006800900024FFF70FFFFFF750
:102690009FFFFFF7B4FE00BF04E01DF80400FFF742
:1026A0005AFF641C042CF8DBFFF7E3FEFFF790FFF2
:1026B000FFF7F5FE38BDF8B505464AA00068009062
:1026C00000242E46FFF7F2FEFFF782FFFFF797FE8A
:1026D00000BF04E01DF80400FFF73DFF641C042C5C
:1026E000F8DB002403E03046FFF735FF641C102CB4
:1026F000F9DBFFF7BEFEFFF76BFFFFF7D0FEF8BD7B
:1027000038B5054638A0006800900024FFF760FF48
:10271000FFF775FE00BF04E01DF80400FFF71BFF84
:10272000641C042CF8DB002403E0FFF735FF285578
:10273000641C102CF9DBFFF79CFEFFF749FF38BD46
:1027400038B52AA0006800900024FFF7AFFEFFF71D
:102750003FFFFFF754FE00BF04E01DF80400FFF741
:10276000FAFE641C042CF8DBFFF783FEFFF730FF52
:10277000FFF795FE38BD2DE9F84F05460C46174684
:102780004FF0000AD3464FF4047900200090A04691
:10279000B8FBF9F009FB108BB8FBF9FA4BEA8A2079
:1027A00000906E46FFF782FEFFF712FFFFF727FE4D
:1027B0008220FFF7D0FEB078FFF7CDFE7078FFF7EC
:1027C000CAFE3078FFF7C7FE16E0000024000020A4
:1027D00000000240001802403D2A7FA93D2A7F9A4E
:1027E0003D2A7FCF3D2A7FFC322A7FFCC794809A06
:1027F00015F8010BFFF7AFFE3800A7F101018FB20A
:10280000F6D1FFF736FEFFF7E3FEFFF748FEBDE81F
:10281000F88F2DE9F84F05460C4617464FF0000A91
:10282000D3464FF4047900200090A046B8FBF9F09D
:1028300009FB108BB8FBF9FA4BEA8A2000906E4630
:10284000FFF7C6FEFFF7DBFDE820FFF784FEB07858
:10285000FFF781FE7078FFF77EFE3078FFF77BFE92
:10286000A520FFF778FEA520FFF775FEA520FFF74E
:1028700072FEA520FFF76FFE03E0FFF78DFE05F85F
:10288000010B3800A7F101018FB2F6D1FFF7F1FD7E
:10289000BDE8F88F2DE9F04100240025002600272F
:1028A000FFF7ADFD9F20FFF756FEFFF775FE0546CB
:1028B000FFF772FE0646FFF76FFE0746FFF76CFE56
:1028C0008046FFF7D6FD280640EA064040EA07208A
:1028D00040EA08042046BDE8F0812DE9F0410546B4
:1028E0000E464FF40474002700BFA2B231462846BA
:1028F000FFF741FFA2B23146C148FFF78AFF781CBB
:102900000746052800D906E02246BD49284629F099
:1029100048FB0028E9D100BFBDE8F0812DE9F74F61
:1029200086B006468A4600200590049003900290E7
:1029300083464FF4047400270025DDF8208014B985
:1029400009B0BDE8F08FBAFBF4F060430290BAFB27
:10295000F4F004FB10ABBBF1000F01D1002001E04B
:10296000A4EB0B000746B84501D9059701E0CDF867
:102970001480B8450BD9A8EB0700B0FBF4F0049025
:10298000A8EB0700B0FBF4F104FB11000390DDF8A5
:1029900008900598B8B1A2B249469A48FFF739FFA6
:1029A000CDF804B0002506E016F8011B0198284474
:1029B000944A11546D1C05988542F5D349469148B7
:1029C000FFF78BFFA144049858B1002506E0494663
:1029D0003046FFF782FF2644A1446D1C04988542CF
:1029E000F5D3039890B1A2B249468648FFF711FF8C
:1029F000002504E016F8010B824948556D1C039828
:102A00008542F7D349467F48FFF767FF00BF97E746
:102A10002DE9F74F86B006468A46002005900490BF
:102A20000390029083464FF404740027DDF8208061
:102A3000002514B909B0BDE8F08FBAFBF4F060438B
:102A40000290BAFBF4F004FB10ABBBF1000F01D114
:102A5000002001E0A4EB0B000746B84501D905971B
:102A600001E0CDF81480B8450BD9A8EB0700B0FB06
:102A7000F4F00490A8EB0700B0FBF4F104FB1100A4
:102A80000390DDF80890059898B1A2B249465E48D7
:102A9000FFF7BFFECDF804B0002506E001982844FA
:102AA0005949085C06F8010B6D1C05988542F5D361
:102AB000A144049860B1002507E0A2B2494630461F
:102AC000FFF7A7FE2644A1446D1C04988542F4D369
:102AD000039870B1A2B249464B48FFF79AFE002511
:102AE00004E04948405D06F8010B6D1C03988542DF
:102AF000F7D300BF9EE710B5FFF77BFDFFF78EFD14
:102B0000FFF7BEFD0020FFF7D6FD0020FFF7F8FD20
:102B100010BD30B599B0002400254FF480513B48DA
:102B200002F030FC45B9FFF7ABFD6846FFF7E8FD62
:102B3000FF20FFF7C0FD04E04FF48051334802F05E
:102B400023FC6846FFF7DCFD4FF480512F4802F06C
:102B500019FC002404E06019C0B20DF80400641CE4
:102B6000B4F5806FF7DB4FF4806200216846FFF711
:102B7000D5FE4FF4806201216846FFF749FF19B086
:102B800030BD10B586B00024FFF797FC00BF33E0DE
:102B9000611CC8B2FFF718FCFFF77CFEC4EBC40150
:102BA0001B4A42F82100C4EBC400114651F8200032
:102BB000184988421FD1C4EBC40102EB8101081DF2
:102BC00015A129F01AFA4FF40010C4EBC401104A01
:102BD00002EB810148614FF40470C4EBC40102EBC5
:102BE0008101088301A8FFF78BFD9DF80400FF28F1
:102BF00001D0FFF745FD641C042CC9DB06B010BDF5
:102C0000C4AB0020D4AD0020E4AF0020000002409F
:102C1000F4B100200000261F4154343544423136BF
:102C2000310000002DE9FF4704460D4616460027F7
:102C3000B846B9460320ADF808004FF6FF70ADF86E
:102C40000A001F20ADF80C000020ADF80E006B4606
:102C500032462946204611F067FFBDE8FF872DE97F
:102C6000FF470446002500260027A846A946032062
:102C7000ADF808004FF6FF70ADF80A001F20ADF860
:102C80000C000020ADF80E006B4622464FF4D271C6
:102C900011F04AFFBDE8FF871CB5012140F2FF108B
:102CA00002F038FE0121880302F08EFE0C22002182
:102CB000FE4802F076FB0C220121FC4802F071FB79
:102CC0000C220221F94802F06CFB0C220321F74888
:102CD00002F067FB0C220421F44802F062FB0C2294
:102CE0000521F24802F05DFB0C221146EF4802F08C
:102CF00058FB0C220D21ED4802F053FB0C220E2153
:102D0000EA4802F04EFB0C220F21E84802F049FB92
:102D10004FF23F00009002208DF8040001208DF852
:102D2000050000208DF8060001208DF80700694697
:102D3000DE4802F0ABFA0C220021DD4802F031FB44
:102D40000C220121DA4802F02CFB0C220221D84887
:102D500002F027FB0C220321D54802F022FB0C22B3
:102D60000421D34802F01DFB0C220521D04802F0BB
:102D700018FB3F2000906946CD4802F087FA0C22EC
:102D80000B21CC4802F00DFB0C221146C94802F081
:102D900008FB0C220D21C74802F003FB4FF46050E2
:102DA00000906946C34802F071FA0C220321C24820
:102DB00002F0F7FA0C220421BF4802F0F2FA1820C0
:102DC00000906946BC4802F061FA0C220E21B94815
:102DD00002F0E7FA0C220F21B64802F0E2FA0C22C8
:102DE0000021B44802F0DDFA0C220121B14802F0C2
:102DF000D8FA4CF2030000906946AE4802F046FA59
:102E00000C220721AC4802F0CCFA0C220821AA4877
:102E100002F0C7FA0C220921A74802F0C2FA0C22DC
:102E20000A21A54802F0BDFA0C220B21A24802F0AB
:102E3000B8FA0C221146A04802F0B3FA0C220D2178
:102E40009D4802F0AEFA0C220E219B4802F0A9FA2E
:102E50000C220F21984802F0A4FA4FF680700090DF
:102E60006946954802F012FA0C220821914802F0B6
:102E700098FA0C2209218F4802F093FA0C220A21B9
:102E80008C4802F08EFA4FF4E06000906946894861
:102E900002F0FCF90C220721864802F082FA802019
:102EA000009001208DF807006946824802F0EEF993
:102EB0000C2209217E4802F074FA4FF40070009051
:102EC00001208DF807006946794802F0DFF90C22ED
:102ED0000421784802F065FA0C220521754802F0B9
:102EE00060FA302000906946724802F0CFF9402025
:102EF000009000208DF8040001208DF806000020CD
:102F00008DF8070069466B4802F0C0F94020009038
:102F100000208DF804008DF807006946674802F02C
:102F2000B5F900208DF8040001208DF806008DF819
:102F300007008DF805000F2000906946604802F0F8
:102F4000A5F901208DF8040000208DF806008DF809
:102F50000700702000906946584802F097F9042055
:102F600000906946574802F091F900208DF804005E
:102F700001208DF806008DF8070002208DF805006D
:102F80008003009069464D4802F080F908200090C7
:102F900069464C4802F07AF90F21002004F003F84A
:102FA0000321082003F0FFFF4FF400400090694622
:102FB0003F4802F06BF9802000906946414802F0DA
:102FC00065F90721082003F0EEFF402000906946D4
:102FD0003C4802F05BF90621082003F0E4FF4FF4BF
:102FE000806000906946374802F050F90A210820B5
:102FF00003F0D9FF4FF4807000906946314802F029
:1030000045F90821084603F0CEFF4FF4C070009048
:103010006946274802F03AF90821062003F0C3FF69
:1030200001208DF8040000208DF806008DF80700BF
:1030300001208DF805004FF4E050009069461C48CF
:1030400002F024F90120009069461C4802F01EF9A4
:103050004FF4806000906946144802F017F9102080
:1030600000906946184802F011F90C220821144812
:1030700002F097F90C220921114802F092F90C2272
:103080000A210F4802F08DF90C220B210C4802F0A6
:1030900088F90C2211460A4802F083F90C22022119
:1030A000044802F07EF94FF470600FE00014024013
:1030B00000180240000C02400010024000000240D4
:1030C0000008024000200240001C02400090012045
:1030D0008DF8050002208DF8040000208DF8060010
:1030E00001208DF807006946954802F0CFF80420CA
:1030F00000906946934802F0C9F84FF48050009060
:1031000001208DF8070069468D4802F0BFF84FF4A2
:103110000060009000208DF8040001208DF8070069
:103120006946894802F0B2F801208DF804000020B9
:103130008DF806008DF8070001208DF8050080202D
:1031400000906946804802F0A1F83020009069465E
:103150007B4802F09BF82020009069467B4802F0F3
:1031600095F8032000906946794802F08FF84FF4F3
:10317000006000906946774802F088F800208DF8DA
:103180000400042000906946714802F07FF8012095
:103190008DF8070000208DF804004020009069465B
:1031A000674802F073F88021674802F0EBF81021BD
:1031B000634802F0E7F82021614802F0E3F820219B
:1031C000624802F0DFF81CBD00B59DB00121084641
:1031D00002F0D8FB042007900020089009900120FD
:1031E0000A9000200B900C900D900420009000207D
:1031F0000190062002900120039000200490059089
:10320000069002200E9000200F9010901020119038
:103210000020129013901490159016904FF4805047
:1032200017900020189019901A90CDF86CD007A82C
:103230001C900EA801F05CFC0121022001F000FDB1
:1032400003200790002008900220099001200A9096
:1032500000200B900C900D900E900F9010901190FC
:10326000129013901490159016904FF48050179070
:103270000020189019901A9007A81B901C900EA877
:1032800001F036FC0121002001F0DAFC1DB000BD88
:103290002DE9FF410024002500260027A0464FF419
:1032A000A06001F03DF9FFF78FFFFFF7F5FC14F088
:1032B0002CFF294800F0D0FC00F092FE11F0FDFE3A
:1032C000FDF702F9FFF70EF8FFF75BFC42F2CF01C2
:1032D000092000F095FC214802F04BFA204800F04C
:1032E00041F81F4800F072F91D4800F0AFFA1C4881
:1032F00000F0E8FC0420ADF808004FF6FF70ADF8D0
:103300000A001F20ADF80C000020ADF80E001F20B1
:1033100011F0DCFD4FF4784011F08CFD4FF4FC60AF
:1033200012F0B1F8C82011F050FD002211461046ED
:1033300012F09DFB0121084612F0B3FBBDE8FF81AE
:1033400000080240000C024000000240001C024045
:1033500000040240001402404980010864B20020C9
:10336000008C0A0010B58AB004460121102002F03A
:103370002BFB0121022002F0CDFA0722062187480B
:1033800002F00FF807221146844802F00AF808A854
:1033900001F0C4FF4020089002208DF824008DF831
:1033A000250008A97D4801F071FF802008900220C7
:1033B0008DF824008DF8250008A9784801F066FFF3
:1033C00004A804F04AFD04940020ADF81400ADF800
:1033D0001600ADF81800ADF81C000C20ADF81A006E
:1033E00004A96F4804F0D3FC02A804F052FD02A91E
:1033F0006B4804F03EFD012240F22551684804F07C
:1034000004FE0121664804F04AFD25208DF80400E1
:1034100000208DF805008DF8060001208DF80700CA
:1034200001A801F082F80AB010BD70B505460C463F
:103430005C4805605C490C8000685C4908605A483B
:1034400000885B490880012240F22661544804F05C
:10345000DCFD70BD10B555480068524908605448FD
:10346000008851490880012240F226614C4804F04E
:10347000CCFD10BD4F49087800214E4A11707047AD
:103480004D4870474D480068704700204B49086020
:1034900070474B4870471E204A49086070474948AA
:1034A0000068704747480068401E46490860084663
:1034B000006870474348006850B142480068401EA9
:1034C000404908600846006810B901203E4908706C
:1034D00070473D480078704700203B4908707047AE
:1034E000002036490860704710B500212C4804F0D0
:1034F000D6FC002240F22661294804F086FD002215
:1035000040F22551264804F080FD10BD10B509F0A9
:103510001FFE40F22551224804F0B2FD01280FD1D0
:10352000FFF7B9FF1E4804F0E9FC2349234A12685B
:10353000885422480088401CC0F308001F490860D6
:1035400040F22661164804F09BFD012822D116485E
:10355000008878B9002240F22661114804F055FD38
:10356000012240F225510E4804F04FFD012011497F
:1035700008700FE00B4800680178094804F0BAFCB5
:1035800009480088401E0849088006480068401C19
:103590000449086009F0EDFD10BD00000004024080
:1035A00000100140280000202C00002030000020E6
:1035B000340000203600002074B4002040000020B9
:1035C00074B20020380000203C00002010B58AB002
:1035D00004460121480402F0E6F90121084602F000
:1035E00099F9072202218D4801F0DBFE0722032111
:1035F0008A4801F0D6FE08A801F090FE0420089049
:1036000002208DF824008DF8250008A9834801F0D8
:103610003DFE0820089002208DF824008DF825003A
:1036200008A97E4801F032FE04A804F016FC0494B8
:103630000020ADF81400ADF81600ADF81800ADF894
:103640001C000C20ADF81A0004A9754804F09FFB7B
:1036500002A804F01EFC02A9714804F00AFC012231
:1036600040F225516E4804F0D0FC01216C4804F072
:1036700016FC26208DF8040000208DF805008DF83A
:10368000060001208DF8070001A800F04EFF0AB0E7
:1036900010BD70B505460C466248056062490C8055
:1036A000006862490860604800886149088000221B
:1036B00040F225515A4804F0A8FC012240F226614C
:1036C000574804F0A2FC70BD10B558480068554931
:1036D00008605748008854490880002240F225516C
:1036E0004F4804F092FC012240F226614C4804F05D
:1036F0008CFC10BD4F49087800214E4A117070476C
:103700004D4870474D480068704700204B4908609D
:1037100070474B4870471E204A4908607047494827
:103720000068704747480068401E464908600846E0
:10373000006870474348006850B142480068401E26
:10374000404908600846006810B901203E490870E9
:1037500070473D480078704700203B49087070472B
:10376000002036490860704710B500212C4804F04D
:1037700096FB002240F22661294804F046FC002214
:1037800040F22551264804F040FC10BD10B509F068
:10379000DFFC40F22551224804F072FC01280FD1D1
:1037A000FFF7B9FF1E4804F0A9FB2349234A12681A
:1037B000885422480088401CC0F308001F49086054
:1037C00040F22661164804F05BFC012822D116481D
:1037D000008878B9002240F22661114804F015FCF7
:1037E000012240F225510E4804F00FFC012011493E
:1037F00008700FE00B4800680178094804F07AFB74
:1038000009480088401E0849088006480068401C96
:103810000449086009F0ADFC10BD00000000024042
:103820000044004044000020480000204C000020DC
:10383000500000205200002074B800205C000020DE
:1038400074B60020540000205800002010B58AB043
:1038500004460121880402F0A6F80121042002F0A8
:1038600059F807220A218E4801F09BFD07220B21FF
:103870008B4801F096FD08A801F050FD4FF48060E0
:10388000089002208DF824008DF8250008A98448AE
:1038900001F0FCFC4FF40060089002208DF8240039
:1038A0008DF8250008A97E4801F0F0FC04A804F07A
:1038B000D4FA04940020ADF81400ADF81600ADF869
:1038C0001800ADF81C000C20ADF81A0004A97548CA
:1038D00004F05DFA02A804F0DCFA02A9714804F0D1
:1038E000C8FA012240F225516E4804F08EFB0121F6
:1038F0006C4804F0D4FA27208DF8040000208DF8DD
:1039000005008DF8060001208DF8070001A800F0E1
:103910000CFE0AB010BD70B505460C466248056045
:1039200062490C800068624908606048008861490B
:103930000880002240F225515A4804F066FB01221B
:1039400040F22661574804F060FB70BD10B558483E
:10395000006855490860574800885449088000228B
:1039600040F225514F4804F050FB012240F22661FD
:103970004C4804F04AFB10BD4F49087800214E4ADC
:10398000117070474D4870474D48006870470020DF
:103990004B49086070474B4870471E204A490860F1
:1039A000704749480068704747480068401E4649CC
:1039B00008600846006870474348006850B14248B4
:1039C0000068401E404908600846006810B90120A0
:1039D0003E49087070473D480078704700203B49D9
:1039E00008707047002036490860704710B5002104
:1039F0002C4804F054FA002240F22661294804F0D1
:103A000004FB002240F22551264804F0FEFA10BDC6
:103A100010B509F09DFB40F22551224804F030FB1F
:103A200001280FD1FFF7B9FF1E4804F067FA2349B8
:103A3000234A1268885422480088401CC0F30800BA
:103A40001F49086040F22661164804F019FB01285E
:103A500022D11648008878B9002240F22661114828
:103A600004F0D3FA012240F225510E4804F0CDFAB9
:103A70000120114908700FE00B48006801780948DF
:103A800004F038FA09480088401E084908800648B2
:103A90000068401C0449086009F06BFB10BD000081
:103AA0000004024000480040600000206400002044
:103AB000680000206C0000206E00002074BC002014
:103AC0007800002074BA00207000002074000020EC
:103AD00000B589B00121202001F076FF01210420EA
:103AE00001F018FF08220621434801F05AFC082281
:103AF0000721414801F055FC07A801F00FFC4020C8
:103B0000079002208DF820008DF8210007A93A487F
:103B100001F0BCFB8020079002208DF820008DF87A
:103B2000210007A9344801F0B1FB03A804F095F97E
:103B30004FF4E13003900020ADF81000ADF8120012
:103B4000ADF81400ADF818000C20ADF8160003A96C
:103B50002A4804F01CF901A804F09BF901A92748A0
:103B600004F087F9012240F22551244804F04DFA6F
:103B70000121224804F093F909B000BD08B54FF4C3
:103B8000C06000F0CDFC47208DF8000000208DF8CB
:103B900001008DF8020001208DF80300684600F056
:103BA000C4FC08BD70B504460D460BE014F8011BBB
:103BB000124804F09FF900BF8021104804F04AFA2F
:103BC0000028F9D02800A5F10105EFD170BD10B58E
:103BD00009F0BEFA40F22551084804F051FA38B114
:103BE000064804F08BF904462146044804F082F9A3
:103BF00009F0BFFA10BD00000008024000140140A7
:103C00007FB504460D460121022001F0CCFEADF83F
:103C100004500020ADF806000294ADF80C0001A994
:103C2000264803F0A8FA01221146244803F044FF75
:103C30000121224803F028FB1D208DF800000120FF
:103C40008DF8010003208DF8020001208DF803009B
:103C5000684600F06AFC7FBD0246002100BF08E014
:103C6000174850F8210018B9154840F8212002E003
:103C7000491C1429F4DB00BF142901D1012070472D
:103C80000020FCE710B5002409F062FA00BF0AE04A
:103C90000B4850F8240020B1094951F8240080470E
:103CA00000E002E0641C142CF2DB00BF0121034899
:103CB00003F02AFF09F05DFA10BD00000004004087
:103CC00074BE002010B58AB004460121C80401F07A
:103CD0006AFE0121084601F01DFE082200218C48E1
:103CE00001F05FFB08220121894801F05AFB08A876
:103CF00001F014FB0120089002208DF824008DF8BB
:103D0000250008A9824801F0C1FA022008908DF828
:103D100024008DF8250008A97D4801F0B7FA04A811
:103D200004F09BF804940020ADF81400ADF81600E0
:103D3000ADF81800ADF81C000C20ADF81A0004A96D
:103D4000744804F024F802A804F0A3F802A971480A
:103D500004F08FF8012240F225516E4804F055F925
:103D600001216C4804F09BF834208DF804000020F9
:103D70008DF805008DF8060001208DF8070001A8D8
:103D800000F0D3FB0AB010BD70B505460C46624882
:103D9000056062490C800068614908605F480088DE
:103DA00060490880002240F225515A4804F02DF95C
:103DB000012240F22661574804F027F970BD10B582
:103DC000574800685449086056480088534908809D
:103DD000002240F225514F4804F017F9012240F229
:103DE00026614C4804F011F910BD4F4908780021B4
:103DF0004D4A117070474D4870474D4800687047F4
:103E000000204B49086070474A4870471E204A49C5
:103E10000860704748480068704747480068401E7F
:103E2000454908600846006870474348006850B13B
:103E300041480068401E404908600846006810B9C3
:103E400001203E49087070473C48007870470020C8
:103E50003A4908707047002035490860704710B52E
:103E600000212C4804F01BF8002240F2266129486A
:103E700004F0CBF8002240F22551264804F0C5F8A2
:103E800010BD10B509F064F940F22551214804F045
:103E9000F7F801280FD1FFF7B9FF1E4804F02EF8FC
:103EA0002249234A1268885421480088401CC0F3E4
:103EB00008001F49086040F22661164804F0E0F847
:103EC000012822D11548008878B9002240F22661E5
:103ED000104804F09AF8012240F225510D4804F0F0
:103EE00094F80120104908700FE00B480068017831
:103EF000084803F0FFFF09480088401E0749088072
:103F000005480068401C0449086009F032F910BDFA
:103F100000000240004C00407C0000208000002097
:103F200084000020880000208A000020C4C00020F7
:103F300094000020C4BE00208C00002090000020CF
:103F40001CB50121880301F03FFD0221012003F08F
:103F50002AF8042000F0A7FD0420009000208DF82E
:103F6000040010208DF8050001208DF80600684639
:103F700000F028FD0B21052003F015F84FF4006038
:103F800000F091FD4FF40060009000208DF80400D7
:103F90000C208DF8050001208DF80600684600F021
:103FA00011FD1CBD08B508208DF8000000208DF81B
:103FB00001008DF8020001208DF80300684600F032
:103FC000B4FA28208DF8000000208DF801008DF84B
:103FD000020001208DF80300684600F0A6FA08BD33
:103FE0001CB50121222001F095FC0121102001F0D7
:103FF00091FC03208DF8050001208DF807000020BA
:104000008DF806008DF8040001208DF80700C0022D
:1040100000906946454801F039F90420009069464E
:10402000434801F033F9202000906946404801F0F0
:104030002DF91020009069463D4801F027F94FF412
:104040000040009069463B4801F020F94FF40050D1
:1040500000906946374801F019F9FFF771FFFFF743
:10406000A1FF01208DF804008DF8070020200090AA
:104070006946314801F00AF920212F4801F082F900
:104080004020009069462C4801F000F940212A4860
:1040900001F078F91CBD10B5042000F0F9FC30B136
:1040A000042000F000FD0421214801F051F910BD69
:1040B00010B54FF4006000F0EBFC40B14FF400602D
:1040C00000F0F1FC4FF40061184801F041F94FF4A1
:1040D000806000F0DDFC18B14FF4806000F0E3FC7C
:1040E0004FF4805000F0D4FC18B14FF4805000F031
:1040F000DAFC4FF4005000F0CBFC18B14FF4005044
:1041000000F0D1FC4FF4804000F0C2FC18B14FF435
:10411000804000F0C8FC4FF4004000F0B9FC18B13A
:104120004FF4004000F0BFFC10BD0000001402403E
:1041300000040240001802400010024000BF0100CD
:10414000A0F10100FBD1704770B52020564948838B
:10415000002425E0402054494883E21704EB5272C2
:10416000D210C2F10102514B9A5CE31704EB537376
:10417000DB10A4EBC30580232B411A4202D0102090
:10418000088302E01020484948830A20FFF7D6FF41
:104190004020454908830A20FFF7D0FF601CC4B2C5
:1041A000102CD7DB20204049088370BD3F4A1154B2
:1041B000704701463D48405C704710B5FFF7C4FFAB
:1041C00010BD1FB5012140F2C11001F0A3FB00207A
:1041D0008DF80C008DF80E008DF80F0002208DF880
:1041E0000D000820029002A9314801F04FF8042088
:1041F000029002A92E4801F049F80220029002A97B
:104200002B4801F043F80120029002A9284801F050
:104210003DF801208DF80C0000208DF80E008DF87F
:104220000F002020029002A91F4801F02FF8402023
:10423000029002A91C4801F029F81020029002A95E
:10424000194801F023F80420029002A9194801F04E
:104250001DF80121880301F0B7FB0821062002F0B8
:10426000A2FE4FF48070009000208DF804000C2016
:104270008DF8050001208DF80600684600F0A2FBCD
:104280001FBD0D4800680D49D1F8081240EA4100F1
:104290000A49D1F8041240EA81000849D1F8001215
:1042A00040EAC100C0B27047000002409800002000
:1042B00000080240002002400C024142000041423E
:1042C0000E4880470E480047FEE7EFF3098000B52F
:1042D000FBF7E2FF5DF804EB4EF0040E7047FEE7DB
:1042E000FEE7FEE7FEE7FEE7FEE7FEE7FEE700008B
:1042F00004480549054A064B70470000EF43000893
:1043000089010008C0D80120C0DE0120C0DA0120E8
:10431000C0DA01200CB500200190009075480068BB
:1043200040F480307349086000BF7248006800F4B0
:10433000003000900198401C0190009818B9019835
:10434000B0F5A04FF1D16B48006810F4003F02D0E7
:104350000120009001E0002000900098012845D144
:1043600064484030006840F0805062494031086045
:104370006148006840F440405F4908605D4808308B
:1043800000685C49083108600846006840F4004055
:1043900008600846006840F4A05008605748091FAC
:1043A0000860081F006840F08070091F086000BFA7
:1043B0005048006810F0007FFAD040F20570504974
:1043C00008604C480830006820F003004949083173
:1043D00008600846006840F00200086000BF4548D9
:1043E0000830006800F00C000828F8D10CBD10B5AA
:1043F0004448006840F47000424908603D48006845
:1044000040F001003B49086000203A49083108604B
:10441000384800683C490840364908603B48091D57
:104420000860081F006820F48020091F0860002031
:1044300030490C310860FFF76DFF4FF000603149E3
:104440008039086010BD70B50020002202230024CE
:104450000221284D08352D6805F00C0020B10428F4
:1044600006D0082834D107E0294D2A4E356033E0C4
:10447000294D284E35602FE01E4D2D1D2D68C5F3AA
:1044800080541C4D2D1D2D6805F03F0154B1224D67
:10449000B5FBF1F5174E361D3668C6F3881605FBD9
:1044A00006F209E01A4DB5FBF1F5124E361D3668DD
:1044B000C6F3881605FB06F20E4D2D1D2D68C5F3BB
:1044C00001456D1C6B00B2FBF3F5124E356003E045
:1044D0000F4D104E356000BF00BF064D08352D68EA
:1044E000C5F303150D4E705D0A4D2D68C540094E8C
:1044F000356070BD0038024000700040195440071C
:10450000003C024088ED00E0FFFFF6FE1030002482
:104510000024F4009C00002040787D01A0000020D1
:1045200033490143334A1160704770B500210023BD
:104530000F22C47824B32F4C246804F4E064C4F53B
:10454000E064C4F30721C1F10404E3B20A414478F2
:104550009C40E1B28478144021430C07210E264C84
:1045600005786155047804F01F050124AC400578F6
:104570006D114FF0E02606EB8505C5F8004109E016
:10458000047804F01F040125A5401C4C0678761120
:1045900044F8265070BD1A4A0A400243154B1B1FAF
:1045A0001A60704739B1134A121D12680243114B49
:1045B0001B1D1A6006E00F4A121D126882430D4B44
:1045C0001B1D1A607047042808D14FF0E0210969CB
:1045D00041F004014FF0E022116107E04FF0E021CB
:1045E000096921F004014FF0E022116170470000D9
:1045F0000000FA050CED00E000E400E080E100E0DE
:1046000080FFFF1F016821F00101016000210160AE
:1046100041608160C160016121214161DA498842C4
:1046200004D13D21D84A103A91608CE0D649183126
:10463000884205D14FF47461D34A103A916082E008
:10464000D1493031884205D14FF47411CE4A103A25
:10465000916078E0CC494831884205D14FF07461CF
:10466000C94A103A91606EE0C7496031884204D16E
:10467000C649C54A103AD16065E0C34978318842DD
:1046800004D1C349C04A103AD1605CE0BE499031C0
:10469000884204D1BF49BC4A103AD16053E0BA49BC
:1046A000A831884205D14FF03D51B74A103AD16048
:1046B00049E0B949884204D13D21B74A083A11601E
:1046C00041E0B5491831884205D14FF47461B24ACE
:1046D000083A116037E0B0493031884205D14FF4D3
:1046E0007411AD4A083A11602DE0AB494831884257
:1046F00005D14FF07461A84A083A116023E0A64939
:104700006031884204D1A149A34A121F11601AE006
:10471000A1497831884204D19D499F4A121F1160F6
:1047200011E09D499031884204D19A499A4A121F5A
:10473000116008E09849A831884204D14FF03D51FA
:10474000954A121F1160704710B500220268934B02
:104750001A40CC680B6823434C6923438C6923437C
:10476000CC6923430C6A23434C6A23438C6A23435A
:104770004C6B23438C6B23431A430260426922F043
:104780000702D1E90B3423431A4342610B694360AA
:104790004B6883608B68C36010BD0021016041607D
:1047A0008160C160016141618161C16101624162F9
:1047B0008162C162016341638163704721B1026814
:1047C00042F00102026003E0026822F0010202608E
:1047D000704721B1026842F40042026003E00268BF
:1047E00022F400420260704721B1026842F02002C8
:1047F000026003E0026822F020020260704741601C
:1048000070470146486880B2704722B1036843F49C
:104810000023036003E0036823F4002303600161C5
:10482000704721B1026842F48022026003E002680E
:1048300022F48022026070470AB1016100E0C16089
:104840007047014600200A6812F4002F01D00120B1
:1048500000E000207047014600200A6812F0010FB6
:1048600001D0012000E000207047014600204A6985
:1048700002F03800704730B503460A460020002495
:10488000454DAB4202D24049103901E0424910394E
:1048900012F0005F01D04C6800E00C68404D2C40E5
:1048A000144201D0012000E0002030BD02463A4B06
:1048B0009A4202D23448103801E03748103811F0DB
:1048C000005F03D0364B0B40C36002E0344B0B401B
:1048D0008360704710B511F0800F09D022B1436991
:1048E00043F08003436103E0436923F080034361A5
:1048F00080290BD02AB1036801F01E042343036012
:1049000004E0036801F01E04A343036010BD70B50A
:1049100002460020002400251F4EB24202D21A4B4C
:10492000103B01E01C4B103B1E4E314206D01E26B0
:1049300006EAD124166806EA040502E0566906F084
:10494000800511F0005F01D05C6800E01C68144E27
:1049500034400C4202D00DB1012000E0002070BDB7
:1049600002460D4B9A4202D20748103801E00A482D
:10497000103811F0005F03D0094B0B40C36002E018
:10498000074B0B4083607047106002403D000020E1
:10499000400F002000003D20106402403F801CF0CA
:1049A0007D0F7D0F3C0F3C0F002041490860091D21
:1049B0000860091D0860091D08603E483C49143123
:1049C0000860704700213A498279002A3AD00A46A5
:1049D000126803689A430B461A600A1D126803683E
:1049E0009A430B1D1A60027911440A6803681A433E
:1049F0000A602F4A0832126803689A432C4B083326
:104A00001A601A1D126803689A43294B0C331A6006
:104A10004279102A0ED11A1F126803681A43244BD8
:104A200008331A601A1D126803681A43204B0C33AE
:104A30001A600DE01E49427911440A6803681A435E
:104A40000A6005E0027911440A6803689A430A6023
:104A500070470021016001710C21417100218171B9
:104A600070471349103109680143114A103211602F
:104A70007047014600200E4A143212680A4201D0E3
:104A8000012000E000207047094914310860704798
:104A900001460020064A143212680A4201D0012061
:104AA00000E00020704702491431086070470000A0
:104AB000003C0140FFFF7F0030B943F2DB014FF0C3
:104AC000204242F8201005E043F2D2014FF020428C
:104AD00042F820106FF07042411C4FF0204343F821
:104AE000212011461A4602EB8002C2F804117047D9
:104AF00070B50021002200234FF02045046855F8CE
:104B00002410FE4C2140D0E901452C43C5682C43BC
:104B100005692C4345692C4385692C43C5692C43A1
:104B2000056A2C43456A2C43856A2C43C56A2C438D
:104B3000056B2C4321434FF02045046845F82410B1
:104B40008468082C09D1046855F8244044F04004D6
:104B50004FF02046056846F825400468641C4FF075
:104B6000204555F8242002F04042446B2468456BF0
:104B70006D6844EA0514456BAD6844EA0524456B4D
:104B8000AD8944EA0544456B2D8A44EA0554456BDA
:104B90002D7D44EA0564456BAD692C4322430468CE
:104BA000641C4FF0204545F82420C46AB4F5804FBA
:104BB00024D1046805EB8404D4F8043103F04043A5
:104BC000846B2468856B6D6844EA0514856BAD6859
:104BD00044EA0524856B2D8A44EA0554856B2D7DB6
:104BE00044EA0564856BAD692C4323434FF02045AF
:104BF000046805EB8404C4F8043108E06FF07044E5
:104C00004FF02046056806EB8505C5F8044170BDE8
:104C1000002101600221416000218160C1600161C9
:104C200041618161C16101624FF48051416249007B
:104C300081620021C1620163B149416381637047B0
:104C400051B14FF0204252F8202042F001024FF0C3
:104C5000204343F8202009E04FF0204252F8202062
:104C6000A84B1A404FF0204343F8202070471028EB
:104C70000AD118214FF020421166402151664FF0B1
:104C8000FC319166D16610E018219F4A11604FF007
:104C900040014FF02042C2F884104FF0FC319B4A93
:104CA00011604FF02042C2F88C10704730B50021DF
:104CB000002200230468102C03D14FF02044216E01
:104CC00001E0914C2168924C01EA0401446844F0EF
:104CD0000804856844EA0504C56844EA05040569D2
:104CE00044EA0504456944EA4524856944EA4534B3
:104CF00044EA01010468102C03D14FF02044A26E55
:104D000001E0824C22684FF00002C4692468C56942
:104D10006D6844EA0524C5692D8944EA0544C569DE
:104D20002D7B44EA056444EA02020468102C03D196
:104D30004FF02044E36E02E04FF02044E36E002386
:104D4000046A2468056A6D6844EA0524056A2D89A9
:104D500044EA0544056A2D7B44EA0564234304685C
:104D6000102C05D14FF020442166A266E36607E0CF
:104D7000654C21604FF02044C4F88820654C2360C6
:104D800030BD10210160002141608160C16001617E
:104D900041618161FC21C2691160C2695160C269CF
:104DA0009160C269D160026A1160026A5160026A50
:104DB0009160026AD160704799B1102808D14FF014
:104DC0002042126E42F004024FF020431A661DE0AA
:104DD0004D4A126842F004024FF02043C3F880208D
:104DE00014E0102809D14FF02042126E454BDB1E13
:104DF0001A404FF020431A6608E0434A1268464BB7
:104E000002EA03024FF02043C3F88020704799B1B3
:104E1000102808D14FF02042126E42F040024FF0AD
:104E200020431A661DE0384A126842F040024FF0F3
:104E30002043C3F8802014E0102809D14FF020420D
:104E4000126E354B3C3B1A404FF020431A6608E087
:104E50002D4A1268314B02EA03024FF02043C3F897
:104E60008020704701460020102903D14FF02042D6
:104E7000506F01E02A4A10687047182029490860DD
:104E80004FF000004FF02041C1F8A4004FF0FC307B
:104E90002549086001F10401086001F1040108607E
:104EA000704770B500210022002300241D4D2968A1
:104EB0001E4D01EA0501056845F01005466845EA02
:104EC0004625866845EA463545EA01014FF020450A
:104ED000C5F8A010144D2A681A46C5682D68C66822
:104EE000766845EA0625C668368945EA0645C668F5
:104EF000367B45EA066545EA020219E08000F7FFC5
:104F000014A00408FEFF0F00800000A0880000A08D
:104F10008101F0FF8C0000A0FBFF0F00BFFF0F001E
:104F2000940000A0A00000A0A80000A0CD01FEFFFA
:104F30004FF02045C5F8A8208B4D2B682346056906
:104F40002D680669766845EA06250669368945EAC8
:104F500006450669367B45EA066545EA03034FF0D8
:104F60002045C5F8AC30814D2C684FF000044569F0
:104F70002D684669766845EA06254669368945EA18
:104F800006454669367B45EA066545EA04044FF066
:104F90002045C5F8B04070BD0021016041608160CE
:104FA000FC21C2681160C2685160C2689160C26829
:104FB000D160026911600269516002699160026901
:104FC000D1604269116042695160426991604269F1
:104FD000D160704740B16649096841F004014FF063
:104FE0002042C2F8A01008E061490968614A01EA5C
:104FF00002014FF02042C2F8A010704710B5F2B184
:10500000102807D14FF020435B6E0B434FF0204434
:10501000636632E0B0F5807F08D1574B1B6843EAE6
:1050200001034FF02044C4F8843026E0534B1B6842
:1050300043EA01034FF02044C4F8A4301DE01028D7
:1050400007D14FF020435B6E8B434FF020446366E3
:1050500013E0B0F5807F08D1474B1B6823EA0103BA
:105060004FF02044C4F8843007E0444B1B6823EA27
:1050700001034FF02044C4F8A43010BD10B502461F
:1050800000200023102A03D14FF02044636E07E074
:10509000B2F5807F02D1384C236801E0374C236899
:1050A0000B4201D0012000E0002010BD102807D1E4
:1050B0004FF02042526E8A434FF020435A6613E06D
:1050C000B0F5807F08D12C4A126822EA01024FF025
:1050D0002043C3F8842007E0284A126822EA01022C
:1050E0004FF02043C3F8A420704770B5024600205B
:1050F000002300240025102A03D14FF02046736EB0
:1051000007E0B2F5807F02D11B4E336801E01B4EF1
:10511000336803EA010403EAD10514B10DB101209B
:1051200000E0002070BD102808D14FF02042526EE0
:1051300022EAD1024FF020435A6613E0B0F5807F97
:1051400008D10D4A126822EAD1024FF02043C3F879
:10515000842007E0094A126822EAD1024FF0204376
:10516000C3F8A42070470000AC0000A0B00000A06D
:10517000A00000A0FBFF0F00840000A0A40000A07E
:1051800010B504469848844208D10121084600F031
:105190002CFC0021012000F028FC76E0934884429A
:1051A00008D10121022000F020FC0021022000F0A3
:1051B0001CFC6AE08E48844208D10121042000F0E2
:1051C00014FC0021042000F010FC5EE089488442B9
:1051D00008D10121082000F008FC0021082000F07F
:1051E00004FC52E08448844208D10121102000F0E0
:1051F000FCFB0021102000F0F8FB46E07F488442D1
:1052000008D10121202000F0F0FB0021202000F037
:10521000ECFB3AE07A48844208D10121402000F0BA
:10522000E4FB0021402000F0E0FB2EE075488442C2
:1052300008D10121802000F0D8FB0021802000F05F
:10524000D4FB22E07048844208D10121801500F08F
:10525000CCFB0021A01500F0C8FB16E06B4884428F
:1052600008D10121401500F0C0FB0021601500F0BD
:10527000BCFB0AE06648844207D10121001500F01A
:10528000B4FB0021201500F0B0FB10BDF0B50A46BC
:1052900000210023002400BF3DE0012505FA01F3B1
:1052A000156805EA03049C4234D105684F000326C3
:1052B000BE40B543056015794E00B54006683543DC
:1052C00005601579012D02D01579022D16D185685A
:1052D0004F000326BE40B543856055794E00B5406A
:1052E000866835438560456801268E40B543456034
:1052F000456896798E40B6B235434560C5684F0023
:105300000326BE40B543C560D5794E00B540C6689A
:105310003543C560491C1029BFD3F0BD4FF6FF715E
:1053200001600021017141718171C171704708B53F
:105330004FF480320092009A0A430092009AC261B0
:10534000C161009AC261C2690092C269009208BD3F
:105350000246002013690B4201D0012000E000202A
:1053600070470146086980B27047024600205369C1
:105370000B4201D0012000E000207047014648693F
:1053800080B2704701837047418370470AB101833F
:1053900000E0418370474161704742694A40426181
:1053A0007047F0B5002300244D07ED0E02FA05F317
:1053B000CE1000F1200555F826504E07F70E0F26A7
:1053C000BE40B543CF1000F1200646F82750CE105E
:1053D00000F1200555F8265045EA0304CE1000F1EF
:1053E000200545F82640F0BD0000024000040240C0
:1053F00000080240000C024000100240001402406D
:1054000000180240001C024000200240002402401C
:105410000028024010B50121080700F019FB002107
:105420004FF0805000F014FB10BD484908627047EF
:1054300001460020464A106820F0E0000843106052
:1054400070474249086170474249086070474249C5
:1054500008607047014600203D4A106820F4404033
:1054600008431060704739490864704737494864F9
:10547000704730B13649096841F44021344A11601F
:1054800005E03349096821F44021314A1160704731
:105490002E494862704710B5024600202C4B186810
:1054A00040F6034398431043294B18602B4B1B686D
:1054B00043F00403294C2360012901D130BF00E0EF
:1054C00020BF264B1B6823F00403244C236010BD2F
:1054D00010B5024600201E4B186840F6034398435F
:1054E00010431B4B18601D4B1B6843F004031B4CFF
:1054F0002360012901D130BF00E020BF174B1B689A
:1055000023F00403154C236010BD1148006840F0DF
:1055100002000F4908601148006840F004000F497C
:10552000086000BF00BF30BF704701460020084A36
:1055300052680A4201D0012000E00020704704496F
:10554000096841EA8001024A1160704700000E427A
:1055500000700040A0000E42A4000E4210ED00E0DA
:10556000F948006840F00100F74908600020F6495A
:1055700008310860F4480068F4490840F2490860BE
:10558000F348091D0860F348EF4984310860F0488A
:105590001038091D0860EC48006820F48020EA49B2
:1055A00008600020E8490C310860E7498C31086048
:1055B00070470021E44A921C117011460870704730
:1055C00010B501460022002300204A11012A02D111
:1055D000DD4C236808E0022A03D1DB4C70342368D9
:1055E00002E0D94C7434236801F01F020124944076
:1055F0001C4201D0012000E0002010BD38B5002081
:1056000000900024002500BF3120FFF7D9FF054698
:105610000098401C00900098B0F5A04F01D0002DDC
:10562000F2D03120FFF7CCFF08B1012400E00024C4
:10563000204638BD01460020C34A106820F0F8001B
:1056400040EAC10010607047C349086070470021FC
:10565000BD4A703211701170012802D004280AD19D
:1056600004E00121B84A7032117005E00521B64A04
:105670007032117000E000BF00BF7047B74908608A
:10568000704770B5049C41EA82150126C6EB5306AB
:1056900045EA0645054345EA0465AB4E361D3560CF
:1056A00070BDAD4908667047820142EA0172A64B9F
:1056B00084331A607047A8498866704710B5830123
:1056C00043EA016343EA02739F4C8834236010BDB0
:1056D000A14908677047A049C86470470246002086
:1056E000994B0833186820F0EC6042EA0103184334
:1056F000954B08331860704702460020924B0833E0
:10570000186820F0784042EA010318438E4B0833B2
:1057100018607047014600208B4A0832106820F05C
:10572000030008431060704787480830006800F0A5
:105730000C00704701460020834A0832106820F0B0
:10574000F000084310607047014600207E4A08328E
:10575000106820F4E05008431060704701460020B4
:10576000794A0832106820F4604040EAC1001060B5
:105770007047F0B5002100220024022500260223F4
:10578000714F08373F6807F00C0121B1042905D09B
:10579000082937D105E0724F076036E0714F076086
:1057A00033E0694F3F1D3F68C7F38056664F3F1D8A
:1057B0003F6807F03F036EB16A4FB7FBF3F7DFF8BE
:1057C00088C10CF1040CDCF800C0CCF3881C07FB8A
:1057D0000CF40CE0624FB7FBF3F7DFF86CC10CF18F
:1057E000040CDCF800C0CCF3881C07FB0CF4564F0B
:1057F0003F1D3F68C7F301477F1C7D00B4FBF5F7F1
:10580000076002E0564F076000BF00BF4E4F0837E9
:105810003F6807F0F0010909534F7A5C0768D740E9
:105820004760494F08373F6807F4E051890A4E4FF7
:105830007A5C4768D7408760434F08373F6807F472
:105840006041490B484F7A5C4768D740C760F0BD5C
:10585000002100F44072B2F5407F0AD13A4A083282
:10586000116821F4F811414A02401143364A0832C6
:105870001160354A70321268C0F30B031A43324B81
:1058800070331A60704735494439086070473349AE
:10589000403908607047364908607047014600206B
:1058A000294A8C32106820F4401008431060704779
:1058B00001460020244A8C32106820F4400008433E
:1058C00010607047014600201F4A8C32106820F09B
:1058D0001F004A1E10431C4A8C321060704701465C
:1058E0000020194A8C32106820F4F8504A1E40EA11
:1058F0000220154A8C321060704701460020124A7F
:105900008C32106820F44030084310607047194909
:105910000860704739B10C4A3032126802430A4BB2
:1059200030331A6006E0084A303212688243064B70
:1059300030331A607047F9B1034A343212680243B7
:10594000014B34331A601CE000380240FFFFF6EAD6
:10595000103000240030002000004742800E4742F3
:105960000024F40040787D01B0000020FFFCFF0F10
:105970005C014742E01147428F4A126882438E4BD6
:105980001A60704739B18C4A121D126802438A4B63
:105990001B1D1A6006E0884A121D12688243864B5E
:1059A0001B1D1A60704739B1834A0C3212680243DA
:1059B000814B0C331A6006E07F4A0C321268824336
:1059C0007D4B0C331A60704739B17B4A1032126834
:1059D0000243794B10331A6006E0774A103212689E
:1059E0008243754B10331A60704739B1724A243ABA
:1059F00012680243704B243B1A6006E06E4A243A58
:105A0000126882436C4B243B1A60704739B16A4A72
:105A1000203A12680243684B203B1A6006E0664A4F
:105A2000203A12688243644B203B1A60704739B1B8
:105A3000614A1C3A126802435F4B1C3B1A6006E045
:105A40005D4A1C3A126882435B4B1C3B1A607047EC
:105A500039B1594A143A12680243574B143B1A6041
:105A600006E0554A143A12688243534B143B1A60BD
:105A7000704739B1504A103A126802434E4B103BFE
:105A80001A6006E04C4A103A126882434A4B103BB7
:105A90001A60704739B1484A1C3212680243464BBB
:105AA0001C331A6006E0444A1C3212688243424B9F
:105AB0001C331A60704739B13F4A203212680243E2
:105AC0003D4B20331A6006E03B4A20321268824385
:105AD000394B20331A60704739B1374A2432126883
