:020000040802F0
:10000000B8DE012025420208930202082F420208AE
:100010009D020208A1020208A502020800000000D9
:10002000000000000000000000000000A90202081B
:10003000AB020208000000005FD8040895800208A7
:100040005142020851420208514202081F050208AB
:10005000514202085142020851420208514202082C
:10006000FD3F020851420208514202085142020873
:10007000514202085142020851420208514202080C
:1000800051420208514202085142020851420208FC
:100090005142020851420208514202083B23020821
:1000A00051420208514202085142020851420208DC
:1000B00051420208B53B020851420208514202086F
:1000C00051420208514202085142020851420208BC
:1000D000514202083D340208BD3602084139020887
:1000E00017400208514202085142020851420208D8
:1000F000514202085142020851420208514202088C
:1001000051420208192202085142020851420208D3
:10011000B33D02085142020851420208514202080E
:1001200051420208514202085142020821220208AB
:10013000514202085142020851420208514202084B
:10014000514202085142020851420208514202083B
:10015000514202085142020851420208FF3A020885
:10016000514202085142020851420208514202081B
:10017000514202085142020851420208514202080B
:10018000514202085142020800F002F800F072F8F1
:100190000AA090E8000C82448344AAF10107DA45E2
:1001A00001D100F067F8AFF2090EBAE80F0013F0C2
:1001B000010F18BFFB1A43F00103184748080A0053
:1001C00068080A000A444FF0000C10F8013B13F0D5
:1001D000070408BF10F8014B1D1108BF10F8015BA0
:1001E000641E05D010F8016B641E01F8016BF9D193
:1001F00013F0080F1EBF10F8014BAD1C0C1B09D1EA
:100200006D1E58BF01F801CBFAD505E014F8016B5B
:1002100001F8016B6D1EF9D59142D6D370470000ED
:100220000023002400250026103A28BF78C1FBD8FF
:10023000520728BF30C148BF0B60704764292BF0BC
:10024000F78473292CF0C780002070471FB549F050
:1002500099FD2CF035FA04000020002149F060F8E7
:10026000401C60600020002149F044F8E0601FBDA0
:1002700010B510BD2CF0FEF91146FFF7E7FF17F09F
:100280007CFF2CF081FC03B4FFF7F2FF03BC07F006
:1002900093FF704700BFFEE700BFFEE700BFFEE729
:1002A00000BFFEE700BFFEE77047704708B569462C
:1002B000002005F097FE9DF8030000F5FA6008BDE8
:1002C00008B56946002005F08DFE9DF8010008BDC7
:1002D00008B56946002005F085FE9DF8020008BDBE
:1002E00008B56946002005F0E3FD9DF8000008BD53
:1002F00008B56946002005F0DBFD9DF8010008BD4A
:1003000008B56946002005F0D3FD9DF8020008BD40
:1003100010B586B0044604A9002005F0C9FD05A962
:10032000002005F05FFE9DF812009DF811109DF869
:1003300010209DF81630CDE90032CDE902109DF86D
:1003400015309DF8170000F5FA627AA181482BF06C
:1003500009FC1CB17F4920462BF08FFD7D4806B07B
:1003600010BD2DE9FC4704460D4616461F46DDE943
:100370000A89A4F5FA60C0B28DF80700E8B28DF8DA
:100380000500F0B28DF8060000208DF80400F8B2E8
:100390008DF8000008F0FF008DF8010009F0FF0063
:1003A0008DF8020001A9002005F0B6FD6946002085
:1003B00005F014FDBDE8FC870EB54FF4800004F095
:1003C00020FB4FF48000009000208DF804000820EE
:1003D0008DF8050001208DF80600684604F0A0FAAB
:1003E00003208DF8080001208DF8090000208DF809
:1003F0000A0001208DF80B0002A804F044F8012146
:10040000880306F0BDF9012005F04BFF042005F03C
:1004100023FF002005F035FF0EBD10B586B0002487
:100420000121080705F06DFA012004F0ACFF01205E
:1004300005F0BBF809E0601CC0B20446B0F57A7F55
:1004400003DD4FF0FF3006B010BD412005F066F827
:100450000028F0D04FF4807005F0A8F9012005F0D5
:10046000C0F905F059FB7F200490FF200590002083
:10047000039003A805F017FC14208DF8070007204F
:100480008DF805008DF8060001208DF8040001A903
:1004900005F042FD00208DF80B0012208DF80800B9
:1004A00000208DF809008DF80A0002A9012005F04E
:1004B00095FC4AF2A551002006F0DFF80020C2E7C3
:1004C00010B5002006F0E6F8A0F52541A53903D0C7
:1004D000FFF7A3FF08B310BD0121080705F011FACB
:1004E000012004F050FF05F017FB4FF4807006F078
:1004F00086F94FF4805006F0AFF94FF4005006F043
:10050000ABF9CA2014490860532008600020124942
:100510001C390860FF201049086000BFDBE710B5F8
:100520004FF4804006F079F918B14FF4804006F09E
:1005300093F910BD253034642D253032642D2530DB
:10054000326420253032643A253032643A25303224
:1005500064000000CCAA0020242800401CB5002024
:1005600006F0B6F9002006F0B6F906F089F9002188
:100570004FF4006005F0D6F900220821FC4804F091
:10058000BEFE00220921FA4804F0B9FE00220A2129
:10059000F74804F0B4FE00220B21F54804F0AFFE4A
:1005A00000220C21F24804F0AAFE00220221F148A8
:1005B00004F0A5FE4FF47060009000208DF8040058
:1005C0008DF807006946EA4804F00EFE042000900A
:1005D0006946E84804F008FE4FF4805000906946F0
:1005E000E34804F001FE1CBD10B5FFF7B7FF10BDD6
:1005F0002DE9F04106460027DF48056801E0DE48A6
:10060000056815F0450FFAD015F0040F06D0032742
:10061000042006F005FA3846BDE8F08115F0010F18
:1006200005D00127012006F0FBF93846F4E706F073
:1006300078F9B04202D010273846EDE740F2FF507B
:1006400006F0EEF9002006F071F90446CB480442AA
:1006500001D13846E0E714F0004F01D01C20DBE761
:1006600014F0804F01D00920D6E714F0005F01D0CC
:100670000A20D1E714F0805F01D00B20CCE714F002
:10068000006F01D00C20C7E714F0806F01D00D205F
:10069000C2E714F0807F01D00E20BDE714F4000FF4
:1006A00001D00F20B8E714F4800F01D01020B3E779
:1006B00014F4001F01D01120AEE714F4801F01D004
:1006C0001220A9E714F4002F01D01320A4E714F49A
:1006D000802F01D014209FE714F4003F01D0152093
:1006E0009AE714F4803F01D0162095E714F4004FE8
:1006F00001D0172090E714F4804F01D018208BE729
:1007000014F4005F01D0192086E714F0080F01D01F
:100710001A2081E738467FE72DE9FC4107460D4660
:1007200000260024002000900190082094490860D1
:1007300010204860402088600020C8604FF480602E
:100740000861084606F0D1F81020FFF751FF044673
:1007500014B12046BDE8FC818A480088000488491D
:10076000086037204860402088600020C8604FF44F
:1007700080600861084606F0B8F83720FFF738FFB8
:1007800004460CB12046E5E74FF0FF307E49086093
:1007900008204860302088600220C860002008617E
:1007A00001204861084606F0CCF800207449086032
:1007B00033204860402088600020C8604FF480608B
:1007C0000861084606F091F83320FFF711FF044650
:1007D0000CB12046BEE709E04FF4001006F015F911
:1007E00020B106F0D4F84DF82600761C6248006867
:1007F00040F22A610842EFD0082006F006F928B13D
:10080000082006F00DF904242046A3E7022006F094
:10081000FCF828B1022006F003F90224204699E7EB
:10082000202006F0F2F828B1202006F0F9F806247E
:1008300020468FE74FF4007006F0E7F830B14FF430
:10084000007006F0EDF80724204683E740F2FF50E1
:1008500006F0E6F800980006009901F47F4140EAAE
:100860000120009901F47F0140EA1120009940EA3B
:100870001160686001980006019901F47F4140EA27
:100880000120019901F47F0140EA1120019940EA19
:100890001160286020465DE77CB5054600240020F5
:1008A0000090019006F042F810F0007F02D00E2474
:1008B00020467CBD3349098888B26946FFF72CFF82
:1008C00004460CB12046F4E7012D35D1019810F40F
:1008D000802F2ED02B48008800042949086037203B
:1008E0004860402088600020C860A802086108466F
:1008F00005F0FBFF3720FFF77BFE04460CB12046D6
:10090000D7E702201E490860062048604020886022
:100910000020C8604FF480600861084605F0E5FFDC
:100920000620FFF765FE04460CB12046C1E72046CD
:10093000BFE725242046BCE7019810F4803F3DD056
:100940001048008800040E490860372048604020A5
:1009500088600020C8604FF480600861084605F098
:10096000C4FF3720FFF744FE04467CB12046A0E7D1
:1009700000080240000C0240342C014008E0FFFD5A
:1009800090AB002004000020A4AB00200020FE4912
:10099000086006204860402088600020C8604FF44E
:1009A00080600861084605F0A0FF0620FFF720FEE2
:1009B00004460CB120467CE720467AE725242046F1
:1009C00077E770B504460025F0480068032802D197
:1009D0002725284670BDED48006838B1EB4800680F
:1009E000012803D0E948006802282CD1B4F5805FC3
:1009F00002D127252846EDE7B4F5006F13D1012079
:100A0000FFF74AFF0546F5B90020E149087508607F
:100A1000486088604FF40060C860002008610846A4
:100A200005F039FF0FE00020FFF736FF054655B906
:100A30000020D7490875086048608860C860086170
:100A4000084605F028FF2846C4E770B504460D4661
:100A50004FF00006CC4804604FF00700CA494860D8
:100A60004FF0400088604FF00000C8604FF4806095
:100A70000861084605F039FF0720FFF7B9FD064673
:100A8000304670BDF0B5014600200022BF4B1B78F8
:100A900081F85630BF4B1B88A1F85430BE4B1B6801
:100AA0001A0E93090B70C2F383034B7002F0030319
:100AB0008B70B94B1B68C3F30742CA70B64B1B88D7
:100AC000C3F307220A71B44B1A784A715B681A0E95
:100AD0001301CB80B04B5B68C3F30742CB8843EA7A
:100AE0001213CB8002F00F030B72AB4B9B88C3F346
:100AF0000722D3094B72C2F380138B72C2F34013E7
:100B0000CB72C2F300130B7300234B739F4B1B6814
:100B10001BB19E4B1B68012B4FD193071B0D0B6123
:100B20009D4B1A790B6943EA82030B619A4B9B68D0
:100B30001A0E0B6943EA92130B61C2F3C2030B75E1
:100B400002F007034B75944B9B68C3F307425309AC
:100B50008B75C2F38203CB7593075B0F0B768E4BBD
:100B60001B89C3F307220B7E43EAD2130B760B6972
:100B70005B1C0024C1E912340B7ED1E912469B1C98
:100B8000012505FA03F3DF17A4FB035C06FB03C38F
:100B900004FB0733C1E912530C7A0123A3400B6510
:100BA0000027D1E912560B6DA5FB034C06FB03C3CE
:100BB00005FB0733C1E9124336E0744B1B68022B77
:100BC00032D1754B1A7993069B0A0B61724B9B6865
:100BD0001A0E0B6943EA02230B616F4B9B68C3F348
:100BE00007420B6913430B616B4B1B89C3F307224D
:100BF0000B6900245B1C44EB04074FF400760025CE
:100C0000A3FB064C07FB06C603FB05664FF4806595
:100C10000027A4FB053C06FB05C504FB0754C1E9FE
:100C200012344FF400730B65C2F3801301F8193FBF
:100C300093065B0E4B70584B1A7A4B7843EAD213EB
:100C40004B7002F07F038B70534BDB681A0ED30995
:100C5000CB70C2F341130B71C2F382034B71930744
:100C60001B0F8B714C4BDB68C3F307428B7943EA54
:100C700092138B71C2F34013CB7100230B7202F0FD
:100C800001034B72444B9B89C3F30722D3098B7238
:100C9000C2F38013CB72C2F340130B73C2F3001381
:100CA0004B73C2F381038B7302F00303CB733A4B94
:100CB0001A7B53080B7401234B74384B1B681A0EB4
:100CC000CA74A1F11901354B1B68C3F307424FEAFF
:100CD0000224CC85314B1B88C3F30722CB8D43EA1A
:100CE0000203CB852D4B1A784FEA02640C635B68D4
:100CF0004FEA13620B6B43EA02440C63274B5B68B9
:100D0000C3F307420B6B43EA02240C63234B9B881B
:100D1000C3F307220B6B43EA02030B631F4B1A79E1
:100D20004FF034035A541D4B9B684FEA13624FF047
:100D300035035A54194B9B68C3F307424FEA0264C8
:100D40008C63164B1B89C3F307228B6B43EA024467
:100D50008C63124B1A7A8B6B43EA02248C630F4B21
:100D6000DB684FEA13628B6B43EA02038B630B4B26
:100D7000DB68C3F307424FF03C035B5C43EA1214A9
:100D80004FF03C035C540BE090AB002000000020CF
:100D900078AB002004000020F0AA002000AB002067
:100DA0004FEA02734FEA1354CC87FA4B9B89C3F383
:100DB0000722CB8F43EA0203CB87F64B1A7B4FEA1D
:100DC00052044FF040035C544FF001044FF04103D4
:100DD0005C54F0BD70B50025EF48046801E0EE48B2
:100DE000046814F0450FFAD014F0040F05D0032561
:100DF000042005F015FE284670BD14F0010F05D043
:100E00000125012005F00CFE2846F5E740F2FF50D1
:100E100005F006FE2846EFE72DE9F04106460F46AD
:100E20004FF00008DC48056801E0DB48056815F074
:100E3000450FFAD015F0040F07D04FF00308042037
:100E400005F0EEFD4046BDE8F08115F0010F06D03B
:100E50004FF00108012005F0E3FD4046F3E705F0FF
:100E600060FDB04203D04FF010084046EBE740F27F
:100E7000FF5005F0D5FD002005F058FD044614F4A0
:100E8000604F03D1200C38804046DCE714F4005F4B
:100E900001D01320D7E714F4804F01D01020D2E7FF
:100EA00014F4004F01D00F20CDE74046CBE738B512
:100EB00000240120009005F012FD10B925242046E1
:100EC00038BDB6480068042828D00020B44908601E
:100ED00002204860C02088600020C8604FF4806015
:100EE0000861084605F001FDFFF774FF04460CB1E8
:100EF0002046E5E7002005F019FDA649086004201A
:100F000005F014FDA3494860082005F00FFDA14934
:100F100088600C2005F00AFD9E49C8609F48006863
:100F200058B19E480068012807D09C4800680628F0
:100F300003D09A480068022816D10020984908601A
:100F400003204860402088600020C8604FF4806023
:100F50000861084605F0C9FC69460320FFF75CFFFD
:100F600004460CB12046ABE78C48006804282ED01C
:100F7000BDF800008B490860BDF8000000048849F6
:100F8000086009204860C02088600020C8604FF4D5
:100F900080600861084605F0A8FCFFF71BFF0446C7
:100FA0000CB120468CE7002005F0C0FC7E490860AB
:100FB000042005F0BBFC7C494860082005F0B6FC25
:100FC000794988600C2005F0B1FC7749C86000249D
:100FD000204675E770B500256F48046801E06E484B
:100FE000046814F0450FFAD014F0040F05D003255F
:100FF000042005F015FD284670BD40F2FF5005F0B5
:101000000FFD2846F8E770B500264FF4803562489A
:10101000046802E06D1E6048046814F0450F01D1B9
:10102000002DF7D115B114F0040F05D003260420CC
:1010300005F0F6FC304670BD14F0400F05D00026D8
:10104000402005F0EDFC3046F5E73046F3E770B59B
:1010500000254FF4803400E0641E24B1802005F0A8
:10106000D4FC0028F8D014B90325284670BD40F2FE
:10107000FF5005F0D5FC2846F8E7F8B500200090B1
:101080000025002400260027762048490875002006
:10109000086048608860C8600861084605F0FBFB8E
:1010A000032005F018FC012005F012FC00203C494B
:1010B000086048608860C8604FF480600861084636
:1010C00005F013FCFFF7C3FF00909DF8000010B17E
:1010D0009DF80000F8BD4FF4D57031490860082034
:1010E0004860402088600020C8604FF4806008613C
:1010F000084605F0FAFBFFF786FF00909DF8000018
:1011000020B9012025490860870712E00020244902
:10111000086037204860402088600020C8604FF495
:1011200080600861084605F0E0FB3720FFF760FAB1
:10113000009000201A4908603720486040208860ED
:101140000020C8604FF480600861084605F0CDFBC0
:101150003720FFF74DFA00909DF8000000285FD17E
:1011600049E000200E490860372048604020886030
:101170000020C8604FF480600861084605F0B5FBA8
:101180003720FFF735FA00909DF8000080B19DF8F8
:1011900000009FE700AB0020342C0140000000203D
:1011A00090AB002004000020F0AA002078AB0020C3
:1011B000F7483843F7490860292048604020886094
:1011C0000020C8604FF480600861084605F08DFB80
:1011D000FFF700FF00909DF8000010B19DF800009F
:1011E00078E7002005F0A2FB0546012080EAD570D3
:1011F00080F00106641C1EB94FF6FF708442B0D324
:101200004FF6FF70844204D31B2000909DF800002D
:1012100060E705F08040050002D00220DE4908604A
:101220009DF8000056E71CB501210D2004F020FBBD
:101230000C220821D94804F062F80C220921D74871
:1012400004F05DF80C220A21D44804F058F80C226E
:101250000B21D24804F053F80C221146CF4804F079
:101260004EF80C220221CE4804F049F84FF4706089
:10127000009002208DF805008DF8040000208DF804
:10128000060001208DF807006946C44803F0ACFF52
:10129000042000906946C24803F0A6FF4FF4805036
:1012A000009000208DF807006946BC4803F09CFFC1
:1012B0004FF40060009000208DF8040001208DF8AC
:1012C00007006946B74803F08FFF0121C80204F008
:1012D00029FB0121880504F0CBFA1CBD08B531209B
:1012E0008DF8000000208DF801008DF8020001202B
:1012F0008DF80300684603F0C6F83B208DF8000027
:1013000001208DF80100684603F0BDF808BD08B55E
:1013100000200090FFF7E2FFFFF785FF05F0B0FA2D
:10132000FFF7ABFE00909DF8000010B19DF80000A3
:1013300008BDFFF7BCFD00909DF8000010B19DF8BE
:101340000000F5E70020984908750860486088604B
:10135000C8600861084605F09EFA9448FFF792FBC2
:1013600000909DF8000040B99048B0F85400020485
:1013700010460021FFF769FB00909DF8000020B99E
:101380004FF40060FFF71DFB00909DF80000CFE7D1
:1013900070B50446002514B92625284670BD84483A
:1013A000008800047B4908600D2048604020886068
:1013B0000020C8604FF480600861084605F095FA87
:1013C0000D20FFF715F905460DB12846E6E7002088
:1013D00005F0ACFA20602846E0E708B5012000904F
:1013E000C102704803F062FF08B1002000909DF830
:1013F000000008BD08B500200090FFF7EEFF0128AF
:1014000009D16846FFF7C4FF08B1FF2008BD009866
:10141000C0F34320FAE7FF20F8E710B50424FFF7F4
:10142000E9FF0446042C01D1002010BDFF2C01D19E
:101430000220FAE70120F8E710B50024002005F0AB
:101440004AFA204610BD70B504460026002500204B
:1014500005F06CFA10F0007F02D00E26304670BD09
:1014600040204C49086010204860402088600020DF
:10147000C8604FF480600861084605F036FA102015
:10148000FFF7B6F806460EB13046E8E74848008850
:1014900000044049086037204860402088600020F0
:1014A000C8604FF480600861084605F01EFA3720D6
:1014B000FFF79EF806460EB13046D0E74FF0FF30FA
:1014C0003C49086040204860602088600220C86075
:1014D0000020086101204861084605F032FA00202A
:1014E0002C4908600D204860402088600020C860BA
:1014F0004FF480600861084605F0F7F90D20FFF70A
:1015000077F806460EB13046A9E70EE04FF40040EA
:1015100005F07BFA48B1002504E005F038FA44F8FC
:1015200025006D1C082DF8D320342348006840F2B4
:101530002A610842EAD0082005F067FA28B108209D
:1015400005F06EFA0426304689E7022005F05DFAC0
:1015500028B1022005F064FA022630467FE72020F9
:1015600005F053FA28B1202005F05AFA0626304635
:1015700075E74FF4007005F048FA30B14FF4007091
:1015800005F04EFA0726304669E74FF0FF351AE0BE
:101590000000108090AB00200000002000080240F6
:1015A000000C02400000024078AB002020AB00207D
:1015B00004000020A4AB0020342C014005F0E7F922
:1015C0002060241D6D1E4FF4001005F01EFA08B1B6
:1015D000002DF3D140F2FF5005F022FA30463EE7ED
:1015E00070B5044600260025FB48FFF72CFF064691
:1015F0000EB1304670BDF848007885092570F64870
:101600000078C0F340156570F34885782802608043
:10161000F148C578608828436080EF48057928063E
:101620006060ED484579606840EA05406060EA48DE
:101630008579606840EA05206060E748C5796068A0
:1016400028436060E448057A2572457A6572807A9D
:101650000509A572E048C57A2802A081DE48057B0D
:10166000A0892843A081DC48407B8508A573DA481F
:10167000407B00F00305E5733046BBE730B58FB023
:1016800005460C464FF0FA51D44803F0BDF800214E
:10169000D24803F041F8D14802F062FF4FF00060F9
:1016A0000090CF480190029500200390049405908B
:1016B0004FF4806006908000079000200890099009
:1016C0004FF440300A9004200B9003200C904FF40C
:1016D00000000D9080100E906946C04802F0E2FFB5
:1016E00001221021BD4803F0A3F82021BB4803F0DC
:1016F00029F80121B94803F00FF80FB030BD2DE9EA
:10170000F041804614461D46069E4FF000073846BD
:10171000B4490870B4490860B4490860B449086025
:101720004FF0010140F22A3005F05EF9012005F08A
:1017300057F931464046FFF7A1FFAE48006802283E
:1017400008D1060202020023204629462AF093F916
:1017500004460D46A84806601020A749486040206E
:1017600088600020C8604FF480600861084605F07A
:10177000BCF81020FEF73CFF074617B13846BDE81D
:10178000F0814FF0FF309D49086008464660902088
:1017900088600220C8600020086101204861084676
:1017A00005F0CFF894480460112093494860402028
:1017B00088600020C8604FF480600861084605F02A
:1017C00094F81120FEF714FF07460FB13846D6E70C
:1017D0003846D4E72DE9F047814614461D46DDE939
:1017E00008684FF0000738467E4908707E49086057
:1017F0004FF001007D4908604FF000007C4908600F
:101800004FF0010140F22A3005F0EEF808FB06F136
:101810004846FFF733FF012005F0E2F875480068FD
:10182000022808D1060202020023204629462AF097
:1018300022F904460D467048066010206E49486043
:10184000402088600020C8604FF48060086108462E
:1018500005F04BF81020FEF7CBFE074617B13846CF
:10186000BDE8F0874FF0FF306449086008FB06F0E0
:101870004860902088600220C86000200861012034
:101880004861084605F05DF85B48046012205A493B
:101890004860402088600020C8604FF48060086184
:1018A000084605F022F81220FEF7A2FE07460FB107
:1018B0003846D5E73846D3E710B5002400204E4916
:1018C00008600C204860402088600020C8604FF409
:1018D00080600861084605F008F80C20FEF788FED5
:1018E0000446204610BD70B500256C1E00E0641E45
:1018F0004348006838B93C48006820B93948007846
:1019000008B9002CF3D100203D490860441E00E0D6
:10191000641E37480830006810F4005F01D0002CC6
:10192000F6D132480068012805D1FFF7C5FF05460A
:1019300000202E4908600CB905B9042540F2FF507B
:1019400005F06EF82748007810B12648007870BD81
:101950002846FCE730B58FB005460C464FF0FA51EB
:101960001E4802F051FF00211C4802F0D5FE1B4822
:1019700002F0F6FD4FF000600090194801900295CA
:10198000402003900494002005904FF4806006905E
:10199000800007900020089009904FF440300A9092
:1019A00004200B9003200C904FF400000D90801049
:1019B0000E906946094802F075FE01221021074881
:1019C00002F036FF2021054802F0BCFE0121034849
:1019D00002F0A2FE0FB030BD10AB002058640240F0
:1019E000802C01400C000020100000200800002086
:1019F0002C2C01400000002090AB0020A4AB002064
:101A0000140000202DE9F041804614461D46069E34
:101A10004FF000073846F7490870F7490860F74962
:101A20000860F74908604FF0010140F22A3004F0E5
:101A3000DBFF31464046FFF78DFF012004F0D0FF69
:101A4000F0480068022808D106020202002320465E
:101A500029462AF010F804460D46EB48066010208F
:101A6000E9494860402088600020C8604FF48060E9
:101A70000861084604F039FF1020FEF7B9FD07465B
:101A800017B13846BDE8F081DF4804601820DE4910
:101A90004860402088600020C8604FF48060086182
:101AA000084604F022FF1820FEF7A2FD07460FB1FA
:101AB0003846E7E74FF0FF30D449086008464660F3
:101AC000902088600020C8600861012048610846B5
:101AD00004F037FF3846D5E72DE9F0478146154633
:101AE0001E46DDE908784FF000042046C149087021
:101AF000C14908604FF00100C04908604FF0000084
:101B0000BF4908604FF0010140F22A3004F06CFF39
:101B100008FB07F14846FFF71DFF012004F060FFB6
:101B2000B8480068022808D10702020200232846AC
:101B3000314629F0A0FF05460E46B3480760102045
:101B4000B1494860402088600020C8604FF4806040
:101B50000861084604F0C9FE1020FEF749FD04465E
:101B600014B12046BDE8F087A94800880004A649C2
:101B7000086037204860402088600020C8604FF42B
:101B800080600861084604F0B0FE3720FEF730FDA3
:101B900004460CB12046E5E79B48C0F800801720BA
:101BA00099494860402088600020C8604FF48060F8
:101BB0000861084604F099FE1720FEF719FD044657
:101BC0000CB12046CEE79048056019208E49486048
:101BD000402088600020C8604FF48060086108469B
:101BE00004F083FE1920FEF703FD04460CB12046E5
:101BF000B8E74FF0FF308549086008FB07F0486000
:101C0000902088600020C860086101204861084673
:101C100004F097FE2046A5E770B500256C1E00E095
:101C2000641E7C48006838B97348006820B9714860
:101C3000007808B9002CF3D1002076490860441ED2
:101C400000E0641E6E480830006810F4805F01D028
:101C5000002CF6D169480068012805D1FFF72CFE59
:101C600005460020654908600CB905B9042540F215
:101C7000FF5004F0D5FE5F48007810B15D48007851
:101C800070BD2846FCE75E480830006810F4405FED
:101C900001D0012070470020FCE77CB504460025F8
:101CA0000020019000905A480088000456490860BE
:101CB0000D204860402088600020C8604FF480609C
:101CC0000861084604F011FE4D4808300068009095
:101CD00003E04B48083000680090009810F0450F72
:101CE000F7D0009810F0040F05D00325042004F06D
:101CF00097FE28467CBD009810F0010F05D0012505
:101D0000012004F08DFE2846F4E704F00AFE00905E
:101D100000980D2802D010252846EBE740F2FF502E
:101D200004F07EFE002004F001FE01900198C0F353
:101D30004320207038490198084201D12846D9E74C
:101D4000019810F0004F01D01C20D3E7019810F04B
:101D5000804F01D00920CDE7019810F0005F01D03D
:101D60000A20C7E7019810F0805F01D00B20C1E77F
:101D7000019810F0006F01D00C20BBE7019810F023
:101D8000806F01D00D20B5E7019810F0807F01D061
:101D90000E20AFE7019810F4000F01D00F20A9E743
:101DA000019810F4800F01D01020A3E7019810F4DF
:101DB000001F01D011209DE7019810F4801F01D071
:101DC000122097E7019810F4002F01D0132091E71B
:101DD000019810F4802F01D014208BE7019810F4A3
:101DE000003F01D0152085E7019810F4803F15D001
:101DF00016207FE70C0000201000002008000020C3
:101E00002C2C01400000002090AB0020A4AB00204F
:101E1000040000201400002008E0FFFD019810F4E9
:101E2000004F01D0172065E7019810F4804F01D0D2
:101E300018205FE7019810F4005F01D0192059E7DE
:101E4000019810F0080F01D01A2053E7284651E7F7
:101E50002DE9FC4705460E46174698464FF000040C
:101E6000A146204601900090EF4840684FF02001C5
:101E700011EA105F03D125242046BDE8FC87EB481A
:101E80000068C0B2801CEA49B1FBF0F0019000206C
:101E900004F04CFD10F0007F02D00E242046ECE749
:101EA000E4480068022810D1020200232846314687
:101EB00029F0E1FD05460E464FF400720023384636
:101EC000414629F0D8FD07468846DA48006838B10F
:101ED000D8480068012803D0D648006802282BD1D2
:101EE000D54805602020D449486040208860002003
:101EF000C8604FF480600861084604F0F6FC2020BA
:101F0000FEF776FB04460CB12046B6E7CA480760E8
:101F10002120C9494860402088600020C8604FF4F3
:101F200080600861084604F0E0FC2120FEF760FBB9
:101F300004460CB12046A0E70020BF4908602620D7
:101F40004860402088600020C8604FF480600861CD
:101F5000084604F0CAFC2620FEF74AFB04460CB1F2
:101F600020468AE74FF0000901E009F101090198D4
:101F70008145FAD36846FFF790FE04464FF0FF39DB
:101F800005E06846FFF789FE0446A9F10109B9F1A9
:101F9000000F08D03CB99DF800000728F1D09DF84B
:101FA00000000628EDD0204667E710B54FF480709A
:101FB00004F03AFD50B10020A04908704FF4807041
:101FC00004F03DFD01209E49086037E0022004F046
:101FD0002BFD30B1022004F032FD02209749087039
:101FE0002CE0082004F020FD30B1082004F027FD8B
:101FF00004209249087021E0202004F015FD30B142
:10200000202004F01CFD06208C49087016E01020EA
:1020100004F00AFD30B1102004F011FD05208749BD
:1020200008700BE04FF4007004F0FEFC30B14FF488
:10203000007004F004FD07208049087000214CF274
:102040003A3004F0D1FC7D48007810BD10B57D48D1
:10205000006810F0C05F08D001207B4908604FF095
:10206000C2517848583002F0CFFB10BD0146002025
:1020700002E04910421CD0B20129FAD17047F0B5F4
:1020800093B000250020119012900027402101A854
:102090002AF070F8002401AE0020684908706849F1
:1020A00008606A4908606149283108606849098800
:1020B00088B211A9FEF730FB054615B1284613B0CA
:1020C000F0BD129810F0807F03D1129810F0007FBD
:1020D00001D0012000E000200746002F71D04020F1
:1020E0005549086010204860402088600020C86082
:1020F0004FF480600861084604F0F7FB1020FEF7FB
:1021000077FA05460DB12846D9E74FF0FF3051491F
:10211000086040204860602088600220C86000207D
:10212000086101204861084604F00BFC4A48424916
:10213000086006204860402088600020C8604FF496
:1021400080600861084604F0D0FB0620FEF750FAD4
:1021500005460DB12846B2E70EE04FF4004004F00A
:1021600054FC48B1002404E004F011FC46F82400BB
:10217000641C082CF8D320362C483030006840F21C
:102180002A610842E9D0082004F03FFC28B1082069
:1021900004F046FC0425284691E7022004F035FCB3
:1021A00028B1022004F03CFC0225284687E72020C5
:1021B00004F02BFC30B1202004F032FC0625284628
:1021C0007DE727E04FF4007004F01FFC30B14FF4BE
:1021D000007004F025FC0725284670E74FF0FF3417
:1021E00004E004F0D4FB3060361D641E4FF4001090
:1021F00004F00BFC08B1002CF3D140F2FF5004F0C6
:102200000FFC9DF8110000F00200022801D100250A
:1022100000E02725284652E710B5FFF7C6FE10BD9F
:1022200010B5FFF713FF10BDF0AA0020042C0140E9
:10223000C0D401000000002090AB00200C00002062
:10224000100000200064024014000020080000205C
:1022500004000020A4AB002001FFFF801CB5012179
:10226000880303F05FFB0621052004F04AFE4020AE
:1022700002F0C7FB4020009000208DF804000C20E5
:102280008DF8050001208DF80600684602F048FB35
:102290000721052004F035FE802002F0B2FB8020EB
:1022A000009000208DF804000C208DF8050001201E
:1022B0008DF80600684602F033FB1CBD08B51720F8
:1022C0008DF8000000208DF801008DF8020001203B
:1022D0008DF80300684602F0D6F808BD1CB5012150
:1022E000202003F0C5FA03208DF8050001208DF8A9
:1022F00007008020009000208DF804008DF8060073
:1023000001208DF807006946294802F06DFF402042
:10231000009000208DF804008DF8060001208DF853
:1023200007006946224802F05FFFFFF797FFFFF7BB
:10233000C5FF1CBD1F490860704710B50AF0B6FE06
:10234000402002F053FB48B1402002F05AFB1948EC
:10235000006818B11848174909688847802002F0BA
:1023600045FB48B1802002F04CFB1248006818B1D0
:102370001248104909688847202002F037FB10B145
:10238000202002F03EFB4FF4807002F02FFB18B1CA
:102390004FF4807002F035FB4FF4007002F026FB22
:1023A00018B14FF4007002F02CFB0AF090FE10BD43
:1023B00000140240200000201C0000201800002013
:1023C000012806D0022808D003280AD0042810D1FA
:1023D0000BE00121FB4A11700BE00221F94A117058
:1023E00007E00321F74A117003E00421F54A117058
:1023F00000BF00BF704710B54FF48071F24802F083
:102400006FFF4FF40071F04802F06AFF4FF48061F3
:10241000ED4802F065FF4FF40041EB4802F060FF29
:10242000E8480078012806D002280AD003280ED0F8
:10243000042818D111E04FF48071E34802F052FFF4
:1024400011E04FF40071E04802F04CFF0BE04FF454
:102450008061DD4802F046FF05E04FF40041DA48B4
:1024600002F040FF00BF00BF10BD10B54FF48071F7
:10247000D54802F035FF4FF40071D34802F030FF29
:102480004FF48061D04802F02BFF4FF40041CE485A
:1024900002F026FF10BD10B54FF48051CA4802F07B
:1024A00021FF10BD10B54FF48051C74802F018FF4E
:1024B00010BD1CB50121412003F0DAF903208DF88D
:1024C000050000208DF8060001208DF8070000208F
:1024D0008DF804004FF4006000906946BA4802F09D
:1024E00083FE01208DF80400802000906946B748E3
:1024F00002F07AFE4FF4805000906946B24802F034
:1025000073FE4FF4807000906946B04802F06CFE94
:102510004FF4807000906946AB4802F065FE4FF4BE
:10252000007000906946A84802F05EFE4FF480609B
:1025300000906946A44802F057FE4FF40040009016
:102540006946A14802F050FEFFF78FFF1CBD70B531
:102550000446082519E04FF480719C4802F0C2FE41
:1025600014F0800F04D08021984802F0B9FE03E0F7
:102570008021964802F0B6FE4FF48071934802F035
:10258000AFFE6006040E681EC5B2002DE3D170BD1B
:1025900070B50024082513E04FF480718B4802F0D9
:1025A000A1FE6006040E4FF48071884802F098FE88
:1025B0004FF40061844802F079FE0443681EC5B2FE
:1025C000002DE9D1204670BD10B50024FFF713FFA0
:1025D000D720FFF7BCFF00BFFFF7DAFF044614F077
:1025E000800FF9D0FFF741FF10BD38B578A0006823
:1025F00000900024FFF7E8FFFFF7FDFE00BF04E0B6
:102600001DF80400FFF7A3FF641C042CF8DBFFF7A0
:102610002CFF38BD38B56FA0006800900024FFF78C
:10262000D3FFFFF7E8FE00BF04E01DF80400FFF74A
:102630008EFF641C042CF8DBFFF717FF38BD10B5C4
:102640000446FFF72FFFFFF7BFFFFFF7D4FE8120FF
:10265000FFF77DFFC4F30740FFF779FFC4F30720BE
:10266000FFF775FFE0B2FFF772FFFFF7FEFEFFF71F
:10267000ABFFFFF710FF10BD38B557A00068009002
:102680000024FFF70FFFFFF79FFFFFF7B4FE00BF27
:1026900004E01DF80400FFF75AFF641C042CF8DB6B
:1026A000FFF7E3FEFFF790FFFFF7F5FE38BDF8B543
:1026B00005464AA00068009000242E46FFF7F2FE6F
:1026C000FFF782FFFFF797FE00BF04E01DF804004C
:1026D000FFF73DFF641C042CF8DB002403E03046C8
:1026E000FFF735FF641C102CF9DBFFF7BEFEFFF788
:1026F0006BFFFFF7D0FEF8BD38B5054638A000687F
:1027000000900024FFF760FFFFF775FE00BF04E0B4
:102710001DF80400FFF71BFF641C042CF8DB0024E9
:1027200003E0FFF735FF2855641C102CF9DBFFF799
:102730009CFEFFF749FF38BD38B52AA0006800901D
:102740000024FFF7AFFEFFF73FFFFFF754FE00BF87
:1027500004E01DF80400FFF7FAFE641C042CF8DB0B
:10276000FFF783FEFFF730FFFFF795FE38BD2DE939
:10277000F84F05460C4617464FF0000AD3464FF473
:10278000047900200090A046B8FBF9F009FB108BFB
:10279000B8FBF9FA4BEA8A2000906E46FFF782FEFA
:1027A000FFF712FFFFF727FE8220FFF7D0FEB07879
:1027B000FFF7CDFE7078FFF7CAFE3078FFF7C7FE4F
:1027C00016E0000024000020000002400018024033
:1027D0003D2A7FA93D2A7F9A3D2A7FCF3D2A7FFC53
:1027E000322A7FFCC794809A15F8010BFFF7AFFEE1
:1027F0003800A7F101018FB2F6D1FFF736FEFFF7DF
:10280000E3FEFFF748FEBDE8F88F2DE9F84F0546D7
:102810000C4617464FF0000AD3464FF404790020C7
:102820000090A046B8FBF9F009FB108BB8FBF9FA51
:102830004BEA8A2000906E46FFF7C6FEFFF7DBFDED
:10284000E820FFF784FEB078FFF781FE7078FFF78D
:102850007EFE3078FFF77BFEA520FFF778FEA520EF
:10286000FFF775FEA520FFF772FEA520FFF76FFEAC
:1028700003E0FFF78DFE05F8010B3800A7F1010119
:102880008FB2F6D1FFF7F1FDBDE8F88F2DE9F041E9
:102890000024002500260027FFF7ADFD9F20FFF74D
:1028A00056FEFFF775FE0546FFF772FE0646FFF778
:1028B0006FFE0746FFF76CFE8046FFF7D6FD280641
:1028C00040EA064040EA072040EA08042046BDE806
:1028D000F0812DE9F04105460E464FF404740027BF
:1028E00000BFA2B231462846FFF741FFA2B23146EF
:1028F000C148FFF78AFF781C0746052800D906E083
:102900002246BD49284629F08CFA0028E9D100BFAB
:10291000BDE8F0812DE9F74F86B006468A460020D3
:10292000059004900390029083464FF404740027AE
:102930000025DDF8208014B909B0BDE8F08FBAFB9E
:10294000F4F060430290BAFBF4F004FB10ABBBF16F
:10295000000F01D1002001E0A4EB0B000746B845B1
:1029600001D9059701E0CDF81480B8450BD9A8EB43
:102970000700B0FBF4F00490A8EB0700B0FBF4F103
:1029800004FB11000390DDF808900598B8B1A2B2DD
:1029900049469A48FFF739FFCDF804B0002506E014
:1029A00016F8011B01982844944A11546D1C05988F
:1029B0008542F5D349469148FFF78BFFA14404981F
:1029C00058B1002506E049463046FFF782FF26440D
:1029D000A1446D1C04988542F5D3039890B1A2B22E
:1029E00049468648FFF711FF002504E016F8010B61
:1029F000824948556D1C03988542F7D349467F4864
:102A0000FFF767FF00BF97E72DE9F74F86B006464F
:102A10008A460020059004900390029083464FF46C
:102A200004740027DDF82080002514B909B0BDE842
:102A3000F08FBAFBF4F060430290BAFBF4F004FBB1
:102A400010ABBBF1000F01D1002001E0A4EB0B00A3
:102A50000746B84501D9059701E0CDF81480B8457F
:102A60000BD9A8EB0700B0FBF4F00490A8EB07002B
:102A7000B0FBF4F104FB11000390DDF80890059819
:102A800098B1A2B249465E48FFF7BFFECDF804B048
:102A9000002506E0019828445949085C06F8010B16
:102AA0006D1C05988542F5D3A144049860B10025BA
:102AB00007E0A2B249463046FFF7A7FE2644A144EC
:102AC0006D1C04988542F4D3039870B1A2B24946B4
:102AD0004B48FFF79AFE002504E04948405D06F8A0
:102AE000010B6D1C03988542F7D300BF9EE710B51C
:102AF000FFF77BFDFFF78EFDFFF7BEFD0020FFF720
:102B0000D6FD0020FFF7F8FD10BD30B599B00024C8
:102B100000254FF480513B4802F0E2FB45B9FFF736
:102B2000ABFD6846FFF7E8FDFF20FFF7C0FD04E0BE
:102B30004FF48051334802F0D5FB6846FFF7DCFDC7
:102B40004FF480512F4802F0CBFB002404E06019C1
:102B5000C0B20DF80400641CB4F5806FF7DB4FF4CD
:102B6000806200216846FFF7D5FE4FF480620121A4
:102B70006846FFF749FF19B030BD10B586B0002494
:102B8000FFF797FC00BF33E0611CC8B2FFF718FCE9
:102B9000FFF77CFEC4EBC4011B4A42F82100C4EBE2
:102BA000C400114651F82000184988421FD1C4EBD7
:102BB000C40102EB8101081D15A129F05EF94FF453
:102BC0000010C4EBC401104A02EB810148614FF4CC
:102BD0000470C4EBC40102EB8101088301A8FFF774
:102BE0008BFD9DF80400FF2801D0FFF745FD641C14
:102BF000042CC9DB06B010BDBCAB0020CCAD00205E
:102C0000DCAF002000000240ECB100200000261FD5
:102C10004154343544423136310000001CB50121A5
:102C200040F2FF1002F024FE0121880302F07AFE38
:102C30000C220021FE4802F062FB0C220121FC481C
:102C400002F05DFB0C220221F94802F058FB0C2235
:102C50000321F74802F053FB0C220421F44802F050
:102C60004EFB0C220521F24802F049FB0C221146D2
:102C7000EF4802F044FB0C220D21ED4802F03FFB2F
:102C80000C220E21EA4802F03AFB0C220F21E84800
:102C900002F035FB4FF23F00009002208DF8040057
:102CA00001208DF8050000208DF8060001208DF828
:102CB00007006946DE4802F097FA0C220021DD4841
:102CC00002F01DFB0C220121DA4802F018FB0C2255
:102CD0000221D84802F013FB0C220321D54802F050
:102CE0000EFB0C220421D34802F009FB0C22052123
:102CF000D04802F004FB3F2000906946CD4802F026
:102D000073FA0C220B21CC4802F0F9FA0C2211467E
:102D1000C94802F0F4FA0C220D21C74802F0EFFA7C
:102D20004FF4605000906946C34802F05DFA0C22EF
:102D30000321C24802F0E3FA0C220421BF4802F04A
:102D4000DEFA182000906946BC4802F04DFA0C22C9
:102D50000E21B94802F0D3FA0C220F21B64802F036
:102D6000CEFA0C220021B44802F0C9FA0C2201214B
:102D7000B14802F0C4FA4CF2030000906946AE4834
:102D800002F032FA0C220721AC4802F0B8FA0C2209
:102D90000821AA4802F0B3FA0C220921A74802F040
:102DA000AEFA0C220A21A54802F0A9FA0C220B2146
:102DB000A24802F0A4FA0C221146A04802F09FFAA1
:102DC0000C220D219D4802F09AFA0C220E219B48FC
:102DD00002F095FA0C220F21984802F090FA4FF673
:102DE000807000906946954802F0FEF90C22082197
:102DF000914802F084FA0C2209218F4802F07FFAF0
:102E00000C220A218C4802F07AFA4FF4E06000901C
:102E10006946894802F0E8F90C220721864802F049
:102E20006EFA8020009001208DF8070069468248E4
:102E300002F0DAF90C2209217E4802F060FA4FF420
:102E40000070009001208DF807006946794802F073
:102E5000CBF90C220421784802F051FA0C2205210A
:102E6000754802F04CFA302000906946724802F032
:102E7000BBF94020009000208DF8040001208DF85F
:102E8000060000208DF8070069466B4802F0ACF997
:102E90004020009000208DF804008DF8070069465E
:102EA000674802F0A1F900208DF8040001208DF898
:102EB00006008DF807008DF805000F200090694688
:102EC000604802F091F901208DF8040000208DF88F
:102ED00006008DF80700702000906946584802F0FF
:102EE00083F9042000906946574802F07DF90020DC
:102EF0008DF8040001208DF806008DF807000220EF
:102F00008DF805008003009069464D4802F06CF989
:102F10000820009069464C4802F066F90F21002015
:102F200003F0EFFF0321082003F0EBFF4FF4004014
:102F3000009069463F4802F057F9802000906946AA
:102F4000414802F051F90721082003F0DAFF402040
:102F5000009069463C4802F047F90621082003F03A
:102F6000D0FF4FF4806000906946374802F03CF98A
:102F70000A21082003F0C5FF4FF4807000906946D5
:102F8000314802F031F90821084603F0BAFF4FF446
:102F9000C07000906946274802F026F908210620F3
:102FA00003F0AFFF01208DF8040000208DF806002B
:102FB0008DF8070001208DF805004FF4E0500090D7
:102FC00069461C4802F010F90120009069461C482F
:102FD00002F00AF94FF4806000906946144802F04C
:102FE00003F9102000906946184802F0FDF80C2201
:102FF0000821144802F083F90C220921114802F03B
:103000007EF90C220A210F4802F079F90C220B21DB
:103010000C4802F074F90C2211460A4802F06FF9CC
:103020000C220221044802F06AF94FF470600FE0AC
:103030000014024000180240000C02400010024040
:10304000000002400008024000200240001C024034
:10305000009001208DF8050002208DF8040000206A
:103060008DF8060001208DF807006946804802F0BF
:10307000BBF80420009069467E4802F0B5F84FF492
:103080008050009001208DF807006946784802F0D2
:10309000ABF84FF40060009000208DF80400012090
:1030A0008DF807006946744802F09EF801208DF8FB
:1030B000040000208DF806008DF8070001208DF82F
:1030C00005008020009069466B4802F08DF83020A2
:1030D00000906946664802F087F820200090694613
:1030E000664802F081F8032000906946644802F0C7
:1030F0007BF84FF4006000906946624802F074F873
:1031000000208DF804000420009069465C4802F01D
:103110006BF801208DF8070000208DF80400402096
:1031200000906946524802F05FF88021524802F050
:10313000D7F810214E4802F0D3F820214C4802F075
:10314000CFF820214D4802F0CBF81CBD00B59DB052
:103150000121084602F0C4FB0420079000200890DB
:10316000099001200A9000200B900C900D900420F3
:103170000090002001900620029001200390002082
:1031800004900590069002200E9000200F90109061
:10319000102011900020129013901490159016900A
:1031A0004FF4805017900020189019901A90CDF885
:1031B0006CD007A81C900EA801F048FC0121022049
:1031C00001F0ECFC032007900020089002200990F9
:1031D00001200A9000200B900C900D900E900F9003
:1031E00010901190129013901490159016904FF427
:1031F000805017900020189019901A9007A81B90E3
:103200001C900EA801F022FC0121002001F0C6FC58
:103210001DB000BD10B54FF4A06001F02FF9FFF70D
:1032200095FFFFF7FBFC14F0FEFD174800F0ACFC27
:1032300000F06EFE11F0CFFDFDF742F9FFF74EF8FA
:10324000FFF79BFC42F2CF01092000F071FC0F4810
:1032500002F03DFA0E4800F01DF80D4800F04EF95E
:103260000B4800F08BFA0A4800F0C4FC10BD0000C7
:1032700000080240000C024000000240001C024016
:103280000004024000140240657D03085CB2002087
:10329000008C0A0010B58AB004460121102002F00B
:1032A00041FB0121022002F0E3FA072206218748B0
:1032B00002F025F807221146844802F020F808A8F9
:1032C00001F0DAFF4020089002208DF824008DF8EC
:1032D000250008A97D4801F087FF80200890022082
:1032E0008DF824008DF8250008A9784801F07CFFAE
:1032F00004A804F060FD04940020ADF81400ADF8BB
:103300001600ADF81800ADF81C000C20ADF81A003E
:1033100004A96F4804F0E9FC02A804F068FD02A9C2
:103320006B4804F054FD012240F22551684804F036
:103330001AFE0121664804F060FD25208DF8040086
:1033400000208DF805008DF8060001208DF807009B
:1033500001A801F098F80AB010BD70B505460C46FA
:103360005C4805605C490C8000685C4908605A480C
:1033700000885B490880012240F22661544804F02D
:10338000F2FD70BD10B555480068524908605448B8
:10339000008851490880012240F226614C4804F01F
:1033A000E2FD10BD4F49087800214E4A1170704768
:1033B0004D4870474D480068704700204B490860F1
:1033C00070474B4870471E204A490860704749487B
:1033D0000068704747480068401E46490860084634
:1033E000006870474348006850B142480068401E7A
:1033F000404908600846006810B901203E4908703D
:1034000070473D480078704700203B49087070477E
:10341000002036490860704710B500212C4804F0A0
:10342000ECFC002240F22661294804F09CFD0022B9
:1034300040F22551264804F096FD10BD10B509F064
:1034400035FE40F22551224804F0C8FD01280FD175
:10345000FFF7B9FF1E4804F0FFFC2349234A126816
:10346000885422480088401CC0F308001F490860A7
:1034700040F22661164804F0B1FD012822D1164819
:10348000008878B9002240F22661114804F06BFDF3
:10349000012240F225510E4804F065FD012011493A
:1034A00008700FE00B4800680178094804F0D0FC70
:1034B00009480088401E0849088006480068401CEA
:1034C0000449086009F003FE10BD0000000402403A
:1034D00000100140280000202C00002030000020B7
:1034E00034000020360000206CB400204000002092
:1034F0006CB20020380000203C00002010B58AB0DB
:1035000004460121480402F0FCF90121084602F0BA
:10351000AFF9072202218D4801F0F1FE07220321B5
:103520008A4801F0ECFE08A801F0A6FE04200890ED
:1035300002208DF824008DF8250008A9834801F0A9
:1035400053FE0820089002208DF824008DF82500F5
:1035500008A97E4801F048FE04A804F02CFC04945D
:103560000020ADF81400ADF81600ADF81800ADF865
:103570001C000C20ADF81A0004A9754804F0B5FB36
:1035800002A804F034FC02A9714804F020FC0122D6
:1035900040F225516E4804F0E6FC01216C4804F02D
:1035A0002CFC26208DF8040000208DF805008DF8F5
:1035B000060001208DF8070001A800F064FF0AB0A2
:1035C00010BD70B505460C466248056062490C8026
:1035D00000686249086060480088614908800022EC
:1035E00040F225515A4804F0BEFC012240F2266107
:1035F000574804F0B8FC70BD10B5584800685549EC
:1036000008605748008854490880002240F225513C
:103610004F4804F0A8FC012240F226614C4804F017
:10362000A2FC10BD4F49087800214E4A1170704726
:103630004D4870474D480068704700204B4908606E
:1036400070474B4870471E204A49086070474948F8
:103650000068704747480068401E464908600846B1
:10366000006870474348006850B142480068401EF7
:10367000404908600846006810B901203E490870BA
:1036800070473D480078704700203B4908707047FC
:10369000002036490860704710B500212C4804F01E
:1036A000ACFB002240F22661294804F05CFC0022B9
:1036B00040F22551264804F056FC10BD10B509F023
:1036C000F5FC40F22551224804F088FC01280FD176
:1036D000FFF7B9FF1E4804F0BFFB2349234A1268D5
:1036E000885422480088401CC0F308001F49086025
:1036F00040F22661164804F071FC012822D11648D8
:10370000008878B9002240F22661114804F02BFCB1
:10371000012240F225510E4804F025FC01201149F8
:1037200008700FE00B4800680178094804F090FB2E
:1037300009480088401E0849088006480068401C67
:103740000449086009F0C3FC10BD000000000240FD
:103750000044004044000020480000204C000020AD
:1037600050000020520000206CB800205C000020B7
:103770006CB60020540000205800002010B58AB01C
:1037800004460121880402F0BCF80121042002F063
:103790006FF807220A218E4801F0B1FD07220B21A4
:1037A0008B4801F0ACFD08A801F066FD4FF4806085
:1037B000089002208DF824008DF8250008A984487F
:1037C00001F012FD4FF40060089002208DF82400F3
:1037D0008DF8250008A97E4801F006FD04A804F034
:1037E000EAFA04940020ADF81400ADF81600ADF824
:1037F0001800ADF81C000C20ADF81A0004A975489B
:1038000004F073FA02A804F0F2FA02A9714804F075
:10381000DEFA012240F225516E4804F0A4FB01219A
:103820006C4804F0EAFA27208DF8040000208DF897
:1038300005008DF8060001208DF8070001A800F0B2
:1038400022FE0AB010BD70B505460C466248056000
:1038500062490C80006862490860604800886149DC
:103860000880002240F225515A4804F07CFB0122D6
:1038700040F22661574804F076FB70BD10B55848F9
:10388000006855490860574800885449088000225C
:1038900040F225514F4804F066FB012240F22661B8
:1038A0004C4804F060FB10BD4F49087800214E4A97
:1038B000117070474D4870474D48006870470020B0
:1038C0004B49086070474B4870471E204A490860C2
:1038D000704749480068704747480068401E46499D
:1038E00008600846006870474348006850B1424885
:1038F0000068401E404908600846006810B9012071
:103900003E49087070473D480078704700203B49A9
:1039100008707047002036490860704710B50021D4
:103920002C4804F06AFA002240F22661294804F08B
:103930001AFB002240F22551264804F014FB10BD6A
:1039400010B509F0B3FB40F22551224804F046FBC4
:1039500001280FD1FFF7B9FF1E4804F07DFA234973
:10396000234A1268885422480088401CC0F308008B
:103970001F49086040F22661164804F02FFB012819
:1039800022D11648008878B9002240F226611148F9
:1039900004F0E9FA012240F225510E4804F0E3FA5E
:1039A0000120114908700FE00B48006801780948B0
:1039B00004F04EFA09480088401E0849088006486D
:1039C0000068401C0449086009F081FB10BD00003C
:1039D0000004024000480040600000206400002015
:1039E000680000206C0000206E0000206CBC0020ED
:1039F000780000206CBA00207000002074000020C5
:103A000000B589B00121202001F08CFF01210420A4
:103A100001F02EFF08220621434801F070FC082225
:103A20000721414801F06BFC07A801F025FC40206C
:103A3000079002208DF820008DF8210007A93A4850
:103A400001F0D2FB8020079002208DF820008DF835
:103A5000210007A9344801F0C7FB03A804F0ABF923
:103A60004FF4E13003900020ADF81000ADF81200E3
:103A7000ADF81400ADF818000C20ADF8160003A93D
:103A80002A4804F032F901A804F0B1F901A9274845
:103A900004F09DF9012240F22551244804F063FA14
:103AA0000121224804F0A9F909B000BD08B54FF47E
:103AB000C06000F0E3FC47208DF8000000208DF886
:103AC00001008DF8020001208DF80300684600F027
:103AD000DAFC08BD70B504460D460BE014F8011B76
:103AE000124804F0B5F900BF8021104804F060FAD4
:103AF0000028F9D02800A5F10105EFD170BD10B55F
:103B000009F0D4FA40F22551084804F067FA38B1B8
:103B1000064804F0A1F904462146044804F098F947
:103B200009F0D5FA10BD0000000802400014014061
:103B30007FB504460D460121022001F0E2FEADF8FA
:103B400004500020ADF806000294ADF80C0001A965
:103B5000264803F0BEFA01221146244803F05AFF1A
:103B60000121224803F03EFB1D208DF800000120BA
:103B70008DF8010003208DF8020001208DF803006C
:103B8000684600F080FC7FBD0246002100BF08E0CF
:103B9000174850F8210018B9154840F8212002E0D4
:103BA000491C1429F4DB00BF142901D101207047FE
:103BB0000020FCE710B5002409F078FA00BF0AE005
:103BC0000B4850F8240020B1094951F824008047DF
:103BD00000E002E0641C142CF2DB00BF012103486A
:103BE00003F040FF09F073FA10BD0000000400402C
:103BF0006CBE002010B58AB004460121C80401F053
:103C000080FE0121084601F033FE082200218C4885
:103C100001F075FB08220121894801F070FB08A81A
:103C200001F02AFB0120089002208DF824008DF875
:103C3000250008A9824801F0D7FA022008908DF8E3
:103C400024008DF8250008A97D4801F0CDFA04A8CC
:103C500004F0B1F804940020ADF81400ADF816009B
:103C6000ADF81800ADF81C000C20ADF81A0004A93E
:103C7000744804F03AF802A804F0B9F802A97148AF
:103C800004F0A5F8012240F225516E4804F06BF9CA
:103C900001216C4804F0B1F834208DF804000020B4
:103CA0008DF805008DF8060001208DF8070001A8A9
:103CB00000F0E9FB0AB010BD70B505460C4662483D
:103CC000056062490C800068614908605F480088AF
:103CD00060490880002240F225515A4804F043F917
:103CE000012240F22661574804F03DF970BD10B53D
:103CF000574800685449086056480088534908806E
:103D0000002240F225514F4804F02DF9012240F2E3
:103D100026614C4804F027F910BD4F49087800216E
:103D20004D4A117070474D4870474D4800687047C4
:103D300000204B49086070474A4870471E204A4996
:103D40000860704748480068704747480068401E50
:103D5000454908600846006870474348006850B10C
:103D600041480068401E404908600846006810B994
:103D700001203E49087070473C4800787047002099
:103D80003A4908707047002035490860704710B5FF
:103D900000212C4804F031F8002240F22661294825
:103DA00004F0E1F8002240F22551264804F0DBF847
:103DB00010BD10B509F07AF940F22551214804F000
:103DC0000DF901280FD1FFF7B9FF1E4804F044F8A0
:103DD0002249234A1268885421480088401CC0F3B5
:103DE00008001F49086040F22661164804F0F6F802
:103DF000012822D11548008878B9002240F22661B6
:103E0000104804F0B0F8012240F225510D4804F0AA
:103E1000AAF80120104908700FE00B4800680178EB
:103E2000084804F015F809480088401E0749088032
:103E300005480068401C0449086009F048F910BDB5
:103E400000000240004C00407C0000208000002068
:103E500084000020880000208A000020BCC00020D0
:103E600094000020BCBE00208C00002090000020A8
:103E70001CB50121880301F055FD0221012003F04A
:103E800040F8042000F0BDFD0420009000208DF8D3
:103E9000040010208DF8050001208DF8060068460A
:103EA00000F03EFD0B21052003F02BF84FF40060DD
:103EB00000F0A7FD4FF40060009000208DF8040092
:103EC0000C208DF8050001208DF80600684600F0F2
:103ED00027FD1CBD08B508208DF8000000208DF8D6
:103EE00001008DF8020001208DF80300684600F003
:103EF000CAFA28208DF8000000208DF801008DF806
:103F0000020001208DF80300684600F0BCFA08BDED
:103F10001CB50121222001F0ABFC0121102001F091
:103F2000A7FC03208DF8050001208DF80700002074
:103F30008DF806008DF8040001208DF80700C002FE
:103F400000906946524801F04FF9042000906946FC
:103F5000504801F049F92020009069464D4801F091
:103F600043F91020009069464A4801F03DF94FF4AA
:103F7000004000906946484801F036F94FF400507F
:103F800000906946444801F02FF94FF4807000908A
:103F90006946404801F028F90820009069463D48EC
:103FA00001F022F94FF48040009069463A4801F050
:103FB0001BF94FF4805000906946374801F014F91E
:103FC000FFF756FFFFF786FF01208DF804008DF8FC
:103FD0000700202000906946304801F005F92021B3
:103FE0002E4801F07DF94020009069462B4801F0F1
:103FF000FBF84021294801F073F91CBD10B50420DD
:1040000000F0F4FC30B1042000F0FBFC0421214856
:1040100001F04CF910BD10B54FF4006000F0E6FC63
:1040200040B14FF4006000F0ECFC4FF40061184820
:1040300001F03CF94FF4806000F0D8FC18B14FF467
:10404000806000F0DEFC4FF4805000F0CFFC18B12F
:104050004FF4805000F0D5FC4FF4005000F0C6FC47
:1040600018B14FF4005000F0CCFC4FF4804000F049
:10407000BDFC18B14FF4804000F0C3FC4FF4004089
:1040800000F0B4FC18B14FF4004000F0BAFC10BDD1
:1040900000140240000402400018024000100240D8
:1040A00000BF0100A0F10100FBD1704770B52020D6
:1040B00056494883002425E0402054494883E217AC
:1040C00004EB5272D210C2F10102514B9A5CE31719
:1040D00004EB5373DB10A4EBC30580232B411A427E
:1040E00002D01020088302E01020484948830A20AB
:1040F000FFF7D6FF4020454908830A20FFF7D0FF8D
:10410000601CC4B2102CD7DB20204049088370BD4E
:104110003F4A1154704701463D48405C704710B516
:10412000FFF7C4FF10BD1FB5012140F2C11001F01F
:104130009FFB00208DF80C008DF80E008DF80F000D
:1041400002208DF80D000820029002A9314801F0EC
:104150004BF80420029002A92E4801F045F80220F5
:10416000029002A92B4801F03FF80120029002A919
:10417000284801F039F801208DF80C0000208DF856
:104180000E008DF80F002020029002A91F4801F0B8
:104190002BF84020029002A91C4801F025F81020BD
:1041A000029002A9194801F01FF80420029002A908
:1041B000194801F019F80121880301F0B3FB082127
:1041C000062002F09EFE4FF48070009000208DF8D3
:1041D00004000C208DF8050001208DF806006846CB
:1041E00000F09EFB1FBD0D4800680D49D1F8081274
:1041F00040EA41000A49D1F8041240EA8100084926
:10420000D1F8001240EAC100C0B27047000002407D
:104210009800002000080240002002400C024142A9
:10422000000041420E4880470E480047FEE7EFF38A
:10423000098000B5FCF730F85DF804EB4EF0040E91
:104240007047FEE7FEE7FEE7FEE7FEE7FEE7FEE774
:10425000FEE7000004480549054A064B7047000088
:104260005343020889010208B8D80120B8DE0120B2
:10427000B8DA0120B8DA01200CB5002001900090D6
:104280007348006840F480307149086000BF70488E
:10429000006800F4003000900198401C01900098E4
:1042A00018B90198B0F5A04FF1D16948006810F431
:1042B000003F02D00120009001E000200090009813
:1042C000012845D162484030006840F08050604984
:1042D000403108605F48006840F440405D49086034
:1042E0005B48083000685A49083108600846006891
:1042F00040F4004008600846006840F4A0500860A0
:104300005548091F0860081F006840F08070091FA9
:10431000086000BF4E48006810F0007FFAD040F2FD
:1043200005704E4908604A480830006820F00300D4
:104330004749083108600846006840F002000860FC
:1043400000BF43480830006800F00C000828F8D18E
:104350000CBD10B54248006840F470004049086048
:104360003B48006840F001003949086000203849A6
:1043700008310860364800683A4908403449086006
:104380003948091D0860081F006820F48020091FB3
:10439000086000202E490C310860FFF76DFF10BD4A
:1043A00070B500200022022300240221284D083588
:1043B0002D6805F00C0020B1042806D0082834D15F
:1043C00007E02A4D2A4E356033E02A4D284E3560ED
:1043D0002FE01F4D2D1D2D68C5F380541C4D2D1D44
:1043E0002D6805F03F0154B1224DB5FBF1F5184E93
:1043F000361D3668C6F3881605FB06F209E01B4D2C
:10440000B5FBF1F5124E361D3668C6F3881605FB6E
:1044100006F20F4D2D1D2D68C5F301456D1C6B0077
:10442000B2FBF3F5124E356003E0104D104E3560CF
:1044300000BF00BF064D08352D68C5F303150E4EAD
:10444000705D0B4D2D68C540094E356070BD000094
:10445000003802400070004019544007003C024000
:1044600088ED00E0FFFFF6FE103000240024F40089
:104470009C00002040787D01A000002033490143CA
:10448000334A1160704770B5002100230F22C478B1
:1044900024B32F4C246804F4E064C4F5E064C4F34E
:1044A0000721C1F10404E3B20A4144789C40E1B21F
:1044B0008478144021430C07210E264C0578615561
:1044C000047804F01F050124AC4005786D114FF00D
:1044D000E02606EB8505C5F8004109E0047804F004
:1044E0001F040125A5401C4C0678761144F826507F
:1044F00070BD1A4A0A400243154B1B1F1A607047D1
:1045000039B1134A121D12680243114B1B1D1A6068
:1045100006E00F4A121D126882430D4B1B1D1A60E4
:104520007047042808D14FF0E021096941F00401E7
:104530004FF0E022116107E04FF0E021096921F01E
:1045400004014FF0E0221161704700000000FA05FD
:104550000CED00E000E400E080E100E080FFFF1FE0
:10456000016821F00101016000210160416081606A
:10457000C160016121214161DA49884204D13D21B4
:10458000D84A103A91608CE0D6491831884205D15A
:104590004FF47461D34A103A916082E0D1493031CE
:1045A000884205D14FF47411CE4A103A916078E0F8
:1045B000CC494831884205D14FF07461C94A103A5C
:1045C00091606EE0C7496031884204D1C649C54A4E
:1045D000103AD16065E0C3497831884204D1C349BB
:1045E000C04A103AD1605CE0BE499031884204D1A3
:1045F000BF49BC4A103AD16053E0BA49A831884259
:1046000005D14FF03D51B74A103AD16049E0B94960
:10461000884204D13D21B74A083A116041E0B549CA
:104620001831884205D14FF47461B24A083A1160DA
:1046300037E0B0493031884205D14FF47411AD4AAA
:10464000083A11602DE0AB494831884205D14FF05E
:104650007461A84A083A116023E0A6496031884293
:1046600004D1A149A34A121F11601AE0A14978316F
:10467000884204D19D499F4A121F116011E09D4953
:104680009031884204D19A499A4A121F116008E079
:104690009849A831884204D14FF03D51954A121FE4
:1046A0001160704710B500220268934B1A40CC6825
:1046B0000B6823434C6923438C692343CC69234310
:1046C0000C6A23434C6A23438C6A23434C6B234379
:1046D0008C6B23431A430260426922F00702D1E93E
:1046E0000B3423431A4342610B6943604B68836078
:1046F0008B68C36010BD0021016041608160C160B2
:10470000016141618161C161016241628162C16295
:10471000016341638163704721B1026842F0010285
:10472000026003E0026822F001020260704721B1DA
:10473000026842F40042026003E0026822F4004290
:104740000260704721B1026842F02002026003E07B
:10475000026822F020020260704741607047014603
:10476000486880B2704722B1036843F400230360B5
:1047700003E0036823F4002303600161704721B163
:10478000026842F48022026003E0026822F4802280
:10479000026070470AB1016100E0C16070470146E4
:1047A00000200A6812F4002F01D0012000E0002050
:1047B0007047014600200A6812F0010F01D0012065
:1047C00000E000207047014600204A6902F03800EE
:1047D000704730B503460A4600200024454DAB42E1
:1047E00002D24049103901E04249103912F0005F0D
:1047F00001D04C6800E00C68404D2C40144201D0C0
:10480000012000E0002030BD02463A4B9A4202D21D
:104810003448103801E03748103811F0005F03D0F9
:10482000364B0B40C36002E0344B0B408360704753
:1048300010B511F0800F09D022B1436943F0800315
:10484000436103E0436923F08003436180290BD077
:104850002AB1036801F01E042343036004E00368E7
:1048600001F01E04A343036010BD70B50246002092
:10487000002400251F4EB24202D21A4B103B01E029
:104880001C4B103B1E4E314206D01E2606EAD12498
:10489000166806EA040502E0566906F0800511F084
:1048A000005F01D05C6800E01C68144E34400C428C
:1048B00002D00DB1012000E0002070BD02460D4B7A
:1048C0009A4202D20748103801E00A48103811F025
:1048D000005F03D0094B0B40C36002E0074B0B4065
:1048E00083607047106002403D000020400F0020B0
:1048F00000003D20106402403F801CF07D0F7D0FC2
:104900003C0F3C0F002041490860091D0860091D4B
:104910000860091D08603E483C4914310860704732
:1049200000213A498279002A3AD00A46126803687F
:104930009A430B461A600A1D126803689A430B1DBE
:104940001A60027911440A6803681A430A602F4A00
:104950000832126803689A432C4B08331A601A1DF8
:10496000126803689A43294B0C331A604279102A63
:104970000ED11A1F126803681A43244B08331A60B9
:104980001A1D126803681A43204B0C331A600DE09D
:104990001E49427911440A6803681A430A6005E017
:1049A000027911440A6803689A430A60704700213B
:1049B000016001710C21417100218171704713491F
:1049C000103109680143114A1032116070470146E5
:1049D00000200E4A143212680A4201D0012000E081
:1049E00000207047094914310860704701460020D3
:1049F000064A143212680A4201D0012000E0002069
:104A0000704702491431086070470000003C0140C3
:104A1000FFFF7F0030B943F2DB014FF0204242F844
:104A2000201005E043F2D2014FF0204242F820105E
:104A30006FF07042411C4FF0204343F82120114693
:104A40001A4602EB8002C2F80411704770B50021CB
:104A5000002200234FF02045046855F82410FE4C36
:104A60002140D0E901452C43C5682C4305692C43FE
:104A700045692C4385692C43C5692C43056A2C4341
:104A8000456A2C43856A2C43C56A2C43056B2C432D
:104A900021434FF02045046845F824108468082C11
:104AA00009D1046855F8244044F040044FF02046F2
:104AB000056846F825400468641C4FF0204555F809
:104AC000242002F04042446B2468456B6D6844EA40
:104AD0000514456BAD6844EA0524456BAD8944EA8D
:104AE0000544456B2D8A44EA0554456B2D7D44EA07
:104AF0000564456BAD692C4322430468641C4FF088
:104B0000204545F82420C46AB4F5804F24D10468B8
:104B100005EB8404D4F8043103F04043846B24682B
:104B2000856B6D6844EA0514856BAD6844EA05241D
:104B3000856B2D8A44EA0554856B2D7D44EA056416
:104B4000856BAD692C4323434FF02045046805EB8A
:104B50008404C4F8043108E06FF070444FF020463C
:104B6000056806EB8505C5F8044170BD00210160AC
:104B70000221416000218160C16001614161816168
:104B8000C16101624FF4805141624900816200219C
:104B9000C1620163B14941638163704751B14FF014
:104BA000204252F8202042F001024FF0204343F807
:104BB000202009E04FF0204252F82020A84B1A4054
:104BC0004FF0204343F82020704710280AD11821C5
:104BD0004FF020421166402151664FF0FC31916642
:104BE000D16610E018219F4A11604FF040014FF04C
:104BF0002042C2F884104FF0FC319B4A11604FF004
:104C00002042C2F88C10704730B5002100220023EA
:104C10000468102C03D14FF02044216E01E0914C28
:104C20002168924C01EA0401446844F00804856854
:104C300044EA0504C56844EA0504056944EA050434
:104C4000456944EA4524856944EA453444EA01015A
:104C50000468102C03D14FF02044A26E01E0824C76
:104C600022684FF00002C4692468C5696D6844EA8F
:104C70000524C5692D8944EA0544C5692D7B44EAAC
:104C8000056444EA02020468102C03D14FF020446A
:104C9000E36E02E04FF02044E36E0023046A2468D0
:104CA000056A6D6844EA0524056A2D8944EA0544CD
:104CB000056A2D7B44EA056423430468102C05D162
:104CC0004FF020442166A266E36607E0654C216050
:104CD0004FF02044C4F88820654C236030BD10217B
:104CE0000160002141608160C160016141618161B9
:104CF000FC21C2691160C2695160C2699160C269D8
:104D0000D160026A1160026A5160026A9160026AAF
:104D1000D160704799B1102808D14FF02042126E2F
:104D200042F004024FF020431A661DE04D4A12681B
:104D300042F004024FF02043C3F8802014E0102812
:104D400009D14FF02042126E454BDB1E1A404FF046
:104D500020431A6608E0434A1268464B02EA0302FF
:104D60004FF02043C3F88020704799B1102808D134
:104D70004FF02042126E42F040024FF020431A667C
:104D80001DE0384A126842F040024FF02043C3F859
:104D9000802014E0102809D14FF02042126E354BCC
:104DA0003C3B1A404FF020431A6608E02D4A126837
:104DB000314B02EA03024FF02043C3F880207047D2
:104DC00001460020102903D14FF02042506F01E02E
:104DD0002A4A106870471820294908604FF00000DF
:104DE0004FF02041C1F8A4004FF0FC302549086085
:104DF00001F10401086001F104010860704770B519
:104E000000210022002300241D4D29681E4D01EAC7
:104E10000501056845F01005466845EA462586689F
:104E200045EA463545EA01014FF02045C5F8A01096
:104E3000144D2A681A46C5682D68C668766845EA22
:104E40000625C668368945EA0645C668367B45EAC2
:104E5000066545EA020219E08000F7FF949E060805
:104E6000FEFF0F00800000A0880000A08101F0FF7D
:104E70008C0000A0FBFF0F00BFFF0F00940000A0FC
:104E8000A00000A0A80000A0CD01FEFF4FF020452B
:104E9000C5F8A8208B4D2B68234605692D68066947
:104EA000766845EA06250669368945EA06450669B3
:104EB000367B45EA066545EA03034FF02045C5F811
:104EC000AC30814D2C684FF0000445692D6846696F
:104ED000766845EA06254669368945EA0645466903
:104EE000367B45EA066545EA04044FF02045C5F8DF
:104EF000B04070BD0021016041608160FC21C2684A
:104F00001160C2685160C2689160C268D160026974
:104F1000116002695160026991600269D160426961
:104F2000116042695160426991604269D160704785
:104F300040B16649096841F004014FF02042C2F8CF
:104F4000A01008E061490968614A01EA02014FF0D6
:104F50002042C2F8A010704710B5F2B1102807D156
:104F60004FF020435B6E0B434FF02044636632E00A
:104F7000B0F5807F08D1574B1B6843EA01034FF01F
:104F80002044C4F8843026E0534B1B6843EA0103F5
:104F90004FF02044C4F8A4301DE0102807D14FF092
:104FA00020435B6E8B434FF02044636613E0B0F503
:104FB000807F08D1474B1B6823EA01034FF0204450
:104FC000C4F8843007E0444B1B6823EA01034FF028
:104FD0002044C4F8A43010BD10B5024600200023C0
:104FE000102A03D14FF02044636E07E0B2F5807FB2
:104FF00002D1384C236801E0374C23680B4201D0C2
:10500000012000E0002010BD102807D14FF0204201
:10501000526E8A434FF020435A6613E0B0F5807F0A
:1050200008D12C4A126822EA01024FF02043C3F84B
:10503000842007E0284A126822EA01024FF0204348
:10504000C3F8A420704770B5024600200023002456
:105050000025102A03D14FF02046736E07E0B2F509
:10506000807F02D11B4E336801E01B4E336803EA98
:10507000010403EAD10514B10DB1012000E00020C4
:1050800070BD102808D14FF02042526E22EAD102A2
:105090004FF020435A6613E0B0F5807F08D10D4AE7
:1050A000126822EAD1024FF02043C3F8842007E0BF
:1050B000094A126822EAD1024FF02043C3F8A42023
:1050C00070470000AC0000A0B00000A0A00000A04D
:1050D000FBFF0F00840000A0A40000A010B5044650
:1050E0009848844208D10121084600F02CFC002198
:1050F000012000F028FC76E09348844208D1012189
:10510000022000F020FC0021022000F01CFC6AE0DC
:105110008E48844208D10121042000F014FC0021B3
:10512000042000F010FC5EE08948844208D101218F
:10513000082000F008FC0021082000F004FC52E0E8
:105140008448844208D10121102000F0FCFB00219A
:10515000102000F0F8FB46E07F48844208D101218E
:10516000202000F0F0FB0021202000F0ECFB3AE0D2
:105170007A48844208D10121402000F0E4FB00215C
:10518000402000F0E0FB2EE07548844208D1012168
:10519000802000F0D8FB0021802000F0D4FB22E02A
:1051A0007048844208D10121801500F0CCFB002119
:1051B000A01500F0C8FB16E06B48844208D101211D
:1051C000401500F0C0FB0021601500F0BCFB0AE0B8
:1051D0006648844207D10121001500F0B4FB00218C
:1051E000201500F0B0FB10BDF0B50A4600210023E9
:1051F000002400BF3DE0012505FA01F3156805EA2A
:1052000003049C4234D105684F000326BE40B543D9
:10521000056015794E00B54006683543056015797F
:10522000012D02D01579022D16D185684F00032675
:10523000BE40B543856055794E00B540866835431C
:105240008560456801268E40B5434560456896797E
:105250008E40B6B235434560C5684F000326BE4058
:10526000B543C560D5794E00B540C6683543C560C5
:10527000491C1029BFD3F0BD4FF6FF71016000211A
:10528000017141718171C171704708B54FF480326D
:105290000092009A0A430092009AC261C161009A8A
:1052A000C261C2690092C269009208BD0246002034
:1052B00013690B4201D0012000E000207047014635
:1052C000086980B270470246002053690B4201D042
:1052D000012000E0002070470146486980B2704715
:1052E00001837047418370470AB1018300E0418325
:1052F00070474161704742694A4042617047F0B56A
:10530000002300244D07ED0E02FA05F3CE1000F144
:10531000200555F826504E07F70E0F26BE40B54320
:10532000CF1000F1200646F82750CE1000F12005DE
:1053300055F8265045EA0304CE1000F1200545F843
:105340002640F0BD00000240000402400008024078
:10535000000C0240001002400014024000180240FD
:10536000001C0240002002400024024000280240AD
:1053700010B50121080700F019FB00214FF0805003
:1053800000F014FB10BD4849086270470146002038
:10539000464A106820F0E000084310607047424918
:1053A0000861704742490860704742490860704789
:1053B000014600203D4A106820F440400843106038
:1053C000704739490864704737494864704730B1BD
:1053D0003649096841F44021344A116005E03349F7
:1053E000096821F44021314A116070472E49486212
:1053F000704710B5024600202C4B186840F6034356
:1054000098431043294B18602B4B1B6843F004034F
:10541000294C2360012901D130BF00E020BF264B79
:105420001B6823F00403244C236010BD10B5024612
:1054300000201E4B186840F60343984310431B4B53
:1054400018601D4B1B6843F004031B4C23600129AB
:1054500001D130BF00E020BF174B1B6823F00403CD
:10546000154C236010BD1148006840F002000F4940
:1054700008601148006840F004000F49086000BF50
:1054800000BF30BF704701460020084A52680A42F8
:1054900001D0012000E0002070470449096841EA7A
:1054A0008001024A1160704700000E420070004007
:1054B000A0000E42A4000E4210ED00E0F948006882
:1054C00040F00100F74908600020F6490831086003
:1054D000F4480068F4490840F2490860F348091D9F
:1054E0000860F348EF4984310860F0481038091D1E
:1054F0000860EC48006820F48020EA490860002039
:10550000E8490C310860E7498C3108607047002198
:10551000E44A921C117011460870704710B501469C
:105520000022002300204A11012A02D1DD4C236809
:1055300008E0022A03D1DB4C7034236802E0D94C26
:105540007434236801F01F02012494401C4201D0EE
:10555000012000E0002010BD38B50020009000249C
:10556000002500BF3120FFF7D9FF05460098401CF9
:1055700000900098B0F5A04F01D0002DF2D031205E
:10558000FFF7CCFF08B1012400E00024204638BD1D
:1055900001460020C34A106820F0F80040EAC1002C
:1055A00010607047C349086070470021BD4A7032DF
:1055B00011701170012802D004280AD104E00121E1
:1055C000B84A7032117005E00521B64A7032117088
:1055D00000E000BF00BF7047B7490860704770B572
:1055E000049C41EA82150126C6EB530645EA0645AE
:1055F000054345EA0465AB4E361D356070BDAD49C7
:1056000008667047820142EA0172A64B84331A6031
:105610007047A8498866704710B5830143EA016363
:1056200043EA02739F4C8834236010BDA149086788
:105630007047A049C864704702460020994B083360
:10564000186820F0EC6042EA01031843954B0833D8
:105650001860704702460020924B0833186820F00B
:10566000784042EA010318438E4B083318607047B4
:10567000014600208B4A0832106820F003000843DE
:105680001060704787480830006800F00C007047D1
:1056900001460020834A0832106820F0F0000843D9
:1056A00010607047014600207E4A0832106820F4DE
:1056B000E05008431060704701460020794A0832E4
:1056C000106820F4604040EAC10010607047F0B5F7
:1056D000002100220024022500260223714F0837F2
:1056E0003F6807F00C0121B1042905D0082937D102
:1056F00005E0724F076036E0714F076033E0694F95
:105700003F1D3F68C7F38056664F3F1D3F6807F057
:105710003F036EB16A4FB7FBF3F7DFF888C10CF1B6
:10572000040CDCF800C0CCF3881C07FB0CF40CE084
:10573000624FB7FBF3F7DFF86CC10CF1040CDCF837
:1057400000C0CCF3881C07FB0CF4564F3F1D3F688C
:10575000C7F301477F1C7D00B4FBF5F7076002E04B
:10576000564F076000BF00BF4E4F08373F6807F035
:10577000F0010909534F7A5C0768D7404760494FE9
:1057800008373F6807F4E051890A4E4F7A5C476852
:10579000D7408760434F08373F6807F46041490BA3
:1057A000484F7A5C4768D740C760F0BD002100F4DD
:1057B0004072B2F5407F0AD13A4A0832116821F4AA
:1057C000F811414A02401143364A08321160354A05
:1057D00070321268C0F30B031A43324B70331A60F5
:1057E000704735494439086070473349403908608B
:1057F000704736490860704701460020294A8C32BC
:10580000106820F4401008431060704701460020E3
:10581000244A8C32106820F440000843106070471E
:10582000014600201F4A8C32106820F01F004A1EDB
:1058300010431C4A8C321060704701460020194A00
:105840008C32106820F4F8504A1E40EA0220154AB3
:105850008C321060704701460020124A8C3210686A
:1058600020F44030084310607047194908607047C1
:1058700039B10C4A3032126802430A4B30331A6095
:1058800006E0084A303212688243064B30331A6011
:105890007047F9B1034A343212680243014B343382
:1058A0001A601CE000380240FFFFF6EA10300024C6
:1058B0000030002000004742800E47420024F400E0
:1058C00040787D01B0000020FFFCFF0F5C014742E3
:1058D000E01147428F4A126882438E4B1A6070472C
:1058E00039B18C4A121D126802438A4B1B1D1A6083
:1058F00006E0884A121D12688243864B1B1D1A60FF
:10590000704739B1834A0C3212680243814B0C3321
:105910001A6006E07F4A0C32126882437D4B0C33DA
:105920001A60704739B17B4A103212680243794BD2
:1059300010331A6006E0774A103212688243754BC2
:1059400010331A60704739B1724A243A1268024320
:10595000704B243B1A6006E06E4A243A1268824378
:105960006C4B243B1A60704739B16A4A203A12687E
:105970000243684B203B1A6006E0664A203A1268F0
:105980008243644B203B1A60704739B1614A1C3A2C
:10599000126802435F4B1C3B1A6006E05D4A1C3AEA
:1059A000126882435B4B1C3B1A60704739B1594AFD
:1059B000143A12680243574B143B1A6006E0554AEA
:1059C000143A12688243534B143B1A60704739B142
:1059D000504A103A126802434E4B103B1A6006E0E0
:1059E0004C4A103A126882434A4B103B1A60704787
:1059F00039B1484A1C3212680243464B1C331A60C4
:105A000006E0444A1C3212688243424B1C331A603F
:105A1000704739B13F4A2032126802433D4B203370
:105A20001A6006E03B4A203212688243394B203329
:105A30001A60704739B1374A243212680243354B35
:105A400024331A6006E0334A243212688243314B11
:105A500024331A60704739B12E4A2C32126802433F
:105A60002C4B2C331A6006E02A4A2C3212688243EF
:105A7000284B2C331A60704739B1264A30321268ED
:105A80000243244B30331A6006E0224A3032126857
:105A90008243204B30331A607047012808D11D49DA
:105AA0003C31096841F008011A4A3C32116007E0B4
:105AB00018493C31096821F00801164A3C3211604E
:105AC000704739B1134A273A12780243114B273BEA
:105AD0001A7006E00F4A273A127882430D4B273B93
