:020000040800F2
:10000000B8E1012091420008950200089B420008D7
:100010009F020008A3020008A702000800000000D9
:10002000000000000000000000000000AB0200081B
:10003000AD02000800000000BBE80208AF020008A3
:10004000BD420008BD420008BD420008330500085B
:10005000BD420008BD420008BD420008BD42000884
:10006000553A0008BD420008BD420008BD420008E4
:10007000BD420008BD420008BD420008BD42000864
:10008000BD420008BD420008BD420008BD42000854
:10009000BD420008BD420008BD4200084F230008D1
:1000A000BD420008BD420008BD420008BD42000834
:1000B000BD420008FD350008BD420008BD420008F1
:1000C000BD420008BD420008BD420008BD42000814
:1000D000BD420008552E0008D530000859330008ED
:1000E0006F3A0008BD420008BD420008BD4200084A
:1000F000BD420008BD420008BD420008BD420008E4
:10010000BD4200082D220008BD420008BD42000883
:10011000F3370008BD420008BD420008BD42000898
:10012000BD420008BD420008BD420008352200085B
:10013000BD420008BD420008BD420008BD420008A3
:10014000BD420008BD420008BD420008BD42000893
:10015000BD420008BD420008BD4200081735000836
:10016000BD420008BD420008BD420008BD42000873
:10017000BD420008BD420008BD420008BD42000863
:10018000BD420008BD42000800F002F800F072F81D
:100190000AA090E8000C82448344AAF10107DA45E2
:1001A00001D100F067F8AFF2090EBAE80F0013F0C2
:1001B000010F18BFFB1A43F001031847B46C070086
:1001C000D46C07000A444FF0000C10F8013B13F008
:1001D000070408BF10F8014B1D1108BF10F8015BA0
:1001E000641E05D010F8016B641E01F8016BF9D193
:1001F00013F0080F1EBF10F8014BAD1C0C1B09D1EA
:100200006D1E58BF01F801CBFAD505E014F8016B5B
:1002100001F8016B6D1EF9D59142D6D370470000ED
:100220000023002400250026103A28BF78C1FBD8FF
:10023000520728BF30C148BF0B60704764292CF0BB
:100240004B8573292DF01781002070471FB54AF0A8
:10025000C5FD2DF05BFA0400002000214AF08CF867
:10026000401C6060002000214AF070F8E0601FBD73
:1002700010B510BDDFF80CD0FFF7E8FF17F00EFF48
:100280002DF0A8FCB8E1012003B4FFF7F1FF03BC97
:100290002DF018FD704700BFFEE700BFFEE700BF6E
:1002A000FEE700BFFEE700BFFEE77047704710B5EE
:1002B0000CF01CFE13F0ACFC0CF029FE10BD00008D
:1002C00008B56946002005F0B9FE9DF8030000F569
:1002D000FA6008BD08B56946002005F0AFFE9DF83C
:1002E000010008BD08B56946002005F0A7FE9DF88D
:1002F000020008BD08B56946002005F005FE9DF81E
:10030000000008BD08B56946002005F0FDFD9DF818
:10031000010008BD08B56946002005F0F5FD9DF80F
:10032000020008BD10B586B0044604A9002005F0FF
:10033000EBFD05A9002005F081FE9DF812009DF857
:1003400011109DF810209DF81630CDE90032CDE94E
:1003500002109DF815309DF8170000F5FA627AA199
:1003600081482CF053FC1CB17F4920462CF0D9FD6C
:100370007D4806B010BD2DE9FC4704460D461646E3
:100380001F46DDE90A89A4F5FA60C0B28DF80700BE
:10039000E8B28DF80500F0B28DF8060000208DF867
:1003A0000400F8B28DF8000008F0FF008DF801009D
:1003B00009F0FF008DF8020001A9002005F0D8FD2A
:1003C0006946002005F036FDBDE8FC870EB54FF408
:1003D000800004F042FB4FF48000009000208DF874
:1003E000040008208DF8050001208DF806006846FD
:1003F00004F0C2FA03208DF8080001208DF80900EE
:1004000000208DF80A0001208DF80B0002A804F0EE
:1004100066F80121880306F0DFF9012005F06DFF81
:10042000042005F045FF002005F057FF0EBD10B574
:1004300086B000240121080705F08FFA012004F09E
:10044000CEFF012005F0DDF809E0601CC0B20446D3
:10045000B0F57A7F03DD4FF0FF3006B010BD4120CC
:1004600005F088F80028F0D04FF4807005F0CAF944
:10047000012005F0E2F905F07BFB7F200490FF20CE
:1004800005900020039003A805F039FC14208DF896
:10049000070007208DF805008DF8060001208DF873
:1004A000040001A905F064FD00208DF80B00122066
:1004B0008DF8080000208DF809008DF80A0002A9C7
:1004C000012005F0B7FC4AF2A551002006F001F921
:1004D0000020C2E710B5002006F008F9A0F525417C
:1004E000A53903D0FFF7A3FF08B310BD012108070A
:1004F00005F033FA012004F072FF05F039FB4FF4E8
:10050000807006F0A8F94FF4805006F0D1F94FF44E
:10051000005006F0CDF9CA20144908605320086045
:10052000002012491C390860FF201049086000BFF4
:10053000DBE710B54FF4804006F09BF918B14FF49B
:10054000804006F0B5F910BD253034642D253032D9
:10055000642D2530326420253032643A25303264EF
:100560003A25303264000000BCBD00202428004041
:100570001CB5002006F0D8F9002006F0D8F906F0E6
:10058000ABF900214FF4006005F0F8F900220821D2
:10059000FC4804F0E0FE00220921FA4804F0DBFEEA
:1005A00000220A21F74804F0D6FE00220B21F5486C
:1005B00004F0D1FE00220C21F24804F0CCFE00220F
:1005C0000221F14804F0C7FE4FF470600090002053
:1005D0008DF804008DF807006946EA4804F030FE03
:1005E000042000906946E84804F02AFE4FF4805049
:1005F00000906946E34804F023FE1CBD10B5FFF7E8
:10060000B7FF10BD2DE9F04106460027DF48056819
:1006100001E0DE48056815F0450FFAD015F0040F2B
:1006200006D00327042006F027FA3846BDE8F081FB
:1006300015F0010F05D00127012006F01DFA3846FC
:10064000F4E706F09AF9B04202D010273846EDE7F9
:1006500040F2FF5006F010FA002006F093F904462D
:10066000CB48044201D13846E0E714F0004F01D0F6
:100670001C20DBE714F0804F01D00920D6E714F0EE
:10068000005F01D00A20D1E714F0805F01D00B2079
:10069000CCE714F0006F01D00C20C7E714F0806F96
:1006A00001D00D20C2E714F0807F01D00E20BDE7FD
:1006B00014F4000F01D00F20B8E714F4800F01D01C
:1006C0001020B3E714F4001F01D01120AEE714F49A
:1006D000801F01D01220A9E714F4002F01D01320AD
:1006E000A4E714F4802F01D014209FE714F4003FF6
:1006F00001D015209AE714F4803F01D0162095E729
:1007000014F4004F01D0172090E714F4804F01D06B
:1007100018208BE714F4005F01D0192086E714F04D
:10072000080F01D01A2081E738467FE72DE9FC4108
:1007300007460D4600260024002000900190082066
:100740009449086010204860402088600020C860FC
:100750004FF480600861084606F0F3F81020FFF7B8
:1007600051FF044614B12046BDE8FC818A48008848
:1007700000048849086037204860402088600020D5
:10078000C8604FF480600861084606F0DAF8372048
:10079000FFF738FF04460CB12046E5E74FF0FF3085
:1007A0007E49086008204860302088600220C860C8
:1007B0000020086101204861084606F0EEF800209C
:1007C0007449086033204860402088600020C86079
:1007D0004FF480600861084606F0B3F83320FFF755
:1007E00011FF04460CB12046BEE709E04FF40010AB
:1007F00006F037F920B106F0F6F84DF82600761C21
:100800006248006840F22A610842EFD0082006F0F2
:1008100028F928B1082006F02FF904242046A3E780
:10082000022006F01EF928B1022006F025F9022464
:10083000204699E7202006F014F928B1202006F080
:100840001BF9062420468FE74FF4007006F009F9E3
:1008500030B14FF4007006F00FF90724204683E70B
:1008600040F2FF5006F008F900980006009901F4E4
:100870007F4140EA0120009901F47F0140EA112004
:10088000009940EA1160686001980006019901F43E
:100890007F4140EA0120019901F47F0140EA1120E3
:1008A000019940EA1160286020465DE77CB5054665
:1008B000002400200090019006F064F810F0007F02
:1008C00002D00E2420467CBD3349098888B269468F
:1008D000FFF72CFF04460CB12046F4E7012D35D17B
:1008E000019810F4802F2ED02B480088000429494D
:1008F000086037204860402088600020C860A80257
:100900000861084606F01DF83720FFF77BFE044615
:100910000CB12046D7E702201E4908600620486037
:10092000402088600020C8604FF48060086108465D
:1009300006F007F80620FFF765FE04460CB12046D6
:10094000C1E72046BFE725242046BCE7019810F404
:10095000803F3DD01048008800040E4908603720D1
:100960004860402088600020C8604FF480600861C3
:10097000084605F0E6FF3720FFF744FE04467CB149
:100980002046A0E700080240000C0240342C014041
:1009900008E0FFFD80BE00200400002094BE00207F
:1009A0000020FE4908600620486040208860002042
:1009B000C8604FF480600861084605F0C2FF062059
:1009C000FFF720FE04460CB120467CE720467AE77C
:1009D0002524204677E770B504460025F0480068D6
:1009E000032802D12725284670BDED48006838B19C
:1009F000EB480068012803D0E948006802282CD1A0
:100A0000B4F5805F02D127252846EDE7B4F5006FE5
:100A100013D10120FFF74AFF0546F5B90020E1494F
:100A200008750860486088604FF40060C860002066
:100A30000861084605F05BFF0FE00020FFF736FF76
:100A4000054655B90020D749087508604860886098
:100A5000C8600861084605F04AFF2846C4E770B53B
:100A600004460D464FF00006CC4804604FF00700E6
:100A7000CA4948604FF0400088604FF00000C860ED
:100A80004FF480600861084605F05BFF0720FFF720
:100A9000B9FD0646304670BDF0B501460020002283
:100AA000BF4B1B7881F85630BF4B1B88A1F85430E0
:100AB000BE4B1B681A0E93090B70C2F383034B7075
:100AC00002F003038B70B94B1B68C3F30742CA7073
:100AD000B64B1B88C3F307220A71B44B1A784A71CC
:100AE0005B681A0E1301CB80B04B5B68C3F30742FF
:100AF000CB8843EA1213CB8002F00F030B72AB4B8F
:100B00009B88C3F30722D3094B72C2F380138B7205
:100B1000C2F34013CB72C2F300130B7300234B7369
:100B20009F4B1B681BB19E4B1B68012B4FD193073A
:100B30001B0D0B619D4B1A790B6943EA82030B6114
:100B40009A4B9B681A0E0B6943EA92130B61C2F32E
:100B5000C2030B7502F007034B75944B9B68C3F3FC
:100B6000074253098B75C2F38203CB7593075B0F62
:100B70000B768E4B1B89C3F307220B7E43EAD213FD
:100B80000B760B695B1C0024C1E912340B7ED1E9A2
:100B900012469B1C012505FA03F3DF17A4FB035C37
:100BA00006FB03C304FB0733C1E912530C7A01238C
:100BB000A3400B650027D1E912560B6DA5FB034C32
:100BC00006FB03C305FB0733C1E9124336E0744B50
:100BD0001B68022B32D1754B1A7993069B0A0B6165
:100BE000724B9B681A0E0B6943EA02230B616F4B31
:100BF0009B68C3F307420B6913430B616B4B1B8963
:100C0000C3F307220B6900245B1C44EB04074FF479
:100C100000760025A3FB064C07FB06C603FB056612
:100C20004FF480650027A4FB053C06FB05C504FBCB
:100C30000754C1E912344FF400730B65C2F38013FB
:100C400001F8193F93065B0E4B70584B1A7A4B789C
:100C500043EAD2134B7002F07F038B70534BDB6877
:100C60001A0ED309CB70C2F341130B71C2F3820386
:100C70004B7193071B0F8B714C4BDB68C3F307421F
:100C80008B7943EA92138B71C2F34013CB7100232B
:100C90000B7202F001034B72444B9B89C3F3072292
:100CA000D3098B72C2F38013CB72C2F340130B7360
:100CB000C2F300134B73C2F381038B7302F003037F
:100CC000CB733A4B1A7B53080B7401234B74384B8C
:100CD0001B681A0ECA74A1F11901354B1B68C3F3C6
:100CE00007424FEA0224CC85314B1B88C3F307220D
:100CF000CB8D43EA0203CB852D4B1A784FEA026471
:100D00000C635B684FEA13620B6B43EA02440C63AB
:100D1000274B5B68C3F307420B6B43EA02240C6367
:100D2000234B9B88C3F307220B6B43EA02030B633D
:100D30001F4B1A794FF034035A541D4B9B684FEAEE
:100D400013624FF035035A54194B9B68C3F30742A3
:100D50004FEA02648C63164B1B89C3F307228B6B2B
:100D600043EA02448C63124B1A7A8B6B43EA0224E7
:100D70008C630F4BDB684FEA13628B6B43EA020311
:100D80008B630B4BDB68C3F307424FF03C035B5CA8
:100D900043EA12144FF03C035C540BE080BE002089
:100DA0000000002068BE002004000020E0BD0020FC
:100DB000F0BD00204FEA02734FEA1354CC87FA4B80
:100DC0009B89C3F30722CB8F43EA0203CB87F64B01
:100DD0001A7B4FEA52044FF040035C544FF0010479
:100DE0004FF041035C54F0BD70B50025EF48046836
:100DF00001E0EE48046814F0450FFAD014F0040F37
:100E000005D00325042005F037FE284670BD14F0F8
:100E1000010F05D00125012005F02EFE2846F5E73B
:100E200040F2FF5005F028FE2846EFE72DE9F0419B
:100E300006460F464FF00008DC48056801E0DB4835
:100E4000056815F0450FFAD015F0040F07D04FF0E4
:100E50000308042005F010FE4046BDE8F08115F0BF
:100E6000010F06D04FF00108012005F005FE4046B5
:100E7000F3E705F082FDB04203D04FF01008404682
:100E8000EBE740F2FF5005F0F7FD002005F07AFD9A
:100E9000044614F4604F03D1200C38804046DCE750
:100EA00014F4005F01D01320D7E714F4804F01D071
:100EB0001020D2E714F4004F01D00F20CDE74046B8
:100EC000CBE738B500240120009005F034FD10B9BF
:100ED0002524204638BDB6480068042828D00020C4
:100EE000B449086002204860C02088600020C860C3
:100EF0004FF480600861084605F023FDFFF774FF9A
:100F000004460CB12046E5E7002005F03BFDA6496C
:100F10000860042005F036FDA3494860082005F06C
:100F200031FDA14988600C2005F02CFD9E49C86068
:100F30009F48006858B19E480068012807D09C4827
:100F40000068062803D09A480068022816D10020BD
:100F50009849086003204860402088600020C860ED
:100F60004FF480600861084605F0EBFC69460320F9
:100F7000FFF75CFF04460CB12046ABE78C480068E5
:100F800004282ED0BDF800008B490860BDF8000091
:100F900000048849086009204860C020886000205B
:100FA000C8604FF480600861084605F0CAFCFFF78E
:100FB0001BFF04460CB120468CE7002005F0E2FC44
:100FC0007E490860042005F0DDFC7C49486008206B
:100FD00005F0D8FC794988600C2005F0D3FC7749EE
:100FE000C8600024204675E770B500256F48046886
:100FF00001E06E48046814F0450FFAD014F0040FB5
:1010000005D00325042005F037FD284670BD40F2C9
:10101000FF5005F031FD2846F8E770B500264FF483
:1010200080356248046802E06D1E6048046814F070
:10103000450F01D1002DF7D115B114F0040F05D0E3
:101040000326042005F018FD304670BD14F0400F53
:1010500005D00026402005F00FFD3046F5E730466C
:10106000F3E770B500254FF4803400E0641E24B12E
:10107000802005F0F6FC0028F8D014B90325284696
:1010800070BD40F2FF5005F0F7FC2846F8E7F8B5D0
:1010900000200090002500240026002776204849E3
:1010A00008750020086048608860C86008610846CC
:1010B00005F01DFC032005F03AFC012005F034FC8E
:1010C00000203C49086048608860C8604FF4806038
:1010D0000861084605F035FCFFF7C3FF00909DF856
:1010E000000010B19DF80000F8BD4FF4D5703149F3
:1010F000086008204860402088600020C8604FF4E5
:1011000080600861084605F01CFCFFF786FF009030
:101110009DF8000020B9012025490860870712E0EA
:101120000020244908603720486040208860002063
:10113000C8604FF480600861084605F002FC372063
:10114000FFF760FA009000201A49086037204860D5
:10115000402088600020C8604FF480600861084625
:1011600005F0EFFB3720FFF74DFA00909DF80000E7
:1011700000285FD149E000200E4908603720486010
:10118000402088600020C8604FF4806008610846F5
:1011900005F0D7FB3720FFF735FA00909DF80000E7
:1011A00080B19DF800009FE7F0BD0020342C014085
:1011B0000000002080BE002004000020E0BD0020D0
:1011C00068BE0020F7483843F74908602920486086
:1011D000402088600020C8604FF4806008610846A5
:1011E00005F0AFFBFFF700FF00909DF8000010B185
:1011F0009DF8000078E7002005F0C4FB05460120BB
:1012000080EAD57080F00106641C1EB94FF6FF70AD
:101210008442B0D34FF6FF70844204D31B20009069
:101220009DF8000060E705F08040050002D0022034
:10123000DE4908609DF8000056E71CB501214C20EE
:1012400004F042FB0C220821D94804F084F80C2257
:101250000921D74804F07FF80C220A21D44804F071
:101260007AF80C220B21D24804F075F80C221146B2
:10127000CF4804F070F80C220221CE4804F06BF83D
:101280004FF47060009002208DF805008DF8040086
:1012900000208DF8060001208DF807006946C4483B
:1012A00003F0CEFF042000906946C24803F0C8FF57
:1012B0004FF48050009000208DF807006946BC482C
:1012C00003F0BEFF4FF40060009000208DF8040092
:1012D00001208DF807006946B74803F0B1FF0121EE
:1012E000C80204F04BFB0121880504F0EDFA1CBD97
:1012F00008B531208DF8000000208DF801008DF830
:10130000020001208DF80300684603F0E8F83B2056
:101310008DF8000001208DF80100684603F0DFF829
:1013200008BD08B500200090FFF7E2FFFFF785FF3A
:1013300005F0D2FAFFF7ABFE00909DF8000010B167
:101340009DF8000008BDFFF7BCFD00909DF800006F
:1013500010B19DF80000F5E7002098490875086075
:1013600048608860C8600861084605F0C0FA944883
:10137000FFF792FB00909DF8000040B99048B0F84C
:101380005400020410460021FFF769FB00909DF80D
:10139000000020B94FF40060FFF71DFB00909DF89E
:1013A0000000CFE770B50446002514B9262528466D
:1013B00070BD8448008800047B4908600D204860A7
:1013C000402088600020C8604FF4806008610846B3
:1013D00005F0B7FA0D20FFF715F905460DB12846BF
:1013E000E6E7002005F0CEFA20602846E0E708B5E1
:1013F00001200090C102704803F084FF08B1002072
:1014000000909DF8000008BD08B500200090FFF78F
:10141000EEFF012809D16846FFF7C4FF08B1FF209D
:1014200008BD0098C0F34320FAE7FF20F8E710B5A5
:101430000424FFF7E9FF0446042C01D1002010BD6D
:10144000FF2C01D10220FAE70120F8E710B50024B3
:10145000002005F06CFA204610BD70B50446002649
:101460000025002005F08EFA10F0007F02D00E2635
:10147000304670BD40204C49086010204860402034
:1014800088600020C8604FF480600861084605F05D
:1014900058FA1020FFF7B6F806460EB13046E8E7D6
:1014A00048480088000440490860372048604020D0
:1014B00088600020C8604FF480600861084605F02D
:1014C00040FA3720FFF79EF806460EB13046D0E7C7
:1014D0004FF0FF303C490860402048606020886041
:1014E0000220C8600020086101204861084605F01C
:1014F00054FA00202C4908600D2048604020886084
:101500000020C8604FF480600861084605F019FAB1
:101510000D20FFF777F806460EB13046A9E70EE03A
:101520004FF4004005F09DFA48B1002504E005F0B5
:101530005AFA44F825006D1C082DF8D320342348AE
:10154000006840F22A610842EAD0082005F089FAD2
:1015500028B1082005F090FA0426304689E70220D9
:1015600005F07FFA28B1022005F086FA02263046FF
:101570007FE7202005F075FA28B1202005F07CFADD
:101580000626304675E74FF4007005F06AFA30B170
:101590004FF4007005F070FA0726304669E74FF007
:1015A000FF351AE00000108080BE002000000020FF
:1015B00000080240000C02400018024068BE0020F3
:1015C00010BE00200400002094BE0020342C0140F6
:1015D00005F009FA2060241D6D1E4FF4001005F07F
:1015E00040FA08B1002DF3D140F2FF5005F044FA63
:1015F00030463EE770B5044600260025FB48FFF75D
:101600002CFF06460EB1304670BDF84800788509BB
:101610002570F6480078C0F340156570F34885786A
:1016200028026080F148C578608828436080EF48D0
:10163000057928066060ED484579606840EA054014
:101640006060EA488579606840EA05206060E748A4
:10165000C579606828436060E448057A2572457A58
:101660006572807A0509A572E048C57A2802A081D2
:10167000DE48057BA0892843A081DC48407B8508A3
:10168000A573DA48407B00F00305E5733046BBE7FD
:1016900030B58FB005460C464FF0FA51D44803F0F0
:1016A000DFF80021D24803F063F8D14802F084FF4C
:1016B0004FF000600090CF48019002950020039009
:1016C000049405904FF480600690800007900020FD
:1016D000089009904FF440300A9004200B900320AA
:1016E0000C904FF400000D9080100E906946C04899
:1016F00003F004F801221021BD4803F0C5F82021B1
:10170000BB4803F04BF80121B94803F031F80FB0A2
:1017100030BD2DE9F041804614461D46069E4FF02F
:1017200000073846B4490870B4490860B4490860F5
:10173000B44908604FF0010140F22A3005F080F909
:10174000012005F079F931464046FFF7A1FFAE4888
:101750000068022808D1060202020023204629461A
:101760002BF0DCF904460D46A84806601020A74976
:101770004860402088600020C8604FF480600861A5
:10178000084605F0DEF81020FEF73CFF074617B1CB
:101790003846BDE8F0814FF0FF309D4908600846AB
:1017A0004660902088600220C86000200861012007
:1017B0004861084605F0F1F8944804601120934907
:1017C0004860402088600020C8604FF48060086155
:1017D000084605F0B6F81120FEF714FF07460FB1D2
:1017E0003846D6E73846D4E72DE9F0478146144617
:1017F0001D46DDE908684FF0000738467E4908704D
:101800007E4908604FF001007D4908604FF00000FC
:101810007C4908604FF0010140F22A3005F010F9D0
:1018200008FB06F14846FFF733FF012005F004F9F5
:1018300075480068022808D10602020200232046EB
:1018400029462BF06BF904460D46704806601020BF
:101850006E494860402088600020C8604FF4806076
:101860000861084605F06DF81020FEF7CBFE07462C
:1018700017B13846BDE8F0874FF0FF306449086083
:1018800008FB06F04860902088600220C8600020B5
:10189000086101204861084605F07FF85B48046054
:1018A00012205A494860402088600020C8604FF4E8
:1018B00080600861084605F044F81220FEF7A2FE99
:1018C00007460FB13846D5E73846D3E710B50024B0
:1018D00000204E4908600C204860402088600020AD
:1018E000C8604FF480600861084605F02AF80C20B3
:1018F000FEF788FE0446204610BD70B500256C1E1C
:1019000000E0641E4348006838B93C48006820B9CC
:101910003948007808B9002CF3D100203D4908600F
:10192000441E00E0641E37480830006810F4005F71
:1019300001D0002CF6D132480068012805D1FFF70C
:10194000C5FF054600202E4908600CB905B90425DD
:1019500040F2FF5005F090F82748007810B1264873
:10196000007870BD2846FCE730B58FB005460C46C0
:101970004FF0FA511E4802F073FF00211C4802F09C
:10198000F7FE1B4802F018FE4FF000600090194867
:1019900001900295402003900494002005904FF49C
:1019A00080600690800007900020089009904FF416
:1019B00040300A9004200B9003200C904FF400005C
:1019C0000D9080100E906946094802F097FE0122A2
:1019D0001021074802F058FF2021054802F0DEFEE2
:1019E0000121034802F0C4FE0FB030BD00BE00204C
:1019F00058640240802C01400C00002010000020A0
:101A0000080000202C2C01400000002080BE002097
:101A100094BE0020140000202DE9F04180461446B9
:101A20001D46069E4FF000073846F7490870F749F3
:101A30000860F7490860F74908604FF0010140F27B
:101A40002A3004F0FDFF31464046FFF78DFF0120AC
:101A500004F0F2FFF0480068022808D106020202F2
:101A60000023204629462BF059F804460D46EB4842
:101A700006601020E9494860402088600020C86066
:101A80004FF480600861084604F05BFF1020FEF709
:101A9000B9FD074617B13846BDE8F081DF4804605C
:101AA0001820DE494860402088600020C8604FF45C
:101AB00080600861084604F044FF1820FEF7A2FD8C
:101AC00007460FB13846E7E74FF0FF30D4490860CA
:101AD00008464660902088600020C86008610120A8
:101AE0004861084604F059FF3846D5E72DE9F0472C
:101AF000814615461E46DDE908784FF00004204671
:101B0000C1490870C14908604FF00100C049086030
:101B10004FF00000BF4908604FF0010140F22A3049
:101B200004F08EFF08FB07F14846FFF71DFF012078
:101B300004F082FFB8480068022808D107020202B8
:101B40000023284631462AF0E9FF05460E46B348F1
:101B500007601020B1494860402088600020C860BC
:101B60004FF480600861084604F0EBFE1020FEF799
:101B700049FD044614B12046BDE8F087A948008815
:101B80000004A64908603720486040208860002093
:101B9000C8604FF480600861084604F0D2FE372028
:101BA000FEF730FD04460CB12046E5E79B48C0F83F
:101BB0000080172099494860402088600020C86054
:101BC0004FF480600861084604F0BBFE1720FEF762
:101BD00019FD04460CB12046CEE790480560192057
:101BE0008E494860402088600020C8604FF48060C3
:101BF0000861084604F0A5FE1920FEF703FD04461F
:101C00000CB12046B8E74FF0FF308549086008FB6B
:101C100007F04860902088600020C86008610120BB
:101C20004861084604F0B9FE2046A5E770B50025D6
:101C30006C1E00E0641E7C48006838B97348006878
:101C400020B97148007808B9002CF3D100207649FA
:101C50000860441E00E0641E6E480830006810F4FE
:101C6000805F01D0002CF6D169480068012805D1B9
:101C7000FFF72CFE05460020654908600CB905B940
:101C8000042540F2FF5004F0F7FE5F48007810B1E1
:101C90005D48007870BD2846FCE75E480830006863
:101CA00010F4405F01D0012070470020FCE77CB5B4
:101CB000044600250020019000905A480088000446
:101CC000564908600D204860402088600020C860A8
:101CD0004FF480600861084604F033FE4D48083038
:101CE0000068009003E04B480830006800900098BE
:101CF00010F0450FF7D0009810F0040F05D0032521
:101D0000042004F0B9FE28467CBD009810F0010FB5
:101D100005D00125012004F0AFFE2846F4E704F0C9
:101D20002CFE009000980D2802D010252846EBE7E5
:101D300040F2FF5004F0A0FE002004F023FE0190CA
:101D40000198C0F34320207038490198084201D11E
:101D50002846D9E7019810F0004F01D01C20D3E7A6
:101D6000019810F0804F01D00920CDE7019810F0C4
:101D7000005F01D00A20C7E7019810F0805F01D012
:101D80000B20C1E7019810F0006F01D00C20BBE7D9
:101D9000019810F0806F01D00D20B5E7019810F088
:101DA000807F01D00E20AFE7019810F4000F01D022
:101DB0000F20A9E7019810F4800F01D01020A3E7AD
:101DC000019810F4001F01D011209DE7019810F434
:101DD000801F01D0122097E7019810F4002F01D046
:101DE000132091E7019810F4802F01D014208BE785
:101DF000019810F4003F01D0152085E7019810F4F8
:101E0000803F15D016207FE70C0000201000002036
:101E1000080000202C2C01400000002080BE002083
:101E200094BE0020040000201400002008E0FFFD04
:101E3000019810F4004F01D0172065E7019810F4C5
:101E4000804F01D018205FE7019810F4005F01D0A7
:101E5000192059E7019810F0080F01D01A2053E714
:101E6000284651E72DE9FC4705460E461746984699
:101E70004FF00004A146204601900090EF484068D2
:101E80004FF0200111EA105F03D125242046BDE860
:101E9000FC87EB480068C0B2801CEA49B1FBF0F057
:101EA0000190002004F06EFD10F0007F02D00E249F
:101EB0002046ECE7E4480068022810D10202002323
:101EC000284631462AF02AFE05460E464FF4007297
:101ED0000023384641462AF021FE07468846DA4864
:101EE000006838B1D8480068012803D0D648006897
:101EF00002282BD1D54805602020D44948604020D5
:101F000088600020C8604FF480600861084604F0D3
:101F100018FD2020FEF776FB04460CB12046B6E7FC
:101F2000CA4807602120C9494860402088600020D5
:101F3000C8604FF480600861084604F002FD21206B
:101F4000FEF760FB04460CB12046A0E70020BF4925
:101F5000086026204860402088600020C8604FF458
:101F600080600861084604F0ECFC2620FEF74AFB7E
:101F700004460CB120468AE74FF0000901E009F160
:101F8000010901988145FAD36846FFF790FE04469F
:101F90004FF0FF3905E06846FFF789FE0446A9F1D6
:101FA0000109B9F1000F08D03CB99DF800000728DD
:101FB000F1D09DF800000628EDD0204667E710B567
:101FC0004FF4807004F05CFD50B10020A04908700F
:101FD0004FF4807004F05FFD01209E49086037E0F7
:101FE000022004F04DFD30B1022004F054FD022027
:101FF000974908702CE0082004F042FD30B1082019
:1020000004F049FD04209249087021E0202004F0EA
:1020100037FD30B1202004F03EFD06208C490870C9
:1020200016E0102004F02CFD30B1102004F033FD38
:102030000520874908700BE04FF4007004F020FD84
:1020400030B14FF4007004F026FD0720804908707D
:1020500000214CF23A3004F0F3FC7D48007810BDCA
:1020600010B57D48006810F0C05F08D001207B49A2
:1020700008604FF0C2517848583002F0F1FB10BDB3
:102080000146002002E04910421CD0B20129FAD1D9
:102090007047F0B593B000250020119012900027F2
:1020A000402101A82BF0BAF8002401AE00206849B5
:1020B0000870684908606A49086061492831086009
:1020C0006849098888B211A9FEF730FB054615B1A9
:1020D000284613B0F0BD129810F0807F03D11298FB
:1020E00010F0007F01D0012000E000200746002F03
:1020F00071D0402055490860102048604020886019
:102100000020C8604FF480600861084604F019FCA4
:102110001020FEF777FA05460DB12846D9E74FF0B3
:10212000FF305149086040204860602088600220EC
:10213000C8600020086101204861084604F02DFCB9
:102140004A484249086006204860402088600020D4
:10215000C8604FF480600861084604F0F2FB062076
:10216000FEF750FA05460DB12846B2E70EE04FF4EF
:10217000004004F076FC48B1002404E004F033FC95
:1021800046F82400641C082CF8D320362C48303044
:10219000006840F22A610842E9D0082004F061FC9E
:1021A00028B1082004F068FC0425284691E70220A5
:1021B00004F057FC28B1022004F05EFC02252846FA
:1021C00087E7202004F04DFC30B1202004F054FCBF
:1021D000062528467DE727E04FF4007004F041FC17
:1021E00030B14FF4007004F047FC0725284670E733
:1021F0004FF0FF3404E004F0F6FB3060361D641E3F
:102200004FF4001004F02DFC08B1002CF3D140F283
:10221000FF5004F031FC9DF8110000F0020002288C
:1022200001D1002500E02725284652E710B5FFF729
:10223000C6FE10BD10B5FFF713FF10BDE0BD0020B6
:10224000042C0140C0D401000000002080BE00200A
:102250000C00002010000020006402401400002048
:10226000080000200400002094BE002001FFFF8031
:102270001CB50121880303F081FB0621052004F031
:102280006CFE402002F0E9FB4020009000208DF819
:1022900004000C208DF8050001208DF8060068462A
:1022A00002F06AFB0721052004F057FE802002F0AF
:1022B000D4FB8020009000208DF804000C208DF8C5
:1022C000050001208DF80600684602F055FB1CBD94
:1022D00008B517208DF8000000208DF801008DF85A
:1022E000020001208DF80300684602F0F8F808BDEE
:1022F0001CB50121202003F0E7FA03208DF805002A
:1023000001208DF807008020009000208DF8040047
:102310008DF8060001208DF8070069462C4802F070
:102320008FFF4020009000208DF804008DF80600FB
:1023300001208DF807006946254802F081FFFFF76C
:1023400097FFFFF7C5FF1CBD22490860704710B515
:102350000AF0CCFD402002F075FB60B1402002F095
:102360007CFB1C48006830B11E2015F020FC1A4888
:10237000184909688847802002F064FB60B180201A
:1023800002F06BFB1348006830B11E2015F00FFC03
:102390001248104909688847202002F053FB10B109
:1023A000202002F05AFB4FF4807002F04BFB18B172
:1023B0004FF4807002F051FB4FF4007002F042FBCA
:1023C00018B14FF4007002F048FB0AF0A0FD10BDF8
:1023D0000014024018000020F0AE0408ECAE04081F
:1023E000012806D0022808D003280AD0042810D1DA
:1023F0000BE00121FB4A11700BE00221F94A117038
:1024000007E00321F74A117003E00421F54A117037
:1024100000BF00BF704710B54FF48071F24802F062
:102420008BFF4FF40071F04802F086FF4FF480619B
:10243000ED4802F081FF4FF40041EB4802F07CFFD1
:10244000E8480078012806D002280AD003280ED0D8
:10245000042818D111E04FF48071E34802F06EFFB8
:1024600011E04FF40071E04802F068FF0BE04FF418
:102470008061DD4802F062FF05E04FF40041DA4878
:1024800002F05CFF00BF00BF10BD10B54FF48071BB
:10249000D54802F051FF4FF40071D34802F04CFFD1
:1024A0004FF48061D04802F047FF4FF40041CE481E
:1024B00002F042FF10BD10B54FF48051CA4802F03F
:1024C0003DFF10BD10B54FF48051C74802F034FFF6
:1024D00010BD1CB50121412003F0F6F903208DF851
:1024E000050000208DF8060001208DF8070000206F
:1024F0008DF804004FF4006000906946BA4802F07D
:102500009FFE01208DF80400802000906946B748A6
:1025100002F096FE4FF4805000906946B24802F0F7
:102520008FFE4FF4807000906946B04802F088FE3C
:102530004FF4807000906946AB4802F081FE4FF482
:10254000007000906946A84802F07AFE4FF480605F
:1025500000906946A44802F073FE4FF400400090DA
:102560006946A14802F06CFEFFF78FFF1CBD70B5F5
:102570000446082519E04FF480719C4802F0DEFE05
:1025800014F0800F04D08021984802F0D5FE03E0BB
:102590008021964802F0D2FE4FF48071934802F0F9
:1025A000CBFE6006040E681EC5B2002DE3D170BDDF
:1025B00070B50024082513E04FF480718B4802F0B9
:1025C000BDFE6006040E4FF48071884802F0B4FE30
:1025D0004FF40061844802F095FE0443681EC5B2C2
:1025E000002DE9D1204670BD10B50024FFF713FF80
:1025F000D720FFF7BCFF00BFFFF7DAFF044614F057
:10260000800FF9D0FFF741FF10BD38B578A0006802
:1026100000900024FFF7E8FFFFF7FDFE00BF04E095
:102620001DF80400FFF7A3FF641C042CF8DBFFF780
:102630002CFF38BD38B56FA0006800900024FFF76C
:10264000D3FFFFF7E8FE00BF04E01DF80400FFF72A
:102650008EFF641C042CF8DBFFF717FF38BD10B5A4
:102660000446FFF72FFFFFF7BFFFFFF7D4FE8120DF
:10267000FFF77DFFC4F30740FFF779FFC4F307209E
:10268000FFF775FFE0B2FFF772FFFFF7FEFEFFF7FF
:10269000ABFFFFF710FF10BD38B557A000680090E2
:1026A0000024FFF70FFFFFF79FFFFFF7B4FE00BF07
:1026B00004E01DF80400FFF75AFF641C042CF8DB4B
:1026C000FFF7E3FEFFF790FFFFF7F5FE38BDF8B523
:1026D00005464AA00068009000242E46FFF7F2FE4F
:1026E000FFF782FFFFF797FE00BF04E01DF804002C
:1026F000FFF73DFF641C042CF8DB002403E03046A8
:10270000FFF735FF641C102CF9DBFFF7BEFEFFF767
:102710006BFFFFF7D0FEF8BD38B5054638A000685E
:1027200000900024FFF760FFFFF775FE00BF04E094
:102730001DF80400FFF71BFF641C042CF8DB0024C9
:1027400003E0FFF735FF2855641C102CF9DBFFF779
:102750009CFEFFF749FF38BD38B52AA000680090FD
:102760000024FFF7AFFEFFF73FFFFFF754FE00BF67
:1027700004E01DF80400FFF7FAFE641C042CF8DBEB
:10278000FFF783FEFFF730FFFFF795FE38BD2DE919
:10279000F84F05460C4617464FF0000AD3464FF453
:1027A000047900200090A046B8FBF9F009FB108BDB
:1027B000B8FBF9FA4BEA8A2000906E46FFF782FEDA
:1027C000FFF712FFFFF727FE8220FFF7D0FEB07859
:1027D000FFF7CDFE7078FFF7CAFE3078FFF7C7FE2F
:1027E00016E000001C00002000000240001802401B
:1027F0003D2A7FA93D2A7F9A3D2A7FCF3D2A7FFC33
:10280000322A7FFCC794809A15F8010BFFF7AFFEC0
:102810003800A7F101018FB2F6D1FFF736FEFFF7BE
:10282000E3FEFFF748FEBDE8F88F2DE9F84F0546B7
:102830000C4617464FF0000AD3464FF404790020A7
:102840000090A046B8FBF9F009FB108BB8FBF9FA31
:102850004BEA8A2000906E46FFF7C6FEFFF7DBFDCD
:10286000E820FFF784FEB078FFF781FE7078FFF76D
:102870007EFE3078FFF77BFEA520FFF778FEA520CF
:10288000FFF775FEA520FFF772FEA520FFF76FFE8C
:1028900003E0FFF78DFE05F8010B3800A7F10101F9
:1028A0008FB2F6D1FFF7F1FDBDE8F88F2DE9F041C9
:1028B0000024002500260027FFF7ADFD9F20FFF72D
:1028C00056FEFFF775FE0546FFF772FE0646FFF758
:1028D0006FFE0746FFF76CFE8046FFF7D6FD280621
:1028E00040EA064040EA072040EA08042046BDE8E6
:1028F000F0812DE9F04105460E464FF4047400279F
:1029000000BFA2B231462846FFF741FFA2B23146CE
:10291000C148FFF78AFF781C0746052800D906E062
:102920002246BD4928462AF0D0FA0028E9D100BF46
:10293000BDE8F0812DE9F74F86B006468A460020B3
:10294000059004900390029083464FF4047400278E
:102950000025DDF8208014B909B0BDE8F08FBAFB7E
:10296000F4F060430290BAFBF4F004FB10ABBBF14F
:10297000000F01D1002001E0A4EB0B000746B84591
:1029800001D9059701E0CDF81480B8450BD9A8EB23
:102990000700B0FBF4F00490A8EB0700B0FBF4F1E3
:1029A00004FB11000390DDF808900598B8B1A2B2BD
:1029B00049469A48FFF739FFCDF804B0002506E0F4
:1029C00016F8011B01982844944A11546D1C05986F
:1029D0008542F5D349469148FFF78BFFA1440498FF
:1029E00058B1002506E049463046FFF782FF2644ED
:1029F000A1446D1C04988542F5D3039890B1A2B20E
:102A000049468648FFF711FF002504E016F8010B40
:102A1000824948556D1C03988542F7D349467F4843
:102A2000FFF767FF00BF97E72DE9F74F86B006462F
:102A30008A460020059004900390029083464FF44C
:102A400004740027DDF82080002514B909B0BDE822
:102A5000F08FBAFBF4F060430290BAFBF4F004FB91
:102A600010ABBBF1000F01D1002001E0A4EB0B0083
:102A70000746B84501D9059701E0CDF81480B8455F
:102A80000BD9A8EB0700B0FBF4F00490A8EB07000B
:102A9000B0FBF4F104FB11000390DDF808900598F9
:102AA00098B1A2B249465E48FFF7BFFECDF804B028
:102AB000002506E0019828445949085C06F8010BF6
:102AC0006D1C05988542F5D3A144049860B100259A
:102AD00007E0A2B249463046FFF7A7FE2644A144CC
:102AE0006D1C04988542F4D3039870B1A2B2494694
:102AF0004B48FFF79AFE002504E04948405D06F880
:102B0000010B6D1C03988542F7D300BF9EE710B5FB
:102B1000FFF77BFDFFF78EFDFFF7BEFD0020FFF7FF
:102B2000D6FD0020FFF7F8FD10BD30B599B00024A8
:102B300000254FF480513B4802F0FEFB45B9FFF7FA
:102B4000ABFD6846FFF7E8FDFF20FFF7C0FD04E09E
:102B50004FF48051334802F0F1FB6846FFF7DCFD8B
:102B60004FF480512F4802F0E7FB002404E0601985
:102B7000C0B20DF80400641CB4F5806FF7DB4FF4AD
:102B8000806200216846FFF7D5FE4FF48062012184
:102B90006846FFF749FF19B030BD10B586B0002474
:102BA000FFF797FC00BF33E0611CC8B2FFF718FCC9
:102BB000FFF77CFEC4EBC4011B4A42F82100C4EBC2
:102BC000C400114651F82000184988421FD1C4EBB7
:102BD000C40102EB8101081D15A12AF0A2F94FF4EE
:102BE0000010C4EBC401104A02EB810148614FF4AC
:102BF0000470C4EBC40102EB8101088301A8FFF754
:102C00008BFD9DF80400FF2801D0FFF745FD641CF3
:102C1000042CC9DB06B010BDACBE0020BCC0002037
:102C2000CCC2002000000240DCC400200000261FAF
:102C300041543435444231363100000010B54FF470
:102C4000A06001F047FC01F0B1FA01F017F815F0AF
:102C50007BF8124800F0A4FC114800F0A1FC00F041
:102C600077FE11F0D8FFFDF735FCFFF741FBFFF7CA
:102C700094FF41F26701092000F066FC094802F068
:102C800052FD094800F012F8074800F043F90648E1
:102C900000F080FA044800F0CDFC10BDC57B0108AF
:102CA000477C01084CC50020008C0A0010B58AB092
:102CB00004460121102002F061FE0121022002F0F1
:102CC00003FE07220621874802F045FB0722114632
:102CD000844802F040FB08A802F0FAFA402008906D
:102CE00002208DF824008DF8250008A97D4802F007
:102CF000A7FA8020089002208DF824008DF8250086
:102D000008A9784802F09CFA04A805F080F8049419
:102D10000020ADF81400ADF81600ADF81800ADF8BD
:102D20001C000C20ADF81A0004A96F4805F009F842
:102D300002A805F088F802A96B4805F074F8012292
:102D400040F22551684805F03AF90121664805F03E
:102D500080F825208DF8040000208DF805008DF8FE
:102D6000060001208DF8070001A801F0B8FB0AB0A9
:102D700010BD70B505460C465C4805605C490C808A
:102D800000685C4908605A4800885B490880012255
:102D900040F22661544805F012F970BD10B555484F
:102DA000006852490860544800885149088001224F
:102DB00040F226614C4805F002F910BD4F490878F1
:102DC00000214E4A117070474D4870474D480068C9
:102DD000704700204B49086070474B4870471E20E1
:102DE0004A4908607047494800687047474800688A
:102DF000401E46490860084600687047434800681E
:102E000050B142480068401E4049086008460068CA
:102E100010B901203E49087070473D48007870475E
:102E200000203B4908707047002036490860704711
:102E300010B500212C4805F00CF8002240F2266164
:102E4000294805F0BCF8002240F22551264805F03B
:102E5000B6F810BD10B50AF049F840F225512248E5
:102E600005F0E8F801280FD1FFF7B9FF1E4805F07B
:102E70001FF82349234A1268885422480088401CBE
:102E8000C0F308001F49086040F22661164805F0AB
:102E9000D1F8012822D11648008878B9002240F2E2
:102EA0002661114805F08BF8012240F225510E48A9
:102EB00005F085F80120114908700FE00B48006803
:102EC0000178094804F0F0FF09480088401E0849CD
:102ED000088006480068401C044908600AF017F89A
:102EE00010BD00000004024000100140200000203E
:102EF00024000020280000202C0000202E000020AC
:102F00005CC70020380000205CC500203000002095
:102F10003400002010B58AB004460121480402F0B4
:102F20001CFD0121084602F0CFFC072202218D483A
:102F300002F011FA072203218A4802F00CFA08A8CD
:102F400002F0C6F90420089002208DF824008DF8C4
:102F5000250008A9834802F073F908200890022090
:102F60008DF824008DF8250008A97E4802F068F944
:102F700004A804F04CFF04940020ADF81400ADF850
:102F80001600ADF81800ADF81C000C20ADF81A00C2
:102F900004A9754804F0D5FE02A804F054FF02A964
:102FA000714804F040FF012240F225516E4805F0BF
:102FB00006F801216C4804F04CFF26208DF804002F
:102FC00000208DF805008DF8060001208DF807001F
:102FD00001A801F084FA0AB010BD70B505460C4690
:102FE0006248056062490C80006862490860604878
:102FF000008861490880002240F225515A4804F0B7
:10300000DEFF012240F22661574804F0D8FF70BD70
:1030100010B5584800685549086057480088544919
:103020000880002240F225514F4804F0C8FF0122D9
:1030300040F226614C4804F0C2FF10BD4F490878A9
:1030400000214E4A117070474D4870474D48006846
:10305000704700204B49086070474B4870471E205E
:103060004A49086070474948006870474748006807
:10307000401E46490860084600687047434800689B
:1030800050B142480068401E404908600846006848
:1030900010B901203E49087070473D4800787047DC
:1030A00000203B490870704700203649086070478F
:1030B00010B500212C4804F0CCFE002240F226611D
:1030C000294804F07CFF002240F22551264804F0F4
:1030D00076FF10BD10B509F009FF40F225512248D6
:1030E00004F0A8FF01280FD1FFF7B9FF1E4804F034
:1030F000DFFE2349234A1268885422480088401C76
:10310000C0F308001F49086040F22661164804F029
:1031100091FF012822D11648008878B9002240F298
:103120002661114804F04BFF012240F225510E4860
:1031300004F045FF0120114908700FE00B480068BA
:103140000178094804F0B0FE09480088401E08498B
:10315000088006480068401C0449086009F0D7FE52
:1031600010BD000000000240004400403C00002070
:103170004000002044000020480000204A000020B9
:103180005CCB0020540000205CC900204C000020D3
:103190005000002010B58AB004460121880402F0D6
:1031A000DCFB0121042002F08FFB07220A218E485C
:1031B00002F0D1F807220B218B4802F0CCF808A8C6
:1031C00002F086F84FF48060089002208DF8240009
:1031D0008DF8250008A9844802F032F84FF4006009
:1031E000089002208DF824008DF8250008A97E485B
:1031F00002F026F804A804F00AFE04940020ADF8BA
:103200001400ADF81600ADF81800ADF81C000C2045
:10321000ADF81A0004A9754804F093FD02A804F063
:1032200012FE02A9714804F0FEFD012240F2255170
:103230006E4804F0C4FE01216C4804F00AFE272009
:103240008DF8040000208DF805008DF8060001209F
:103250008DF8070001A801F042F90AB010BD70B561
:1032600005460C466248056062490C800068624968
:1032700008606048008861490880002240F22551BA
:103280005A4804F09CFE012240F22661574804F09F
:1032900096FE70BD10B558480068554908605748FB
:1032A000008854490880002240F225514F4804F01C
:1032B00086FE012240F226614C4804F080FE10BDDB
:1032C0004F49087800214E4A117070474D487047A9
:1032D0004D480068704700204B49086070474B48D4
:1032E00070471E204A490860704749480068704787
:1032F00047480068401E4649086008460068704715
:103300004348006850B142480068401E4049086088
:103310000846006810B901203E49087070473D48D2
:103320000078704700203B490870704700203649FC
:103330000860704710B500212C4804F08AFD002277
:1033400040F22661294804F03AFE002240F225515D
:10335000264804F034FE10BD10B509F0C7FD40F258
:103360002551224804F066FE01280FD1FFF7B9FF6E
:103370001E4804F09DFD2349234A126888542248C0
:103380000088401CC0F308001F49086040F2266115
:10339000164804F04FFE012822D11648008878B95B
:1033A000002240F22661114804F009FE012240F299
:1033B00025510E4804F003FE0120114908700FE06A
:1033C0000B4800680178094804F06EFD0948008840
:1033D000401E0849088006480068401C04490860EF
:1033E00009F095FD10BD00000004024000480040B7
:1033F000580000205C0000206000002064000020D5
:10340000660000205CCF0020700000205CCD002012
:10341000680000206C00002000B589B00121202048
:1034200002F0ACFA0121042002F04EFA0822062133
:10343000434801F090FF08220721414801F08BFF2B
:1034400007A801F045FF4020079002208DF82000DA
:103450008DF8210007A93A4801F0F2FE802007907C
:1034600002208DF820008DF8210007A9344801F0D2
:10347000E7FE03A804F0CBFC4FF4E13003900020FA
:10348000ADF81000ADF81200ADF81400ADF818005A
:103490000C20ADF8160003A92A4804F052FC01A83C
:1034A00004F0D1FC01A9274804F0BDFC012240F240
:1034B0002551244804F083FD0121224804F0C9FC71
:1034C00009B000BD08B54FF4C06001F003F8472013
:1034D0008DF8000000208DF801008DF80200012019
:1034E0008DF80300684600F0FAFF08BD70B5044689
:1034F0000D460BE014F8011B124804F0D5FC00BF88
:103500008021104804F080FD0028F9D02800A5F1A2
:103510000105EFD170BD10B509F0E8FC40F225516E
:10352000084804F087FD38B1064804F0C1FC0446A1
:103530002146044804F0B8FC09F0E9FC10BD000085
:1035400000080240001401407FB504460D460121E9
:10355000022002F002FAADF804500020ADF8060097
:103560000294ADF80C0001A9304803F0DEFD012201
:1035700011462E4804F07AFA01212C4803F05EFE31
:103580001D208DF8000001208DF8010003208DF82A
:10359000020001208DF80300684600F0A0FF7FBD07
:1035A0000246002100BF08E0214850F8210018B968
:1035B0001F4840F8212002E0491C1429F4DB00BF19
:1035C000142901D1012070470020FCE702460021A8
:1035D00000BF0AE0164850F82100904204D10020B4
:1035E000134B43F8210002E0491C1429F2DB00BF11
:1035F000142901D1012070470020FCE710B50024F8
:1036000009F074FC00BF08E0094850F8240018B124
:10361000074951F824008047641C142CF4DB012175
:10362000024804F04BFA09F072FC10BD000400409F
:103630005CD1002010B58AB004460121C80402F014
:103640008CF90121084602F03FF9082200218C483C
:1036500001F081FE08220121894801F07CFE08A8C2
:1036600001F036FE0120089002208DF824008DF82C
:10367000250008A9824801F0E3FD022008908DF89A
:1036800024008DF8250008A97D4801F0D9FD04A883
:1036900004F0BDFB04940020ADF81400ADF8160052
:1036A000ADF81800ADF81C000C20ADF81A0004A904
:1036B000744804F046FB02A804F0C5FB02A9714857
:1036C00004F0B1FB012240F225516E4804F077FC72
:1036D00001216C4804F0BDFB34208DF8040000206B
:1036E0008DF805008DF8060001208DF8070001A86F
:1036F00000F0F5FE0AB010BD70B505460C466248F4
:10370000056062490C800068614908605F48008874
:1037100060490880002240F225515A4804F04FFCCD
:10372000012240F22661574804F049FC70BD10B5F3
:103730005748006854490860564800885349088033
:10374000002240F225514F4804F039FC012240F29A
:1037500026614C4804F033FC10BD4F490878002125
:103760004D4A117070474D4870474D48006870478A
:1037700000204B49086070474A4870471E204A495C
:103780000860704748480068704747480068401E16
:10379000454908600846006870474348006850B1D2
:1037A00041480068401E404908600846006810B95A
:1037B00001203E49087070473C480078704700205F
:1037C0003A4908707047002035490860704710B5C5
:1037D00000212C4804F03DFB002240F226612948DC
:1037E00004F0EDFB002240F22551264804F0E7FBEF
:1037F00010BD10B509F07AFB40F22551214804F0C4
:1038000019FC01280FD1FFF7B9FF1E4804F050FB47
:103810002249234A1268885421480088401CC0F37A
:1038200008001F49086040F22661164804F002FCB7
:10383000012822D11548008878B9002240F226617B
:10384000104804F0BCFB012240F225510D4804F061
:10385000B6FB0120104908700FE00B4800680178A2
:10386000084804F021FB09480088401E07490880E9
:1038700005480068401C0449086009F048FB10BD79
:1038800000000240004C004074000020780000203E
:103890007C0000208000002082000020ACD30020AB
:1038A0008C000020ACD10020840000208800002083
:1038B0001CB50121880302F061F80221012003F008
:1038C0004CFB042001F0C9F80420009000208DF882
:1038D000040010208DF8050001208DF806006846D0
:1038E00001F04AF80B21052003F037FB4FF400608C
:1038F00001F0B3F84FF40060009000208DF8040050
:103900000C208DF8050001208DF80600684601F0B6
:1039100033F81CBD08B508208DF8000000208DF894
:1039200001008DF8020001208DF80300684600F0C8
:10393000D6FD28208DF8000000208DF801008DF8BC
:10394000020001208DF80300684600F0C8FD08BDA4
:103950001CB50121622001F0B7FF0121102001F008
:10396000B3FF03208DF8050001208DF8070000202B
:103970008DF806008DF8040001208DF80700C002C4
:1039800000906946584801F05BFC042000906946AD
:10399000564801F055FC202000906946534801F03C
:1039A0004FFC102000906946504801F049FC4FF44C
:1039B0000040009069464E4801F042FC4FF4005030
:1039C000009069464A4801F03BFC4FF4807000903B
:1039D0006946464801F034FC082000906946434897
:1039E00001F02EFC4FF4804000906946404801F001
:1039F00027FC4FF48050009069463D4801F020FCC0
:103A0000FFF756FFFFF786FF01208DF804008DF8C1
:103A10000700202000906946364801F011FC202163
:103A2000344801F089FC402000906946314801F09B
:103A300007FC40212F4801F07FFC4FF4807000907C
:103A40006946294801F0FCFB4FF48071264801F0DB
:103A500075FC1CBD10B5042000F0F4FF30B104204B
:103A600000F0FBFF0421214801F04CFC10BD10B513
:103A70004FF4006000F0E6FF40B14FF4006000F04A
:103A8000ECFF4FF40061184801F03CFC4FF48060FB
:103A900000F0D8FF18B14FF4806000F0DEFF4FF463
:103AA000805000F0CFFF18B14FF4805000F0D5FFE8
:103AB0004FF4005000F0C6FF18B14FF4005000F072
:103AC000CCFF4FF4804000F0BDFF18B14FF48040B0
:103AD00000F0C3FF4FF4004000F0B4FF18B14FF402
:103AE000004000F0BAFF10BD001402400004024084
:103AF000001802400010024000BF0100A0F10100C8
:103B0000FBD1704770B5202056494883002425E03A
:103B1000402054494883E21704EB5272D210C2F19C
:103B20000102514B9A5CE31704EB5373DB10A4EBD7
:103B3000C30580232B411A4202D01020088302E0E3
:103B40001020484948830A20FFF7D6FF4020454906
:103B500008830A20FFF7D0FF601CC4B2102CD7DB0B
:103B600020204049088370BD3F4A115470470146E8
:103B70003D48405C704710B5FFF7C4FF10BD1FB54E
:103B8000012140F2C11001F09FFE00208DF80C00D1
:103B90008DF80E008DF80F0002208DF80D00082022
:103BA000029002A9314801F04BFB0420029002A9C7
:103BB0002E4801F045FB0220029002A92B4801F09B
:103BC0003FFB0120029002A9284801F039FB0120A7
:103BD0008DF80C0000208DF80E008DF80F002020CD
:103BE000029002A91F4801F02BFB4020029002A97D
:103BF0001C4801F025FB1020029002A9194801F091
:103C00001FFB0420029002A9194801F019FB0121B1
:103C1000880301F0B3FE0821062003F09EF94FF45B
:103C20008070009000208DF804000C208DF80500B5
:103C300001208DF80600684600F09EFE1FBD0D486D
:103C400000680D49D1F8081240EA41000A49D1F84C
:103C5000041240EA81000849D1F8001240EAC1008C
:103C6000C0B27047000002409000002000080240EF
:103C7000002002400C024142000041421CB50121DB
:103C800040F2FF1001F020FE0121880301F076FED2
:103C90000C220021FE4801F05EFB0C220121FC48B1
:103CA00001F059FB0C220221F94801F054FB0C22CF
:103CB0000321F74801F04FFB0C220421F44801F0E6
:103CC0004AFB0C220521F24801F045FB0C2211466B
:103CD000EF4801F040FB0C220D21ED4801F03BFBC9
:103CE0000C220E21EA4801F036FB0C220F21E84895
:103CF00001F031FB4FF23F00009002208DF80400EC
:103D000001208DF8050000208DF8060001208DF8B7
:103D100007006946DE4801F093FA0C220021DD48D5
:103D200001F019FB0C220121DA4801F014FB0C22EE
:103D30000221D84801F00FFB0C220321D54801F0E5
:103D40000AFB0C220421D34801F005FB0C220521BB
:103D5000D04801F000FB3F2000906946CD4801F0BB
:103D60006FFA0C220B21CC4801F0F5FA0C22114617
:103D7000C94801F0F0FA0C220D21C74801F0EBFA16
:103D80004FF4605000906946C34801F059FA0C2284
:103D90000321C24801F0DFFA0C220421BF4801F0E0
:103DA000DAFA182000906946BC4801F049FA0C2262
:103DB0000E21B94801F0CFFA0C220F21B64801F0CC
:103DC000CAFA0C220021B44801F0C5FA0C220121E4
:103DD000B14801F0C0FA4CF2030000906946AE48C9
:103DE00001F02EFA0C220721AC4801F0B4FA0C22A3
:103DF0000821AA4801F0AFFA0C220921A74801F0D6
:103E0000AAFA0C220A21A54801F0A5FA0C220B21DE
:103E1000A24801F0A0FA0C221146A04801F09BFA3A
:103E20000C220D219D4801F096FA0C220E219B4890
:103E300001F091FA0C220F21984801F08CFA4FF60C
:103E4000807000906946954801F0FAF90C2208212B
:103E5000914801F080FA0C2209218F4801F07BFA89
:103E60000C220A218C4801F076FA4FF4E0600090B1
:103E70006946894801F0E4F90C220721864801F0DF
:103E80006AFA8020009001208DF807006946824878
:103E900001F0D6F90C2209217E4801F05CFA4FF4BA
:103EA0000070009001208DF807006946794801F004
:103EB000C7F90C220421784801F04DFA0C220521A3
:103EC000754801F048FA302000906946724801F0C8
:103ED000B7F94020009000208DF8040001208DF8F3
:103EE000060000208DF8070069466B4801F0A8F92C
:103EF0004020009000208DF804008DF807006946EE
:103F0000674801F09DF900208DF8040001208DF82C
:103F100006008DF807008DF805000F200090694617
:103F2000604801F08DF901208DF8040000208DF823
:103F300006008DF80700702000906946584801F08F
:103F40007FF9042000906946574801F079F9002074
:103F50008DF8040001208DF806008DF8070002207E
:103F60008DF805008003009069464D4801F068F91E
:103F70000820009069464C4801F062F90F210020AA
:103F800002F0EBFF0321082002F0E7FF4FF40040AE
:103F9000009069463F4801F053F98020009069463F
:103FA000414801F04DF90721082002F0D6FF4020DA
:103FB000009069463C4801F043F90621082002F0D0
:103FC000CCFF4FF4806000906946374801F038F923
:103FD0000A21082002F0C1FF4FF48070009069466A
:103FE000314801F02DF90821084602F0B6FF4FF4E0
:103FF000C07000906946274801F022F90821062088
:1040000002F0ABFF01208DF8040000208DF80600BF
:104010008DF8070001208DF805004FF4E050009066
:1040200069461C4801F00CF90120009069461C48C3
:1040300001F006F94FF4806000906946144801F0E1
:10404000FFF8102000906946184801F0F9F80C229A
:104050000821144801F07FF90C220921114801F0D0
:104060007AF90C220A210F4801F075F90C220B2174
:104070000C4801F070F90C2211460A4801F06BF966
:104080000C220221044801F066F94FF470600FE041
:104090000014024000180240000C024000100240D0
:1040A000000002400008024000200240001C0240C4
:1040B000009001208DF8050002208DF804000020FA
:1040C0008DF8060001208DF8070069466A4801F066
:1040D000B7F8042000906946684801F0B1F84FF441
:1040E0008050009001208DF807006946624801F079
:1040F000A7F84FF40060009000208DF80400012024
:104100008DF8070069465E4801F09AF801208DF8A5
:10411000040000208DF806008DF8070001208DF8BE
:104120000500802000906946554801F089F830204C
:1041300000906946504801F083F8202000906946BD
:10414000504801F07DF80320009069464E4801F088
:1041500077F84FF40060009069464C4801F070F821
:1041600000208DF80400042000906946464801F0C4
:1041700067F801208DF8070000208DF8040040202A
:10418000009069463C4801F05BF880213C4801F012
:10419000D3F81021384801F0CFF82021364801F03B
:1041A000CBF82021374801F0C7F81CBD00B59DB001
:1041B0000121084601F0C0FB04200790022008906E
:1041C0000820099001200A9000200B900C900D907F
:1041D000042000900220019008200290012003900A
:1041E000002004900590069002200E9000200F9071
:1041F00010901020119000201290139014901590A0
:1042000016904FF4805017900020189019901A9033
:10421000CDF86CD007A81C900EA800F043FC01213B
:10422000022000F0E7FC0320079000200890022005
:10423000099001200A9000200B900C900D900E9098
:104240000F9010901190129013901490159016905A
:104250004FF4805017900020189019901A9007A8DA
:104260001B901C900EA800F01DFC0121002000F006
:10427000C1FC1DB000BD000000080240000C02405F
:1042800000000240001C02400004024000140240F2
:104290000B4880470B480047FEE7EFF3098000B565
:1042A000FBF7FBFF5DF804EB4EF0040E7047FEE7F2
:1042B000FEE7FEE7FEE7FEE7FEE7FEE7FEE70000BB
:1042C000A3430008890100080CB50020019000906C
:1042D0007548006840F480307349086000BF724838
:1042E000006800F4003000900198401C0190009894
:1042F00018B90198B0F5A04FF1D16B48006810F4DF
:10430000003F02D00120009001E0002000900098C2
:10431000012845D164484030006840F0805062492F
:10432000403108606148006840F440405F490860DF
:104330005D48083000685C4908310860084600683C
:1043400040F4004008600846006840F4A05008604F
:104350005748091F0860081F006840F08070091F57
:10436000086000BF5048006810F0007FFAD040F2AB
:104370000570504908604C480830006820F0030080
:104380004949083108600846006840F002000860AA
:1043900000BF45480830006800F00C000828F8D13C
:1043A0000CBD10B54448006840F4700042490860F4
:1043B0003D48006840F001003B49086000203A4950
:1043C00008310860384800683C49084036490860B0
:1043D0003B48091D0860081F006820F48020091F61
:1043E0000860002030490C310860FFF76DFF4FF086
:1043F000006031498039086010BD70B5002000228E
:10440000022300240221284D08352D6805F00C00F8
:1044100020B1042806D0082834D107E0294D2A4EBF
:10442000356033E0294D284E35602FE01E4D2D1D9F
:104430002D68C5F380541C4D2D1D2D6805F03F01DE
:1044400054B1224DB5FBF1F5174E361D3668C6F353
:10445000881605FB06F209E01A4DB5FBF1F5124E80
:10446000361D3668C6F3881605FB06F20E4D2D1D67
:104470002D68C5F301456D1C6B00B2FBF3F5124EC0
:10448000356003E00F4D104E356000BF00BF064D94
:1044900008352D68C5F303150D4E705D0A4D2D6866
:1044A000C540094E356070BD0038024000700040C4
:1044B00019544007003C024088ED00E0FFFFF6FE83
:1044C000103000240024F4009400002040787D0186
:1044D0009800002033490143334A1160704770B59A
:1044E000002100230F22C47824B32F4C246804F445
:1044F000E064C4F5E064C4F30721C1F10404E3B24D
:104500000A4144789C40E1B28478144021430C076E
:10451000210E264C05786155047804F01F0501240E
:10452000AC4005786D114FF0E02606EB8505C5F827
:10453000004109E0047804F01F040125A5401C4C4B
:104540000678761144F8265070BD1A4A0A40024394
:10455000154B1B1F1A60704739B1134A121D1268A0
:104560000243114B1B1D1A6006E00F4A121D126810
:1045700082430D4B1B1D1A607047042808D14FF071
:10458000E021096941F004014FF0E022116107E0E8
:104590004FF0E021096921F004014FF0E0221161A0
:1045A000704700000000FA050CED00E000E400E0B8
:1045B00080E100E080FFFF1F016821F00101016040
:1045C0000021016041608160C16001612121416180
:1045D000DA49884204D13D21D84A103A91608CE0F2
:1045E000D6491831884205D14FF47461D34A103A44
:1045F000916082E0D1493031884205D14FF4741185
:10460000CE4A103A916078E0CC494831884205D1D1
:104610004FF07461C94A103A91606EE0C749603149
:10462000884204D1C649C54A103AD16065E0C34901
:104630007831884204D1C349C04A103AD1605CE065
:10464000BE499031884204D1BF49BC4A103AD1607A
:1046500053E0BA49A831884205D14FF03D51B74ADD
:10466000103AD16049E0B949884204D13D21B74AA6
:10467000083A116041E0B5491831884205D14FF43C
:104680007461B24A083A116037E0B049303188426B
:1046900005D14FF47411AD4A083A11602DE0AB49D1
:1046A0004831884205D14FF07461A84A083A116038
:1046B00023E0A6496031884204D1A149A34A121FD0
:1046C00011601AE0A1497831884204D19D499F4A7E
:1046D000121F116011E09D499031884204D19A491E
:1046E0009A4A121F116008E09849A831884204D103
:1046F0004FF03D51954A121F1160704710B50022CE
:104700000268934B1A40CC680B6823434C692343DF
:104710008C692343CC6923430C6A23434C6A2343AB
:104720008C6A23434C6B23438C6B23431A430260F4
:10473000426922F00702D1E90B3423431A43426154
:104740000B6943604B6883608B68C36010BD0021B8
:10475000016041608160C160016141618161C1614D
:10476000016241628162C16201634163816370479A
:1047700021B1026842F00102026003E0026822F007
:1047800001020260704721B1026842F400420260F7
:1047900003E0026822F400420260704721B102681F
:1047A00042F02002026003E0026822F02002026070
:1047B0007047416070470146486880B2704722B137
:1047C000036843F40023036003E0036823F4002339
:1047D00003600161704721B1026842F480220260E7
:1047E00003E0026822F48022026070470AB101618E
:1047F00000E0C1607047014600200A6812F4002FF3
:1048000001D0012000E000207047014600200A6826
:1048100012F0010F01D0012000E000207047014696
:1048200000204A6902F03800704730B503460A4656
:1048300000200024454DAB4202D24049103901E02E
:104840004249103912F0005F01D04C6800E00C685A
:10485000404D2C40144201D0012000E0002030BD2A
:1048600002463A4B9A4202D23448103801E03748A7
:10487000103811F0005F03D0364B0B40C36002E0EC
:10488000344B0B408360704710B511F0800F09D096
:1048900022B1436943F08003436103E0436923F09D
:1048A0008003436180290BD02AB1036801F01E0404
:1048B0002343036004E0036801F01E04A343036084
:1048C00010BD70B502460020002400251F4EB242E4
:1048D00002D21A4B103B01E01C4B103B1E4E3142E2
:1048E00006D01E2606EAD124166806EA040502E070
:1048F000566906F0800511F0005F01D05C6800E0A9
:104900001C68144E34400C4202D00DB1012000E06E
:10491000002070BD02460D4B9A4202D20748103863
:1049200001E00A48103811F0005F03D0094B0B403A
:10493000C36002E0074B0B40836070471060024089
:104940003D000020400F002000003D201064024088
:104950003F801CF07D0F7D0F3C0F3C0F0020414934
:104960000860091D0860091D0860091D08603E48AF
:104970003C4914310860704700213A498279002A85
:104980003AD00A46126803689A430B461A600A1D19
:10499000126803689A430B1D1A60027911440A6871
:1049A00003681A430A602F4A0832126803689A4360
:1049B0002C4B08331A601A1D126803689A43294B5E
:1049C0000C331A604279102A0ED11A1F126803683C
:1049D0001A43244B08331A601A1D126803681A43DD
:1049E000204B0C331A600DE01E49427911440A68CD
:1049F00003681A430A6005E0027911440A680368F3
:104A00009A430A6070470021016001710C214171D5
:104A10000021817170471349103109680143114A1F
:104A2000103211607047014600200E4A143212689D
:104A30000A4201D0012000E00020704709491431EA
:104A40000860704701460020064A143212680A4284
:104A500001D0012000E000207047024914310860B5
:104A600070470000003C0140FFFF7F0030B943F277
:104A7000DB014FF0204242F8201005E043F2D20162
:104A80004FF0204242F820106FF07042411C4FF06E
:104A9000204343F8212011461A4602EB8002C2F857
:104AA0000411704770B50021002200234FF020450B
:104AB000046855F82410FE4C2140D0E901452C43F0
:104AC000C5682C4305692C4345692C4385692C43F3
:104AD000C5692C43056A2C43456A2C43856A2C43DF
:104AE000C56A2C43056B2C4321434FF020450468D5
:104AF00045F824108468082C09D1046855F824402E
:104B000044F040044FF02046056846F8254004680C
:104B1000641C4FF0204555F8242002F04042446BBD
:104B20002468456B6D6844EA0514456BAD6844EA3A
:104B30000524456BAD8944EA0544456B2D8A44EA5A
:104B40000554456B2D7D44EA0564456BAD692C43E6
:104B500022430468641C4FF0204545F82420C46AB1
:104B6000B4F5804F24D1046805EB8404D4F80431F3
:104B700003F04043846B2468856B6D6844EA051438
:104B8000856BAD6844EA0524856B2D8A44EA05549B
:104B9000856B2D7D44EA0564856BAD692C43234309
:104BA0004FF02045046805EB8404C4F8043108E0A4
:104BB0006FF070444FF02046056806EB8505C5F898
:104BC000044170BD0021016002214160002181602B
:104BD000C160016141618161C16101624FF4805135
:104BE0004162490081620021C1620163B1494163B0
:104BF0008163704751B14FF0204252F8202042F0BB
:104C000001024FF0204343F8202009E04FF02042FA
:104C100052F82020A84B1A404FF0204343F82020A0
:104C2000704710280AD118214FF020421166402108
:104C300051664FF0FC319166D16610E018219F4A11
:104C400011604FF040014FF02042C2F884104FF045
:104C5000FC319B4A11604FF02042C2F88C10704723
:104C600030B50021002200230468102C03D14FF03E
:104C70002044216E01E0914C2168924C01EA04012C
:104C8000446844F00804856844EA0504C56844EAB9
:104C90000504056944EA0504456944EA4524856933
:104CA00044EA453444EA01010468102C03D14FF072
:104CB0002044A26E01E0824C22684FF00002C469D9
:104CC0002468C5696D6844EA0524C5692D8944EAEC
:104CD0000544C5692D7B44EA056444EA0202046880
:104CE000102C03D14FF02044E36E02E04FF020443B
:104CF000E36E0023046A2468056A6D6844EA0524AB
:104D0000056A2D8944EA0544056A2D7B44EA056459
:104D100023430468102C05D14FF020442166A2667D
:104D2000E36607E0654C21604FF02044C4F888201A
:104D3000654C236030BD102101600021416081601D
:104D4000C160016141618161FC21C2691160C26978
:104D50005160C2699160C269D160026A1160026AE1
:104D60005160026A9160026AD160704799B110285F
:104D700008D14FF02042126E42F004024FF020435F
:104D80001A661DE04D4A126842F004024FF02043BB
:104D9000C3F8802014E0102809D14FF02042126E91
:104DA000454BDB1E1A404FF020431A6608E0434A89
:104DB0001268464B02EA03024FF02043C3F88020FA
:104DC000704799B1102808D14FF02042126E42F07E
:104DD00040024FF020431A661DE0384A126842F044
:104DE00040024FF02043C3F8802014E0102809D17E
:104DF0004FF02042126E354B3C3B1A404FF020439F
:104E00001A6608E02D4A1268314B02EA03024FF09D
:104E10002043C3F88020704701460020102903D1A9
:104E20004FF02042506F01E02A4A10687047182066
:104E3000294908604FF000004FF02041C1F8A4005C
:104E40004FF0FC302549086001F10401086001F1D0
:104E500004010860704770B500210022002300247F
:104E60001D4D29681E4D01EA0501056845F0100534
:104E7000466845EA4625866845EA463545EA010121
:104E80004FF02045C5F8A010144D2A681A46C56891
:104E90002D68C668766845EA0625C668368945EAFB
:104EA0000645C668367B45EA066545EA020219E012
:104EB0008000F7FFF4AE0408FEFF0F00800000A0A2
:104EC000880000A08101F0FF8C0000A0FBFF0F0014
:104ED000BFFF0F00940000A0A00000A0A80000A049
:104EE000CD01FEFF4FF02045C5F8A8208B4D2B6863
:104EF000234605692D680669766845EA0625066930
:104F0000368945EA06450669367B45EA066545EA7F
:104F100003034FF02045C5F8AC30814D2C684FF0AD
:104F2000000445692D684669766845EA06254669A4
:104F3000368945EA06454669367B45EA066545EA0F
:104F400004044FF02045C5F8B04070BD0021016059
:104F500041608160FC21C2681160C2685160C26812
:104F60009160C268D1600269116002695160026992
:104F700091600269D1604269116042695160426981
:104F800091604269D160704740B16649096841F05B
:104F900004014FF02042C2F8A01008E061490968FE
:104FA000614A01EA02014FF02042C2F8A0107047A6
:104FB00010B5F2B1102807D14FF020435B6E0B43C0
:104FC0004FF02044636632E0B0F5807F08D1574B44
:104FD0001B6843EA01034FF02044C4F8843026E004
:104FE000534B1B6843EA01034FF02044C4F8A4303C
:104FF0001DE0102807D14FF020435B6E8B434FF02C
:105000002044636613E0B0F5807F08D1474B1B68EE
:1050100023EA01034FF02044C4F8843007E0444BF6
:105020001B6823EA01034FF02044C4F8A43010BDEC
:1050300010B5024600200023102A03D14FF020446F
:10504000636E07E0B2F5807F02D1384C236801E03F
:10505000374C23680B4201D0012000E0002010BD36
:10506000102807D14FF02042526E8A434FF0204360
:105070005A6613E0B0F5807F08D12C4A126822EA04
:1050800001024FF02043C3F8842007E0284A126849
:1050900022EA01024FF02043C3F8A420704770B504
:1050A00002460020002300240025102A03D14FF0DF
:1050B0002046736E07E0B2F5807F02D11B4E336845
:1050C00001E01B4E336803EA010403EAD10514B181
:1050D0000DB1012000E0002070BD102808D14FF074
:1050E0002042526E22EAD1024FF020435A6613E06A
:1050F000B0F5807F08D10D4A126822EAD1024FF044
:105100002043C3F8842007E0094A126822EAD1024A
:105110004FF02043C3F8A42070470000AC0000A06B
:10512000B00000A0A00000A0FBFF0F00840000A0C2
:10513000A40000A010B504469848844208D101217B
:10514000084600F02CFC0021012000F028FC76E04D
:105150009348844208D10121022000F020FC002164
:10516000022000F01CFC6AE08E48844208D1012134
:10517000042000F014FC0021042000F010FC5EE08C
:105180008948844208D10121082000F008FC002150
:10519000082000F004FC52E08448844208D1012138
:1051A000102000F0FCFB0021102000F0F8FB46E08E
:1051B0007F48844208D10121202000F0F0FB00212B
:1051C000202000F0ECFB3AE07A48844208D101212B
:1051D000402000F0E4FB0021402000F0E0FB2EE046
:1051E0007548844208D10121802000F0D8FB0021BD
:1051F000802000F0D4FB22E07048844208D10121D5
:10520000801500F0CCFB0021A01500F0C8FB16E0D3
:105210006B48844208D10121401500F0C0FB0021F9
:10522000601500F0BCFB0AE06648844207D101210A
:10523000001500F0B4FB0021201500F0B0FB10BDFC
:10524000F0B50A4600210023002400BF3DE00125FF
:1052500005FA01F3156805EA03049C4234D1056898
:105260004F000326BE40B543056015794E00B5409A
:105270000668354305601579012D02D01579022D98
:1052800016D185684F000326BE40B5438560557929
:105290004E00B540866835438560456801268E40DE
:1052A000B5434560456896798E40B6B23543456052
:1052B000C5684F000326BE40B543C560D5794E0092
:1052C000B540C6683543C560491C1029BFD3F0BD41
:1052D0004FF6FF7101600021017141718171C1714F
:1052E000704708B54FF480320092009A0A4300924A
:1052F000009AC261C161009AC261C2690092C2692A
:10530000009208BD0246002013690B4201D0012023
:1053100000E0002070470146086980B270470246ED
:10532000002053690B4201D0012000E000207047AB
:105330000146486980B270470183704741837047D6
:105340000AB1018300E041837047416170474269BF
:105350004A4042617047F0B5002300244D07ED0E2E
:1053600002FA05F3CE1000F1200555F826504E073D
:10537000F70E0F26BE40B543CF1000F1200646F8C9
:105380002750CE1000F1200555F8265045EA0304B9
:10539000CE1000F1200545F82640F0BD0000024087
:1053A0000004024000080240000C024000100240CD
:1053B0000014024000180240001C0240002002407D
:1053C000002402400028024010B50121080700F027
:1053D00019FB00214FF0805000F014FB10BD48492C
:1053E0000862704701460020464A106820F0E0003D
:1053F000084310607047424908617047424908609D
:105400007047424908607047014600203D4A1068D5
:1054100020F44040084310607047394908647047E1
:1054200037494864704730B13649096841F4402132
:10543000344A116005E03349096821F44021314ABA
:10544000116070472E494862704710B5024600202F
:105450002C4B186840F6034398431043294B1860BF
:105460002B4B1B6843F00403294C2360012901D115
:1054700030BF00E020BF264B1B6823F00403244C00
:10548000236010BD10B5024600201E4B186840F680
:105490000343984310431B4B18601D4B1B6843F09C
:1054A00004031B4C2360012901D130BF00E020BF61
:1054B000174B1B6823F00403154C236010BD1148E3
:1054C000006840F002000F4908601148006840F091
:1054D00004000F49086000BF00BF30BF704701469D
:1054E0000020084A52680A4201D0012000E0002052
:1054F00070470449096841EA8001024A1160704717
:1055000000000E4200700040A0000E42A4000E42B7
:1055100010ED00E0F948006840F00100F74908602C
:105520000020F64908310860F4480068F449084052
:10553000F2490860F348091D0860F348EF498431D7
:105540000860F0481038091D0860EC48006820F435
:105550008020EA4908600020E8490C310860E749EA
:105560008C31086070470021E44A921C117011468A
:105570000870704710B501460022002300204A1130
:10558000012A02D1DD4C236808E0022A03D1DB4C5A
:105590007034236802E0D94C7434236801F01F0290
:1055A000012494401C4201D0012000E0002010BDE5
:1055B00038B5002000900024002500BF3120FFF7FF
:1055C000D9FF05460098401C00900098B0F5A04F08
:1055D00001D0002DF2D03120FFF7CCFF08B101241B
:1055E00000E00024204638BD01460020C34A106870
:1055F00020F0F80040EAC10010607047C34908601D
:1056000070470021BD4A703211701170012802D01C
:1056100004280AD104E00121B84A7032117005E073
:105620000521B64A7032117000E000BF00BF70471C
:10563000B7490860704770B5049C41EA821501269D
:10564000C6EB530645EA0645054345EA0465AB4EFD
:10565000361D356070BDAD4908667047820142EA6B
:105660000172A64B84331A607047A8498866704758
:1056700010B5830143EA016343EA02739F4C883407
:10568000236010BDA14908677047A049C8647047EE
:1056900002460020994B0833186820F0EC6042EA7B
:1056A00001031843954B08331860704702460020E9
:1056B000924B0833186820F0784042EA01031843FF
:1056C0008E4B083318607047014600208B4A083221
:1056D000106820F0030008431060704787480830C6
:1056E000006800F00C00704701460020834A083231
:1056F000106820F0F0000843106070470146002059
:105700007E4A0832106820F4E05008431060704769
:1057100001460020794A0832106820F4604040EACF
:10572000C10010607047F0B500210022002402255E
:1057300000260223714F08373F6807F00C0121B1A2
:10574000042905D0082937D105E0724F076036E0FB
:10575000714F076033E0694F3F1D3F68C7F38056C4
:10576000664F3F1D3F6807F03F036EB16A4FB7FBBE
:10577000F3F7DFF888C10CF1040CDCF800C0CCF3BF
:10578000881C07FB0CF40CE0624FB7FBF3F7DFF863
:105790006CC10CF1040CDCF800C0CCF3881C07FBD6
:1057A0000CF4564F3F1D3F68C7F301477F1C7D0037
:1057B000B4FBF5F7076002E0564F076000BF00BF7B
:1057C0004E4F08373F6807F0F0010909534F7A5CE4
:1057D0000768D7404760494F08373F6807F4E051F2
:1057E000890A4E4F7A5C4768D7408760434F083735
:1057F0003F6807F46041490B484F7A5C4768D740DF
:10580000C760F0BD002100F44072B2F5407F0AD1BC
:105810003A4A0832116821F4F811414A0240114312
:10582000364A08321160354A70321268C0F30B03F1
:105830001A43324B70331A60704735494439086057
:1058400070473349403908607047364908607047EF
:1058500001460020294A8C32106820F44010084389
:105860001060704701460020244A8C32106820F4F2
:105870004000084310607047014600201F4A8C32E8
:10588000106820F01F004A1E10431C4A8C32106022
:10589000704701460020194A8C32106820F4F850F5
:1058A0004A1E40EA0220154A8C32106070470146B9
:1058B0000020124A8C32106820F4403008431060F7
:1058C000704719490860704739B10C4A3032126884
:1058D00002430A4B30331A6006E0084A303212683D
:1058E0008243064B30331A607047F9B1034A3432B1
:1058F00012680243014B34331A601CE00038024046
:10590000FFFFF6EA1030002400300020000047427C
:10591000800E47420024F40040787D01A80000205A
:10592000FFFCFF0F5C014742E01147428F4A1268BB
:1059300082438E4B1A60704739B18C4A121D12682F
:1059400002438A4B1B1D1A6006E0884A121D12682A
:105950008243864B1B1D1A60704739B1834A0C3253
:1059600012680243814B0C331A6006E07F4A0C3206
:10597000126882437D4B0C331A60704739B17B4A01
:10598000103212680243794B10331A6006E0774AEE
:10599000103212688243754B10331A60704739B168
:1059A000724A243A12680243704B243B1A6006E0A4
:1059B0006E4A243A126882436C4B243B1A6070474B
:1059C00039B16A4A203A12680243684B203B1A6098
:1059D00006E0664A203A12688243644B203B1A6014
:1059E000704739B1614A1C3A126802435F4B1C3B55
:1059F0001A6006E05D4A1C3A126882435B4B1C3B0E
:105A00001A60704739B1594A143A12680243574B29
:105A1000143B1A6006E0554A143A12688243534B0D
:105A2000143B1A60704739B1504A103A1268024369
:105A30004E4B103B1A6006E04C4A103A1268824303
:105A40004A4B103B1A60704739B1484A1C32126801
:105A50000243464B1C331A6006E0444A1C3212686B
:105A60008243424B1C331A60704739B13F4A20329F
:105A7000126802433D4B20331A6006E03B4A203255
:105A800012688243394B20331A60704739B1374A64
:105A9000243212680243354B24331A6006E0334A3D
:105AA000243212688243314B24331A60704739B173
:105AB0002E4A2C32126802432C4B2C331A6006E01B
:105AC0002A4A2C3212688243284B2C331A607047C2
:105AD00039B1264A303212680243244B30331A60FF
