:020000040802F0
:10000000C0D80120854102089D0102088F410208E5
:10001000A7010208AB010208AF01020800000000BE
:10002000000000000000000000000000B301020812
:10003000B5010208000000003FCE0408D97F020885
:10004000B1410208B1410208B14102082B04020883
:10005000B1410208B1410208B1410208B1410208B0
:100060004D390208B1410208B1410208B14102080C
:10007000B1410208B1410208B1410208B141020890
:10008000B1410208B1410208B1410208B141020880
:10009000B1410208B1410208B141020847220208F9
:1000A000B1410208B1410208B1410208B141020860
:1000B000B1410208F5340208B1410208B141020819
:1000C000B1410208B1410208B1410208B141020840
:1000D000B14102084D2D0208CD2F0208513202080D
:1000E00067390208B1410208B1410208B141020872
:1000F000B1410208B1410208B1410208B141020810
:10010000B141020825210208B1410208B1410208AB
:10011000EB360208B1410208B1410208B1410208C0
:10012000B1410208B1410208B14102082D21020883
:10013000B1410208B1410208B1410208B1410208CF
:10014000B1410208B1410208B1410208B1410208BF
:10015000B1410208B1410208B14102080F3402085E
:10016000B1410208B1410208B1410208B14102089F
:10017000B1410208B1410208B1410208B14102088F
:10018000B1410208B1410208DFF80CD02CF074FB39
:1001900000480047BF800308C0D80120704700BF57
:1001A000FEE700BFFEE700BFFEE700BFFEE700BFBF
:1001B000FEE770477047000008B56946002005F06B
:1001C000B3FE9DF8030000F5FA6008BD08B5694666
:1001D000002005F0A9FE9DF8010008BD08B569469C
:1001E000002005F0A1FE9DF8020008BD08B5694693
:1001F000002005F0FFFD9DF8000008BD08B5694628
:10020000002005F0F7FD9DF8010008BD08B569461E
:10021000002005F0EFFD9DF8020008BD10B586B086
:10022000044604A9002005F0E5FD05A9002005F01D
:100230007BFE9DF812009DF811109DF810209DF88E
:100240001630CDE90032CDE902109DF815309DF849
:10025000170000F5FA627AA1814847F0F7FF1CB158
:100260007F4920462BF0F3FF7D4806B010BD2DE9F5
:10027000FC4704460D4616461F46DDE90A89A4F5EB
:10028000FA60C0B28DF80700E8B28DF80500F0B250
:100290008DF8060000208DF80400F8B28DF80000FB
:1002A00008F0FF008DF8010009F0FF008DF8020052
:1002B00001A9002005F0D2FD6946002005F030FDBF
:1002C000BDE8FC870EB54FF4800004F03CFB4FF412
:1002D0008000009000208DF8040008208DF80500B3
:1002E00001208DF80600684604F0BCFA03208DF862
:1002F000080001208DF8090000208DF80A00012077
:100300008DF80B0002A804F060F80121880306F0C4
:10031000D9F9012005F067FF042005F03FFF002018
:1003200005F051FF0EBD10B586B00024012108076D
:1003300005F089FA012004F0C8FF012005F0D7F884
:1003400009E0601CC0B20446B0F57A7F03DD4FF0CF
:10035000FF3006B010BD412005F082F80028F0D033
:100360004FF4807005F0C4F9012005F0DCF905F0C8
:1003700075FB7F200490FF2005900020039003A8C8
:1003800005F033FC14208DF8070007208DF80500D8
:100390008DF8060001208DF8040001A905F05EFD2E
:1003A00000208DF80B0012208DF8080000208DF839
:1003B00009008DF80A0002A9012005F0B1FC4AF2FB
:1003C000A551002006F0FBF80020C2E710B5002080
:1003D00006F002F9A0F52541A53903D0FFF7A3FFE8
:1003E00008B310BD0121080705F02DFA012004F023
:1003F0006CFF05F033FB4FF4807006F0A2F94FF468
:10040000805006F0CBF94FF4005006F0C7F9CA202F
:100410001449086053200860002012491C39086004
:10042000FF201049086000BFDBE710B54FF48040A3
:1004300006F095F918B14FF4804006F0AFF910BD01
:10044000253034642D253032642D2530326420254A
:100450003032643A253032643A253032640000008C
:1004600028B50020242800401CB5002006F0D2F951
:10047000002006F0D2F906F0A5F900214FF4006043
:1004800005F0F2F900220821FC4804F0DAFE00220F
:100490000921FA4804F0D5FE00220A21F74804F0A9
:1004A000D0FE00220B21F54804F0CBFE00220C21E7
:1004B000F24804F0C6FE00220221F14804F0C1FE19
:1004C0004FF47060009000208DF804008DF8070054
:1004D0006946EA4804F02AFE042000906946E8488C
:1004E00004F024FE4FF4805000906946E34804F085
:1004F0001DFE1CBD10B5FFF7B7FF10BD2DE9F04183
:1005000006460027DF48056801E0DE48056815F06B
:10051000450FFAD015F0040F06D00327042006F08B
:1005200021FA3846BDE8F08115F0010F05D001270A
:10053000012006F017FA3846F4E706F094F9B042C5
:1005400002D010273846EDE740F2FF5006F00AFAD5
:10055000002006F08DF90446CB48044201D138460C
:10056000E0E714F0004F01D01C20DBE714F0804FCF
:1005700001D00920D6E714F0005F01D00A20D1E7AE
:1005800014F0805F01D00B20CCE714F0006F01D095
:100590000C20C7E714F0806F01D00D20C2E714F0E3
:1005A000807F01D00E20BDE714F4000F01D00F2092
:1005B000B8E714F4800F01D01020B3E714F4001F43
:1005C00001D01120AEE714F4801F01D01220A9E75A
:1005D00014F4002F01D01320A4E714F4802F01D0CD
:1005E00014209FE714F4003F01D015209AE714F47B
:1005F000803F01D0162095E714F4004F01D017205A
:1006000090E714F4804F01D018208BE714F4005FBA
:1006100001D0192086E714F0080F01D01A2081E7D5
:1006200038467FE72DE9FC4107460D4600260024A9
:100630000020009001900820944908601020486034
:10064000402088600020C8604FF480600861084640
:1006500006F0EDF81020FFF751FF044614B12046D4
:10066000BDE8FC818A48008800048849086037207A
:100670004860402088600020C8604FF480600861B6
:10068000084606F0D4F83720FFF738FF04460CB1CF
:100690002046E5E74FF0FF307E49086008204860BB
:1006A000302088600220C860002008610120486175
:1006B000084606F0E8F800207449086033204860D6
:1006C000402088600020C8604FF4806008610846C0
:1006D00006F0ADF83320FFF711FF04460CB12046B9
:1006E000BEE709E04FF4001006F031F920B106F042
:1006F000F0F84DF82600761C6248006840F22A6146
:100700000842EFD0082006F022F928B1082006F0B0
:1007100029F904242046A3E7022006F018F928B19D
:10072000022006F01FF90224204699E7202006F057
:100730000EF928B1202006F015F9062420468FE78F
:100740004FF4007006F003F930B14FF4007006F07A
:1007500009F90724204683E740F2FF5006F002F92A
:1007600000980006009901F47F4140EA01200099B9
:1007700001F47F0140EA1120009940EA11606860AD
:1007800001980006019901F47F4140EA0120019996
:1007900001F47F0140EA1120019940EA11602860CC
:1007A00020465DE77CB505460024002000900190BE
:1007B00006F05EF810F0007F02D00E2420467CBDCB
:1007C0003349098888B26946FFF72CFF04460CB10B
:1007D0002046F4E7012D35D1019810F4802F2ED05A
:1007E0002B480088000429490860372048604020D1
:1007F00088600020C860A8020861084606F017F863
:100800003720FFF77BFE04460CB12046D7E70220D5
:100810001E49086006204860402088600020C860AB
:100820004FF480600861084606F001F80620FFF7E3
:1008300065FE04460CB12046C1E72046BFE72524EB
:100840002046BCE7019810F4803F3DD01048008856
:1008500000040E490860372048604020886000206E
:10086000C8604FF480600861084605F0E0FF37205B
:10087000FFF744FE04467CB12046A0E70008024092
:10088000000C0240342C014008E0FFFDE8B50020D8
:1008900004000020FCB500200020FE49086006206E
:1008A0004860402088600020C8604FF48060086184
:1008B000084605F0BCFF0620FFF720FE04460CB1F9
:1008C00020467CE720467AE72524204677E770B566
:1008D00004460025F0480068032802D12725284651
:1008E00070BDED48006838B1EB480068012803D0BE
:1008F000E948006802282CD1B4F5805F02D1272591
:100900002846EDE7B4F5006F13D10120FFF74AFF49
:100910000546F5B90020E14908750860486088601F
:100920004FF40060C86000200861084605F055FFDC
:100930000FE00020FFF736FF054655B90020D749E4
:100940000875086048608860C8600861084605F05E
:1009500044FF2846C4E770B504460D464FF0000634
:10096000CC4804604FF00700CA4948604FF040008F
:1009700088604FF00000C8604FF48060086108464E
:1009800005F055FF0720FFF7B9FD0646304670BD5C
:10099000F0B5014600200022BF4B1B7881F856308D
:1009A000BF4B1B88A1F85430BE4B1B681A0E93092D
:1009B0000B70C2F383034B7002F003038B70B94BCF
:1009C0001B68C3F30742CA70B64B1B88C3F30722E8
:1009D0000A71B44B1A784A715B681A0E1301CB8006
:1009E000B04B5B68C3F30742CB8843EA1213CB805A
:1009F00002F00F030B72AB4B9B88C3F30722D309A2
:100A00004B72C2F380138B72C2F34013CB72C2F3EA
:100A100000130B7300234B739F4B1B681BB19E4B42
:100A20001B68012B4FD193071B0D0B619D4B1A794E
:100A30000B6943EA82030B619A4B9B681A0E0B69A0
:100A400043EA92130B61C2F3C2030B7502F0070372
:100A50004B75944B9B68C3F3074253098B75C2F3E4
:100A60008203CB7593075B0F0B768E4B1B89C3F309
:100A700007220B7E43EAD2130B760B695B1C002422
:100A8000C1E912340B7ED1E912469B1C012505FAFF
:100A900003F3DF17A4FB035C06FB03C304FB07336C
:100AA000C1E912530C7A0123A3400B650027D1E959
:100AB00012560B6DA5FB034C06FB03C305FB073366
:100AC000C1E9124336E0744B1B68022B32D1754BDF
:100AD0001A7993069B0A0B61724B9B681A0E0B697D
:100AE00043EA02230B616F4B9B68C3F307420B6918
:100AF00013430B616B4B1B89C3F307220B69002463
:100B00005B1C44EB04074FF400760025A3FB064C66
:100B100007FB06C603FB05664FF480650027A4FBB0
:100B2000053C06FB05C504FB0754C1E912344FF42C
:100B300000730B65C2F3801301F8193F93065B0E37
:100B40004B70584B1A7A4B7843EAD2134B7002F031
:100B50007F038B70534BDB681A0ED309CB70C2F343
:100B600041130B71C2F382034B7193071B0F8B71FF
:100B70004C4BDB68C3F307428B7943EA92138B71CA
:100B8000C2F34013CB7100230B7202F001034B72CE
:100B9000444B9B89C3F30722D3098B72C2F38013A2
:100BA000CB72C2F340130B73C2F300134B73C2F347
:100BB00081038B7302F00303CB733A4B1A7B530808
:100BC0000B7401234B74384B1B681A0ECA74A1F1C5
:100BD0001901354B1B68C3F307424FEA0224CC8549
:100BE000314B1B88C3F30722CB8D43EA0203CB852D
:100BF0002D4B1A784FEA02640C635B684FEA13626C
:100C00000B6B43EA02440C63274B5B68C3F3074258
:100C10000B6B43EA02240C63234B9B88C3F307222C
:100C20000B6B43EA02030B631F4B1A794FF034033B
:100C30005A541D4B9B684FEA13624FF035035A54C8
:100C4000194B9B68C3F307424FEA02648C63164B4F
:100C50001B89C3F307228B6B43EA02448C63124B5C
:100C60001A7A8B6B43EA02248C630F4BDB684FEAE2
:100C700013628B6B43EA02038B630B4BDB68C3F39A
:100C800007424FF03C035B5C43EA12144FF03C0315
:100C90005C540BE0E8B5002000000020D0B5002037
:100CA0000400002048B5002058B500204FEA027328
:100CB0004FEA1354CC87FA4B9B89C3F30722CB8F9F
:100CC00043EA0203CB87F64B1A7B4FEA52044FF0FC
:100CD00040035C544FF001044FF041035C54F0BDFD
:100CE00070B50025EF48046801E0EE48046814F090
:100CF000450FFAD014F0040F05D00325042005F0A9
:100D000031FE284670BD14F0010F05D001250120E9
:100D100005F028FE2846F5E740F2FF5005F022FED8
:100D20002846EFE72DE9F04106460F464FF0000850
:100D3000DC48056801E0DB48056815F0450FFAD08E
:100D400015F0040F07D04FF00308042005F00AFE49
:100D50004046BDE8F08115F0010F06D04FF00108C4
:100D6000012005F0FFFD4046F3E705F07CFDB042B1
:100D700003D04FF010084046EBE740F2FF5005F07B
:100D8000F1FD002005F074FD044614F4604F03D11A
:100D9000200C38804046DCE714F4005F01D01320BB
:100DA000D7E714F4804F01D01020D2E714F4004F9D
:100DB00001D00F20CDE74046CBE738B50024012015
:100DC000009005F02EFD10B92524204638BDB64808
:100DD0000068042828D00020B44908600220486038
:100DE000C02088600020C8604FF480600861084619
:100DF00005F01DFDFFF774FF04460CB12046E5E742
:100E0000002005F035FDA6490860042005F030FDFE
:100E1000A3494860082005F02BFDA14988600C20FB
:100E200005F026FD9E49C8609F48006858B19E485D
:100E30000068012807D09C480068062803D09A481B
:100E40000068022816D100209849086003204860F5
:100E5000402088600020C8604FF480600861084628
:100E600005F0E5FC69460320FFF75CFF04460CB182
:100E70002046ABE78C48006804282ED0BDF800005F
:100E80008B490860BDF8000000048849086009200B
:100E90004860C02088600020C8604FF4806008610E
:100EA000084605F0C4FCFFF71BFF04460CB12046C2
:100EB0008CE7002005F0DCFC7E490860042005F08A
:100EC000D7FC7C494860082005F0D2FC794988604D
:100ED0000C2005F0CDFC7749C8600024204675E75A
:100EE00070B500256F48046801E06E48046814F08E
:100EF000450FFAD014F0040F05D00325042005F0A7
:100F000031FD284670BD40F2FF5005F02BFD28460C
:100F1000F8E770B500264FF480356248046802E0B7
:100F20006D1E6048046814F0450F01D1002DF7D103
:100F300015B114F0040F05D00326042005F012FDAE
:100F4000304670BD14F0400F05D00026402005F05B
:100F500009FD3046F5E73046F3E770B500254FF45C
:100F6000803400E0641E24B1802005F0F0FC0028ED
:100F7000F8D014B90325284670BD40F2FF5005F0A3
:100F8000F1FC2846F8E7F8B5002000900025002481
:100F90000026002776204849087500200860486030
:100FA0008860C8600861084605F017FC032005F05A
:100FB00034FC012005F02EFC00203C49086048600C
:100FC0008860C8604FF480600861084605F02FFC17
:100FD000FFF7C3FF00909DF8000010B19DF80000DE
:100FE000F8BD4FF4D57031490860082048604020B2
:100FF00088600020C8604FF480600861084605F0F2
:1010000016FCFFF786FF00909DF8000020B9012034
:1010100025490860870712E000202449086037202E
:101020004860402088600020C8604FF480600861FC
:10103000084605F0FCFB3720FFF760FA009000201F
:101040001A49086037204860402088600020C86046
:101050004FF480600861084605F0E9FB3720FFF790
:101060004DFA00909DF8000000285FD149E0002073
:101070000E49086037204860402088600020C86022
:101080004FF480600861084605F0D1FB3720FFF778
:1010900035FA00909DF8000080B19DF800009FE7B0
:1010A00058B50020342C014000000020E8B5002095
:1010B0000400002048B50020D0B50020F748384390
:1010C000F749086029204860402088600020C860F7
:1010D0004FF480600861084605F0A9FBFFF700FFA8
:1010E00000909DF8000010B19DF8000078E7002006
:1010F00005F0BEFB0546012080EAD57080F00106B0
:10110000641C1EB94FF6FF708442B0D34FF6FF70D7
:10111000844204D31B2000909DF8000060E705F096
:101120008040050002D00220DE4908609DF80000E2
:1011300056E71CB501210D2004F03CFB0C220821D0
:10114000D94804F07EF80C220921D74804F079F838
:101150000C220A21D44804F074F80C220B21D24846
:1011600004F06FF80C221146CF4804F06AF80C2204
:101170000221CE4804F065F84FF470600090022020
:101180008DF805008DF8040000208DF80600012080
:101190008DF807006946C44803F0C8FF042000909A
:1011A0006946C24803F0C2FF4FF48050009000200F
:1011B0008DF807006946BC4803F0B8FF4FF40060A3
:1011C000009000208DF8040001208DF8070069468A
:1011D000B74803F0ABFF0121C80204F045FB012131
:1011E000880504F0E7FA1CBD08B531208DF8000031
:1011F00000208DF801008DF8020001208DF8030019
:10120000684603F0E2F83B208DF8000001208DF8DD
:101210000100684603F0D9F808BD08B50020009029
:10122000FFF7E2FFFFF785FF05F0CCFAFFF7ABFE13
:1012300000909DF8000010B19DF8000008BDFFF778
:10124000BCFD00909DF8000010B19DF80000F5E78E
:10125000002098490875086048608860C860086187
:10126000084605F0BAFA9448FFF792FB00909DF803
:10127000000040B99048B0F8540002041046002124
:10128000FFF769FB00909DF8000020B94FF4006063
:10129000FFF71DFB00909DF80000CFE770B50446F6
:1012A000002514B92625284670BD8448008800040E
:1012B0007B4908600D204860402088600020C8609D
:1012C0004FF480600861084605F0B1FA0D20FFF781
:1012D00015F905460DB12846E6E7002005F0C8FAE5
:1012E00020602846E0E708B501200090C102704860
:1012F00003F07EFF08B1002000909DF8000008BDBB
:1013000008B500200090FFF7EEFF012809D16846DC
:10131000FFF7C4FF08B1FF2008BD0098C0F34320C9
:10132000FAE7FF20F8E710B50424FFF7E9FF0446C9
:10133000042C01D1002010BDFF2C01D10220FAE7BE
:101340000120F8E710B50024002005F066FA2046D9
:1013500010BD70B5044600260025002005F088FA6F
:1013600010F0007F02D00E26304670BD40204C4960
:10137000086010204860402088600020C8604FF45A
:1013800080600861084605F052FA1020FFF7B6F8B1
:1013900006460EB13046E8E7484800880004404958
:1013A000086037204860402088600020C8604FF403
:1013B00080600861084605F03AFA3720FFF79EF88A
:1013C00006460EB13046D0E74FF0FF303C4908608A
:1013D00040204860602088600220C86000200861CA
:1013E00001204861084605F04EFA00202C490860AB
:1013F0000D204860402088600020C8604FF4806065
:101400000861084605F013FA0D20FFF777F8064645
:101410000EB13046A9E70EE04FF4004005F097FA10
:1014200048B1002504E005F054FA44F825006D1C8D
:10143000082DF8D320342348006840F22A6108427E
:10144000EAD0082005F083FA28B1082005F08AFACE
:101450000426304689E7022005F079FA28B10220F7
:1014600005F080FA022630467FE7202005F06FFA6B
:1014700028B1202005F076FA0626304675E74FF4AD
:10148000007005F064FA30B14FF4007005F06AFAAC
:101490000726304669E74FF0FF351AE0000010805C
:1014A000E8B500200000002000080240000C0240C7
:1014B00000000240D0B5002078B5002004000020D4
:1014C000FCB50020342C014005F003FA2060241DF7
:1014D0006D1E4FF4001005F03AFA08B1002DF3D15B
:1014E00040F2FF5005F03EFA30463EE770B5044644
:1014F00000260025FB48FFF72CFF06460EB13046BC
:1015000070BDF848007885092570F6480078C0F36A
:1015100040156570F348857828026080F148C578E9
:10152000608828436080EF48057928066060ED48B0
:101530004579606840EA05406060EA4885796068FE
:1015400040EA05206060E748C5796068284360602C
:10155000E448057A2572457A6572807A0509A57294
:10156000E048C57A2802A081DE48057BA08928438F
:10157000A081DC48407B8508A573DA48407B00F0F9
:101580000305E5733046BBE730B58FB005460C4622
:101590004FF0FA51D44803F0D9F80021D24803F0B3
:1015A0005DF8D14802F07EFF4FF000600090CF4818
:1015B0000190029500200390049405904FF4806000
:1015C0000690800007900020089009904FF440306A
:1015D0000A9004200B9003200C904FF400000D9013
:1015E00080100E906946C04802F0FEFF01221021D3
:1015F000BD4803F0BFF82021BB4803F045F80121A6
:10160000B94803F02BF80FB030BD2DE9F04180460A
:1016100014461D46069E4FF000073846B449087030
:10162000B4490860B4490860B44908604FF001014A
:1016300040F22A3005F07AF9012005F073F93146BD
:101640004046FFF7A1FFAE480068022808D1060215
:1016500002020023204629462AF048FD04460D4692
:10166000A84806601020A7494860402088600020F4
:10167000C8604FF480600861084605F0D8F8102073
:10168000FEF73CFF074617B13846BDE8F0814FF042
:10169000FF309D490860084646609020886002201F
:1016A000C8600020086101204861084605F0EBF899
:1016B00094480460112093494860402088600020CD
:1016C000C8604FF480600861084605F0B0F811204A
:1016D000FEF714FF07460FB13846D6E73846D4E781
:1016E0002DE9F047814614461D46DDE908684FF0B4
:1016F000000738467E4908707E4908604FF00100B7
:101700007D4908604FF000007C4908604FF00101FE
:1017100040F22A3005F00AF908FB06F14846FFF7C7
:1017200033FF012005F0FEF875480068022808D153
:10173000060202020023204629462AF0D7FC04466E
:101740000D467048066010206E4948604020886051
:101750000020C8604FF480600861084605F067F813
:101760001020FEF7CBFE074617B13846BDE8F087DC
:101770004FF0FF306449086008FB06F04860902095
:1017800088600220C8600020086101204861084686
:1017900005F079F85B48046012205A4948604020FF
:1017A00088600020C8604FF480600861084605F03A
:1017B0003EF81220FEF7A2FE07460FB13846D5E7E5
:1017C0003846D3E710B5002400204E4908600C20AD
:1017D0004860402088600020C8604FF48060086145
:1017E000084605F024F80C20FEF788FE0446204643
:1017F00010BD70B500256C1E00E0641E43480068F3
:1018000038B93C48006820B93948007808B9002C3C
:10181000F3D100203D490860441E00E0641E3748B3
:101820000830006810F4005F01D0002CF6D1324877
:101830000068012805D1FFF7C5FF054600202E49A5
:1018400008600CB905B9042540F2FF5005F08AF88C
:101850002748007810B12648007870BD2846FCE77C
:1018600030B58FB005460C464FF0FA511E4802F0D5
:101870006DFF00211C4802F0F1FE1B4802F012FE31
:101880004FF00060009019480190029540200390AD
:101890000494002005904FF480600690800007902B
:1018A0000020089009904FF440300A9004200B90DB
:1018B00003200C904FF400000D9080100E906946AC
:1018C000094802F091FE01221021074802F052FF60
:1018D0002021054802F0D8FE0121034802F0BEFE97
:1018E0000FB030BD68B5002058640240802C014024
:1018F0000C00002010000020080000202C2C0140CB
:1019000000000020E8B50020FCB5002014000020F5
:101910002DE9F041804614461D46069E4FF0000713
:101920003846F7490870F7490860F7490860F749F1
:1019300008604FF0010140F22A3004F0F7FF314611
:101940004046FFF78DFF012004F0ECFFF0480068EF
:10195000022808D1060202020023204629462AF066
:10196000C5FB04460D46EB4806601020E949486077
:10197000402088600020C8604FF4806008610846FD
:1019800004F055FF1020FEF7B9FD074617B13846A1
:10199000BDE8F081DF4804601820DE49486040203F
:1019A00088600020C8604FF480600861084604F039
:1019B0003EFF1820FEF7A2FD07460FB13846E7E7C5
:1019C0004FF0FF30D4490860084646609020886098
:1019D0000020C860086101204861084604F053FFF8
:1019E0003846D5E72DE9F047814615461E46DDE924
:1019F00008784FF000042046C1490870C1490860CA
:101A00004FF00100C04908604FF00000BF49086076
:101A10004FF0010140F22A3004F088FF08FB07F183
:101A20004846FFF71DFF012004F07CFFB84800681E
:101A3000022808D1070202020023284631462AF074
:101A400055FB05460E46B34807601020B149486073
:101A5000402088600020C8604FF48060086108461C
:101A600004F0E5FE1020FEF749FD044614B12046BF
:101A7000BDE8F087A94800880004A649086037201F
:101A80004860402088600020C8604FF48060086192
:101A9000084604F0CCFE3720FEF730FD04460CB1BA
:101AA0002046E5E79B48C0F8008017209949486028
:101AB000402088600020C8604FF4806008610846BC
:101AC00004F0B5FE1720FEF719FD04460CB12046C0
:101AD000CEE79048056019208E4948604020886014
:101AE0000020C8604FF480600861084604F09FFE43
:101AF0001920FEF703FD04460CB12046B8E74FF06D
:101B0000FF308549086008FB07F048609020886036
:101B10000020C860086101204861084604F0B3FE57
:101B20002046A5E770B500256C1E00E0641E7C48C9
:101B3000006838B97348006820B97148007808B95E
:101B4000002CF3D1002076490860441E00E0641E9A
:101B50006E480830006810F4805F01D0002CF6D188
:101B600069480068012805D1FFF72CFE05460020D2
:101B7000654908600CB905B9042540F2FF5004F02E
:101B8000F1FE5F48007810B15D48007870BD2846CE
:101B9000FCE75E480830006810F4405F01D0012087
:101BA00070470020FCE77CB504460025002001902A
:101BB00000905A4800880004564908600D2048608B
:101BC000402088600020C8604FF4806008610846AB
:101BD00004F02DFE4D4808300068009003E04B48AB
:101BE000083000680090009810F0450FF7D000987A
:101BF00010F0040F05D00325042004F0B3FE28469E
:101C00007CBD009810F0010F05D00125012004F0E3
:101C1000A9FE2846F4E704F026FE009000980D285F
:101C200002D010252846EBE740F2FF5004F09AFE60
:101C3000002004F01DFE01900198C0F343202070A5
:101C400038490198084201D12846D9E7019810F097
:101C5000004F01D01C20D3E7019810F0804F01D035
:101C60000920CDE7019810F0005F01D00A20C7E7F6
:101C7000019810F0805F01D00B20C1E7019810F0AF
:101C8000006F01D00C20BBE7019810F0806F01D0ED
:101C90000D20B5E7019810F0807F01D00E20AFE74E
:101CA000019810F4000F01D00F20A9E7019810F45B
:101CB000800F01D01020A3E7019810F4001F01D07D
:101CC00011209DE7019810F4801F01D0122097E7A2
:101CD000019810F4002F01D0132091E7019810F41F
:101CE000802F01D014208BE7019810F4003F01D021
:101CF000152085E7019810F4803F15D016207FE766
:101D00000C00002010000020080000202C2C0140B6
:101D100000000020E8B50020FCB5002004000020F1
:101D20001400002008E0FFFD019810F4004F01D0DE
:101D3000172065E7019810F4804F01D018205FE765
:101D4000019810F4005F01D0192059E7019810F0B4
:101D5000080F01D01A2053E7284651E72DE9FC4728
:101D600005460E46174698464FF00004A146204609
:101D700001900090EF4840684FF0200111EA105F99
:101D800003D125242046BDE8FC87EB480068C0B29B
:101D9000801CEA49B1FBF0F00190002004F068FDDE
:101DA00010F0007F02D00E242046ECE7E4480068E3
:101DB000022810D102020023284631462AF096F963
:101DC00005460E464FF400720023384641462AF07D
:101DD0008DF907468846DA48006838B1D848006867
:101DE000012803D0D648006802282BD1D5480560C9
:101DF0002020D4494860402088600020C8604FF40B
:101E000080600861084604F012FD2020FEF776FB92
:101E100004460CB12046B6E7CA4807602120C949EC
:101E20004860402088600020C8604FF480600861EE
:101E3000084604F0FCFC2120FEF760FB04460CB1D0
:101E40002046A0E70020BF490860262048604020C7
:101E500088600020C8604FF480600861084604F084
:101E6000E6FC2620FEF74AFB04460CB120468AE732
:101E70004FF0000901E009F1010901988145FAD309
:101E80006846FFF790FE04464FF0FF3905E06846CC
:101E9000FFF789FE0446A9F10109B9F1000F08D046
:101EA0003CB99DF800000728F1D09DF800000628F5
:101EB000EDD0204667E710B54FF4807004F056FD72
:101EC00050B10020A04908704FF4807004F059FD13
:101ED00001209E49086037E0022004F047FD30B140
:101EE000022004F04EFD0220974908702CE00820E3
:101EF00004F03CFD30B1082004F043FD0420924979
:101F0000087021E0202004F031FD30B1202004F0E1
:101F100038FD06208C49087016E0102004F026FDDC
:101F200030B1102004F02DFD0520874908700BE02A
:101F30004FF4007004F01AFD30B14FF4007004F05B
:101F400020FD07208049087000214CF23A3004F04F
:101F5000EDFC7D48007810BD10B57D48006810F09C
:101F6000C05F08D001207B4908604FF0C25178481B
:101F7000583002F0EBFB10BD0146002002E0491092
:101F8000421CD0B20129FAD17047F0B593B00025B8
:101F90000020119012900027402101A82AF0FEF89D
:101FA000002401AE002068490870684908606A4949
:101FB00008606149283108606849098888B211A918
:101FC000FEF730FB054615B1284613B0F0BD129858
:101FD00010F0807F03D1129810F0007F01D0012013
:101FE00000E000200746002F71D0402055490860CE
:101FF00010204860402088600020C8604FF4806056
:102000000861084604F013FC1020FEF777FA054635
:102010000DB12846D9E74FF0FF3051490860402004
:102020004860602088600220C860002008610120AC
:102030004861084604F027FC4A48424908600620E7
:102040004860402088600020C8604FF480600861CC
:10205000084604F0ECFB0620FEF750FA05460DB1E9
:102060002846B2E70EE04FF4004004F070FC48B19F
:10207000002404E004F02DFC46F82400641C082C25
:10208000F8D320362C483030006840F22A610842EC
:10209000E9D0082004F05BFC28B1082004F062FCC1
:1020A0000425284691E7022004F051FC28B10220C3
:1020B00004F058FC0225284687E7202004F047FC5E
:1020C00030B1202004F04EFC062528467DE727E0AD
:1020D0004FF4007004F03BFC30B14FF4007004F09A
:1020E00041FC0725284670E74FF0FF3404E004F078
:1020F000F0FB3060361D641E4FF4001004F027FC26
:1021000008B1002CF3D140F2FF5004F02BFC9DF8F5
:10211000110000F00200022801D1002500E027256F
:10212000284652E710B5FFF7C6FE10BD10B5FFF701
:1021300013FF10BD48B50020042C0140C0D401009D
:1021400000000020E8B500200C0000201000002056
:102150000064024014000020080000200400002059
:10216000FCB5002001FFFF801CB50121880303F0AE
:102170007BFB0621052004F066FE402002F0E3FB15
:102180004020009000208DF804000C208DF8050000
:1021900001208DF80600684602F064FB0721052047
:1021A00004F051FE802002F0CEFB80200090002041
:1021B0008DF804000C208DF8050001208DF8060034
:1021C000684602F04FFB1CBD08B517208DF80000D3
:1021D00000208DF801008DF8020001208DF8030029
:1021E000684602F0F2F808BD1CB50121202003F07A
:1021F000E1FA03208DF8050001208DF8070080200A
:10220000009000208DF804008DF8060001208DF864
:10221000070069462C4802F089FF4020009000200A
:102220008DF804008DF8060001208DF8070069463E
:10223000254802F07BFFFFF797FFFFF7C5FF1CBDA6
:1022400022490860704710B50AF06AFE402002F08B
:102250006FFB60B1402002F076FB1C48006830B193
:102260001E2015F0B8FC1A481849096888478020D4
:1022700002F05EFB60B1802002F065FB134800684D
:1022800030B11E2015F0A7FC124810490968884794
:10229000202002F04DFB10B1202002F054FB4FF43F
:1022A000807002F045FB18B14FF4807002F04BFBD8
:1022B0004FF4007002F03CFB18B14FF4007002F0D4
:1022C00042FB0AF03EFE10BD001402401800002040
:1022D000A8880608A4880608012806D0022808D085
:1022E00003280AD0042810D10BE00121FB4A117009
:1022F0000BE00221F94A117007E00321F74A11703F
:1023000003E00421F54A117000BF00BF704710B50B
:102310004FF48071F24802F085FF4FF40071F048ED
:1023200002F080FF4FF48061ED4802F07BFF4FF434
:102330000041EB4802F076FFE8480078012806D01B
:1023400002280AD003280ED0042818D111E04FF437
:102350008071E34802F068FF11E04FF40071E0483B
:1023600002F062FF0BE04FF48061DD4802F05CFF99
:1023700005E04FF40041DA4802F056FF00BF00BF0D
:1023800010BD10B54FF48071D54802F04BFF4FF4EB
:102390000071D34802F046FF4FF48061D04802F04C
:1023A00041FF4FF40041CE4802F03CFF10BD10B594
:1023B0004FF48051CA4802F037FF10BD10B54FF4FA
:1023C0008051C74802F02EFF10BD1CB501214120ED
:1023D00003F0F0F903208DF8050000208DF80600C9
:1023E00001208DF8070000208DF804004FF40060F4
:1023F00000906946BA4802F099FE01208DF8040069
:10240000802000906946B74802F090FE4FF480505B
:1024100000906946B24802F089FE4FF48070009047
:102420006946B04802F082FE4FF480700090694621
:10243000AB4802F07BFE4FF4007000906946A8485C
:1024400002F074FE4FF4806000906946A44802F0E8
:102450006DFE4FF4004000906946A14802F066FE10
:10246000FFF78FFF1CBD70B50446082519E04FF437
:1024700080719C4802F0D8FE14F0800F04D08021B7
:10248000984802F0CFFE03E08021964802F0CCFE8F
:102490004FF48071934802F0C5FE6006040E681E7A
:1024A000C5B2002DE3D170BD70B50024082513E03E
:1024B0004FF480718B4802F0B7FE6006040E4FF4B3
:1024C0008071884802F0AEFE4FF40061844802F04B
:1024D0008FFE0443681EC5B2002DE9D1204670BDB1
:1024E00010B50024FFF713FFD720FFF7BCFF00BF94
:1024F000FFF7DAFF044614F0800FF9D0FFF741FF31
:1025000010BD38B578A0006800900024FFF7E8FF00
:10251000FFF7FDFE00BF04E01DF80400FFF7A3FF76
:10252000641C042CF8DBFFF72CFF38BD38B56FA016
:10253000006800900024FFF7D3FFFFF7E8FE00BF1C
:1025400004E01DF80400FFF78EFF641C042CF8DB88
:10255000FFF717FF38BD10B50446FFF72FFFFFF751
:10256000BFFFFFF7D4FE8120FFF77DFFC4F30740D4
:10257000FFF779FFC4F30720FFF775FFE0B2FFF71D
:1025800072FFFFF7FEFEFFF7ABFFFFF710FF10BD76
:1025900038B557A0006800900024FFF70FFFFFF741
:1025A0009FFFFFF7B4FE00BF04E01DF80400FFF733
:1025B0005AFF641C042CF8DBFFF7E3FEFFF790FFE3
:1025C000FFF7F5FE38BDF8B505464AA00068009053
:1025D00000242E46FFF7F2FEFFF782FFFFF797FE7B
:1025E00000BF04E01DF80400FFF73DFF641C042C4D
:1025F000F8DB002403E03046FFF735FF641C102CA5
:10260000F9DBFFF7BEFEFFF76BFFFFF7D0FEF8BD6B
:1026100038B5054638A0006800900024FFF760FF39
:10262000FFF775FE00BF04E01DF80400FFF71BFF75
:10263000641C042CF8DB002403E0FFF735FF285569
:10264000641C102CF9DBFFF79CFEFFF749FF38BD37
:1026500038B52AA0006800900024FFF7AFFEFFF70E
:102660003FFFFFF754FE00BF04E01DF80400FFF732
:10267000FAFE641C042CF8DBFFF783FEFFF730FF43
:10268000FFF795FE38BD2DE9F84F05460C46174675
:102690004FF0000AD3464FF4047900200090A04682
:1026A000B8FBF9F009FB108BB8FBF9FA4BEA8A206A
:1026B00000906E46FFF782FEFFF712FFFFF727FE3E
:1026C0008220FFF7D0FEB078FFF7CDFE7078FFF7DD
:1026D000CAFE3078FFF7C7FE16E000001C0000209D
:1026E00000000240001802403D2A7FA93D2A7F9A3F
:1026F0003D2A7FCF3D2A7FFC322A7FFCC794809AF7
:1027000015F8010BFFF7AFFE3800A7F101018FB2FA
:10271000F6D1FFF736FEFFF7E3FEFFF748FEBDE810
:10272000F88F2DE9F84F05460C4617464FF0000A82
:10273000D3464FF4047900200090A046B8FBF9F08E
:1027400009FB108BB8FBF9FA4BEA8A2000906E4621
:10275000FFF7C6FEFFF7DBFDE820FFF784FEB07849
:10276000FFF781FE7078FFF77EFE3078FFF77BFE83
:10277000A520FFF778FEA520FFF775FEA520FFF73F
:1027800072FEA520FFF76FFE03E0FFF78DFE05F850
:10279000010B3800A7F101018FB2F6D1FFF7F1FD6F
:1027A000BDE8F88F2DE9F041002400250026002720
:1027B000FFF7ADFD9F20FFF756FEFFF775FE0546BC
:1027C000FFF772FE0646FFF76FFE0746FFF76CFE47
:1027D0008046FFF7D6FD280640EA064040EA07207B
:1027E00040EA08042046BDE8F0812DE9F0410546A5
:1027F0000E464FF40474002700BFA2B231462846AB
:10280000FFF741FFA2B23146C148FFF78AFF781CAB
:102810000746052800D906E02246BD49284629F08A
:10282000F5FC0028E9D100BFBDE8F0812DE9F74FA4
:1028300086B006468A4600200590049003900290D8
:1028400083464FF4047400270025DDF8208014B976
:1028500009B0BDE8F08FBAFBF4F060430290BAFB18
:10286000F4F004FB10ABBBF1000F01D1002001E03C
:10287000A4EB0B000746B84501D9059701E0CDF858
:102880001480B8450BD9A8EB0700B0FBF4F0049016
:10289000A8EB0700B0FBF4F104FB11000390DDF896
:1028A00008900598B8B1A2B249469A48FFF739FF97
:1028B000CDF804B0002506E016F8011B0198284465
:1028C000944A11546D1C05988542F5D349469148A8
:1028D000FFF78BFFA144049858B1002506E0494654
:1028E0003046FFF782FF2644A1446D1C04988542C0
:1028F000F5D3039890B1A2B249468648FFF711FF7D
:10290000002504E016F8010B824948556D1C039818
:102910008542F7D349467F48FFF767FF00BF97E737
:102920002DE9F74F86B006468A46002005900490B0
:102930000390029083464FF404740027DDF8208052
:10294000002514B909B0BDE8F08FBAFBF4F060437C
:102950000290BAFBF4F004FB10ABBBF1000F01D105
:10296000002001E0A4EB0B000746B84501D905970C
:1029700001E0CDF81480B8450BD9A8EB0700B0FBF7
:10298000F4F00490A8EB0700B0FBF4F104FB110095
:102990000390DDF80890059898B1A2B249465E48C8
:1029A000FFF7BFFECDF804B0002506E001982844EB
:1029B0005949085C06F8010B6D1C05988542F5D352
:1029C000A144049860B1002507E0A2B24946304610
:1029D000FFF7A7FE2644A1446D1C04988542F4D35A
:1029E000039870B1A2B249464B48FFF79AFE002502
:1029F00004E04948405D06F8010B6D1C03988542D0
:102A0000F7D300BF9EE710B5FFF77BFDFFF78EFD04
:102A1000FFF7BEFD0020FFF7D6FD0020FFF7F8FD11
:102A200010BD30B599B0002400254FF480513B48CB
:102A300002F0F8FB45B9FFF7ABFD6846FFF7E8FD8C
:102A4000FF20FFF7C0FD04E04FF48051334802F04F
:102A5000EBFB6846FFF7DCFD4FF480512F4802F096
:102A6000E1FB002404E06019C0B20DF80400641C0E
:102A7000B4F5806FF7DB4FF4806200216846FFF702
:102A8000D5FE4FF4806201216846FFF749FF19B077
:102A900030BD10B586B00024FFF797FC00BF33E0CF
:102AA000611CC8B2FFF718FCFFF77CFEC4EBC40141
:102AB0001B4A42F82100C4EBC400114651F8200023
:102AC000184988421FD1C4EBC40102EB8101081DE3
:102AD00015A129F0BCFB4FF40010C4EBC401104A4F
:102AE00002EB810148614FF40470C4EBC40102EBB6
:102AF0008101088301A8FFF78BFD9DF80400FF28E2
:102B000001D0FFF745FD641C042CC9DB06B010BDE5
:102B100014B6002024B8002034BA0020000002407F
:102B200044BC00200000261F415434354442313655
:102B30003100000010B54FF4A06001F041FC01F03D
:102B4000B1FA01F017F815F013F9124800F0A4FCDF
:102B5000114800F0A1FC00F077FE12F076F8FDF7C6
:102B600035FCFFF741FBFFF794FF41F267010920B5
:102B700000F066FC094802F04CFD094800F012F82C
:102B8000074800F043F9064800F080FA044800F0D6
:102B9000CDFC10BDED7B03086F7C0308B4BC0020A6
:102BA000008C0A0010B58AB004460121102002F002
:102BB0005BFE0121022002F0FDFD0722062187486D
:102BC00002F03FFB07221146844802F03AFB08A8B6
:102BD00002F0F4FA4020089002208DF824008DF8CD
:102BE000250008A97D4802F0A1FA80200890022063
:102BF0008DF824008DF8250008A9784802F096FA8F
:102C000004A805F07AF804940020ADF81400ADF89B
:102C10001600ADF81800ADF81C000C20ADF81A0035
:102C200004A96F4805F003F802A805F082F802A98C
:102C30006B4805F06EF8012240F22551684805F016
:102C400034F90121664805F07AF825208DF8040052
:102C500000208DF805008DF8060001208DF8070092
:102C600001A801F0B2FB0AB010BD70B505460C46D4
:102C70005C4805605C490C8000685C4908605A4803
:102C800000885B490880012240F22661544805F023
:102C90000CF970BD10B55548006852490860544899
:102CA000008851490880012240F226614C4805F015
:102CB000FCF810BD4F49087800214E4A117070474A
:102CC0004D4870474D480068704700204B490860E8
:102CD00070474B4870471E204A4908607047494872
:102CE0000068704747480068401E4649086008462B
:102CF000006870474348006850B142480068401E71
:102D0000404908600846006810B901203E49087033
:102D100070473D480078704700203B490870704775
:102D2000002036490860704710B500212C4805F096
:102D300006F8002240F22661294805F0B6F8002284
:102D400040F22551264805F0B0F810BD10B50AF044
:102D5000E7F840F22551224805F0E2F801280FD1AA
:102D6000FFF7B9FF1E4805F019F82349234A1268F6
:102D7000885422480088401CC0F308001F4908609E
:102D800040F22661164805F0CBF8012822D11648FA
:102D9000008878B9002240F22661114805F085F8D4
:102DA000012240F225510E4805F07FF8012011491B
:102DB00008700FE00B4800680178094804F0EAFF4A
:102DC00009480088401E0849088006480068401CE1
:102DD000044908600AF0B5F810BD00000004024084
:102DE00000100140200000202400002028000020C6
:102DF0002C0000202E000020C4BE0020380000203F
:102E0000C4BC0020300000203400002010B58AB07F
:102E100004460121480402F016FD0121084602F093
:102E2000C9FC072202218D4802F00BFA0722032178
:102E30008A4802F006FA08A802F0C0F904200890B7
:102E400002208DF824008DF8250008A9834802F09F
:102E50006DF90820089002208DF824008DF82500D7
:102E600008A97E4802F062F904A804F046FF049421
:102E70000020ADF81400ADF81600ADF81800ADF85C
:102E80001C000C20ADF81A0004A9754804F0CFFE10
:102E900002A804F04EFF02A9714804F03AFF012293
:102EA00040F225516E4805F000F801216C4804F00D
:102EB00046FF26208DF8040000208DF805008DF8CF
:102EC000060001208DF8070001A801F07EFA0AB083
:102ED00010BD70B505460C466248056062490C801D
:102EE00000686249086060480088614908800022E3
:102EF00040F225515A4804F0D8FF012240F22661E1
:102F0000574804F0D2FF70BD10B5584800685549C5
:102F100008605748008854490880002240F2255133
:102F20004F4804F0C2FF012240F226614C4804F0F1
:102F3000BCFF10BD4F49087800214E4A1170704700
:102F40004D4870474D480068704700204B49086065
:102F500070474B4870471E204A49086070474948EF
:102F60000068704747480068401E464908600846A8
:102F7000006870474348006850B142480068401EEE
:102F8000404908600846006810B901203E490870B1
:102F900070473D480078704700203B4908707047F3
:102FA000002036490860704710B500212C4804F015
:102FB000C6FE002240F22661294804F076FF002276
:102FC00040F22551264804F070FF10BD10B509F0FD
:102FD000A7FF40F22551224804F0A2FF01280FD19B
:102FE000FFF7B9FF1E4804F0D9FE2349234A1268AF
:102FF000885422480088401CC0F308001F4908601C
:1030000040F22661164804F08BFF012822D11648B1
:10301000008878B9002240F22661114804F045FF8B
:10302000012240F225510E4804F03FFF01201149D2
:1030300008700FE00B4800680178094804F0AAFE08
:1030400009480088401E0849088006480068401C5E
:103050000449086009F075FF10BD0000000002403F
:10306000004400403C0000204000002044000020BC
:10307000480000204A000020C4C200205400002064
:10308000C4C000204C0000205000002010B58AB0C1
:1030900004460121880402F0D6FB0121042002F03D
:1030A00089FB07220A218E4802F0CBF807220B2168
:1030B0008B4802F0C6F808A802F080F84FF4806050
:1030C000089002208DF824008DF8250008A9844876
:1030D00002F02CF84FF40060089002208DF82400D4
:1030E0008DF8250008A97E4802F020F804A804F015
:1030F00004FE04940020ADF81400ADF81600ADF8FD
:103100001800ADF81C000C20ADF81A0004A9754891
:1031100004F08DFD02A804F00CFE02A9714804F031
:10312000F8FD012240F225516E4804F0BEFE012157
:103130006C4804F004FE27208DF8040000208DF870
:1031400005008DF8060001208DF8070001A801F0A8
:103150003CF90AB010BD70B505460C4662480560E2
:1031600062490C80006862490860604800886149D3
:103170000880002240F225515A4804F096FE0122B0
:1031800040F22661574804F090FE70BD10B55848D3
:103190000068554908605748008854490880002253
:1031A00040F225514F4804F080FE012240F2266192
:1031B0004C4804F07AFE10BD4F49087800214E4A71
:1031C000117070474D4870474D48006870470020A7
:1031D0004B49086070474B4870471E204A490860B9
:1031E000704749480068704747480068401E464994
:1031F00008600846006870474348006850B142487C
:103200000068401E404908600846006810B9012067
:103210003E49087070473D480078704700203B49A0
:1032200008707047002036490860704710B50021CB
:103230002C4804F084FD002240F22661294804F065
:1032400034FE002240F22551264804F02EFE10BD27
:1032500010B509F065FE40F22551224804F060FEE9
:1032600001280FD1FFF7B9FF1E4804F097FD23494D
:10327000234A1268885422480088401CC0F3080082
:103280001F49086040F22661164804F049FE0128F3
:1032900022D11648008878B9002240F226611148F0
:1032A00004F003FE012240F225510E4804F0FDFD1A
:1032B0000120114908700FE00B48006801780948A7
:1032C00004F068FD09480088401E08490880064847
:1032D0000068401C0449086009F033FE10BD00007E
:1032E0000004024000480040580000205C0000201C
:1032F000600000206400002066000020C4C600209A
:1033000070000020C4C40020680000206C00002071
:1033100000B589B00121202002F0A6FA0121042085
:1033200002F048FA08220621434801F08AFF0822E9
:103330000721414801F085FF07A801F03FFF402029
:10334000079002208DF820008DF8210007A93A4847
:1033500001F0ECFE8020079002208DF820008DF80F
:10336000210007A9344801F0E1FE03A804F0C5FCE0
:103370004FF4E13003900020ADF81000ADF81200DA
:10338000ADF81400ADF818000C20ADF8160003A934
:103390002A4804F04CFC01A804F0CBFC01A9274802
:1033A00004F0B7FC012240F22551244804F07DFDD1
:1033B0000121224804F0C3FC09B000BD08B54FF458
:1033C000C06000F0FDFF47208DF8000000208DF860
:1033D00001008DF8020001208DF80300684600F01E
:1033E000F4FF08BD70B504460D460BE014F8011B50
:1033F000124804F0CFFC00BF8021104804F07AFD91
:103400000028F9D02800A5F10105EFD170BD10B555
:1034100009F086FD40F22551084804F081FD38B1DD
:10342000064804F0BBFC04462146044804F0B2FC04
:1034300009F087FD10BD00000008024000140140A3
:103440007FB504460D460121022002F0FCF9ADF8DB
:1034500004500020ADF806000294ADF80C0001A95C
:10346000304803F0D8FD012211462E4804F074FACA
:1034700001212C4803F058FE1D208DF8000001208A
:103480008DF8010003208DF8020001208DF8030063
:10349000684600F09AFF7FBD0246002100BF08E0A9
:1034A000214850F8210018B91F4840F8212002E0B7
:1034B000491C1429F4DB00BF142901D101207047F5
:1034C0000020FCE70246002100BF0AE0164850F841
:1034D0002100904204D10020134B43F8210002E068
:1034E000491C1429F2DB00BF142901D101207047C7
:1034F0000020FCE710B5002409F012FD00BF08E031
:10350000094850F8240018B1074951F824008047B1
:10351000641C142CF4DB0121024804F045FA09F084
:1035200010FD10BD00040040C4C8002010B58AB0D2
:1035300004460121C80402F086F90121084602F080
:1035400039F9082200218C4801F07BFE0822012174
:10355000894801F076FE08A801F030FE01200890AD
:1035600002208DF824008DF8250008A9824801F07A
:10357000DDFD022008908DF824008DF8250008A9B3
:103580007D4801F0D3FD04A804F0B7FB04940020AB
:10359000ADF81400ADF81600ADF81800ADF81C0039
:1035A0000C20ADF81A0004A9744804F040FB02A8EE
:1035B00004F0BFFB02A9714804F0ABFB012240F20A
:1035C00025516E4804F071FC01216C4804F0B7FBF2
:1035D00034208DF8040000208DF805008DF80600D9
:1035E00001208DF8070001A800F0EFFE0AB010BD21
:1035F00070B505460C466248056062490C8000685B
:10360000614908605F48008860490880002240F2F4
:1036100025515A4804F049FC012240F226615748DE
:1036200004F043FC70BD10B5574800685449086069
:103630005648008853490880002240F225514F48DF
:1036400004F033FC012240F226614C4804F02DFCCA
:1036500010BD4F49087800214D4A117070474D4800
:1036600070474D480068704700204B49086070471C
:103670004A4870471E204A49086070474848006819
:10368000704747480068401E454908600846006882
:1036900070474348006850B141480068401E4049A7
:1036A00008600846006810B901203E49087070475C
:1036B0003C480078704700203A4908707047002065
:1036C00035490860704710B500212C4804F037FBDD
:1036D000002240F22661294804F0E7FB002240F274
:1036E0002551264804F0E1FB10BD10B509F018FC87
:1036F00040F22551214804F013FC01280FD1FFF7B7
:10370000B9FF1E4804F04AFB2249234A1268885434
:1037100021480088401CC0F308001F49086040F29F
:103720002661164804F0FCFB012822D115480088C8
:1037300078B9002240F22661104804F0B6FB01225D
:1037400040F225510D4804F0B0FB012010490870EB
:103750000FE00B4800680178084804F01BFB09489B
:103760000088401E0749088005480068401C04493D
:10377000086009F0E6FB10BD00000240004C00406C
:1037800074000020780000207C00002080000020D1
:103790008200002014CB00208C00002014C90020DF
:1037A00084000020880000201CB50121880302F05D
:1037B0005BF80221012003F046FB042001F0C3F86E
:1037C0000420009000208DF8040010208DF80500E2
:1037D00001208DF80600684601F044F80B21052011
:1037E00003F031FB4FF4006001F0ADF84FF40060DE
:1037F000009000208DF804000C208DF805000120B9
:103800008DF80600684601F02DF81CBD08B50820AB
:103810008DF8000000208DF801008DF802000120D5
:103820008DF80300684600F0D0FD28208DF80000D8
:1038300000208DF801008DF8020001208DF80300B2
:10384000684600F0C2FD08BD1CB50121622001F0F0
:10385000B1FF0121102001F0ADFF03208DF805001C
:1038600001208DF8070000208DF806008DF8040077
:1038700001208DF80700C00200906946584801F009
:1038800055FC042000906946564801F04FFC20206A
:1038900000906946534801F049FC102000906946A9
:1038A000504801F043FC4FF40040009069464E48F8
:1038B00001F03CFC4FF40050009069464A4801F08A
:1038C00035FC4FF4807000906946464801F02EFCAC
:1038D000082000906946434801F028FC4FF48040DE
:1038E00000906946404801F021FC4FF48050009060
:1038F00069463D4801F01AFCFFF756FFFFF786FFC7
:1039000001208DF804008DF8070020200090694602
:10391000364801F00BFC2021344801F083FC4020A4
:1039200000906946314801F001FC40212F4801F028
:1039300079FC4FF4807000906946294801F0F6FB4D
:103940004FF48071264801F06FFC1CBD10B50420B7
:1039500000F0EEFF30B1042000F0F5FF0421214813
:1039600001F046FC10BD10B54FF4006000F0E0FF20
:1039700040B14FF4006000F0E6FF4FF400611848DA
:1039800001F036FC4FF4806000F0D2FF18B14FF424
:10399000806000F0D8FF4FF4805000F0C9FF18B1EC
:1039A0004FF4805000F0CFFF4FF4005000F0C0FF04
:1039B00018B14FF4005000F0C6FF4FF4804000F003
:1039C000B7FF18B14FF4804000F0BDFF4FF4004046
:1039D00000F0AEFF18B14FF4004000F0B4FF10BD8E
:1039E000001402400004024000180240001002408F
:1039F00000BF0100A0F10100FBD1704770B520208D
:103A000056494883002425E0402054494883E21762
:103A100004EB5272D210C2F10102514B9A5CE317CF
:103A200004EB5373DB10A4EBC30580232B411A4234
:103A300002D01020088302E01020484948830A2061
:103A4000FFF7D6FF4020454908830A20FFF7D0FF43
:103A5000601CC4B2102CD7DB20204049088370BD05
:103A60003F4A1154704701463D48405C704710B5CD
:103A7000FFF7C4FF10BD1FB5012140F2C11001F0D6
:103A800099FE00208DF80C008DF80E008DF80F00C7
:103A900002208DF80D000820029002A9314801F0A3
:103AA00045FB0420029002A92E4801F03FFB0220B2
:103AB000029002A92B4801F039FB0120029002A9D3
:103AC000284801F033FB01208DF80C0000208DF810
:103AD0000E008DF80F002020029002A91F4801F06F
:103AE00025FB4020029002A91C4801F01FFB10207A
:103AF000029002A9194801F019FB0420029002A9C2
:103B0000194801F013FB0121880301F0ADFE0821E3
:103B1000062003F098F94FF48070009000208DF893
:103B200004000C208DF8050001208DF80600684681
:103B300000F098FE1FBD0D4800680D49D1F808122D
:103B400040EA41000A49D1F8041240EA81000849DC
:103B5000D1F8001240EAC100C0B270470000024034
:103B60009000002000080240002002400C02414268
:103B7000000041421CB5012140F2FF1001F01AFE85
:103B80000121880301F070FE0C220021FE4801F0A3
:103B900058FB0C220121FC4801F053FB0C220221AE
:103BA000F94801F04EFB0C220321F74801F049FBD4
:103BB0000C220421F44801F044FB0C220521F248B8
:103BC00001F03FFB0C221146EF4801F03AFB0C22BA
:103BD0000D21ED4801F035FB0C220E21EA4801F0E1
:103BE00030FB0C220F21E84801F02BFB4FF23F0085
:103BF000009002208DF8040001208DF805000020BF
:103C00008DF8060001208DF807006946DE4801F0B6
:103C10008DFA0C220021DD4801F013FB0C2201215A
:103C2000DA4801F00EFB0C220221D84801F009FB12
:103C30000C220321D54801F004FB0C220421D348B7
:103C400001F0FFFA0C220521D04801F0FAFA3F20DA
:103C500000906946CD4801F069FA0C220B21CC484E
:103C600001F0EFFA0C221146C94801F0EAFA0C22E1
:103C70000D21C74801F0E5FA4FF460500090694605
:103C8000C34801F053FA0C220321C24801F0D9FACB
:103C90000C220421BF4801F0D4FA18200090694694
:103CA000BC4801F043FA0C220E21B94801F0C9FAD0
:103CB0000C220F21B64801F0C4FA0C220021B448AE
:103CC00001F0BFFA0C220121B14801F0BAFA4CF21E
:103CD000030000906946AE4801F028FA0C22072143
:103CE000AC4801F0AEFA0C220821AA4801F0A9FA6A
:103CF0000C220921A74801F0A4FA0C220A21A548A8
:103D000001F09FFA0C220B21A24801F09AFA0C2232
:103D10001146A04801F095FA0C220D219D4801F0B2
:103D200090FA0C220E219B4801F08BFA0C220F21F5
:103D3000984801F086FA4FF68070009069469548E1
:103D400001F0F4F90C220821914801F07AFA0C22D2
:103D500009218F4801F075FA0C220A218C4801F0E4
:103D600070FA4FF4E06000906946894801F0DEF98E
:103D70000C220721864801F064FA8020009001207F
:103D80008DF807006946824801F0D0F90C2209211C
:103D90007E4801F056FA4FF40070009001208DF833
:103DA00007006946794801F0C1F90C2204217848DE
:103DB00001F047FA0C220521754801F042FA302043
:103DC00000906946724801F0B1F94020009000204F
:103DD0008DF8040001208DF8060000208DF8070002
:103DE00069466B4801F0A2F94020009000208DF850
:103DF00004008DF807006946674801F097F9002034
:103E00008DF8040001208DF806008DF807008DF86C
:103E100005000F2000906946604801F087F90120F5
:103E20008DF8040000208DF806008DF80700702042
:103E300000906946584801F079F9042000906946DD
:103E4000574801F073F900208DF8040001208DF827
:103E500006008DF8070002208DF805008003009011
:103E600069464D4801F062F90820009069464C48C7
:103E700001F05CF90F21002002F0E5FF032108208A
:103E800002F0E1FF4FF40040009069463F4801F026
:103E90004DF9802000906946414801F047F907211B
:103EA000082002F0D0FF4020009069463C4801F015
:103EB0003DF90621082002F0C6FF4FF48060009013
:103EC0006946374801F032F90A21082002F0BBFFA9
:103ED0004FF4807000906946314801F027F90821BD
:103EE000084602F0B0FF4FF4C070009069462748C2
:103EF00001F01CF90821062002F0A5FF01208DF831
:103F0000040000208DF806008DF8070001208DF8D0
:103F100005004FF4E050009069461C4801F006F996
:103F20000120009069461C4801F000F94FF48060C0
:103F300000906946144801F0F9F810200090694695
:103F4000184801F0F3F80C220821144801F079F91F
:103F50000C220921114801F074F90C220A210F48A2
:103F600001F06FF90C220B210C4801F06AF90C22C8
:103F700011460A4801F065F90C220221044801F0BB
:103F800060F94FF470600FE0001402400018024026
:103F9000000C0240001002400000024000080240F5
:103FA00000200240001C0240009001208DF8050016
:103FB00002208DF8040000208DF8060001208DF805
:103FC00007006946694801F0B1F80420009069468D
:103FD000674801F0ABF84FF48050009001208DF855
:103FE00007006946614801F0A1F84FF400600090B5
:103FF00000208DF8040001208DF8070069465D4817
:1040000001F094F801208DF8040000208DF80600DE
:104010008DF8070001208DF805008020009069468A
:10402000544801F083F83020009069464F4801F071
:104030007DF82020009069464F4801F077F8032072
:10404000009069464D4801F071F84FF4006000900F
:1040500069464B4801F06AF800208DF804000420FE
:1040600000906946454801F061F801208DF807008D
:1040700000208DF804004020009069463B4801F084
:1040800055F880213B4801F0CDF81021374801F068
:10409000C9F82021354801F0C5F82021364801F043
:1040A000C1F81CBD00B59DB00121084601F0BAFB66
:1040B0000420079000200890099001200A90002019
:1040C0000B900C900D900420009000200190062091
:1040D0000290012003900020049005900690022099
:1040E0000E9000200F901090102011900020129040
:1040F00013901490159016904FF480501790002054
:10410000189019901A90CDF86CD007A81C900EA8A2
:1041100000F03EFC0121022000F0E2FC03200790A9
:10412000002008900220099001200A9000200B90A6
:104130000C900D900E900F90109011901290139083
:104140001490159016904FF48050179000201890FE
:1041500019901A9007A81B901C900EA800F018FC4C
:104160000121002000F0BCFC1DB000BD0008024091
:10417000000C024000000240001C0240000402400B
:10418000001402400B4880470B480047FEE7EFF35E
:10419000098000B5FCF705F85DF804EB4EF0040E5D
:1041A0007047FEE7FEE7FEE7FEE7FEE7FEE7FEE715
:1041B000FEE7000097420208890102080CB50020C2
:1041C000019000907348006840F4803071490860A5
:1041D00000BF7048006800F4003000900198401C57
:1041E0000190009818B90198B0F5A04FF1D1694835
:1041F000006810F4003F02D00120009001E0002090
:1042000000900098012845D162484030006840F095
:1042100080506049403108605F48006840F4404089
:104220005D4908605B48083000685A4908310860F9
:104230000846006840F4004008600846006840F402
:10424000A05008605548091F0860081F006840F02A
:104250008070091F086000BF4E48006810F0007FA2
:10426000FAD040F205704E4908604A4808300068AC
:1042700020F003004749083108600846006840F014
:104280000200086000BF43480830006800F00C00DE
:104290000828F8D10CBD10B54248006840F4700001
:1042A000404908603B48006840F001003949086017
:1042B0000020384908310860364800683A4908400B
:1042C000344908603948091D0860081F006820F457
:1042D0008020091F086000202E490C310860FFF77C
:1042E0006DFF10BD70B500200022022300240221C2
:1042F000284D08352D6805F00C0020B1042806D0A3
:10430000082834D107E02A4D2A4E356033E02A4D83
:10431000284E35602FE01F4D2D1D2D68C5F38054AC
:104320001C4D2D1D2D6805F03F0154B1224DB5FBEC
:10433000F1F5184E361D3668C6F3881605FB06F2F1
:1043400009E01B4DB5FBF1F5124E361D3668C6F37C
:10435000881605FB06F20F4D2D1D2D68C5F301458E
:104360006D1C6B00B2FBF3F5124E356003E0104D8F
:10437000104E356000BF00BF064D08352D68C5F3EF
:1043800003150E4E705D0B4D2D68C540094E35600E
:1043900070BD000000380240007000401954400712
:1043A000003C024088ED00E0FFFFF6FE10300024E4
:1043B0000024F4009400002040787D019800002043
:1043C00033490143334A1160704770B5002100231F
:1043D0000F22C47824B32F4C246804F4E064C4F59D
:1043E000E064C4F30721C1F10404E3B20A41447854
:1043F0009C40E1B28478144021430C07210E264CE6
:1044000005786155047804F01F050124AC40057857
:104410006D114FF0E02606EB8505C5F8004109E077
:10442000047804F01F040125A5401C4C0678761181
:1044300044F8265070BD1A4A0A400243154B1B1F10
:104440001A60704739B1134A121D12680243114BAA
:104450001B1D1A6006E00F4A121D126882430D4BA5
:104460001B1D1A607047042808D14FF0E02109692C
:1044700041F004014FF0E022116107E04FF0E0212C
:10448000096921F004014FF0E0221161704700003A
:104490000000FA050CED00E000E400E080E100E03F
:1044A00080FFFF1F016821F0010101600021016010
:1044B00041608160C160016121214161DA49884226
:1044C00004D13D21D84A103A91608CE0D649183188
:1044D000884205D14FF47461D34A103A916082E06A
:1044E000D1493031884205D14FF47411CE4A103A87
:1044F000916078E0CC494831884205D14FF0746131
:10450000C94A103A91606EE0C7496031884204D1CF
:10451000C649C54A103AD16065E0C349783188423E
:1045200004D1C349C04A103AD1605CE0BE49903121
:10453000884204D1BF49BC4A103AD16053E0BA491D
:10454000A831884205D14FF03D51B74A103AD160A9
:1045500049E0B949884204D13D21B74A083A11607F
:1045600041E0B5491831884205D14FF47461B24A2F
:10457000083A116037E0B0493031884205D14FF434
:104580007411AD4A083A11602DE0AB4948318842B8
:1045900005D14FF07461A84A083A116023E0A6499A
:1045A0006031884204D1A149A34A121F11601AE068
:1045B000A1497831884204D19D499F4A121F116058
:1045C00011E09D499031884204D19A499A4A121FBC
:1045D000116008E09849A831884204D14FF03D515C
:1045E000954A121F1160704710B500220268934B64
:1045F0001A40CC680B6823434C6923438C692343DE
:10460000CC6923430C6A23434C6A23438C6A2343BB
:104610004C6B23438C6B23431A430260426922F0A4
:104620000702D1E90B3423431A4342610B6943600B
:104630004B6883608B68C36010BD002101604160DE
:104640008160C160016141618161C161016241625A
:104650008162C162016341638163704721B1026875
:1046600042F00102026003E0026822F001020260EF
:10467000704721B1026842F40042026003E0026820
:1046800022F400420260704721B1026842F0200229
:10469000026003E0026822F020020260704741607D
:1046A00070470146486880B2704722B1036843F4FE
:1046B0000023036003E0036823F400230360016127
:1046C000704721B1026842F48022026003E0026870
:1046D00022F48022026070470AB1016100E0C160EB
:1046E0007047014600200A6812F4002F01D0012013
:1046F00000E000207047014600200A6812F0010F18
:1047000001D0012000E000207047014600204A69E6
:1047100002F03800704730B503460A4600200024F6
:10472000454DAB4202D24049103901E042491039AF
:1047300012F0005F01D04C6800E00C68404D2C4046
:10474000144201D0012000E0002030BD02463A4B67
:104750009A4202D23448103801E03748103811F03C
:10476000005F03D0364B0B40C36002E0344B0B407C
:104770008360704710B511F0800F09D022B14369F2
:1047800043F08003436103E0436923F08003436106
:1047900080290BD02AB1036801F01E042343036073
:1047A00004E0036801F01E04A343036010BD70B56C
:1047B00002460020002400251F4EB24202D21A4BAE
:1047C000103B01E01C4B103B1E4E314206D01E2612
:1047D00006EAD124166806EA040502E0566906F0E6
:1047E000800511F0005F01D05C6800E01C68144E89
:1047F00034400C4202D00DB1012000E0002070BD19
:1048000002460D4B9A4202D20748103801E00A488E
:10481000103811F0005F03D0094B0B40C36002E079
:10482000074B0B4083607047106002403D00002042
:10483000400F002000003D20106402403F801CF02B
:104840007D0F7D0F3C0F3C0F002041490860091D82
:104850000860091D0860091D08603E483C49143184
:104860000860704700213A498279002A3AD00A4606
:10487000126803689A430B461A600A1D126803689F
:104880009A430B1D1A60027911440A6803681A439F
:104890000A602F4A0832126803689A432C4B083387
:1048A0001A601A1D126803689A43294B0C331A6068
:1048B0004279102A0ED11A1F126803681A43244B3A
:1048C00008331A601A1D126803681A43204B0C3310
:1048D0001A600DE01E49427911440A6803681A43C0
:1048E0000A6005E0027911440A6803689A430A6085
:1048F00070470021016001710C214171002181711B
:1049000070471349103109680143114A1032116090
:104910007047014600200E4A143212680A4201D044
:10492000012000E0002070470949143108607047F9
:1049300001460020064A143212680A4201D00120C2
:1049400000E0002070470249143108607047000001
:10495000003C0140FFFF7F0030B943F2DB014FF024
:10496000204242F8201005E043F2D2014FF02042ED
:1049700042F820106FF07042411C4FF0204343F882
:10498000212011461A4602EB8002C2F8041170473A
:1049900070B50021002200234FF02045046855F82F
:1049A0002410FE4C2140D0E901452C43C5682C431E
:1049B00005692C4345692C4385692C43C5692C4303
:1049C000056A2C43456A2C43856A2C43C56A2C43EF
:1049D000056B2C4321434FF02045046845F8241013
:1049E0008468082C09D1046855F8244044F0400438
:1049F0004FF02046056846F825400468641C4FF0D7
:104A0000204555F8242002F04042446B2468456B51
:104A10006D6844EA0514456BAD6844EA0524456BAE
:104A2000AD8944EA0544456B2D8A44EA0554456B3B
:104A30002D7D44EA0564456BAD692C43224304682F
:104A4000641C4FF0204545F82420C46AB4F5804F1B
:104A500024D1046805EB8404D4F8043103F0404306
:104A6000846B2468856B6D6844EA0514856BAD68BA
:104A700044EA0524856B2D8A44EA0554856B2D7D17
:104A800044EA0564856BAD692C4323434FF0204510
:104A9000046805EB8404C4F8043108E06FF0704446
:104AA0004FF02046056806EB8505C5F8044170BD4A
:104AB000002101600221416000218160C16001612B
:104AC00041618161C16101624FF4805141624900DD
:104AD00081620021C1620163B14941638163704712
:104AE00051B14FF0204252F8202042F001024FF025
:104AF000204343F8202009E04FF0204252F82020C4
:104B0000A84B1A404FF0204343F82020704710284C
:104B10000AD118214FF020421166402151664FF012
:104B2000FC319166D16610E018219F4A11604FF068
:104B300040014FF02042C2F884104FF0FC319B4AF4
:104B400011604FF02042C2F88C10704730B5002140
:104B5000002200230468102C03D14FF02044216E62
:104B600001E0914C2168924C01EA0401446844F050
:104B70000804856844EA0504C56844EA0504056933
:104B800044EA0504456944EA4524856944EA453414
:104B900044EA01010468102C03D14FF02044A26EB6
:104BA00001E0824C22684FF00002C4692468C569A4
:104BB0006D6844EA0524C5692D8944EA0544C56940
:104BC0002D7B44EA056444EA02020468102C03D1F8
:104BD0004FF02044E36E02E04FF02044E36E0023E8
:104BE000046A2468056A6D6844EA0524056A2D890B
:104BF00044EA0544056A2D7B44EA056423430468BE
:104C0000102C05D14FF020442166A266E36607E030
:104C1000654C21604FF02044C4F88820654C236027
:104C200030BD10210160002141608160C1600161DF
:104C300041618161FC21C2691160C2695160C26930
:104C40009160C269D160026A1160026A5160026AB1
:104C50009160026AD160704799B1102808D14FF075
:104C60002042126E42F004024FF020431A661DE00B
:104C70004D4A126842F004024FF02043C3F88020EE
:104C800014E0102809D14FF02042126E454BDB1E74
:104C90001A404FF020431A6608E0434A1268464B18
:104CA00002EA03024FF02043C3F88020704799B115
:104CB000102808D14FF02042126E42F040024FF00F
:104CC00020431A661DE0384A126842F040024FF055
:104CD0002043C3F8802014E0102809D14FF020426F
:104CE000126E354B3C3B1A404FF020431A6608E0E9
:104CF0002D4A1268314B02EA03024FF02043C3F8F9
:104D00008020704701460020102903D14FF0204237
:104D1000506F01E02A4A106870471820294908603E
:104D20004FF000004FF02041C1F8A4004FF0FC30DC
:104D30002549086001F10401086001F104010860DF
:104D4000704770B500210022002300241D4D296802
:104D50001E4D01EA0501056845F01005466845EA63
:104D60004625866845EA463545EA01014FF020456B
:104D7000C5F8A010144D2A681A46C5682D68C66883
:104D8000766845EA0625C668368945EA0645C66856
:104D9000367B45EA066545EA020219E08000F7FF26
:104DA000AC880608FEFF0F00800000A0880000A06D
:104DB0008101F0FF8C0000A0FBFF0F00BFFF0F0080
:104DC000940000A0A00000A0A80000A0CD01FEFF5C
:104DD0004FF02045C5F8A8208B4D2B682346056968
:104DE0002D680669766845EA06250669368945EA2A
:104DF00006450669367B45EA066545EA03034FF03A
:104E00002045C5F8AC30814D2C684FF00004456951
:104E10002D684669766845EA06254669368945EA79
:104E200006454669367B45EA066545EA04044FF0C7
:104E30002045C5F8B04070BD00210160416081602F
:104E4000FC21C2681160C2685160C2689160C2688A
:104E5000D160026911600269516002699160026962
:104E6000D160426911604269516042699160426952
:104E7000D160704740B16649096841F004014FF0C4
:104E80002042C2F8A01008E061490968614A01EABD
:104E900002014FF02042C2F8A010704710B5F2B1E5
:104EA000102807D14FF020435B6E0B434FF0204496
:104EB000636632E0B0F5807F08D1574B1B6843EA48
:104EC00001034FF02044C4F8843026E0534B1B68A4
:104ED00043EA01034FF02044C4F8A4301DE0102839
:104EE00007D14FF020435B6E8B434FF02044636645
:104EF00013E0B0F5807F08D1474B1B6823EA01031C
:104F00004FF02044C4F8843007E0444B1B6823EA88
:104F100001034FF02044C4F8A43010BD10B5024680
:104F200000200023102A03D14FF02044636E07E0D5
:104F3000B2F5807F02D1384C236801E0374C2368FA
:104F40000B4201D0012000E0002010BD102807D145
:104F50004FF02042526E8A434FF020435A6613E0CE
:104F6000B0F5807F08D12C4A126822EA01024FF086
:104F70002043C3F8842007E0284A126822EA01028D
:104F80004FF02043C3F8A420704770B502460020BC
:104F9000002300240025102A03D14FF02046736E11
:104FA00007E0B2F5807F02D11B4E336801E01B4E53
:104FB000336803EA010403EAD10514B10DB10120FD
:104FC00000E0002070BD102808D14FF02042526E42
:104FD00022EAD1024FF020435A6613E0B0F5807FF9
:104FE00008D10D4A126822EAD1024FF02043C3F8DB
:104FF000842007E0094A126822EAD1024FF02043D8
:10500000C3F8A42070470000AC0000A0B00000A0CE
:10501000A00000A0FBFF0F00840000A0A40000A0DF
:1050200010B504469848844208D10121084600F092
:105030002CFC0021012000F028FC76E093488442FB
:1050400008D10121022000F020FC0021022000F004
:105050001CFC6AE08E48844208D10121042000F043
:1050600014FC0021042000F010FC5EE0894884421A
:1050700008D10121082000F008FC0021082000F0E0
:1050800004FC52E08448844208D10121102000F041
:10509000FCFB0021102000F0F8FB46E07F48844232
:1050A00008D10121202000F0F0FB0021202000F099
:1050B000ECFB3AE07A48844208D10121402000F01C
:1050C000E4FB0021402000F0E0FB2EE07548844224
:1050D00008D10121802000F0D8FB0021802000F0C1
:1050E000D4FB22E07048844208D10121801500F0F1
:1050F000CCFB0021A01500F0C8FB16E06B488442F1
:1051000008D10121401500F0C0FB0021601500F01E
:10511000BCFB0AE06648844207D10121001500F07B
:10512000B4FB0021201500F0B0FB10BDF0B50A461D
:1051300000210023002400BF3DE0012505FA01F312
:10514000156805EA03049C4234D105684F00032624
:10515000BE40B543056015794E00B540066835433D
:1051600005601579012D02D01579022D16D18568BB
:105170004F000326BE40B543856055794E00B540CB
:10518000866835438560456801268E40B543456095
:10519000456896798E40B6B235434560C5684F0084
:1051A0000326BE40B543C560D5794E00B540C668FC
:1051B0003543C560491C1029BFD3F0BD4FF6FF71C0
:1051C00001600021017141718171C171704708B5A1
:1051D0004FF480320092009A0A430092009AC26112
:1051E000C161009AC261C2690092C269009208BDA1
:1051F0000246002013690B4201D0012000E000208C
:1052000070470146086980B2704702460020536922
:105210000B4201D0012000E00020704701464869A0
:1052200080B2704701837047418370470AB10183A0
:1052300000E0418370474161704742694A404261E2
:105240007047F0B5002300244D07ED0E02FA05F378
:10525000CE1000F1200555F826504E07F70E0F2608
:10526000BE40B543CF1000F1200646F82750CE10BF
:1052700000F1200555F8265045EA0304CE1000F150
:10528000200545F82640F0BD000002400004024021
:1052900000080240000C02400010024000140240CE
:1052A00000180240001C024000200240002402407E
:1052B0000028024010B50121080700F019FB002169
:1052C0004FF0805000F014FB10BD48490862704751
:1052D00001460020464A106820F0E00008431060B4
:1052E0007047424908617047424908607047424927
:1052F00008607047014600203D4A106820F4404095
:10530000084310607047394908647047374948645A
:10531000704730B13649096841F44021344A116080
:1053200005E03349096821F44021314A1160704792
:105330002E494862704710B5024600202C4B186871
:1053400040F6034398431043294B18602B4B1B68CE
:1053500043F00403294C2360012901D130BF00E050
:1053600020BF264B1B6823F00403244C236010BD90
:1053700010B5024600201E4B186840F603439843C0
:1053800010431B4B18601D4B1B6843F004031B4C60
:105390002360012901D130BF00E020BF174B1B68FB
:1053A00023F00403154C236010BD1148006840F041
:1053B00002000F4908601148006840F004000F49DE
:1053C000086000BF00BF30BF704701460020084A98
:1053D00052680A4201D0012000E0002070470449D1
:1053E000096841EA8001024A1160704700000E42DC
:1053F00000700040A0000E42A4000E4210ED00E03C
:10540000F948006840F00100F74908600020F649BB
:1054100008310860F4480068F4490840F24908601F
:10542000F348091D0860F348EF4984310860F048EB
:105430001038091D0860EC48006820F48020EA4913
:1054400008600020E8490C310860E7498C310860A9
:1054500070470021E44A921C117011460870704791
:1054600010B501460022002300204A11012A02D172
:10547000DD4C236808E0022A03D1DB4C703423683A
:1054800002E0D94C7434236801F01F0201249440D7
:105490001C4201D0012000E0002010BD38B50020E2
:1054A00000900024002500BF3120FFF7D9FF0546FA
:1054B0000098401C00900098B0F5A04F01D0002D3E
:1054C000F2D03120FFF7CCFF08B1012400E0002426
:1054D000204638BD01460020C34A106820F0F8007D
:1054E00040EAC10010607047C3490860704700215E
:1054F000BD4A703211701170012802D004280AD1FF
:1055000004E00121B84A7032117005E00521B64A65
:105510007032117000E000BF00BF7047B7490860EB
:10552000704770B5049C41EA82150126C6EB53060C
:1055300045EA0645054345EA0465AB4E361D356030
:1055400070BDAD4908667047820142EA0172A64B00
:1055500084331A607047A8498866704710B5830184
:1055600043EA016343EA02739F4C8834236010BD11
:10557000A14908677047A049C864704702460020E7
:10558000994B0833186820F0EC6042EA0103184395
:10559000954B08331860704702460020924B083341
:1055A000186820F0784042EA010318438E4B083314
:1055B00018607047014600208B4A0832106820F0BE
:1055C000030008431060704787480830006800F007
:1055D0000C00704701460020834A0832106820F012
:1055E000F000084310607047014600207E4A0832F0
:1055F000106820F4E0500843106070470146002016
:10560000794A0832106820F4604040EAC100106016
:105610007047F0B500210022002402250026022355
:10562000714F08373F6807F00C0121B1042905D0FC
:10563000082937D105E0724F076036E0714F0760E7
:1056400033E0694F3F1D3F68C7F38056664F3F1DEB
:105650003F6807F03F036EB16A4FB7FBF3F7DFF81F
:1056600088C10CF1040CDCF800C0CCF3881C07FBEB
:105670000CF40CE0624FB7FBF3F7DFF86CC10CF1F0
:10568000040CDCF800C0CCF3881C07FB0CF4564F6C
:105690003F1D3F68C7F301477F1C7D00B4FBF5F752
:1056A000076002E0564F076000BF00BF4E4F08374B
:1056B0003F6807F0F0010909534F7A5C0768D7404B
:1056C0004760494F08373F6807F4E051890A4E4F59
:1056D0007A5C4768D7408760434F08373F6807F4D4
:1056E0006041490B484F7A5C4768D740C760F0BDBE
:1056F000002100F44072B2F5407F0AD13A4A0832E4
:10570000116821F4F811414A02401143364A083227
:105710001160354A70321268C0F30B031A43324BE2
:1057200070331A607047354944390860704733490F
:1057300040390860704736490860704701460020CC
:10574000294A8C32106820F44010084310607047DA
:1057500001460020244A8C32106820F4400008439F
:1057600010607047014600201F4A8C32106820F0FC
:105770001F004A1E10431C4A8C32106070470146BD
:105780000020194A8C32106820F4F8504A1E40EA72
:105790000220154A8C321060704701460020124AE0
:1057A0008C32106820F4403008431060704719496B
:1057B0000860704739B10C4A3032126802430A4B14
:1057C00030331A6006E0084A303212688243064BD2
:1057D00030331A607047F9B1034A34321268024319
:1057E000014B34331A601CE000380240FFFFF6EA38
:1057F000103000240030002000004742800E474255
:105800000024F40040787D01A8000020FFFCFF0F79
:105810005C014742E01147428F4A126882438E4B37
:105820001A60704739B18C4A121D126802438A4BC4
:105830001B1D1A6006E0884A121D12688243864BBF
:105840001B1D1A60704739B1834A0C32126802433B
:10585000814B0C331A6006E07F4A0C321268824397
:105860007D4B0C331A60704739B17B4A1032126895
:105870000243794B10331A6006E0774A10321268FF
:105880008243754B10331A60704739B1724A243A1B
:1058900012680243704B243B1A6006E06E4A243AB9
:1058A000126882436C4B243B1A60704739B16A4AD4
:1058B000203A12680243684B203B1A6006E0664AB1
:1058C000203A12688243644B203B1A60704739B11A
:1058D000614A1C3A126802435F4B1C3B1A6006E0A7
:1058E0005D4A1C3A126882435B4B1C3B1A6070474E
:1058F00039B1594A143A12680243574B143B1A60A3
:1059000006E0554A143A12688243534B143B1A601E
:10591000704739B1504A103A126802434E4B103B5F
:105920001A6006E04C4A103A126882434A4B103B18
:105930001A60704739B1484A1C3212680243464B1C
:105940001C331A6006E0444A1C3212688243424B00
:105950001C331A60704739B13F4A20321268024343
:105960003D4B20331A6006E03B4A203212688243E6
:10597000394B20331A60704739B1374A24321268E4
:105980000243354B24331A6006E0334A243212684E
:105990008243314B24331A60704739B12E4A2C327E
:1059A000126802432C4B2C331A6006E02A4A2C3230
:1059B00012688243284B2C331A60704739B1264A4B
:1059C000303212680243244B30331A6006E0224A18
:1059D000303212688243204B30331A6070470128FE
:1059E00008D11D493C31096841F008011A4A3C328E
:1059F000116007E018493C31096821F00801164A96
:105A00003C321160704739B1134A273A1278024389
:105A1000114B273B1A7006E00F4A273A127882434F
:105A20000D4B273B1A7070470B484030006840F020
:105A30008070094940310860704701460020064ADD
:105A4000283A12680A4201D0012000E00020704785
:105A500001492639087070473438024008B50022E1
:105A6000009200200021CA22F94B1A6053221A60CA
:105A7000F74A183A126822F0A002F54B183B1A6058
:105A800000BFF34A183A126802F02001009A521C33
:105A90000092009AB2F5003F01D00029F1D0EC4A03
:105AA000183A126812F0200F01D0012000E0002007
:105AB000FF22E74B1A6008BD08B5002200920020C3
:105AC0000021E34A183A126812F0400F1CD1421E1E
:105AD000DF4B183B1A6000BFDD4A183A126802F02B
